{
	"contracts/IDO.sol": {
		"IDO": {
			"abi": [
				{
					"anonymous": false,
					"inputs": [
						{
							"indexed": true,
							"internalType": "address",
							"name": "user",
							"type": "address"
						},
						{
							"indexed": false,
							"internalType": "uint256",
							"name": "amount",
							"type": "uint256"
						}
					],
					"name": "DOIDO",
					"type": "event"
				},
				{
					"anonymous": false,
					"inputs": [
						{
							"indexed": true,
							"internalType": "address",
							"name": "user",
							"type": "address"
						},
						{
							"indexed": false,
							"internalType": "uint256",
							"name": "amount",
							"type": "uint256"
						}
					],
					"name": "doHarvestcoffee",
					"type": "event"
				},
				{
					"anonymous": false,
					"inputs": [
						{
							"indexed": true,
							"internalType": "address",
							"name": "user",
							"type": "address"
						},
						{
							"indexed": false,
							"internalType": "uint256",
							"name": "amount",
							"type": "uint256"
						}
					],
					"name": "doHarvestusdt",
					"type": "event"
				},
				{
					"inputs": [],
					"name": "coffee",
					"outputs": [
						{
							"internalType": "contract ICoffee",
							"name": "",
							"type": "address"
						}
					],
					"stateMutability": "view",
					"type": "function"
				},
				{
					"inputs": [
						{
							"internalType": "uint256",
							"name": "_amount",
							"type": "uint256"
						}
					],
					"name": "doIDO",
					"outputs": [],
					"stateMutability": "nonpayable",
					"type": "function"
				},
				{
					"inputs": [],
					"name": "harvestCoffee",
					"outputs": [],
					"stateMutability": "nonpayable",
					"type": "function"
				},
				{
					"inputs": [],
					"name": "harvestUSDT",
					"outputs": [],
					"stateMutability": "nonpayable",
					"type": "function"
				},
				{
					"inputs": [
						{
							"internalType": "contract ICoffee",
							"name": "_coffee",
							"type": "address"
						},
						{
							"internalType": "contract IERC20",
							"name": "_usdt",
							"type": "address"
						},
						{
							"internalType": "address",
							"name": "_developTeam",
							"type": "address"
						}
					],
					"name": "initialize",
					"outputs": [],
					"stateMutability": "nonpayable",
					"type": "function"
				},
				{
					"inputs": [],
					"name": "pending",
					"outputs": [
						{
							"internalType": "uint256",
							"name": "userTotalIDO",
							"type": "uint256"
						},
						{
							"internalType": "uint256",
							"name": "userTotalReward",
							"type": "uint256"
						},
						{
							"internalType": "uint256",
							"name": "userTotalPromote",
							"type": "uint256"
						},
						{
							"internalType": "uint256",
							"name": "userTotalPromoteAndIDO",
							"type": "uint256"
						},
						{
							"internalType": "uint256",
							"name": "userUSDTReward",
							"type": "uint256"
						}
					],
					"stateMutability": "view",
					"type": "function"
				},
				{
					"inputs": [
						{
							"internalType": "address",
							"name": "_user",
							"type": "address"
						}
					],
					"name": "pendingUser",
					"outputs": [
						{
							"components": [
								{
									"internalType": "uint256",
									"name": "userTotalIDO",
									"type": "uint256"
								},
								{
									"internalType": "uint256",
									"name": "userTotalReward",
									"type": "uint256"
								},
								{
									"internalType": "uint256",
									"name": "userTotalPromote",
									"type": "uint256"
								},
								{
									"internalType": "uint256",
									"name": "userTotalPromoteAndIDO",
									"type": "uint256"
								},
								{
									"internalType": "uint256",
									"name": "userUSDTReward",
									"type": "uint256"
								}
							],
							"internalType": "struct IDO.PENDING",
							"name": "",
							"type": "tuple"
						}
					],
					"stateMutability": "nonpayable",
					"type": "function"
				},
				{
					"inputs": [
						{
							"internalType": "contract ICoffee",
							"name": "_coffee",
							"type": "address"
						}
					],
					"name": "updatecoffee",
					"outputs": [],
					"stateMutability": "nonpayable",
					"type": "function"
				},
				{
					"inputs": [
						{
							"internalType": "address",
							"name": "_developTeam",
							"type": "address"
						}
					],
					"name": "updatedevelopTeam",
					"outputs": [],
					"stateMutability": "nonpayable",
					"type": "function"
				},
				{
					"inputs": [
						{
							"internalType": "uint256",
							"name": "_idoRewardRatio",
							"type": "uint256"
						}
					],
					"name": "updateidoRewardRatio",
					"outputs": [],
					"stateMutability": "nonpayable",
					"type": "function"
				},
				{
					"inputs": [
						{
							"internalType": "contract IERC20",
							"name": "_usdt",
							"type": "address"
						}
					],
					"name": "updateusdt",
					"outputs": [],
					"stateMutability": "nonpayable",
					"type": "function"
				},
				{
					"inputs": [],
					"name": "usdt",
					"outputs": [
						{
							"internalType": "contract IERC20",
							"name": "",
							"type": "address"
						}
					],
					"stateMutability": "view",
					"type": "function"
				}
			],
			"devdoc": {
				"kind": "dev",
				"methods": {},
				"version": 1
			},
			"evm": {
				"assembly": "    /* \"contracts/IDO.sol\":10842:14980  contract IDO is Initializable {... */\n  mstore(0x40, 0x80)\n  callvalue\n  dup1\n  iszero\n  tag_1\n  jumpi\n  0x00\n  dup1\n  revert\ntag_1:\n  pop\n  dataSize(sub_0)\n  dup1\n  dataOffset(sub_0)\n  0x00\n  codecopy\n  0x00\n  return\nstop\n\nsub_0: assembly {\n        /* \"contracts/IDO.sol\":10842:14980  contract IDO is Initializable {... */\n      mstore(0x40, 0x80)\n      callvalue\n      dup1\n      iszero\n      tag_1\n      jumpi\n      0x00\n      dup1\n      revert\n    tag_1:\n      pop\n      jumpi(tag_2, lt(calldatasize, 0x04))\n      shr(0xe0, calldataload(0x00))\n      dup1\n      0x88bb111d\n      gt\n      tag_15\n      jumpi\n      dup1\n      0x88bb111d\n      eq\n      tag_9\n      jumpi\n      dup1\n      0x8dd81210\n      eq\n      tag_10\n      jumpi\n      dup1\n      0xa1333917\n      eq\n      tag_11\n      jumpi\n      dup1\n      0xc0c53b8b\n      eq\n      tag_12\n      jumpi\n      dup1\n      0xe20ccec3\n      eq\n      tag_13\n      jumpi\n      dup1\n      0xf1765de7\n      eq\n      tag_14\n      jumpi\n      jump(tag_2)\n    tag_15:\n      dup1\n      0x2f48ab7d\n      eq\n      tag_3\n      jumpi\n      dup1\n      0x4f38c5f5\n      eq\n      tag_4\n      jumpi\n      dup1\n      0x6440c6d8\n      eq\n      tag_5\n      jumpi\n      dup1\n      0x69a01fc8\n      eq\n      tag_6\n      jumpi\n      dup1\n      0x6ce41354\n      eq\n      tag_7\n      jumpi\n      dup1\n      0x800851d6\n      eq\n      tag_8\n      jumpi\n    tag_2:\n      0x00\n      dup1\n      revert\n        /* \"contracts/IDO.sol\":11608:11626  IERC20 public usdt */\n    tag_3:\n      tag_16\n      tag_17\n      jump\t// in\n    tag_16:\n      mload(0x40)\n      tag_18\n      swap2\n      swap1\n      tag_19\n      jump\t// in\n    tag_18:\n      mload(0x40)\n      dup1\n      swap2\n      sub\n      swap1\n      return\n        /* \"contracts/IDO.sol\":12450:12578  function updatecoffee(ICoffee _coffee) public {... */\n    tag_4:\n      tag_20\n      0x04\n      dup1\n      calldatasize\n      sub\n      dup2\n      add\n      swap1\n      tag_21\n      swap2\n      swap1\n      tag_22\n      jump\t// in\n    tag_21:\n      tag_23\n      jump\t// in\n    tag_20:\n      stop\n        /* \"contracts/IDO.sol\":11581:11602  ICoffee public coffee */\n    tag_5:\n      tag_24\n      tag_25\n      jump\t// in\n    tag_24:\n      mload(0x40)\n      tag_26\n      swap2\n      swap1\n      tag_27\n      jump\t// in\n    tag_26:\n      mload(0x40)\n      dup1\n      swap2\n      sub\n      swap1\n      return\n        /* \"contracts/IDO.sol\":12297:12445  function updatedevelopTeam(address _developTeam) public {... */\n    tag_6:\n      tag_28\n      0x04\n      dup1\n      calldatasize\n      sub\n      dup2\n      add\n      swap1\n      tag_29\n      swap2\n      swap1\n      tag_30\n      jump\t// in\n    tag_29:\n      tag_31\n      jump\t// in\n    tag_28:\n      stop\n        /* \"contracts/IDO.sol\":12135:12292  function updateidoRewardRatio(uint _idoRewardRatio) public {... */\n    tag_7:\n      tag_32\n      0x04\n      dup1\n      calldatasize\n      sub\n      dup2\n      add\n      swap1\n      tag_33\n      swap2\n      swap1\n      tag_34\n      jump\t// in\n    tag_33:\n      tag_35\n      jump\t// in\n    tag_32:\n      stop\n        /* \"contracts/IDO.sol\":14635:14978  function harvestUSDT() public{... */\n    tag_8:\n      tag_36\n      tag_37\n      jump\t// in\n    tag_36:\n      stop\n        /* \"contracts/IDO.sol\":14363:14629  function harvestCoffee() public{... */\n    tag_9:\n      tag_38\n      tag_39\n      jump\t// in\n    tag_38:\n      stop\n        /* \"contracts/IDO.sol\":13827:14357  function pendingUser(address _user) external returns(PENDING memory){... */\n    tag_10:\n      tag_40\n      0x04\n      dup1\n      calldatasize\n      sub\n      dup2\n      add\n      swap1\n      tag_41\n      swap2\n      swap1\n      tag_30\n      jump\t// in\n    tag_41:\n      tag_42\n      jump\t// in\n    tag_40:\n      mload(0x40)\n      tag_43\n      swap2\n      swap1\n      tag_44\n      jump\t// in\n    tag_43:\n      mload(0x40)\n      dup1\n      swap2\n      sub\n      swap1\n      return\n        /* \"contracts/IDO.sol\":12583:12702  function updateusdt(IERC20 _usdt) public {... */\n    tag_11:\n      tag_45\n      0x04\n      dup1\n      calldatasize\n      sub\n      dup2\n      add\n      swap1\n      tag_46\n      swap2\n      swap1\n      tag_47\n      jump\t// in\n    tag_46:\n      tag_48\n      jump\t// in\n    tag_45:\n      stop\n        /* \"contracts/IDO.sol\":11893:12129  function initialize(ICoffee _coffee,IERC20 _usdt,address _developTeam) public initializer{... */\n    tag_12:\n      tag_49\n      0x04\n      dup1\n      calldatasize\n      sub\n      dup2\n      add\n      swap1\n      tag_50\n      swap2\n      swap1\n      tag_51\n      jump\t// in\n    tag_50:\n      tag_52\n      jump\t// in\n    tag_49:\n      stop\n        /* \"contracts/IDO.sol\":11509:11531  PENDING public pending */\n    tag_13:\n      tag_53\n      tag_54\n      jump\t// in\n    tag_53:\n      mload(0x40)\n      tag_55\n      swap6\n      swap5\n      swap4\n      swap3\n      swap2\n      swap1\n      tag_56\n      jump\t// in\n    tag_55:\n      mload(0x40)\n      dup1\n      swap2\n      sub\n      swap1\n      return\n        /* \"contracts/IDO.sol\":12708:13821  function doIDO(uint _amount) public {... */\n    tag_14:\n      tag_57\n      0x04\n      dup1\n      calldatasize\n      sub\n      dup2\n      add\n      swap1\n      tag_58\n      swap2\n      swap1\n      tag_34\n      jump\t// in\n    tag_58:\n      tag_59\n      jump\t// in\n    tag_57:\n      stop\n        /* \"contracts/IDO.sol\":11608:11626  IERC20 public usdt */\n    tag_17:\n      0x3b\n      0x00\n      swap1\n      sload\n      swap1\n      0x0100\n      exp\n      swap1\n      div\n      0xffffffffffffffffffffffffffffffffffffffff\n      and\n      dup2\n      jump\t// out\n        /* \"contracts/IDO.sol\":12450:12578  function updatecoffee(ICoffee _coffee) public {... */\n    tag_23:\n        /* \"contracts/IDO.sol\":12521:12531  msg.sender */\n      caller\n        /* \"contracts/IDO.sol\":12514:12531  owner==msg.sender */\n      0xffffffffffffffffffffffffffffffffffffffff\n      and\n        /* \"contracts/IDO.sol\":12514:12519  owner */\n      0x39\n      0x00\n      swap1\n      sload\n      swap1\n      0x0100\n      exp\n      swap1\n      div\n      0xffffffffffffffffffffffffffffffffffffffff\n      and\n        /* \"contracts/IDO.sol\":12514:12531  owner==msg.sender */\n      0xffffffffffffffffffffffffffffffffffffffff\n      and\n      eq\n        /* \"contracts/IDO.sol\":12506:12545  require(owner==msg.sender,\"only owner\") */\n      tag_61\n      jumpi\n      mload(0x40)\n      0x08c379a000000000000000000000000000000000000000000000000000000000\n      dup2\n      mstore\n      0x04\n      add\n      tag_62\n      swap1\n      tag_63\n      jump\t// in\n    tag_62:\n      mload(0x40)\n      dup1\n      swap2\n      sub\n      swap1\n      revert\n    tag_61:\n        /* \"contracts/IDO.sol\":12564:12571  _coffee */\n      dup1\n        /* \"contracts/IDO.sol\":12555:12561  coffee */\n      0x3a\n      0x00\n        /* \"contracts/IDO.sol\":12555:12571  coffee = _coffee */\n      0x0100\n      exp\n      dup2\n      sload\n      dup2\n      0xffffffffffffffffffffffffffffffffffffffff\n      mul\n      not\n      and\n      swap1\n      dup4\n      0xffffffffffffffffffffffffffffffffffffffff\n      and\n      mul\n      or\n      swap1\n      sstore\n      pop\n        /* \"contracts/IDO.sol\":12450:12578  function updatecoffee(ICoffee _coffee) public {... */\n      pop\n      jump\t// out\n        /* \"contracts/IDO.sol\":11581:11602  ICoffee public coffee */\n    tag_25:\n      0x3a\n      0x00\n      swap1\n      sload\n      swap1\n      0x0100\n      exp\n      swap1\n      div\n      0xffffffffffffffffffffffffffffffffffffffff\n      and\n      dup2\n      jump\t// out\n        /* \"contracts/IDO.sol\":12297:12445  function updatedevelopTeam(address _developTeam) public {... */\n    tag_31:\n        /* \"contracts/IDO.sol\":12378:12388  msg.sender */\n      caller\n        /* \"contracts/IDO.sol\":12371:12388  owner==msg.sender */\n      0xffffffffffffffffffffffffffffffffffffffff\n      and\n        /* \"contracts/IDO.sol\":12371:12376  owner */\n      0x39\n      0x00\n      swap1\n      sload\n      swap1\n      0x0100\n      exp\n      swap1\n      div\n      0xffffffffffffffffffffffffffffffffffffffff\n      and\n        /* \"contracts/IDO.sol\":12371:12388  owner==msg.sender */\n      0xffffffffffffffffffffffffffffffffffffffff\n      and\n      eq\n        /* \"contracts/IDO.sol\":12363:12402  require(owner==msg.sender,\"only owner\") */\n      tag_65\n      jumpi\n      mload(0x40)\n      0x08c379a000000000000000000000000000000000000000000000000000000000\n      dup2\n      mstore\n      0x04\n      add\n      tag_66\n      swap1\n      tag_63\n      jump\t// in\n    tag_66:\n      mload(0x40)\n      dup1\n      swap2\n      sub\n      swap1\n      revert\n    tag_65:\n        /* \"contracts/IDO.sol\":12426:12438  _developTeam */\n      dup1\n        /* \"contracts/IDO.sol\":12412:12423  developTeam */\n      0x38\n      0x00\n        /* \"contracts/IDO.sol\":12412:12438  developTeam = _developTeam */\n      0x0100\n      exp\n      dup2\n      sload\n      dup2\n      0xffffffffffffffffffffffffffffffffffffffff\n      mul\n      not\n      and\n      swap1\n      dup4\n      0xffffffffffffffffffffffffffffffffffffffff\n      and\n      mul\n      or\n      swap1\n      sstore\n      pop\n        /* \"contracts/IDO.sol\":12297:12445  function updatedevelopTeam(address _developTeam) public {... */\n      pop\n      jump\t// out\n        /* \"contracts/IDO.sol\":12135:12292  function updateidoRewardRatio(uint _idoRewardRatio) public {... */\n    tag_35:\n        /* \"contracts/IDO.sol\":12219:12229  msg.sender */\n      caller\n        /* \"contracts/IDO.sol\":12212:12229  owner==msg.sender */\n      0xffffffffffffffffffffffffffffffffffffffff\n      and\n        /* \"contracts/IDO.sol\":12212:12217  owner */\n      0x39\n      0x00\n      swap1\n      sload\n      swap1\n      0x0100\n      exp\n      swap1\n      div\n      0xffffffffffffffffffffffffffffffffffffffff\n      and\n        /* \"contracts/IDO.sol\":12212:12229  owner==msg.sender */\n      0xffffffffffffffffffffffffffffffffffffffff\n      and\n      eq\n        /* \"contracts/IDO.sol\":12204:12243  require(owner==msg.sender,\"only owner\") */\n      tag_68\n      jumpi\n      mload(0x40)\n      0x08c379a000000000000000000000000000000000000000000000000000000000\n      dup2\n      mstore\n      0x04\n      add\n      tag_69\n      swap1\n      tag_63\n      jump\t// in\n    tag_69:\n      mload(0x40)\n      dup1\n      swap2\n      sub\n      swap1\n      revert\n    tag_68:\n        /* \"contracts/IDO.sol\":12270:12285  _idoRewardRatio */\n      dup1\n        /* \"contracts/IDO.sol\":12253:12267  idoRewardRatio */\n      0x3c\n        /* \"contracts/IDO.sol\":12253:12285  idoRewardRatio = _idoRewardRatio */\n      dup2\n      swap1\n      sstore\n      pop\n        /* \"contracts/IDO.sol\":12135:12292  function updateidoRewardRatio(uint _idoRewardRatio) public {... */\n      pop\n      jump\t// out\n        /* \"contracts/IDO.sol\":14635:14978  function harvestUSDT() public{... */\n    tag_37:\n        /* \"contracts/IDO.sol\":14674:14690  uint USDTwaiting */\n      0x00\n        /* \"contracts/IDO.sol\":14693:14791  (idoUserInfo[msg.sender].totalPromoteAndIDO).div(10).mul(100).sub(idoUserInfo[msg.sender].USDTGot) */\n      tag_71\n        /* \"contracts/IDO.sol\":14759:14770  idoUserInfo */\n      0x3d\n        /* \"contracts/IDO.sol\":14759:14782  idoUserInfo[msg.sender] */\n      0x00\n        /* \"contracts/IDO.sol\":14771:14781  msg.sender */\n      caller\n        /* \"contracts/IDO.sol\":14759:14782  idoUserInfo[msg.sender] */\n      0xffffffffffffffffffffffffffffffffffffffff\n      and\n      0xffffffffffffffffffffffffffffffffffffffff\n      and\n      dup2\n      mstore\n      0x20\n      add\n      swap1\n      dup2\n      mstore\n      0x20\n      add\n      0x00\n      keccak256\n        /* \"contracts/IDO.sol\":14759:14790  idoUserInfo[msg.sender].USDTGot */\n      0x03\n      add\n      sload\n        /* \"contracts/IDO.sol\":14693:14754  (idoUserInfo[msg.sender].totalPromoteAndIDO).div(10).mul(100) */\n      tag_72\n        /* \"contracts/IDO.sol\":14750:14753  100 */\n      0x64\n        /* \"contracts/IDO.sol\":14693:14745  (idoUserInfo[msg.sender].totalPromoteAndIDO).div(10) */\n      tag_73\n        /* \"contracts/IDO.sol\":14742:14744  10 */\n      0x0a\n        /* \"contracts/IDO.sol\":14694:14705  idoUserInfo */\n      0x3d\n        /* \"contracts/IDO.sol\":14694:14717  idoUserInfo[msg.sender] */\n      0x00\n        /* \"contracts/IDO.sol\":14706:14716  msg.sender */\n      caller\n        /* \"contracts/IDO.sol\":14694:14717  idoUserInfo[msg.sender] */\n      0xffffffffffffffffffffffffffffffffffffffff\n      and\n      0xffffffffffffffffffffffffffffffffffffffff\n      and\n      dup2\n      mstore\n      0x20\n      add\n      swap1\n      dup2\n      mstore\n      0x20\n      add\n      0x00\n      keccak256\n        /* \"contracts/IDO.sol\":14694:14736  idoUserInfo[msg.sender].totalPromoteAndIDO */\n      0x02\n      add\n      sload\n        /* \"contracts/IDO.sol\":14693:14741  (idoUserInfo[msg.sender].totalPromoteAndIDO).div */\n      tag_74\n      swap1\n        /* \"contracts/IDO.sol\":14693:14745  (idoUserInfo[msg.sender].totalPromoteAndIDO).div(10) */\n      swap2\n      swap1\n      0xffffffff\n      and\n      jump\t// in\n    tag_73:\n        /* \"contracts/IDO.sol\":14693:14749  (idoUserInfo[msg.sender].totalPromoteAndIDO).div(10).mul */\n      tag_75\n      swap1\n        /* \"contracts/IDO.sol\":14693:14754  (idoUserInfo[msg.sender].totalPromoteAndIDO).div(10).mul(100) */\n      swap2\n      swap1\n      0xffffffff\n      and\n      jump\t// in\n    tag_72:\n        /* \"contracts/IDO.sol\":14693:14758  (idoUserInfo[msg.sender].totalPromoteAndIDO).div(10).mul(100).sub */\n      tag_76\n      swap1\n        /* \"contracts/IDO.sol\":14693:14791  (idoUserInfo[msg.sender].totalPromoteAndIDO).div(10).mul(100).sub(idoUserInfo[msg.sender].USDTGot) */\n      swap2\n      swap1\n      0xffffffff\n      and\n      jump\t// in\n    tag_71:\n        /* \"contracts/IDO.sol\":14674:14791  uint USDTwaiting = (idoUserInfo[msg.sender].totalPromoteAndIDO).div(10).mul(100).sub(idoUserInfo[msg.sender].USDTGot) */\n      swap1\n      pop\n        /* \"contracts/IDO.sol\":14808:14812  usdt */\n      0x3b\n      0x00\n      swap1\n      sload\n      swap1\n      0x0100\n      exp\n      swap1\n      div\n      0xffffffffffffffffffffffffffffffffffffffff\n      and\n        /* \"contracts/IDO.sol\":14801:14826  IERC20(usdt).transferFrom */\n      0xffffffffffffffffffffffffffffffffffffffff\n      and\n      0x23b872dd\n        /* \"contracts/IDO.sol\":14827:14838  developTeam */\n      0x38\n      0x00\n      swap1\n      sload\n      swap1\n      0x0100\n      exp\n      swap1\n      div\n      0xffffffffffffffffffffffffffffffffffffffff\n      and\n        /* \"contracts/IDO.sol\":14839:14849  msg.sender */\n      caller\n        /* \"contracts/IDO.sol\":14850:14861  USDTwaiting */\n      dup5\n        /* \"contracts/IDO.sol\":14801:14862  IERC20(usdt).transferFrom(developTeam,msg.sender,USDTwaiting) */\n      mload(0x40)\n      dup5\n      0xffffffff\n      and\n      0xe0\n      shl\n      dup2\n      mstore\n      0x04\n      add\n      tag_77\n      swap4\n      swap3\n      swap2\n      swap1\n      tag_78\n      jump\t// in\n    tag_77:\n      0x20\n      mload(0x40)\n      dup1\n      dup4\n      sub\n      dup2\n      0x00\n      dup8\n      dup1\n      extcodesize\n      iszero\n      dup1\n      iszero\n      tag_79\n      jumpi\n      0x00\n      dup1\n      revert\n    tag_79:\n      pop\n      gas\n      call\n      iszero\n      dup1\n      iszero\n      tag_81\n      jumpi\n      returndatasize\n      0x00\n      dup1\n      returndatacopy\n      revert(0x00, returndatasize)\n    tag_81:\n      pop\n      pop\n      pop\n      pop\n      mload(0x40)\n      returndatasize\n      not(0x1f)\n      0x1f\n      dup3\n      add\n      and\n      dup3\n      add\n      dup1\n      0x40\n      mstore\n      pop\n      dup2\n      add\n      swap1\n      tag_82\n      swap2\n      swap1\n      tag_83\n      jump\t// in\n    tag_82:\n      pop\n        /* \"contracts/IDO.sol\":14907:14918  USDTwaiting */\n      dup1\n        /* \"contracts/IDO.sol\":14872:14883  idoUserInfo */\n      0x3d\n        /* \"contracts/IDO.sol\":14872:14895  idoUserInfo[msg.sender] */\n      0x00\n        /* \"contracts/IDO.sol\":14884:14894  msg.sender */\n      caller\n        /* \"contracts/IDO.sol\":14872:14895  idoUserInfo[msg.sender] */\n      0xffffffffffffffffffffffffffffffffffffffff\n      and\n      0xffffffffffffffffffffffffffffffffffffffff\n      and\n      dup2\n      mstore\n      0x20\n      add\n      swap1\n      dup2\n      mstore\n      0x20\n      add\n      0x00\n      keccak256\n        /* \"contracts/IDO.sol\":14872:14903  idoUserInfo[msg.sender].USDTGot */\n      0x03\n      add\n      0x00\n        /* \"contracts/IDO.sol\":14872:14918  idoUserInfo[msg.sender].USDTGot += USDTwaiting */\n      dup3\n      dup3\n      sload\n      add\n      swap3\n      pop\n      pop\n      dup2\n      swap1\n      sstore\n      pop\n        /* \"contracts/IDO.sol\":14947:14957  msg.sender */\n      caller\n        /* \"contracts/IDO.sol\":14933:14971  doHarvestusdt(msg.sender, USDTwaiting) */\n      0xffffffffffffffffffffffffffffffffffffffff\n      and\n      0xe76206fc979ffeb5d608de65c588dba39db74e075591960304a761e7bc421a62\n        /* \"contracts/IDO.sol\":14959:14970  USDTwaiting */\n      dup3\n        /* \"contracts/IDO.sol\":14933:14971  doHarvestusdt(msg.sender, USDTwaiting) */\n      mload(0x40)\n      tag_84\n      swap2\n      swap1\n      tag_85\n      jump\t// in\n    tag_84:\n      mload(0x40)\n      dup1\n      swap2\n      sub\n      swap1\n      log2\n        /* \"contracts/IDO.sol\":14635:14978  function harvestUSDT() public{... */\n      pop\n      jump\t// out\n        /* \"contracts/IDO.sol\":14363:14629  function harvestCoffee() public{... */\n    tag_39:\n        /* \"contracts/IDO.sol\":14412:14418  coffee */\n      0x3a\n      0x00\n      swap1\n      sload\n      swap1\n      0x0100\n      exp\n      swap1\n      div\n      0xffffffffffffffffffffffffffffffffffffffff\n      and\n        /* \"contracts/IDO.sol\":14404:14432  ICoffee(coffee).transferFrom */\n      0xffffffffffffffffffffffffffffffffffffffff\n      and\n      0x23b872dd\n        /* \"contracts/IDO.sol\":14433:14444  developTeam */\n      0x38\n      0x00\n      swap1\n      sload\n      swap1\n      0x0100\n      exp\n      swap1\n      div\n      0xffffffffffffffffffffffffffffffffffffffff\n      and\n        /* \"contracts/IDO.sol\":14446:14456  msg.sender */\n      caller\n        /* \"contracts/IDO.sol\":14458:14469  idoUserInfo */\n      0x3d\n        /* \"contracts/IDO.sol\":14458:14481  idoUserInfo[msg.sender] */\n      0x00\n        /* \"contracts/IDO.sol\":14470:14480  msg.sender */\n      caller\n        /* \"contracts/IDO.sol\":14458:14481  idoUserInfo[msg.sender] */\n      0xffffffffffffffffffffffffffffffffffffffff\n      and\n      0xffffffffffffffffffffffffffffffffffffffff\n      and\n      dup2\n      mstore\n      0x20\n      add\n      swap1\n      dup2\n      mstore\n      0x20\n      add\n      0x00\n      keccak256\n        /* \"contracts/IDO.sol\":14458:14493  idoUserInfo[msg.sender].totalReward */\n      0x01\n      add\n      sload\n        /* \"contracts/IDO.sol\":14404:14494  ICoffee(coffee).transferFrom(developTeam, msg.sender, idoUserInfo[msg.sender].totalReward) */\n      mload(0x40)\n      dup5\n      0xffffffff\n      and\n      0xe0\n      shl\n      dup2\n      mstore\n      0x04\n      add\n      tag_87\n      swap4\n      swap3\n      swap2\n      swap1\n      tag_78\n      jump\t// in\n    tag_87:\n      0x20\n      mload(0x40)\n      dup1\n      dup4\n      sub\n      dup2\n      0x00\n      dup8\n      dup1\n      extcodesize\n      iszero\n      dup1\n      iszero\n      tag_88\n      jumpi\n      0x00\n      dup1\n      revert\n    tag_88:\n      pop\n      gas\n      call\n      iszero\n      dup1\n      iszero\n      tag_90\n      jumpi\n      returndatasize\n      0x00\n      dup1\n      returndatacopy\n      revert(0x00, returndatasize)\n    tag_90:\n      pop\n      pop\n      pop\n      pop\n      mload(0x40)\n      returndatasize\n      not(0x1f)\n      0x1f\n      dup3\n      add\n      and\n      dup3\n      add\n      dup1\n      0x40\n      mstore\n      pop\n      dup2\n      add\n      swap1\n      tag_91\n      swap2\n      swap1\n      tag_83\n      jump\t// in\n    tag_91:\n      pop\n        /* \"contracts/IDO.sol\":14542:14543  0 */\n      0x00\n        /* \"contracts/IDO.sol\":14504:14515  idoUserInfo */\n      0x3d\n        /* \"contracts/IDO.sol\":14504:14527  idoUserInfo[msg.sender] */\n      0x00\n        /* \"contracts/IDO.sol\":14516:14526  msg.sender */\n      caller\n        /* \"contracts/IDO.sol\":14504:14527  idoUserInfo[msg.sender] */\n      0xffffffffffffffffffffffffffffffffffffffff\n      and\n      0xffffffffffffffffffffffffffffffffffffffff\n      and\n      dup2\n      mstore\n      0x20\n      add\n      swap1\n      dup2\n      mstore\n      0x20\n      add\n      0x00\n      keccak256\n        /* \"contracts/IDO.sol\":14504:14539  idoUserInfo[msg.sender].totalReward */\n      0x01\n      add\n        /* \"contracts/IDO.sol\":14504:14543  idoUserInfo[msg.sender].totalReward = 0 */\n      dup2\n      swap1\n      sstore\n      pop\n        /* \"contracts/IDO.sol\":14574:14584  msg.sender */\n      caller\n        /* \"contracts/IDO.sol\":14558:14622  doHarvestcoffee(msg.sender, idoUserInfo[msg.sender].totalReward) */\n      0xffffffffffffffffffffffffffffffffffffffff\n      and\n      0x0c167bd84f1ceaf00e4f292b98dc3f4c77caa756d292285eaec79015474c6216\n        /* \"contracts/IDO.sol\":14586:14597  idoUserInfo */\n      0x3d\n        /* \"contracts/IDO.sol\":14586:14609  idoUserInfo[msg.sender] */\n      0x00\n        /* \"contracts/IDO.sol\":14598:14608  msg.sender */\n      caller\n        /* \"contracts/IDO.sol\":14586:14609  idoUserInfo[msg.sender] */\n      0xffffffffffffffffffffffffffffffffffffffff\n      and\n      0xffffffffffffffffffffffffffffffffffffffff\n      and\n      dup2\n      mstore\n      0x20\n      add\n      swap1\n      dup2\n      mstore\n      0x20\n      add\n      0x00\n      keccak256\n        /* \"contracts/IDO.sol\":14586:14621  idoUserInfo[msg.sender].totalReward */\n      0x01\n      add\n      sload\n        /* \"contracts/IDO.sol\":14558:14622  doHarvestcoffee(msg.sender, idoUserInfo[msg.sender].totalReward) */\n      mload(0x40)\n      tag_92\n      swap2\n      swap1\n      tag_85\n      jump\t// in\n    tag_92:\n      mload(0x40)\n      dup1\n      swap2\n      sub\n      swap1\n      log2\n        /* \"contracts/IDO.sol\":14363:14629  function harvestCoffee() public{... */\n      jump\t// out\n        /* \"contracts/IDO.sol\":13827:14357  function pendingUser(address _user) external returns(PENDING memory){... */\n    tag_42:\n        /* \"contracts/IDO.sol\":13880:13894  PENDING memory */\n      tag_93\n      tag_94\n      jump\t// in\n    tag_93:\n        /* \"contracts/IDO.sol\":13928:13967  idoUserInfo[_user].totalIDO.div(10**18) */\n      tag_96\n        /* \"contracts/IDO.sol\":13960:13966  10**18 */\n      0x0de0b6b3a7640000\n        /* \"contracts/IDO.sol\":13928:13939  idoUserInfo */\n      0x3d\n        /* \"contracts/IDO.sol\":13928:13946  idoUserInfo[_user] */\n      0x00\n        /* \"contracts/IDO.sol\":13940:13945  _user */\n      dup6\n        /* \"contracts/IDO.sol\":13928:13946  idoUserInfo[_user] */\n      0xffffffffffffffffffffffffffffffffffffffff\n      and\n      0xffffffffffffffffffffffffffffffffffffffff\n      and\n      dup2\n      mstore\n      0x20\n      add\n      swap1\n      dup2\n      mstore\n      0x20\n      add\n      0x00\n      keccak256\n        /* \"contracts/IDO.sol\":13928:13955  idoUserInfo[_user].totalIDO */\n      0x00\n      add\n      sload\n        /* \"contracts/IDO.sol\":13928:13959  idoUserInfo[_user].totalIDO.div */\n      tag_74\n      swap1\n        /* \"contracts/IDO.sol\":13928:13967  idoUserInfo[_user].totalIDO.div(10**18) */\n      swap2\n      swap1\n      0xffffffff\n      and\n      jump\t// in\n    tag_96:\n        /* \"contracts/IDO.sol\":13905:13912  pending */\n      0x33\n        /* \"contracts/IDO.sol\":13905:13925  pending.userTotalIDO */\n      0x00\n      add\n        /* \"contracts/IDO.sol\":13905:13967  pending.userTotalIDO = idoUserInfo[_user].totalIDO.div(10**18) */\n      dup2\n      swap1\n      sstore\n      pop\n        /* \"contracts/IDO.sol\":14003:14045  idoUserInfo[_user].totalReward.div(10**18) */\n      tag_97\n        /* \"contracts/IDO.sol\":14038:14044  10**18 */\n      0x0de0b6b3a7640000\n        /* \"contracts/IDO.sol\":14003:14014  idoUserInfo */\n      0x3d\n        /* \"contracts/IDO.sol\":14003:14021  idoUserInfo[_user] */\n      0x00\n        /* \"contracts/IDO.sol\":14015:14020  _user */\n      dup6\n        /* \"contracts/IDO.sol\":14003:14021  idoUserInfo[_user] */\n      0xffffffffffffffffffffffffffffffffffffffff\n      and\n      0xffffffffffffffffffffffffffffffffffffffff\n      and\n      dup2\n      mstore\n      0x20\n      add\n      swap1\n      dup2\n      mstore\n      0x20\n      add\n      0x00\n      keccak256\n        /* \"contracts/IDO.sol\":14003:14033  idoUserInfo[_user].totalReward */\n      0x01\n      add\n      sload\n        /* \"contracts/IDO.sol\":14003:14037  idoUserInfo[_user].totalReward.div */\n      tag_74\n      swap1\n        /* \"contracts/IDO.sol\":14003:14045  idoUserInfo[_user].totalReward.div(10**18) */\n      swap2\n      swap1\n      0xffffffff\n      and\n      jump\t// in\n    tag_97:\n        /* \"contracts/IDO.sol\":13977:13984  pending */\n      0x33\n        /* \"contracts/IDO.sol\":13977:14000  pending.userTotalReward */\n      0x01\n      add\n        /* \"contracts/IDO.sol\":13977:14045  pending.userTotalReward = idoUserInfo[_user].totalReward.div(10**18) */\n      dup2\n      swap1\n      sstore\n      pop\n        /* \"contracts/IDO.sol\":14088:14099  idoUserInfo */\n      0x3d\n        /* \"contracts/IDO.sol\":14088:14106  idoUserInfo[_user] */\n      0x00\n        /* \"contracts/IDO.sol\":14100:14105  _user */\n      dup4\n        /* \"contracts/IDO.sol\":14088:14106  idoUserInfo[_user] */\n      0xffffffffffffffffffffffffffffffffffffffff\n      and\n      0xffffffffffffffffffffffffffffffffffffffff\n      and\n      dup2\n      mstore\n      0x20\n      add\n      swap1\n      dup2\n      mstore\n      0x20\n      add\n      0x00\n      keccak256\n        /* \"contracts/IDO.sol\":14088:14125  idoUserInfo[_user].totalPromoteAndIDO */\n      0x02\n      add\n      sload\n        /* \"contracts/IDO.sol\":14055:14062  pending */\n      0x33\n        /* \"contracts/IDO.sol\":14055:14085  pending.userTotalPromoteAndIDO */\n      0x03\n      add\n        /* \"contracts/IDO.sol\":14055:14125  pending.userTotalPromoteAndIDO = idoUserInfo[_user].totalPromoteAndIDO */\n      dup2\n      swap1\n      sstore\n      pop\n        /* \"contracts/IDO.sol\":14170:14176  coffee */\n      0x3a\n      0x00\n      swap1\n      sload\n      swap1\n      0x0100\n      exp\n      swap1\n      div\n      0xffffffffffffffffffffffffffffffffffffffff\n      and\n        /* \"contracts/IDO.sol\":14162:14195  ICoffee(coffee).getSentCOFPromote */\n      0xffffffffffffffffffffffffffffffffffffffff\n      and\n      0xf05df5e2\n        /* \"contracts/IDO.sol\":14196:14201  _user */\n      dup4\n        /* \"contracts/IDO.sol\":14162:14202  ICoffee(coffee).getSentCOFPromote(_user) */\n      mload(0x40)\n      dup3\n      0xffffffff\n      and\n      0xe0\n      shl\n      dup2\n      mstore\n      0x04\n      add\n      tag_98\n      swap2\n      swap1\n      tag_99\n      jump\t// in\n    tag_98:\n      0x20\n      mload(0x40)\n      dup1\n      dup4\n      sub\n      dup2\n      0x00\n      dup8\n      dup1\n      extcodesize\n      iszero\n      dup1\n      iszero\n      tag_100\n      jumpi\n      0x00\n      dup1\n      revert\n    tag_100:\n      pop\n      gas\n      call\n      iszero\n      dup1\n      iszero\n      tag_102\n      jumpi\n      returndatasize\n      0x00\n      dup1\n      returndatacopy\n      revert(0x00, returndatasize)\n    tag_102:\n      pop\n      pop\n      pop\n      pop\n      mload(0x40)\n      returndatasize\n      not(0x1f)\n      0x1f\n      dup3\n      add\n      and\n      dup3\n      add\n      dup1\n      0x40\n      mstore\n      pop\n      dup2\n      add\n      swap1\n      tag_103\n      swap2\n      swap1\n      tag_104\n      jump\t// in\n    tag_103:\n        /* \"contracts/IDO.sol\":14135:14142  pending */\n      0x33\n        /* \"contracts/IDO.sol\":14135:14159  pending.userTotalPromote */\n      0x02\n      add\n        /* \"contracts/IDO.sol\":14135:14202  pending.userTotalPromote = ICoffee(coffee).getSentCOFPromote(_user) */\n      dup2\n      swap1\n      sstore\n      pop\n        /* \"contracts/IDO.sol\":14238:14326  (idoUserInfo[_user].totalPromoteAndIDO).div(10).mul(100).sub(idoUserInfo[_user].USDTGot) */\n      tag_105\n        /* \"contracts/IDO.sol\":14299:14310  idoUserInfo */\n      0x3d\n        /* \"contracts/IDO.sol\":14299:14317  idoUserInfo[_user] */\n      0x00\n        /* \"contracts/IDO.sol\":14311:14316  _user */\n      dup5\n        /* \"contracts/IDO.sol\":14299:14317  idoUserInfo[_user] */\n      0xffffffffffffffffffffffffffffffffffffffff\n      and\n      0xffffffffffffffffffffffffffffffffffffffff\n      and\n      dup2\n      mstore\n      0x20\n      add\n      swap1\n      dup2\n      mstore\n      0x20\n      add\n      0x00\n      keccak256\n        /* \"contracts/IDO.sol\":14299:14325  idoUserInfo[_user].USDTGot */\n      0x03\n      add\n      sload\n        /* \"contracts/IDO.sol\":14238:14294  (idoUserInfo[_user].totalPromoteAndIDO).div(10).mul(100) */\n      tag_106\n        /* \"contracts/IDO.sol\":14290:14293  100 */\n      0x64\n        /* \"contracts/IDO.sol\":14238:14285  (idoUserInfo[_user].totalPromoteAndIDO).div(10) */\n      tag_107\n        /* \"contracts/IDO.sol\":14282:14284  10 */\n      0x0a\n        /* \"contracts/IDO.sol\":14239:14250  idoUserInfo */\n      0x3d\n        /* \"contracts/IDO.sol\":14239:14257  idoUserInfo[_user] */\n      0x00\n        /* \"contracts/IDO.sol\":14251:14256  _user */\n      dup10\n        /* \"contracts/IDO.sol\":14239:14257  idoUserInfo[_user] */\n      0xffffffffffffffffffffffffffffffffffffffff\n      and\n      0xffffffffffffffffffffffffffffffffffffffff\n      and\n      dup2\n      mstore\n      0x20\n      add\n      swap1\n      dup2\n      mstore\n      0x20\n      add\n      0x00\n      keccak256\n        /* \"contracts/IDO.sol\":14239:14276  idoUserInfo[_user].totalPromoteAndIDO */\n      0x02\n      add\n      sload\n        /* \"contracts/IDO.sol\":14238:14281  (idoUserInfo[_user].totalPromoteAndIDO).div */\n      tag_74\n      swap1\n        /* \"contracts/IDO.sol\":14238:14285  (idoUserInfo[_user].totalPromoteAndIDO).div(10) */\n      swap2\n      swap1\n      0xffffffff\n      and\n      jump\t// in\n    tag_107:\n        /* \"contracts/IDO.sol\":14238:14289  (idoUserInfo[_user].totalPromoteAndIDO).div(10).mul */\n      tag_75\n      swap1\n        /* \"contracts/IDO.sol\":14238:14294  (idoUserInfo[_user].totalPromoteAndIDO).div(10).mul(100) */\n      swap2\n      swap1\n      0xffffffff\n      and\n      jump\t// in\n    tag_106:\n        /* \"contracts/IDO.sol\":14238:14298  (idoUserInfo[_user].totalPromoteAndIDO).div(10).mul(100).sub */\n      tag_76\n      swap1\n        /* \"contracts/IDO.sol\":14238:14326  (idoUserInfo[_user].totalPromoteAndIDO).div(10).mul(100).sub(idoUserInfo[_user].USDTGot) */\n      swap2\n      swap1\n      0xffffffff\n      and\n      jump\t// in\n    tag_105:\n        /* \"contracts/IDO.sol\":14212:14219  pending */\n      0x33\n        /* \"contracts/IDO.sol\":14212:14234  pending.userUSDTReward */\n      0x04\n      add\n        /* \"contracts/IDO.sol\":14212:14326  pending.userUSDTReward =  (idoUserInfo[_user].totalPromoteAndIDO).div(10).mul(100).sub(idoUserInfo[_user].USDTGot) */\n      dup2\n      swap1\n      sstore\n      pop\n        /* \"contracts/IDO.sol\":14343:14350  pending */\n      0x33\n        /* \"contracts/IDO.sol\":14336:14350  return pending */\n      mload(0x40)\n      dup1\n      0xa0\n      add\n      0x40\n      mstore\n      swap1\n      dup2\n      0x00\n      dup3\n      add\n      sload\n      dup2\n      mstore\n      0x20\n      add\n      0x01\n      dup3\n      add\n      sload\n      dup2\n      mstore\n      0x20\n      add\n      0x02\n      dup3\n      add\n      sload\n      dup2\n      mstore\n      0x20\n      add\n      0x03\n      dup3\n      add\n      sload\n      dup2\n      mstore\n      0x20\n      add\n      0x04\n      dup3\n      add\n      sload\n      dup2\n      mstore\n      pop\n      pop\n      swap1\n      pop\n        /* \"contracts/IDO.sol\":13827:14357  function pendingUser(address _user) external returns(PENDING memory){... */\n      swap2\n      swap1\n      pop\n      jump\t// out\n        /* \"contracts/IDO.sol\":12583:12702  function updateusdt(IERC20 _usdt) public {... */\n    tag_48:\n        /* \"contracts/IDO.sol\":12649:12659  msg.sender */\n      caller\n        /* \"contracts/IDO.sol\":12642:12659  owner==msg.sender */\n      0xffffffffffffffffffffffffffffffffffffffff\n      and\n        /* \"contracts/IDO.sol\":12642:12647  owner */\n      0x39\n      0x00\n      swap1\n      sload\n      swap1\n      0x0100\n      exp\n      swap1\n      div\n      0xffffffffffffffffffffffffffffffffffffffff\n      and\n        /* \"contracts/IDO.sol\":12642:12659  owner==msg.sender */\n      0xffffffffffffffffffffffffffffffffffffffff\n      and\n      eq\n        /* \"contracts/IDO.sol\":12634:12673  require(owner==msg.sender,\"only owner\") */\n      tag_109\n      jumpi\n      mload(0x40)\n      0x08c379a000000000000000000000000000000000000000000000000000000000\n      dup2\n      mstore\n      0x04\n      add\n      tag_110\n      swap1\n      tag_63\n      jump\t// in\n    tag_110:\n      mload(0x40)\n      dup1\n      swap2\n      sub\n      swap1\n      revert\n    tag_109:\n        /* \"contracts/IDO.sol\":12690:12695  _usdt */\n      dup1\n        /* \"contracts/IDO.sol\":12683:12687  usdt */\n      0x3b\n      0x00\n        /* \"contracts/IDO.sol\":12683:12695  usdt = _usdt */\n      0x0100\n      exp\n      dup2\n      sload\n      dup2\n      0xffffffffffffffffffffffffffffffffffffffff\n      mul\n      not\n      and\n      swap1\n      dup4\n      0xffffffffffffffffffffffffffffffffffffffff\n      and\n      mul\n      or\n      swap1\n      sstore\n      pop\n        /* \"contracts/IDO.sol\":12583:12702  function updateusdt(IERC20 _usdt) public {... */\n      pop\n      jump\t// out\n        /* \"contracts/IDO.sol\":11893:12129  function initialize(ICoffee _coffee,IERC20 _usdt,address _developTeam) public initializer{... */\n    tag_52:\n        /* \"contracts/IDO.sol\":461:473  initializing */\n      0x00\n      0x01\n      swap1\n      sload\n      swap1\n      0x0100\n      exp\n      swap1\n      div\n      0xff\n      and\n        /* \"contracts/IDO.sol\":461:492  initializing || isConstructor() */\n      dup1\n      tag_112\n      jumpi\n      pop\n        /* \"contracts/IDO.sol\":477:492  isConstructor() */\n      tag_113\n        /* \"contracts/IDO.sol\":477:490  isConstructor */\n      tag_114\n        /* \"contracts/IDO.sol\":477:492  isConstructor() */\n      jump\t// in\n    tag_113:\n        /* \"contracts/IDO.sol\":461:492  initializing || isConstructor() */\n    tag_112:\n        /* \"contracts/IDO.sol\":461:508  initializing || isConstructor() || !initialized */\n      dup1\n      tag_115\n      jumpi\n      pop\n        /* \"contracts/IDO.sol\":497:508  initialized */\n      0x00\n      dup1\n      sload\n      swap1\n      0x0100\n      exp\n      swap1\n      div\n      0xff\n      and\n        /* \"contracts/IDO.sol\":496:508  !initialized */\n      iszero\n        /* \"contracts/IDO.sol\":461:508  initializing || isConstructor() || !initialized */\n    tag_115:\n        /* \"contracts/IDO.sol\":453:559  require(initializing || isConstructor() || !initialized, \"Contract instance has already been initialized\") */\n      tag_116\n      jumpi\n      mload(0x40)\n      0x08c379a000000000000000000000000000000000000000000000000000000000\n      dup2\n      mstore\n      0x04\n      add\n      tag_117\n      swap1\n      tag_118\n      jump\t// in\n    tag_117:\n      mload(0x40)\n      dup1\n      swap2\n      sub\n      swap1\n      revert\n    tag_116:\n        /* \"contracts/IDO.sol\":566:585  bool isTopLevelCall */\n      0x00\n        /* \"contracts/IDO.sol\":589:601  initializing */\n      dup1\n      0x01\n      swap1\n      sload\n      swap1\n      0x0100\n      exp\n      swap1\n      div\n      0xff\n      and\n        /* \"contracts/IDO.sol\":588:601  !initializing */\n      iszero\n        /* \"contracts/IDO.sol\":566:601  bool isTopLevelCall = !initializing */\n      swap1\n      pop\n        /* \"contracts/IDO.sol\":611:625  isTopLevelCall */\n      dup1\n        /* \"contracts/IDO.sol\":607:687  if (isTopLevelCall) {... */\n      iszero\n      tag_119\n      jumpi\n        /* \"contracts/IDO.sol\":650:654  true */\n      0x01\n        /* \"contracts/IDO.sol\":635:647  initializing */\n      0x00\n      0x01\n        /* \"contracts/IDO.sol\":635:654  initializing = true */\n      0x0100\n      exp\n      dup2\n      sload\n      dup2\n      0xff\n      mul\n      not\n      and\n      swap1\n      dup4\n      iszero\n      iszero\n      mul\n      or\n      swap1\n      sstore\n      pop\n        /* \"contracts/IDO.sol\":676:680  true */\n      0x01\n        /* \"contracts/IDO.sol\":662:673  initialized */\n      0x00\n      dup1\n        /* \"contracts/IDO.sol\":662:680  initialized = true */\n      0x0100\n      exp\n      dup2\n      sload\n      dup2\n      0xff\n      mul\n      not\n      and\n      swap1\n      dup4\n      iszero\n      iszero\n      mul\n      or\n      swap1\n      sstore\n      pop\n        /* \"contracts/IDO.sol\":607:687  if (isTopLevelCall) {... */\n    tag_119:\n        /* \"contracts/IDO.sol\":12001:12008  _coffee */\n      dup4\n        /* \"contracts/IDO.sol\":11992:11998  coffee */\n      0x3a\n      0x00\n        /* \"contracts/IDO.sol\":11992:12008  coffee = _coffee */\n      0x0100\n      exp\n      dup2\n      sload\n      dup2\n      0xffffffffffffffffffffffffffffffffffffffff\n      mul\n      not\n      and\n      swap1\n      dup4\n      0xffffffffffffffffffffffffffffffffffffffff\n      and\n      mul\n      or\n      swap1\n      sstore\n      pop\n        /* \"contracts/IDO.sol\":12032:12044  _developTeam */\n      dup2\n        /* \"contracts/IDO.sol\":12018:12029  developTeam */\n      0x38\n      0x00\n        /* \"contracts/IDO.sol\":12018:12044  developTeam = _developTeam */\n      0x0100\n      exp\n      dup2\n      sload\n      dup2\n      0xffffffffffffffffffffffffffffffffffffffff\n      mul\n      not\n      and\n      swap1\n      dup4\n      0xffffffffffffffffffffffffffffffffffffffff\n      and\n      mul\n      or\n      swap1\n      sstore\n      pop\n        /* \"contracts/IDO.sol\":12062:12072  msg.sender */\n      caller\n        /* \"contracts/IDO.sol\":12054:12059  owner */\n      0x39\n      0x00\n        /* \"contracts/IDO.sol\":12054:12072  owner = msg.sender */\n      0x0100\n      exp\n      dup2\n      sload\n      dup2\n      0xffffffffffffffffffffffffffffffffffffffff\n      mul\n      not\n      and\n      swap1\n      dup4\n      0xffffffffffffffffffffffffffffffffffffffff\n      and\n      mul\n      or\n      swap1\n      sstore\n      pop\n        /* \"contracts/IDO.sol\":12089:12094  _usdt */\n      dup3\n        /* \"contracts/IDO.sol\":12082:12086  usdt */\n      0x3b\n      0x00\n        /* \"contracts/IDO.sol\":12082:12094  usdt = _usdt */\n      0x0100\n      exp\n      dup2\n      sload\n      dup2\n      0xffffffffffffffffffffffffffffffffffffffff\n      mul\n      not\n      and\n      swap1\n      dup4\n      0xffffffffffffffffffffffffffffffffffffffff\n      and\n      mul\n      or\n      swap1\n      sstore\n      pop\n        /* \"contracts/IDO.sol\":12121:12122  1 */\n      0x01\n        /* \"contracts/IDO.sol\":12104:12118  idoRewardRatio */\n      0x3c\n        /* \"contracts/IDO.sol\":12104:12122  idoRewardRatio = 1 */\n      dup2\n      swap1\n      sstore\n      pop\n        /* \"contracts/IDO.sol\":705:719  isTopLevelCall */\n      dup1\n        /* \"contracts/IDO.sol\":701:756  if (isTopLevelCall) {... */\n      iszero\n      tag_121\n      jumpi\n        /* \"contracts/IDO.sol\":744:749  false */\n      0x00\n        /* \"contracts/IDO.sol\":729:741  initializing */\n      dup1\n      0x01\n        /* \"contracts/IDO.sol\":729:749  initializing = false */\n      0x0100\n      exp\n      dup2\n      sload\n      dup2\n      0xff\n      mul\n      not\n      and\n      swap1\n      dup4\n      iszero\n      iszero\n      mul\n      or\n      swap1\n      sstore\n      pop\n        /* \"contracts/IDO.sol\":701:756  if (isTopLevelCall) {... */\n    tag_121:\n        /* \"contracts/IDO.sol\":11893:12129  function initialize(ICoffee _coffee,IERC20 _usdt,address _developTeam) public initializer{... */\n      pop\n      pop\n      pop\n      pop\n      jump\t// out\n        /* \"contracts/IDO.sol\":11509:11531  PENDING public pending */\n    tag_54:\n      0x33\n      dup1\n      0x00\n      add\n      sload\n      swap1\n      dup1\n      0x01\n      add\n      sload\n      swap1\n      dup1\n      0x02\n      add\n      sload\n      swap1\n      dup1\n      0x03\n      add\n      sload\n      swap1\n      dup1\n      0x04\n      add\n      sload\n      swap1\n      pop\n      dup6\n      jump\t// out\n        /* \"contracts/IDO.sol\":12708:13821  function doIDO(uint _amount) public {... */\n    tag_59:\n        /* \"contracts/IDO.sol\":12761:12765  usdt */\n      0x3b\n      0x00\n      swap1\n      sload\n      swap1\n      0x0100\n      exp\n      swap1\n      div\n      0xffffffffffffffffffffffffffffffffffffffff\n      and\n        /* \"contracts/IDO.sol\":12754:12779  IERC20(usdt).transferFrom */\n      0xffffffffffffffffffffffffffffffffffffffff\n      and\n      0x23b872dd\n        /* \"contracts/IDO.sol\":12780:12790  msg.sender */\n      caller\n        /* \"contracts/IDO.sol\":12791:12802  developTeam */\n      0x38\n      0x00\n      swap1\n      sload\n      swap1\n      0x0100\n      exp\n      swap1\n      div\n      0xffffffffffffffffffffffffffffffffffffffff\n      and\n        /* \"contracts/IDO.sol\":12803:12810  _amount */\n      dup5\n        /* \"contracts/IDO.sol\":12754:12811  IERC20(usdt).transferFrom(msg.sender,developTeam,_amount) */\n      mload(0x40)\n      dup5\n      0xffffffff\n      and\n      0xe0\n      shl\n      dup2\n      mstore\n      0x04\n      add\n      tag_123\n      swap4\n      swap3\n      swap2\n      swap1\n      tag_124\n      jump\t// in\n    tag_123:\n      0x20\n      mload(0x40)\n      dup1\n      dup4\n      sub\n      dup2\n      0x00\n      dup8\n      dup1\n      extcodesize\n      iszero\n      dup1\n      iszero\n      tag_125\n      jumpi\n      0x00\n      dup1\n      revert\n    tag_125:\n      pop\n      gas\n      call\n      iszero\n      dup1\n      iszero\n      tag_127\n      jumpi\n      returndatasize\n      0x00\n      dup1\n      returndatacopy\n      revert(0x00, returndatasize)\n    tag_127:\n      pop\n      pop\n      pop\n      pop\n      mload(0x40)\n      returndatasize\n      not(0x1f)\n      0x1f\n      dup3\n      add\n      and\n      dup3\n      add\n      dup1\n      0x40\n      mstore\n      pop\n      dup2\n      add\n      swap1\n      tag_128\n      swap2\n      swap1\n      tag_83\n      jump\t// in\n    tag_128:\n      pop\n        /* \"contracts/IDO.sol\":12857:12864  _amount */\n      dup1\n        /* \"contracts/IDO.sol\":12821:12832  idoUserInfo */\n      0x3d\n        /* \"contracts/IDO.sol\":12821:12844  idoUserInfo[msg.sender] */\n      0x00\n        /* \"contracts/IDO.sol\":12833:12843  msg.sender */\n      caller\n        /* \"contracts/IDO.sol\":12821:12844  idoUserInfo[msg.sender] */\n      0xffffffffffffffffffffffffffffffffffffffff\n      and\n      0xffffffffffffffffffffffffffffffffffffffff\n      and\n      dup2\n      mstore\n      0x20\n      add\n      swap1\n      dup2\n      mstore\n      0x20\n      add\n      0x00\n      keccak256\n        /* \"contracts/IDO.sol\":12821:12853  idoUserInfo[msg.sender].totalIDO */\n      0x00\n      add\n      0x00\n        /* \"contracts/IDO.sol\":12821:12864  idoUserInfo[msg.sender].totalIDO += _amount */\n      dup3\n      dup3\n      sload\n      add\n      swap3\n      pop\n      pop\n      dup2\n      swap1\n      sstore\n      pop\n        /* \"contracts/IDO.sol\":12897:12917  50000000000000000000 */\n      0x02b5e3af16b1880000\n        /* \"contracts/IDO.sol\":12886:12893  _amount */\n      dup2\n        /* \"contracts/IDO.sol\":12886:12917  _amount == 50000000000000000000 */\n      eq\n        /* \"contracts/IDO.sol\":12883:13009  if(_amount == 50000000000000000000){... */\n      iszero\n      tag_129\n      jumpi\n        /* \"contracts/IDO.sol\":12971:12998  _amount.mul(idoRewardRatio) */\n      tag_130\n        /* \"contracts/IDO.sol\":12983:12997  idoRewardRatio */\n      sload(0x3c)\n        /* \"contracts/IDO.sol\":12971:12978  _amount */\n      dup3\n        /* \"contracts/IDO.sol\":12971:12982  _amount.mul */\n      tag_75\n      swap1\n        /* \"contracts/IDO.sol\":12971:12998  _amount.mul(idoRewardRatio) */\n      swap2\n      swap1\n      0xffffffff\n      and\n      jump\t// in\n    tag_130:\n        /* \"contracts/IDO.sol\":12932:12943  idoUserInfo */\n      0x3d\n        /* \"contracts/IDO.sol\":12932:12955  idoUserInfo[msg.sender] */\n      0x00\n        /* \"contracts/IDO.sol\":12944:12954  msg.sender */\n      caller\n        /* \"contracts/IDO.sol\":12932:12955  idoUserInfo[msg.sender] */\n      0xffffffffffffffffffffffffffffffffffffffff\n      and\n      0xffffffffffffffffffffffffffffffffffffffff\n      and\n      dup2\n      mstore\n      0x20\n      add\n      swap1\n      dup2\n      mstore\n      0x20\n      add\n      0x00\n      keccak256\n        /* \"contracts/IDO.sol\":12932:12967  idoUserInfo[msg.sender].totalReward */\n      0x01\n      add\n      0x00\n        /* \"contracts/IDO.sol\":12932:12998  idoUserInfo[msg.sender].totalReward += _amount.mul(idoRewardRatio) */\n      dup3\n      dup3\n      sload\n      add\n      swap3\n      pop\n      pop\n      dup2\n      swap1\n      sstore\n      pop\n        /* \"contracts/IDO.sol\":12883:13009  if(_amount == 50000000000000000000){... */\n    tag_129:\n        /* \"contracts/IDO.sol\":13032:13053  200000000000000000000 */\n      0x0ad78ebc5ac6200000\n        /* \"contracts/IDO.sol\":13021:13028  _amount */\n      dup2\n        /* \"contracts/IDO.sol\":13021:13053  _amount == 200000000000000000000 */\n      eq\n        /* \"contracts/IDO.sol\":13018:13213  if(_amount == 200000000000000000000){... */\n      iszero\n      tag_131\n      jumpi\n        /* \"contracts/IDO.sol\":13107:13114  _amount */\n      dup1\n        /* \"contracts/IDO.sol\":13068:13079  idoUserInfo */\n      0x3d\n        /* \"contracts/IDO.sol\":13068:13091  idoUserInfo[msg.sender] */\n      0x00\n        /* \"contracts/IDO.sol\":13080:13090  msg.sender */\n      caller\n        /* \"contracts/IDO.sol\":13068:13091  idoUserInfo[msg.sender] */\n      0xffffffffffffffffffffffffffffffffffffffff\n      and\n      0xffffffffffffffffffffffffffffffffffffffff\n      and\n      dup2\n      mstore\n      0x20\n      add\n      swap1\n      dup2\n      mstore\n      0x20\n      add\n      0x00\n      keccak256\n        /* \"contracts/IDO.sol\":13068:13103  idoUserInfo[msg.sender].totalReward */\n      0x01\n      add\n      0x00\n        /* \"contracts/IDO.sol\":13068:13114  idoUserInfo[msg.sender].totalReward += _amount */\n      dup3\n      dup3\n      sload\n      add\n      swap3\n      pop\n      pop\n      dup2\n      swap1\n      sstore\n      pop\n        /* \"contracts/IDO.sol\":13136:13142  coffee */\n      0x3a\n      0x00\n      swap1\n      sload\n      swap1\n      0x0100\n      exp\n      swap1\n      div\n      0xffffffffffffffffffffffffffffffffffffffff\n      and\n        /* \"contracts/IDO.sol\":13128:13156  ICoffee(coffee).transferFrom */\n      0xffffffffffffffffffffffffffffffffffffffff\n      and\n      0x23b872dd\n        /* \"contracts/IDO.sol\":13157:13168  developTeam */\n      0x38\n      0x00\n      swap1\n      sload\n      swap1\n      0x0100\n      exp\n      swap1\n      div\n      0xffffffffffffffffffffffffffffffffffffffff\n      and\n        /* \"contracts/IDO.sol\":13169:13179  msg.sender */\n      caller\n        /* \"contracts/IDO.sol\":13180:13201  200000000000000000000 */\n      0x0ad78ebc5ac6200000\n        /* \"contracts/IDO.sol\":13128:13202  ICoffee(coffee).transferFrom(developTeam,msg.sender,200000000000000000000) */\n      mload(0x40)\n      dup5\n      0xffffffff\n      and\n      0xe0\n      shl\n      dup2\n      mstore\n      0x04\n      add\n      tag_132\n      swap4\n      swap3\n      swap2\n      swap1\n      tag_133\n      jump\t// in\n    tag_132:\n      0x20\n      mload(0x40)\n      dup1\n      dup4\n      sub\n      dup2\n      0x00\n      dup8\n      dup1\n      extcodesize\n      iszero\n      dup1\n      iszero\n      tag_134\n      jumpi\n      0x00\n      dup1\n      revert\n    tag_134:\n      pop\n      gas\n      call\n      iszero\n      dup1\n      iszero\n      tag_136\n      jumpi\n      returndatasize\n      0x00\n      dup1\n      returndatacopy\n      revert(0x00, returndatasize)\n    tag_136:\n      pop\n      pop\n      pop\n      pop\n      mload(0x40)\n      returndatasize\n      not(0x1f)\n      0x1f\n      dup3\n      add\n      and\n      dup3\n      add\n      dup1\n      0x40\n      mstore\n      pop\n      dup2\n      add\n      swap1\n      tag_137\n      swap2\n      swap1\n      tag_83\n      jump\t// in\n    tag_137:\n      pop\n        /* \"contracts/IDO.sol\":13018:13213  if(_amount == 200000000000000000000){... */\n    tag_131:\n        /* \"contracts/IDO.sol\":13236:13257  500000000000000000000 */\n      0x1b1ae4d6e2ef500000\n        /* \"contracts/IDO.sol\":13225:13232  _amount */\n      dup2\n        /* \"contracts/IDO.sol\":13225:13257  _amount == 500000000000000000000 */\n      eq\n        /* \"contracts/IDO.sol\":13222:13417  if(_amount == 500000000000000000000){... */\n      iszero\n      tag_138\n      jumpi\n        /* \"contracts/IDO.sol\":13311:13318  _amount */\n      dup1\n        /* \"contracts/IDO.sol\":13272:13283  idoUserInfo */\n      0x3d\n        /* \"contracts/IDO.sol\":13272:13295  idoUserInfo[msg.sender] */\n      0x00\n        /* \"contracts/IDO.sol\":13284:13294  msg.sender */\n      caller\n        /* \"contracts/IDO.sol\":13272:13295  idoUserInfo[msg.sender] */\n      0xffffffffffffffffffffffffffffffffffffffff\n      and\n      0xffffffffffffffffffffffffffffffffffffffff\n      and\n      dup2\n      mstore\n      0x20\n      add\n      swap1\n      dup2\n      mstore\n      0x20\n      add\n      0x00\n      keccak256\n        /* \"contracts/IDO.sol\":13272:13307  idoUserInfo[msg.sender].totalReward */\n      0x01\n      add\n      0x00\n        /* \"contracts/IDO.sol\":13272:13318  idoUserInfo[msg.sender].totalReward += _amount */\n      dup3\n      dup3\n      sload\n      add\n      swap3\n      pop\n      pop\n      dup2\n      swap1\n      sstore\n      pop\n        /* \"contracts/IDO.sol\":13340:13346  coffee */\n      0x3a\n      0x00\n      swap1\n      sload\n      swap1\n      0x0100\n      exp\n      swap1\n      div\n      0xffffffffffffffffffffffffffffffffffffffff\n      and\n        /* \"contracts/IDO.sol\":13332:13360  ICoffee(coffee).transferFrom */\n      0xffffffffffffffffffffffffffffffffffffffff\n      and\n      0x23b872dd\n        /* \"contracts/IDO.sol\":13361:13372  developTeam */\n      0x38\n      0x00\n      swap1\n      sload\n      swap1\n      0x0100\n      exp\n      swap1\n      div\n      0xffffffffffffffffffffffffffffffffffffffff\n      and\n        /* \"contracts/IDO.sol\":13373:13383  msg.sender */\n      caller\n        /* \"contracts/IDO.sol\":13384:13405  500000000000000000000 */\n      0x1b1ae4d6e2ef500000\n        /* \"contracts/IDO.sol\":13332:13406  ICoffee(coffee).transferFrom(developTeam,msg.sender,500000000000000000000) */\n      mload(0x40)\n      dup5\n      0xffffffff\n      and\n      0xe0\n      shl\n      dup2\n      mstore\n      0x04\n      add\n      tag_139\n      swap4\n      swap3\n      swap2\n      swap1\n      tag_140\n      jump\t// in\n    tag_139:\n      0x20\n      mload(0x40)\n      dup1\n      dup4\n      sub\n      dup2\n      0x00\n      dup8\n      dup1\n      extcodesize\n      iszero\n      dup1\n      iszero\n      tag_141\n      jumpi\n      0x00\n      dup1\n      revert\n    tag_141:\n      pop\n      gas\n      call\n      iszero\n      dup1\n      iszero\n      tag_143\n      jumpi\n      returndatasize\n      0x00\n      dup1\n      returndatacopy\n      revert(0x00, returndatasize)\n    tag_143:\n      pop\n      pop\n      pop\n      pop\n      mload(0x40)\n      returndatasize\n      not(0x1f)\n      0x1f\n      dup3\n      add\n      and\n      dup3\n      add\n      dup1\n      0x40\n      mstore\n      pop\n      dup2\n      add\n      swap1\n      tag_144\n      swap2\n      swap1\n      tag_83\n      jump\t// in\n    tag_144:\n      pop\n        /* \"contracts/IDO.sol\":13222:13417  if(_amount == 500000000000000000000){... */\n    tag_138:\n        /* \"contracts/IDO.sol\":13571:13572  0 */\n      0x00\n        /* \"contracts/IDO.sol\":13515:13573  ICoffee(coffee).getSentCOFHigherUp(msg.sender)!=address(0) */\n      0xffffffffffffffffffffffffffffffffffffffff\n      and\n        /* \"contracts/IDO.sol\":13523:13529  coffee */\n      0x3a\n      0x00\n      swap1\n      sload\n      swap1\n      0x0100\n      exp\n      swap1\n      div\n      0xffffffffffffffffffffffffffffffffffffffff\n      and\n        /* \"contracts/IDO.sol\":13515:13549  ICoffee(coffee).getSentCOFHigherUp */\n      0xffffffffffffffffffffffffffffffffffffffff\n      and\n      0x1f5ed1b2\n        /* \"contracts/IDO.sol\":13550:13560  msg.sender */\n      caller\n        /* \"contracts/IDO.sol\":13515:13561  ICoffee(coffee).getSentCOFHigherUp(msg.sender) */\n      mload(0x40)\n      dup3\n      0xffffffff\n      and\n      0xe0\n      shl\n      dup2\n      mstore\n      0x04\n      add\n      tag_145\n      swap2\n      swap1\n      tag_146\n      jump\t// in\n    tag_145:\n      0x20\n      mload(0x40)\n      dup1\n      dup4\n      sub\n      dup2\n      0x00\n      dup8\n      dup1\n      extcodesize\n      iszero\n      dup1\n      iszero\n      tag_147\n      jumpi\n      0x00\n      dup1\n      revert\n    tag_147:\n      pop\n      gas\n      call\n      iszero\n      dup1\n      iszero\n      tag_149\n      jumpi\n      returndatasize\n      0x00\n      dup1\n      returndatacopy\n      revert(0x00, returndatasize)\n    tag_149:\n      pop\n      pop\n      pop\n      pop\n      mload(0x40)\n      returndatasize\n      not(0x1f)\n      0x1f\n      dup3\n      add\n      and\n      dup3\n      add\n      dup1\n      0x40\n      mstore\n      pop\n      dup2\n      add\n      swap1\n      tag_150\n      swap2\n      swap1\n      tag_151\n      jump\t// in\n    tag_150:\n        /* \"contracts/IDO.sol\":13515:13573  ICoffee(coffee).getSentCOFHigherUp(msg.sender)!=address(0) */\n      0xffffffffffffffffffffffffffffffffffffffff\n      and\n      eq\n      iszero\n        /* \"contracts/IDO.sol\":13515:13614  ICoffee(coffee).getSentCOFHigherUp(msg.sender)!=address(0)&&idoUserInfo[msg.sender].HigherUpLock==0 */\n      dup1\n      iszero\n      tag_152\n      jumpi\n      pop\n        /* \"contracts/IDO.sol\":13613:13614  0 */\n      0x00\n        /* \"contracts/IDO.sol\":13575:13586  idoUserInfo */\n      0x3d\n        /* \"contracts/IDO.sol\":13575:13598  idoUserInfo[msg.sender] */\n      0x00\n        /* \"contracts/IDO.sol\":13587:13597  msg.sender */\n      caller\n        /* \"contracts/IDO.sol\":13575:13598  idoUserInfo[msg.sender] */\n      0xffffffffffffffffffffffffffffffffffffffff\n      and\n      0xffffffffffffffffffffffffffffffffffffffff\n      and\n      dup2\n      mstore\n      0x20\n      add\n      swap1\n      dup2\n      mstore\n      0x20\n      add\n      0x00\n      keccak256\n        /* \"contracts/IDO.sol\":13575:13611  idoUserInfo[msg.sender].HigherUpLock */\n      0x04\n      add\n      sload\n        /* \"contracts/IDO.sol\":13575:13614  idoUserInfo[msg.sender].HigherUpLock==0 */\n      eq\n        /* \"contracts/IDO.sol\":13515:13614  ICoffee(coffee).getSentCOFHigherUp(msg.sender)!=address(0)&&idoUserInfo[msg.sender].HigherUpLock==0 */\n    tag_152:\n        /* \"contracts/IDO.sol\":13512:13775  if(ICoffee(coffee).getSentCOFHigherUp(msg.sender)!=address(0)&&idoUserInfo[msg.sender].HigherUpLock==0){... */\n      iszero\n      tag_153\n      jumpi\n        /* \"contracts/IDO.sol\":13709:13710  1 */\n      0x01\n        /* \"contracts/IDO.sol\":13629:13640  idoUserInfo */\n      0x3d\n        /* \"contracts/IDO.sol\":13629:13688  idoUserInfo[ICoffee(coffee).getSentCOFHigherUp(msg.sender)] */\n      0x00\n        /* \"contracts/IDO.sol\":13649:13655  coffee */\n      0x3a\n      0x00\n      swap1\n      sload\n      swap1\n      0x0100\n      exp\n      swap1\n      div\n      0xffffffffffffffffffffffffffffffffffffffff\n      and\n        /* \"contracts/IDO.sol\":13641:13675  ICoffee(coffee).getSentCOFHigherUp */\n      0xffffffffffffffffffffffffffffffffffffffff\n      and\n      0x1f5ed1b2\n        /* \"contracts/IDO.sol\":13676:13686  msg.sender */\n      caller\n        /* \"contracts/IDO.sol\":13641:13687  ICoffee(coffee).getSentCOFHigherUp(msg.sender) */\n      mload(0x40)\n      dup3\n      0xffffffff\n      and\n      0xe0\n      shl\n      dup2\n      mstore\n      0x04\n      add\n      tag_154\n      swap2\n      swap1\n      tag_146\n      jump\t// in\n    tag_154:\n      0x20\n      mload(0x40)\n      dup1\n      dup4\n      sub\n      dup2\n      0x00\n      dup8\n      dup1\n      extcodesize\n      iszero\n      dup1\n      iszero\n      tag_155\n      jumpi\n      0x00\n      dup1\n      revert\n    tag_155:\n      pop\n      gas\n      call\n      iszero\n      dup1\n      iszero\n      tag_157\n      jumpi\n      returndatasize\n      0x00\n      dup1\n      returndatacopy\n      revert(0x00, returndatasize)\n    tag_157:\n      pop\n      pop\n      pop\n      pop\n      mload(0x40)\n      returndatasize\n      not(0x1f)\n      0x1f\n      dup3\n      add\n      and\n      dup3\n      add\n      dup1\n      0x40\n      mstore\n      pop\n      dup2\n      add\n      swap1\n      tag_158\n      swap2\n      swap1\n      tag_151\n      jump\t// in\n    tag_158:\n        /* \"contracts/IDO.sol\":13629:13688  idoUserInfo[ICoffee(coffee).getSentCOFHigherUp(msg.sender)] */\n      0xffffffffffffffffffffffffffffffffffffffff\n      and\n      0xffffffffffffffffffffffffffffffffffffffff\n      and\n      dup2\n      mstore\n      0x20\n      add\n      swap1\n      dup2\n      mstore\n      0x20\n      add\n      0x00\n      keccak256\n        /* \"contracts/IDO.sol\":13629:13707  idoUserInfo[ICoffee(coffee).getSentCOFHigherUp(msg.sender)].totalPromoteAndIDO */\n      0x02\n      add\n      0x00\n        /* \"contracts/IDO.sol\":13629:13710  idoUserInfo[ICoffee(coffee).getSentCOFHigherUp(msg.sender)].totalPromoteAndIDO+=1 */\n      dup3\n      dup3\n      sload\n      add\n      swap3\n      pop\n      pop\n      dup2\n      swap1\n      sstore\n      pop\n        /* \"contracts/IDO.sol\":13763:13764  1 */\n      0x01\n        /* \"contracts/IDO.sol\":13724:13735  idoUserInfo */\n      0x3d\n        /* \"contracts/IDO.sol\":13724:13747  idoUserInfo[msg.sender] */\n      0x00\n        /* \"contracts/IDO.sol\":13736:13746  msg.sender */\n      caller\n        /* \"contracts/IDO.sol\":13724:13747  idoUserInfo[msg.sender] */\n      0xffffffffffffffffffffffffffffffffffffffff\n      and\n      0xffffffffffffffffffffffffffffffffffffffff\n      and\n      dup2\n      mstore\n      0x20\n      add\n      swap1\n      dup2\n      mstore\n      0x20\n      add\n      0x00\n      keccak256\n        /* \"contracts/IDO.sol\":13724:13760  idoUserInfo[msg.sender].HigherUpLock */\n      0x04\n      add\n        /* \"contracts/IDO.sol\":13724:13764  idoUserInfo[msg.sender].HigherUpLock = 1 */\n      dup2\n      swap1\n      sstore\n      pop\n        /* \"contracts/IDO.sol\":13512:13775  if(ICoffee(coffee).getSentCOFHigherUp(msg.sender)!=address(0)&&idoUserInfo[msg.sender].HigherUpLock==0){... */\n    tag_153:\n        /* \"contracts/IDO.sol\":13795:13805  msg.sender */\n      caller\n        /* \"contracts/IDO.sol\":13789:13814  DOIDO(msg.sender,_amount) */\n      0xffffffffffffffffffffffffffffffffffffffff\n      and\n      0x6c6526de39dfaacb57fa46c88b14be8505d09f56cf193b2aef29af27967615ba\n        /* \"contracts/IDO.sol\":13806:13813  _amount */\n      dup3\n        /* \"contracts/IDO.sol\":13789:13814  DOIDO(msg.sender,_amount) */\n      mload(0x40)\n      tag_159\n      swap2\n      swap1\n      tag_85\n      jump\t// in\n    tag_159:\n      mload(0x40)\n      dup1\n      swap2\n      sub\n      swap1\n      log2\n        /* \"contracts/IDO.sol\":12708:13821  function doIDO(uint _amount) public {... */\n      pop\n      jump\t// out\n        /* \"contracts/IDO.sol\":7417:7513  function div(uint256 a, uint256 b) internal pure returns (uint256) {... */\n    tag_74:\n        /* \"contracts/IDO.sol\":7475:7482  uint256 */\n      0x00\n        /* \"contracts/IDO.sol\":7505:7506  b */\n      dup2\n        /* \"contracts/IDO.sol\":7501:7502  a */\n      dup4\n        /* \"contracts/IDO.sol\":7501:7506  a / b */\n      dup2\n      tag_161\n      jumpi\n      invalid\n    tag_161:\n      div\n        /* \"contracts/IDO.sol\":7494:7506  return a / b */\n      swap1\n      pop\n        /* \"contracts/IDO.sol\":7417:7513  function div(uint256 a, uint256 b) internal pure returns (uint256) {... */\n      swap3\n      swap2\n      pop\n      pop\n      jump\t// out\n        /* \"contracts/IDO.sol\":7032:7128  function mul(uint256 a, uint256 b) internal pure returns (uint256) {... */\n    tag_75:\n        /* \"contracts/IDO.sol\":7090:7097  uint256 */\n      0x00\n        /* \"contracts/IDO.sol\":7120:7121  b */\n      dup2\n        /* \"contracts/IDO.sol\":7116:7117  a */\n      dup4\n        /* \"contracts/IDO.sol\":7116:7121  a * b */\n      mul\n        /* \"contracts/IDO.sol\":7109:7121  return a * b */\n      swap1\n      pop\n        /* \"contracts/IDO.sol\":7032:7128  function mul(uint256 a, uint256 b) internal pure returns (uint256) {... */\n      swap3\n      swap2\n      pop\n      pop\n      jump\t// out\n        /* \"contracts/IDO.sol\":6689:6785  function sub(uint256 a, uint256 b) internal pure returns (uint256) {... */\n    tag_76:\n        /* \"contracts/IDO.sol\":6747:6754  uint256 */\n      0x00\n        /* \"contracts/IDO.sol\":6777:6778  b */\n      dup2\n        /* \"contracts/IDO.sol\":6773:6774  a */\n      dup4\n        /* \"contracts/IDO.sol\":6773:6778  a - b */\n      sub\n        /* \"contracts/IDO.sol\":6766:6778  return a - b */\n      swap1\n      pop\n        /* \"contracts/IDO.sol\":6689:6785  function sub(uint256 a, uint256 b) internal pure returns (uint256) {... */\n      swap3\n      swap2\n      pop\n      pop\n      jump\t// out\n        /* \"contracts/IDO.sol\":846:1344  function isConstructor() private view returns (bool) {... */\n    tag_114:\n        /* \"contracts/IDO.sol\":893:897  bool */\n      0x00\n        /* \"contracts/IDO.sol\":1234:1246  address self */\n      dup1\n        /* \"contracts/IDO.sol\":1257:1261  this */\n      address\n        /* \"contracts/IDO.sol\":1234:1262  address self = address(this) */\n      swap1\n      pop\n        /* \"contracts/IDO.sol\":1268:1278  uint256 cs */\n      0x00\n        /* \"contracts/IDO.sol\":1313:1317  self */\n      dup2\n        /* \"contracts/IDO.sol\":1301:1318  extcodesize(self) */\n      extcodesize\n        /* \"contracts/IDO.sol\":1295:1318  cs := extcodesize(self) */\n      swap1\n      pop\n        /* \"contracts/IDO.sol\":1338:1339  0 */\n      0x00\n        /* \"contracts/IDO.sol\":1332:1334  cs */\n      dup2\n        /* \"contracts/IDO.sol\":1332:1339  cs == 0 */\n      eq\n        /* \"contracts/IDO.sol\":1325:1339  return cs == 0 */\n      swap3\n      pop\n      pop\n      pop\n        /* \"contracts/IDO.sol\":846:1344  function isConstructor() private view returns (bool) {... */\n      swap1\n      jump\t// out\n    tag_94:\n      mload(0x40)\n      dup1\n      0xa0\n      add\n      0x40\n      mstore\n      dup1\n      0x00\n      dup2\n      mstore\n      0x20\n      add\n      0x00\n      dup2\n      mstore\n      0x20\n      add\n      0x00\n      dup2\n      mstore\n      0x20\n      add\n      0x00\n      dup2\n      mstore\n      0x20\n      add\n      0x00\n      dup2\n      mstore\n      pop\n      swap1\n      jump\t// out\n        /* \"--CODEGEN--\":5:135   */\n    tag_166:\n      0x00\n        /* \"--CODEGEN--\":85:91   */\n      dup2\n        /* \"--CODEGEN--\":72:92   */\n      calldataload\n        /* \"--CODEGEN--\":63:92   */\n      swap1\n      pop\n        /* \"--CODEGEN--\":97:130   */\n      tag_168\n        /* \"--CODEGEN--\":124:129   */\n      dup2\n        /* \"--CODEGEN--\":97:130   */\n      tag_169\n      jump\t// in\n    tag_168:\n        /* \"--CODEGEN--\":57:135   */\n      swap3\n      swap2\n      pop\n      pop\n      jump\t// out\n        /* \"--CODEGEN--\":142:276   */\n    tag_170:\n      0x00\n        /* \"--CODEGEN--\":226:232   */\n      dup2\n        /* \"--CODEGEN--\":220:233   */\n      mload\n        /* \"--CODEGEN--\":211:233   */\n      swap1\n      pop\n        /* \"--CODEGEN--\":238:271   */\n      tag_172\n        /* \"--CODEGEN--\":265:270   */\n      dup2\n        /* \"--CODEGEN--\":238:271   */\n      tag_169\n      jump\t// in\n    tag_172:\n        /* \"--CODEGEN--\":205:276   */\n      swap3\n      swap2\n      pop\n      pop\n      jump\t// out\n        /* \"--CODEGEN--\":283:411   */\n    tag_173:\n      0x00\n        /* \"--CODEGEN--\":364:370   */\n      dup2\n        /* \"--CODEGEN--\":358:371   */\n      mload\n        /* \"--CODEGEN--\":349:371   */\n      swap1\n      pop\n        /* \"--CODEGEN--\":376:406   */\n      tag_175\n        /* \"--CODEGEN--\":400:405   */\n      dup2\n        /* \"--CODEGEN--\":376:406   */\n      tag_176\n      jump\t// in\n    tag_175:\n        /* \"--CODEGEN--\":343:411   */\n      swap3\n      swap2\n      pop\n      pop\n      jump\t// out\n        /* \"--CODEGEN--\":418:578   */\n    tag_177:\n      0x00\n        /* \"--CODEGEN--\":513:519   */\n      dup2\n        /* \"--CODEGEN--\":500:520   */\n      calldataload\n        /* \"--CODEGEN--\":491:520   */\n      swap1\n      pop\n        /* \"--CODEGEN--\":525:573   */\n      tag_179\n        /* \"--CODEGEN--\":567:572   */\n      dup2\n        /* \"--CODEGEN--\":525:573   */\n      tag_180\n      jump\t// in\n    tag_179:\n        /* \"--CODEGEN--\":485:578   */\n      swap3\n      swap2\n      pop\n      pop\n      jump\t// out\n        /* \"--CODEGEN--\":585:743   */\n    tag_181:\n      0x00\n        /* \"--CODEGEN--\":679:685   */\n      dup2\n        /* \"--CODEGEN--\":666:686   */\n      calldataload\n        /* \"--CODEGEN--\":657:686   */\n      swap1\n      pop\n        /* \"--CODEGEN--\":691:738   */\n      tag_183\n        /* \"--CODEGEN--\":732:737   */\n      dup2\n        /* \"--CODEGEN--\":691:738   */\n      tag_184\n      jump\t// in\n    tag_183:\n        /* \"--CODEGEN--\":651:743   */\n      swap3\n      swap2\n      pop\n      pop\n      jump\t// out\n        /* \"--CODEGEN--\":750:880   */\n    tag_185:\n      0x00\n        /* \"--CODEGEN--\":830:836   */\n      dup2\n        /* \"--CODEGEN--\":817:837   */\n      calldataload\n        /* \"--CODEGEN--\":808:837   */\n      swap1\n      pop\n        /* \"--CODEGEN--\":842:875   */\n      tag_187\n        /* \"--CODEGEN--\":869:874   */\n      dup2\n        /* \"--CODEGEN--\":842:875   */\n      tag_188\n      jump\t// in\n    tag_187:\n        /* \"--CODEGEN--\":802:880   */\n      swap3\n      swap2\n      pop\n      pop\n      jump\t// out\n        /* \"--CODEGEN--\":887:1021   */\n    tag_189:\n      0x00\n        /* \"--CODEGEN--\":971:977   */\n      dup2\n        /* \"--CODEGEN--\":965:978   */\n      mload\n        /* \"--CODEGEN--\":956:978   */\n      swap1\n      pop\n        /* \"--CODEGEN--\":983:1016   */\n      tag_191\n        /* \"--CODEGEN--\":1010:1015   */\n      dup2\n        /* \"--CODEGEN--\":983:1016   */\n      tag_188\n      jump\t// in\n    tag_191:\n        /* \"--CODEGEN--\":950:1021   */\n      swap3\n      swap2\n      pop\n      pop\n      jump\t// out\n        /* \"--CODEGEN--\":1028:1269   */\n    tag_30:\n      0x00\n        /* \"--CODEGEN--\":1132:1134   */\n      0x20\n        /* \"--CODEGEN--\":1120:1129   */\n      dup3\n        /* \"--CODEGEN--\":1111:1118   */\n      dup5\n        /* \"--CODEGEN--\":1107:1130   */\n      sub\n        /* \"--CODEGEN--\":1103:1135   */\n      slt\n        /* \"--CODEGEN--\":1100:1102   */\n      iszero\n      tag_193\n      jumpi\n        /* \"--CODEGEN--\":1148:1149   */\n      0x00\n        /* \"--CODEGEN--\":1145:1146   */\n      dup1\n        /* \"--CODEGEN--\":1138:1150   */\n      revert\n        /* \"--CODEGEN--\":1100:1102   */\n    tag_193:\n        /* \"--CODEGEN--\":1183:1184   */\n      0x00\n        /* \"--CODEGEN--\":1200:1253   */\n      tag_194\n        /* \"--CODEGEN--\":1245:1252   */\n      dup5\n        /* \"--CODEGEN--\":1236:1242   */\n      dup3\n        /* \"--CODEGEN--\":1225:1234   */\n      dup6\n        /* \"--CODEGEN--\":1221:1243   */\n      add\n        /* \"--CODEGEN--\":1200:1253   */\n      tag_166\n      jump\t// in\n    tag_194:\n        /* \"--CODEGEN--\":1190:1253   */\n      swap2\n      pop\n        /* \"--CODEGEN--\":1162:1259   */\n      pop\n        /* \"--CODEGEN--\":1094:1269   */\n      swap3\n      swap2\n      pop\n      pop\n      jump\t// out\n        /* \"--CODEGEN--\":1276:1539   */\n    tag_151:\n      0x00\n        /* \"--CODEGEN--\":1391:1393   */\n      0x20\n        /* \"--CODEGEN--\":1379:1388   */\n      dup3\n        /* \"--CODEGEN--\":1370:1377   */\n      dup5\n        /* \"--CODEGEN--\":1366:1389   */\n      sub\n        /* \"--CODEGEN--\":1362:1394   */\n      slt\n        /* \"--CODEGEN--\":1359:1361   */\n      iszero\n      tag_196\n      jumpi\n        /* \"--CODEGEN--\":1407:1408   */\n      0x00\n        /* \"--CODEGEN--\":1404:1405   */\n      dup1\n        /* \"--CODEGEN--\":1397:1409   */\n      revert\n        /* \"--CODEGEN--\":1359:1361   */\n    tag_196:\n        /* \"--CODEGEN--\":1442:1443   */\n      0x00\n        /* \"--CODEGEN--\":1459:1523   */\n      tag_197\n        /* \"--CODEGEN--\":1515:1522   */\n      dup5\n        /* \"--CODEGEN--\":1506:1512   */\n      dup3\n        /* \"--CODEGEN--\":1495:1504   */\n      dup6\n        /* \"--CODEGEN--\":1491:1513   */\n      add\n        /* \"--CODEGEN--\":1459:1523   */\n      tag_170\n      jump\t// in\n    tag_197:\n        /* \"--CODEGEN--\":1449:1523   */\n      swap2\n      pop\n        /* \"--CODEGEN--\":1421:1529   */\n      pop\n        /* \"--CODEGEN--\":1353:1539   */\n      swap3\n      swap2\n      pop\n      pop\n      jump\t// out\n        /* \"--CODEGEN--\":1546:1803   */\n    tag_83:\n      0x00\n        /* \"--CODEGEN--\":1658:1660   */\n      0x20\n        /* \"--CODEGEN--\":1646:1655   */\n      dup3\n        /* \"--CODEGEN--\":1637:1644   */\n      dup5\n        /* \"--CODEGEN--\":1633:1656   */\n      sub\n        /* \"--CODEGEN--\":1629:1661   */\n      slt\n        /* \"--CODEGEN--\":1626:1628   */\n      iszero\n      tag_199\n      jumpi\n        /* \"--CODEGEN--\":1674:1675   */\n      0x00\n        /* \"--CODEGEN--\":1671:1672   */\n      dup1\n        /* \"--CODEGEN--\":1664:1676   */\n      revert\n        /* \"--CODEGEN--\":1626:1628   */\n    tag_199:\n        /* \"--CODEGEN--\":1709:1710   */\n      0x00\n        /* \"--CODEGEN--\":1726:1787   */\n      tag_200\n        /* \"--CODEGEN--\":1779:1786   */\n      dup5\n        /* \"--CODEGEN--\":1770:1776   */\n      dup3\n        /* \"--CODEGEN--\":1759:1768   */\n      dup6\n        /* \"--CODEGEN--\":1755:1777   */\n      add\n        /* \"--CODEGEN--\":1726:1787   */\n      tag_173\n      jump\t// in\n    tag_200:\n        /* \"--CODEGEN--\":1716:1787   */\n      swap2\n      pop\n        /* \"--CODEGEN--\":1688:1793   */\n      pop\n        /* \"--CODEGEN--\":1620:1803   */\n      swap3\n      swap2\n      pop\n      pop\n      jump\t// out\n        /* \"--CODEGEN--\":1810:2081   */\n    tag_22:\n      0x00\n        /* \"--CODEGEN--\":1929:1931   */\n      0x20\n        /* \"--CODEGEN--\":1917:1926   */\n      dup3\n        /* \"--CODEGEN--\":1908:1915   */\n      dup5\n        /* \"--CODEGEN--\":1904:1927   */\n      sub\n        /* \"--CODEGEN--\":1900:1932   */\n      slt\n        /* \"--CODEGEN--\":1897:1899   */\n      iszero\n      tag_202\n      jumpi\n        /* \"--CODEGEN--\":1945:1946   */\n      0x00\n        /* \"--CODEGEN--\":1942:1943   */\n      dup1\n        /* \"--CODEGEN--\":1935:1947   */\n      revert\n        /* \"--CODEGEN--\":1897:1899   */\n    tag_202:\n        /* \"--CODEGEN--\":1980:1981   */\n      0x00\n        /* \"--CODEGEN--\":1997:2065   */\n      tag_203\n        /* \"--CODEGEN--\":2057:2064   */\n      dup5\n        /* \"--CODEGEN--\":2048:2054   */\n      dup3\n        /* \"--CODEGEN--\":2037:2046   */\n      dup6\n        /* \"--CODEGEN--\":2033:2055   */\n      add\n        /* \"--CODEGEN--\":1997:2065   */\n      tag_177\n      jump\t// in\n    tag_203:\n        /* \"--CODEGEN--\":1987:2065   */\n      swap2\n      pop\n        /* \"--CODEGEN--\":1959:2071   */\n      pop\n        /* \"--CODEGEN--\":1891:2081   */\n      swap3\n      swap2\n      pop\n      pop\n      jump\t// out\n        /* \"--CODEGEN--\":2088:2637   */\n    tag_51:\n      0x00\n      dup1\n      0x00\n        /* \"--CODEGEN--\":2255:2257   */\n      0x60\n        /* \"--CODEGEN--\":2243:2252   */\n      dup5\n        /* \"--CODEGEN--\":2234:2241   */\n      dup7\n        /* \"--CODEGEN--\":2230:2253   */\n      sub\n        /* \"--CODEGEN--\":2226:2258   */\n      slt\n        /* \"--CODEGEN--\":2223:2225   */\n      iszero\n      tag_205\n      jumpi\n        /* \"--CODEGEN--\":2271:2272   */\n      0x00\n        /* \"--CODEGEN--\":2268:2269   */\n      dup1\n        /* \"--CODEGEN--\":2261:2273   */\n      revert\n        /* \"--CODEGEN--\":2223:2225   */\n    tag_205:\n        /* \"--CODEGEN--\":2306:2307   */\n      0x00\n        /* \"--CODEGEN--\":2323:2391   */\n      tag_206\n        /* \"--CODEGEN--\":2383:2390   */\n      dup7\n        /* \"--CODEGEN--\":2374:2380   */\n      dup3\n        /* \"--CODEGEN--\":2363:2372   */\n      dup8\n        /* \"--CODEGEN--\":2359:2381   */\n      add\n        /* \"--CODEGEN--\":2323:2391   */\n      tag_177\n      jump\t// in\n    tag_206:\n        /* \"--CODEGEN--\":2313:2391   */\n      swap4\n      pop\n        /* \"--CODEGEN--\":2285:2397   */\n      pop\n        /* \"--CODEGEN--\":2428:2430   */\n      0x20\n        /* \"--CODEGEN--\":2446:2513   */\n      tag_207\n        /* \"--CODEGEN--\":2505:2512   */\n      dup7\n        /* \"--CODEGEN--\":2496:2502   */\n      dup3\n        /* \"--CODEGEN--\":2485:2494   */\n      dup8\n        /* \"--CODEGEN--\":2481:2503   */\n      add\n        /* \"--CODEGEN--\":2446:2513   */\n      tag_181\n      jump\t// in\n    tag_207:\n        /* \"--CODEGEN--\":2436:2513   */\n      swap3\n      pop\n        /* \"--CODEGEN--\":2407:2519   */\n      pop\n        /* \"--CODEGEN--\":2550:2552   */\n      0x40\n        /* \"--CODEGEN--\":2568:2621   */\n      tag_208\n        /* \"--CODEGEN--\":2613:2620   */\n      dup7\n        /* \"--CODEGEN--\":2604:2610   */\n      dup3\n        /* \"--CODEGEN--\":2593:2602   */\n      dup8\n        /* \"--CODEGEN--\":2589:2611   */\n      add\n        /* \"--CODEGEN--\":2568:2621   */\n      tag_166\n      jump\t// in\n    tag_208:\n        /* \"--CODEGEN--\":2558:2621   */\n      swap2\n      pop\n        /* \"--CODEGEN--\":2529:2627   */\n      pop\n        /* \"--CODEGEN--\":2217:2637   */\n      swap3\n      pop\n      swap3\n      pop\n      swap3\n      jump\t// out\n        /* \"--CODEGEN--\":2644:2913   */\n    tag_47:\n      0x00\n        /* \"--CODEGEN--\":2762:2764   */\n      0x20\n        /* \"--CODEGEN--\":2750:2759   */\n      dup3\n        /* \"--CODEGEN--\":2741:2748   */\n      dup5\n        /* \"--CODEGEN--\":2737:2760   */\n      sub\n        /* \"--CODEGEN--\":2733:2765   */\n      slt\n        /* \"--CODEGEN--\":2730:2732   */\n      iszero\n      tag_210\n      jumpi\n        /* \"--CODEGEN--\":2778:2779   */\n      0x00\n        /* \"--CODEGEN--\":2775:2776   */\n      dup1\n        /* \"--CODEGEN--\":2768:2780   */\n      revert\n        /* \"--CODEGEN--\":2730:2732   */\n    tag_210:\n        /* \"--CODEGEN--\":2813:2814   */\n      0x00\n        /* \"--CODEGEN--\":2830:2897   */\n      tag_211\n        /* \"--CODEGEN--\":2889:2896   */\n      dup5\n        /* \"--CODEGEN--\":2880:2886   */\n      dup3\n        /* \"--CODEGEN--\":2869:2878   */\n      dup6\n        /* \"--CODEGEN--\":2865:2887   */\n      add\n        /* \"--CODEGEN--\":2830:2897   */\n      tag_181\n      jump\t// in\n    tag_211:\n        /* \"--CODEGEN--\":2820:2897   */\n      swap2\n      pop\n        /* \"--CODEGEN--\":2792:2903   */\n      pop\n        /* \"--CODEGEN--\":2724:2913   */\n      swap3\n      swap2\n      pop\n      pop\n      jump\t// out\n        /* \"--CODEGEN--\":2920:3161   */\n    tag_34:\n      0x00\n        /* \"--CODEGEN--\":3024:3026   */\n      0x20\n        /* \"--CODEGEN--\":3012:3021   */\n      dup3\n        /* \"--CODEGEN--\":3003:3010   */\n      dup5\n        /* \"--CODEGEN--\":2999:3022   */\n      sub\n        /* \"--CODEGEN--\":2995:3027   */\n      slt\n        /* \"--CODEGEN--\":2992:2994   */\n      iszero\n      tag_213\n      jumpi\n        /* \"--CODEGEN--\":3040:3041   */\n      0x00\n        /* \"--CODEGEN--\":3037:3038   */\n      dup1\n        /* \"--CODEGEN--\":3030:3042   */\n      revert\n        /* \"--CODEGEN--\":2992:2994   */\n    tag_213:\n        /* \"--CODEGEN--\":3075:3076   */\n      0x00\n        /* \"--CODEGEN--\":3092:3145   */\n      tag_214\n        /* \"--CODEGEN--\":3137:3144   */\n      dup5\n        /* \"--CODEGEN--\":3128:3134   */\n      dup3\n        /* \"--CODEGEN--\":3117:3126   */\n      dup6\n        /* \"--CODEGEN--\":3113:3135   */\n      add\n        /* \"--CODEGEN--\":3092:3145   */\n      tag_185\n      jump\t// in\n    tag_214:\n        /* \"--CODEGEN--\":3082:3145   */\n      swap2\n      pop\n        /* \"--CODEGEN--\":3054:3151   */\n      pop\n        /* \"--CODEGEN--\":2986:3161   */\n      swap3\n      swap2\n      pop\n      pop\n      jump\t// out\n        /* \"--CODEGEN--\":3168:3431   */\n    tag_104:\n      0x00\n        /* \"--CODEGEN--\":3283:3285   */\n      0x20\n        /* \"--CODEGEN--\":3271:3280   */\n      dup3\n        /* \"--CODEGEN--\":3262:3269   */\n      dup5\n        /* \"--CODEGEN--\":3258:3281   */\n      sub\n        /* \"--CODEGEN--\":3254:3286   */\n      slt\n        /* \"--CODEGEN--\":3251:3253   */\n      iszero\n      tag_216\n      jumpi\n        /* \"--CODEGEN--\":3299:3300   */\n      0x00\n        /* \"--CODEGEN--\":3296:3297   */\n      dup1\n        /* \"--CODEGEN--\":3289:3301   */\n      revert\n        /* \"--CODEGEN--\":3251:3253   */\n    tag_216:\n        /* \"--CODEGEN--\":3334:3335   */\n      0x00\n        /* \"--CODEGEN--\":3351:3415   */\n      tag_217\n        /* \"--CODEGEN--\":3407:3414   */\n      dup5\n        /* \"--CODEGEN--\":3398:3404   */\n      dup3\n        /* \"--CODEGEN--\":3387:3396   */\n      dup6\n        /* \"--CODEGEN--\":3383:3405   */\n      add\n        /* \"--CODEGEN--\":3351:3415   */\n      tag_189\n      jump\t// in\n    tag_217:\n        /* \"--CODEGEN--\":3341:3415   */\n      swap2\n      pop\n        /* \"--CODEGEN--\":3313:3421   */\n      pop\n        /* \"--CODEGEN--\":3245:3431   */\n      swap3\n      swap2\n      pop\n      pop\n      jump\t// out\n        /* \"--CODEGEN--\":3438:3580   */\n    tag_218:\n        /* \"--CODEGEN--\":3529:3574   */\n      tag_220\n        /* \"--CODEGEN--\":3568:3573   */\n      dup2\n        /* \"--CODEGEN--\":3529:3574   */\n      tag_221\n      jump\t// in\n    tag_220:\n        /* \"--CODEGEN--\":3524:3527   */\n      dup3\n        /* \"--CODEGEN--\":3517:3575   */\n      mstore\n        /* \"--CODEGEN--\":3511:3580   */\n      pop\n      pop\n      jump\t// out\n        /* \"--CODEGEN--\":3587:3700   */\n    tag_222:\n        /* \"--CODEGEN--\":3670:3694   */\n      tag_224\n        /* \"--CODEGEN--\":3688:3693   */\n      dup2\n        /* \"--CODEGEN--\":3670:3694   */\n      tag_225\n      jump\t// in\n    tag_224:\n        /* \"--CODEGEN--\":3665:3668   */\n      dup3\n        /* \"--CODEGEN--\":3658:3695   */\n      mstore\n        /* \"--CODEGEN--\":3652:3700   */\n      pop\n      pop\n      jump\t// out\n        /* \"--CODEGEN--\":3707:3863   */\n    tag_226:\n        /* \"--CODEGEN--\":3805:3857   */\n      tag_228\n        /* \"--CODEGEN--\":3851:3856   */\n      dup2\n        /* \"--CODEGEN--\":3805:3857   */\n      tag_229\n      jump\t// in\n    tag_228:\n        /* \"--CODEGEN--\":3800:3803   */\n      dup3\n        /* \"--CODEGEN--\":3793:3858   */\n      mstore\n        /* \"--CODEGEN--\":3787:3863   */\n      pop\n      pop\n      jump\t// out\n        /* \"--CODEGEN--\":3870:4024   */\n    tag_230:\n        /* \"--CODEGEN--\":3967:4018   */\n      tag_232\n        /* \"--CODEGEN--\":4012:4017   */\n      dup2\n        /* \"--CODEGEN--\":3967:4018   */\n      tag_233\n      jump\t// in\n    tag_232:\n        /* \"--CODEGEN--\":3962:3965   */\n      dup3\n        /* \"--CODEGEN--\":3955:4019   */\n      mstore\n        /* \"--CODEGEN--\":3949:4024   */\n      pop\n      pop\n      jump\t// out\n        /* \"--CODEGEN--\":4031:4213   */\n    tag_234:\n        /* \"--CODEGEN--\":4142:4207   */\n      tag_236\n        /* \"--CODEGEN--\":4201:4206   */\n      dup2\n        /* \"--CODEGEN--\":4142:4207   */\n      tag_237\n      jump\t// in\n    tag_236:\n        /* \"--CODEGEN--\":4137:4140   */\n      dup3\n        /* \"--CODEGEN--\":4130:4208   */\n      mstore\n        /* \"--CODEGEN--\":4124:4213   */\n      pop\n      pop\n      jump\t// out\n        /* \"--CODEGEN--\":4220:4402   */\n    tag_238:\n        /* \"--CODEGEN--\":4331:4396   */\n      tag_240\n        /* \"--CODEGEN--\":4390:4395   */\n      dup2\n        /* \"--CODEGEN--\":4331:4396   */\n      tag_241\n      jump\t// in\n    tag_240:\n        /* \"--CODEGEN--\":4326:4329   */\n      dup3\n        /* \"--CODEGEN--\":4319:4397   */\n      mstore\n        /* \"--CODEGEN--\":4313:4402   */\n      pop\n      pop\n      jump\t// out\n        /* \"--CODEGEN--\":4410:4793   */\n    tag_242:\n      0x00\n        /* \"--CODEGEN--\":4570:4637   */\n      tag_244\n        /* \"--CODEGEN--\":4634:4636   */\n      0x2e\n        /* \"--CODEGEN--\":4629:4632   */\n      dup4\n        /* \"--CODEGEN--\":4570:4637   */\n      tag_245\n      jump\t// in\n    tag_244:\n        /* \"--CODEGEN--\":4563:4637   */\n      swap2\n      pop\n        /* \"--CODEGEN--\":4670:4704   */\n      0x436f6e747261637420696e7374616e63652068617320616c7265616479206265\n        /* \"--CODEGEN--\":4666:4667   */\n      0x00\n        /* \"--CODEGEN--\":4661:4664   */\n      dup4\n        /* \"--CODEGEN--\":4657:4668   */\n      add\n        /* \"--CODEGEN--\":4650:4705   */\n      mstore\n        /* \"--CODEGEN--\":4739:4755   */\n      0x656e20696e697469616c697a6564000000000000000000000000000000000000\n        /* \"--CODEGEN--\":4734:4736   */\n      0x20\n        /* \"--CODEGEN--\":4729:4732   */\n      dup4\n        /* \"--CODEGEN--\":4725:4737   */\n      add\n        /* \"--CODEGEN--\":4718:4756   */\n      mstore\n        /* \"--CODEGEN--\":4784:4786   */\n      0x40\n        /* \"--CODEGEN--\":4779:4782   */\n      dup3\n        /* \"--CODEGEN--\":4775:4787   */\n      add\n        /* \"--CODEGEN--\":4768:4787   */\n      swap1\n      pop\n        /* \"--CODEGEN--\":4556:4793   */\n      swap2\n      swap1\n      pop\n      jump\t// out\n        /* \"--CODEGEN--\":4802:5112   */\n    tag_246:\n      0x00\n        /* \"--CODEGEN--\":4962:5029   */\n      tag_248\n        /* \"--CODEGEN--\":5026:5028   */\n      0x0a\n        /* \"--CODEGEN--\":5021:5024   */\n      dup4\n        /* \"--CODEGEN--\":4962:5029   */\n      tag_245\n      jump\t// in\n    tag_248:\n        /* \"--CODEGEN--\":4955:5029   */\n      swap2\n      pop\n        /* \"--CODEGEN--\":5062:5074   */\n      0x6f6e6c79206f776e657200000000000000000000000000000000000000000000\n        /* \"--CODEGEN--\":5058:5059   */\n      0x00\n        /* \"--CODEGEN--\":5053:5056   */\n      dup4\n        /* \"--CODEGEN--\":5049:5060   */\n      add\n        /* \"--CODEGEN--\":5042:5075   */\n      mstore\n        /* \"--CODEGEN--\":5103:5105   */\n      0x20\n        /* \"--CODEGEN--\":5098:5101   */\n      dup3\n        /* \"--CODEGEN--\":5094:5106   */\n      add\n        /* \"--CODEGEN--\":5087:5106   */\n      swap1\n      pop\n        /* \"--CODEGEN--\":4948:5112   */\n      swap2\n      swap1\n      pop\n      jump\t// out\n        /* \"--CODEGEN--\":5167:6162   */\n    tag_249:\n        /* \"--CODEGEN--\":5308:5312   */\n      0xa0\n        /* \"--CODEGEN--\":5303:5306   */\n      dup3\n        /* \"--CODEGEN--\":5299:5313   */\n      add\n        /* \"--CODEGEN--\":5399:5403   */\n      0x00\n        /* \"--CODEGEN--\":5392:5397   */\n      dup3\n        /* \"--CODEGEN--\":5388:5404   */\n      add\n        /* \"--CODEGEN--\":5382:5405   */\n      mload\n        /* \"--CODEGEN--\":5411:5474   */\n      tag_251\n        /* \"--CODEGEN--\":5468:5472   */\n      0x00\n        /* \"--CODEGEN--\":5463:5466   */\n      dup6\n        /* \"--CODEGEN--\":5459:5473   */\n      add\n        /* \"--CODEGEN--\":5445:5457   */\n      dup3\n        /* \"--CODEGEN--\":5411:5474   */\n      tag_252\n      jump\t// in\n    tag_251:\n        /* \"--CODEGEN--\":5328:5480   */\n      pop\n        /* \"--CODEGEN--\":5564:5568   */\n      0x20\n        /* \"--CODEGEN--\":5557:5562   */\n      dup3\n        /* \"--CODEGEN--\":5553:5569   */\n      add\n        /* \"--CODEGEN--\":5547:5570   */\n      mload\n        /* \"--CODEGEN--\":5576:5639   */\n      tag_253\n        /* \"--CODEGEN--\":5633:5637   */\n      0x20\n        /* \"--CODEGEN--\":5628:5631   */\n      dup6\n        /* \"--CODEGEN--\":5624:5638   */\n      add\n        /* \"--CODEGEN--\":5610:5622   */\n      dup3\n        /* \"--CODEGEN--\":5576:5639   */\n      tag_252\n      jump\t// in\n    tag_253:\n        /* \"--CODEGEN--\":5490:5645   */\n      pop\n        /* \"--CODEGEN--\":5730:5734   */\n      0x40\n        /* \"--CODEGEN--\":5723:5728   */\n      dup3\n        /* \"--CODEGEN--\":5719:5735   */\n      add\n        /* \"--CODEGEN--\":5713:5736   */\n      mload\n        /* \"--CODEGEN--\":5742:5805   */\n      tag_254\n        /* \"--CODEGEN--\":5799:5803   */\n      0x40\n        /* \"--CODEGEN--\":5794:5797   */\n      dup6\n        /* \"--CODEGEN--\":5790:5804   */\n      add\n        /* \"--CODEGEN--\":5776:5788   */\n      dup3\n        /* \"--CODEGEN--\":5742:5805   */\n      tag_252\n      jump\t// in\n    tag_254:\n        /* \"--CODEGEN--\":5655:5811   */\n      pop\n        /* \"--CODEGEN--\":5902:5906   */\n      0x60\n        /* \"--CODEGEN--\":5895:5900   */\n      dup3\n        /* \"--CODEGEN--\":5891:5907   */\n      add\n        /* \"--CODEGEN--\":5885:5908   */\n      mload\n        /* \"--CODEGEN--\":5914:5977   */\n      tag_255\n        /* \"--CODEGEN--\":5971:5975   */\n      0x60\n        /* \"--CODEGEN--\":5966:5969   */\n      dup6\n        /* \"--CODEGEN--\":5962:5976   */\n      add\n        /* \"--CODEGEN--\":5948:5960   */\n      dup3\n        /* \"--CODEGEN--\":5914:5977   */\n      tag_252\n      jump\t// in\n    tag_255:\n        /* \"--CODEGEN--\":5821:5983   */\n      pop\n        /* \"--CODEGEN--\":6066:6070   */\n      0x80\n        /* \"--CODEGEN--\":6059:6064   */\n      dup3\n        /* \"--CODEGEN--\":6055:6071   */\n      add\n        /* \"--CODEGEN--\":6049:6072   */\n      mload\n        /* \"--CODEGEN--\":6078:6141   */\n      tag_256\n        /* \"--CODEGEN--\":6135:6139   */\n      0x80\n        /* \"--CODEGEN--\":6130:6133   */\n      dup6\n        /* \"--CODEGEN--\":6126:6140   */\n      add\n        /* \"--CODEGEN--\":6112:6124   */\n      dup3\n        /* \"--CODEGEN--\":6078:6141   */\n      tag_252\n      jump\t// in\n    tag_256:\n        /* \"--CODEGEN--\":5993:6147   */\n      pop\n        /* \"--CODEGEN--\":5281:6162   */\n      pop\n      pop\n      pop\n      jump\t// out\n        /* \"--CODEGEN--\":6169:6272   */\n    tag_252:\n        /* \"--CODEGEN--\":6242:6266   */\n      tag_258\n        /* \"--CODEGEN--\":6260:6265   */\n      dup2\n        /* \"--CODEGEN--\":6242:6266   */\n      tag_259\n      jump\t// in\n    tag_258:\n        /* \"--CODEGEN--\":6237:6240   */\n      dup3\n        /* \"--CODEGEN--\":6230:6267   */\n      mstore\n        /* \"--CODEGEN--\":6224:6272   */\n      pop\n      pop\n      jump\t// out\n        /* \"--CODEGEN--\":6279:6392   */\n    tag_260:\n        /* \"--CODEGEN--\":6362:6386   */\n      tag_262\n        /* \"--CODEGEN--\":6380:6385   */\n      dup2\n        /* \"--CODEGEN--\":6362:6386   */\n      tag_259\n      jump\t// in\n    tag_262:\n        /* \"--CODEGEN--\":6357:6360   */\n      dup3\n        /* \"--CODEGEN--\":6350:6387   */\n      mstore\n        /* \"--CODEGEN--\":6344:6392   */\n      pop\n      pop\n      jump\t// out\n        /* \"--CODEGEN--\":6399:6621   */\n    tag_99:\n      0x00\n        /* \"--CODEGEN--\":6526:6528   */\n      0x20\n        /* \"--CODEGEN--\":6515:6524   */\n      dup3\n        /* \"--CODEGEN--\":6511:6529   */\n      add\n        /* \"--CODEGEN--\":6503:6529   */\n      swap1\n      pop\n        /* \"--CODEGEN--\":6540:6611   */\n      tag_264\n        /* \"--CODEGEN--\":6608:6609   */\n      0x00\n        /* \"--CODEGEN--\":6597:6606   */\n      dup4\n        /* \"--CODEGEN--\":6593:6610   */\n      add\n        /* \"--CODEGEN--\":6584:6590   */\n      dup5\n        /* \"--CODEGEN--\":6540:6611   */\n      tag_222\n      jump\t// in\n    tag_264:\n        /* \"--CODEGEN--\":6497:6621   */\n      swap3\n      swap2\n      pop\n      pop\n      jump\t// out\n        /* \"--CODEGEN--\":6628:6866   */\n    tag_146:\n      0x00\n        /* \"--CODEGEN--\":6763:6765   */\n      0x20\n        /* \"--CODEGEN--\":6752:6761   */\n      dup3\n        /* \"--CODEGEN--\":6748:6766   */\n      add\n        /* \"--CODEGEN--\":6740:6766   */\n      swap1\n      pop\n        /* \"--CODEGEN--\":6777:6856   */\n      tag_266\n        /* \"--CODEGEN--\":6853:6854   */\n      0x00\n        /* \"--CODEGEN--\":6842:6851   */\n      dup4\n        /* \"--CODEGEN--\":6838:6855   */\n      add\n        /* \"--CODEGEN--\":6829:6835   */\n      dup5\n        /* \"--CODEGEN--\":6777:6856   */\n      tag_218\n      jump\t// in\n    tag_266:\n        /* \"--CODEGEN--\":6734:6866   */\n      swap3\n      swap2\n      pop\n      pop\n      jump\t// out\n        /* \"--CODEGEN--\":6873:7333   */\n    tag_124:\n      0x00\n        /* \"--CODEGEN--\":7064:7066   */\n      0x60\n        /* \"--CODEGEN--\":7053:7062   */\n      dup3\n        /* \"--CODEGEN--\":7049:7067   */\n      add\n        /* \"--CODEGEN--\":7041:7067   */\n      swap1\n      pop\n        /* \"--CODEGEN--\":7078:7157   */\n      tag_268\n        /* \"--CODEGEN--\":7154:7155   */\n      0x00\n        /* \"--CODEGEN--\":7143:7152   */\n      dup4\n        /* \"--CODEGEN--\":7139:7156   */\n      add\n        /* \"--CODEGEN--\":7130:7136   */\n      dup7\n        /* \"--CODEGEN--\":7078:7157   */\n      tag_218\n      jump\t// in\n    tag_268:\n        /* \"--CODEGEN--\":7168:7240   */\n      tag_269\n        /* \"--CODEGEN--\":7236:7238   */\n      0x20\n        /* \"--CODEGEN--\":7225:7234   */\n      dup4\n        /* \"--CODEGEN--\":7221:7239   */\n      add\n        /* \"--CODEGEN--\":7212:7218   */\n      dup6\n        /* \"--CODEGEN--\":7168:7240   */\n      tag_222\n      jump\t// in\n    tag_269:\n        /* \"--CODEGEN--\":7251:7323   */\n      tag_270\n        /* \"--CODEGEN--\":7319:7321   */\n      0x40\n        /* \"--CODEGEN--\":7308:7317   */\n      dup4\n        /* \"--CODEGEN--\":7304:7322   */\n      add\n        /* \"--CODEGEN--\":7295:7301   */\n      dup5\n        /* \"--CODEGEN--\":7251:7323   */\n      tag_260\n      jump\t// in\n    tag_270:\n        /* \"--CODEGEN--\":7035:7333   */\n      swap5\n      swap4\n      pop\n      pop\n      pop\n      pop\n      jump\t// out\n        /* \"--CODEGEN--\":7340:7856   */\n    tag_133:\n      0x00\n        /* \"--CODEGEN--\":7559:7561   */\n      0x60\n        /* \"--CODEGEN--\":7548:7557   */\n      dup3\n        /* \"--CODEGEN--\":7544:7562   */\n      add\n        /* \"--CODEGEN--\":7536:7562   */\n      swap1\n      pop\n        /* \"--CODEGEN--\":7573:7644   */\n      tag_272\n        /* \"--CODEGEN--\":7641:7642   */\n      0x00\n        /* \"--CODEGEN--\":7630:7639   */\n      dup4\n        /* \"--CODEGEN--\":7626:7643   */\n      add\n        /* \"--CODEGEN--\":7617:7623   */\n      dup7\n        /* \"--CODEGEN--\":7573:7644   */\n      tag_222\n      jump\t// in\n    tag_272:\n        /* \"--CODEGEN--\":7655:7735   */\n      tag_273\n        /* \"--CODEGEN--\":7731:7733   */\n      0x20\n        /* \"--CODEGEN--\":7720:7729   */\n      dup4\n        /* \"--CODEGEN--\":7716:7734   */\n      add\n        /* \"--CODEGEN--\":7707:7713   */\n      dup6\n        /* \"--CODEGEN--\":7655:7735   */\n      tag_218\n      jump\t// in\n    tag_273:\n        /* \"--CODEGEN--\":7746:7846   */\n      tag_274\n        /* \"--CODEGEN--\":7842:7844   */\n      0x40\n        /* \"--CODEGEN--\":7831:7840   */\n      dup4\n        /* \"--CODEGEN--\":7827:7845   */\n      add\n        /* \"--CODEGEN--\":7818:7824   */\n      dup5\n        /* \"--CODEGEN--\":7746:7846   */\n      tag_234\n      jump\t// in\n    tag_274:\n        /* \"--CODEGEN--\":7530:7856   */\n      swap5\n      swap4\n      pop\n      pop\n      pop\n      pop\n      jump\t// out\n        /* \"--CODEGEN--\":7863:8379   */\n    tag_140:\n      0x00\n        /* \"--CODEGEN--\":8082:8084   */\n      0x60\n        /* \"--CODEGEN--\":8071:8080   */\n      dup3\n        /* \"--CODEGEN--\":8067:8085   */\n      add\n        /* \"--CODEGEN--\":8059:8085   */\n      swap1\n      pop\n        /* \"--CODEGEN--\":8096:8167   */\n      tag_276\n        /* \"--CODEGEN--\":8164:8165   */\n      0x00\n        /* \"--CODEGEN--\":8153:8162   */\n      dup4\n        /* \"--CODEGEN--\":8149:8166   */\n      add\n        /* \"--CODEGEN--\":8140:8146   */\n      dup7\n        /* \"--CODEGEN--\":8096:8167   */\n      tag_222\n      jump\t// in\n    tag_276:\n        /* \"--CODEGEN--\":8178:8258   */\n      tag_277\n        /* \"--CODEGEN--\":8254:8256   */\n      0x20\n        /* \"--CODEGEN--\":8243:8252   */\n      dup4\n        /* \"--CODEGEN--\":8239:8257   */\n      add\n        /* \"--CODEGEN--\":8230:8236   */\n      dup6\n        /* \"--CODEGEN--\":8178:8258   */\n      tag_218\n      jump\t// in\n    tag_277:\n        /* \"--CODEGEN--\":8269:8369   */\n      tag_278\n        /* \"--CODEGEN--\":8365:8367   */\n      0x40\n        /* \"--CODEGEN--\":8354:8363   */\n      dup4\n        /* \"--CODEGEN--\":8350:8368   */\n      add\n        /* \"--CODEGEN--\":8341:8347   */\n      dup5\n        /* \"--CODEGEN--\":8269:8369   */\n      tag_238\n      jump\t// in\n    tag_278:\n        /* \"--CODEGEN--\":8053:8379   */\n      swap5\n      swap4\n      pop\n      pop\n      pop\n      pop\n      jump\t// out\n        /* \"--CODEGEN--\":8386:8846   */\n    tag_78:\n      0x00\n        /* \"--CODEGEN--\":8577:8579   */\n      0x60\n        /* \"--CODEGEN--\":8566:8575   */\n      dup3\n        /* \"--CODEGEN--\":8562:8580   */\n      add\n        /* \"--CODEGEN--\":8554:8580   */\n      swap1\n      pop\n        /* \"--CODEGEN--\":8591:8662   */\n      tag_280\n        /* \"--CODEGEN--\":8659:8660   */\n      0x00\n        /* \"--CODEGEN--\":8648:8657   */\n      dup4\n        /* \"--CODEGEN--\":8644:8661   */\n      add\n        /* \"--CODEGEN--\":8635:8641   */\n      dup7\n        /* \"--CODEGEN--\":8591:8662   */\n      tag_222\n      jump\t// in\n    tag_280:\n        /* \"--CODEGEN--\":8673:8753   */\n      tag_281\n        /* \"--CODEGEN--\":8749:8751   */\n      0x20\n        /* \"--CODEGEN--\":8738:8747   */\n      dup4\n        /* \"--CODEGEN--\":8734:8752   */\n      add\n        /* \"--CODEGEN--\":8725:8731   */\n      dup6\n        /* \"--CODEGEN--\":8673:8753   */\n      tag_218\n      jump\t// in\n    tag_281:\n        /* \"--CODEGEN--\":8764:8836   */\n      tag_282\n        /* \"--CODEGEN--\":8832:8834   */\n      0x40\n        /* \"--CODEGEN--\":8821:8830   */\n      dup4\n        /* \"--CODEGEN--\":8817:8835   */\n      add\n        /* \"--CODEGEN--\":8808:8814   */\n      dup5\n        /* \"--CODEGEN--\":8764:8836   */\n      tag_260\n      jump\t// in\n    tag_282:\n        /* \"--CODEGEN--\":8548:8846   */\n      swap5\n      swap4\n      pop\n      pop\n      pop\n      pop\n      jump\t// out\n        /* \"--CODEGEN--\":8853:9105   */\n    tag_27:\n      0x00\n        /* \"--CODEGEN--\":8995:8997   */\n      0x20\n        /* \"--CODEGEN--\":8984:8993   */\n      dup3\n        /* \"--CODEGEN--\":8980:8998   */\n      add\n        /* \"--CODEGEN--\":8972:8998   */\n      swap1\n      pop\n        /* \"--CODEGEN--\":9009:9095   */\n      tag_284\n        /* \"--CODEGEN--\":9092:9093   */\n      0x00\n        /* \"--CODEGEN--\":9081:9090   */\n      dup4\n        /* \"--CODEGEN--\":9077:9094   */\n      add\n        /* \"--CODEGEN--\":9068:9074   */\n      dup5\n        /* \"--CODEGEN--\":9009:9095   */\n      tag_226\n      jump\t// in\n    tag_284:\n        /* \"--CODEGEN--\":8966:9105   */\n      swap3\n      swap2\n      pop\n      pop\n      jump\t// out\n        /* \"--CODEGEN--\":9112:9362   */\n    tag_19:\n      0x00\n        /* \"--CODEGEN--\":9253:9255   */\n      0x20\n        /* \"--CODEGEN--\":9242:9251   */\n      dup3\n        /* \"--CODEGEN--\":9238:9256   */\n      add\n        /* \"--CODEGEN--\":9230:9256   */\n      swap1\n      pop\n        /* \"--CODEGEN--\":9267:9352   */\n      tag_286\n        /* \"--CODEGEN--\":9349:9350   */\n      0x00\n        /* \"--CODEGEN--\":9338:9347   */\n      dup4\n        /* \"--CODEGEN--\":9334:9351   */\n      add\n        /* \"--CODEGEN--\":9325:9331   */\n      dup5\n        /* \"--CODEGEN--\":9267:9352   */\n      tag_230\n      jump\t// in\n    tag_286:\n        /* \"--CODEGEN--\":9224:9362   */\n      swap3\n      swap2\n      pop\n      pop\n      jump\t// out\n        /* \"--CODEGEN--\":9369:9785   */\n    tag_118:\n      0x00\n        /* \"--CODEGEN--\":9569:9571   */\n      0x20\n        /* \"--CODEGEN--\":9558:9567   */\n      dup3\n        /* \"--CODEGEN--\":9554:9572   */\n      add\n        /* \"--CODEGEN--\":9546:9572   */\n      swap1\n      pop\n        /* \"--CODEGEN--\":9619:9628   */\n      dup2\n        /* \"--CODEGEN--\":9613:9617   */\n      dup2\n        /* \"--CODEGEN--\":9609:9629   */\n      sub\n        /* \"--CODEGEN--\":9605:9606   */\n      0x00\n        /* \"--CODEGEN--\":9594:9603   */\n      dup4\n        /* \"--CODEGEN--\":9590:9607   */\n      add\n        /* \"--CODEGEN--\":9583:9630   */\n      mstore\n        /* \"--CODEGEN--\":9644:9775   */\n      tag_288\n        /* \"--CODEGEN--\":9770:9774   */\n      dup2\n        /* \"--CODEGEN--\":9644:9775   */\n      tag_242\n      jump\t// in\n    tag_288:\n        /* \"--CODEGEN--\":9636:9775   */\n      swap1\n      pop\n        /* \"--CODEGEN--\":9540:9785   */\n      swap2\n      swap1\n      pop\n      jump\t// out\n        /* \"--CODEGEN--\":9792:10208   */\n    tag_63:\n      0x00\n        /* \"--CODEGEN--\":9992:9994   */\n      0x20\n        /* \"--CODEGEN--\":9981:9990   */\n      dup3\n        /* \"--CODEGEN--\":9977:9995   */\n      add\n        /* \"--CODEGEN--\":9969:9995   */\n      swap1\n      pop\n        /* \"--CODEGEN--\":10042:10051   */\n      dup2\n        /* \"--CODEGEN--\":10036:10040   */\n      dup2\n        /* \"--CODEGEN--\":10032:10052   */\n      sub\n        /* \"--CODEGEN--\":10028:10029   */\n      0x00\n        /* \"--CODEGEN--\":10017:10026   */\n      dup4\n        /* \"--CODEGEN--\":10013:10030   */\n      add\n        /* \"--CODEGEN--\":10006:10053   */\n      mstore\n        /* \"--CODEGEN--\":10067:10198   */\n      tag_290\n        /* \"--CODEGEN--\":10193:10197   */\n      dup2\n        /* \"--CODEGEN--\":10067:10198   */\n      tag_246\n      jump\t// in\n    tag_290:\n        /* \"--CODEGEN--\":10059:10198   */\n      swap1\n      pop\n        /* \"--CODEGEN--\":9963:10208   */\n      swap2\n      swap1\n      pop\n      jump\t// out\n        /* \"--CODEGEN--\":10215:10534   */\n    tag_44:\n      0x00\n        /* \"--CODEGEN--\":10390:10393   */\n      0xa0\n        /* \"--CODEGEN--\":10379:10388   */\n      dup3\n        /* \"--CODEGEN--\":10375:10394   */\n      add\n        /* \"--CODEGEN--\":10367:10394   */\n      swap1\n      pop\n        /* \"--CODEGEN--\":10405:10524   */\n      tag_292\n        /* \"--CODEGEN--\":10521:10522   */\n      0x00\n        /* \"--CODEGEN--\":10510:10519   */\n      dup4\n        /* \"--CODEGEN--\":10506:10523   */\n      add\n        /* \"--CODEGEN--\":10497:10503   */\n      dup5\n        /* \"--CODEGEN--\":10405:10524   */\n      tag_249\n      jump\t// in\n    tag_292:\n        /* \"--CODEGEN--\":10361:10534   */\n      swap3\n      swap2\n      pop\n      pop\n      jump\t// out\n        /* \"--CODEGEN--\":10541:10763   */\n    tag_85:\n      0x00\n        /* \"--CODEGEN--\":10668:10670   */\n      0x20\n        /* \"--CODEGEN--\":10657:10666   */\n      dup3\n        /* \"--CODEGEN--\":10653:10671   */\n      add\n        /* \"--CODEGEN--\":10645:10671   */\n      swap1\n      pop\n        /* \"--CODEGEN--\":10682:10753   */\n      tag_294\n        /* \"--CODEGEN--\":10750:10751   */\n      0x00\n        /* \"--CODEGEN--\":10739:10748   */\n      dup4\n        /* \"--CODEGEN--\":10735:10752   */\n      add\n        /* \"--CODEGEN--\":10726:10732   */\n      dup5\n        /* \"--CODEGEN--\":10682:10753   */\n      tag_260\n      jump\t// in\n    tag_294:\n        /* \"--CODEGEN--\":10639:10763   */\n      swap3\n      swap2\n      pop\n      pop\n      jump\t// out\n        /* \"--CODEGEN--\":10770:11438   */\n    tag_56:\n      0x00\n        /* \"--CODEGEN--\":11009:11012   */\n      0xa0\n        /* \"--CODEGEN--\":10998:11007   */\n      dup3\n        /* \"--CODEGEN--\":10994:11013   */\n      add\n        /* \"--CODEGEN--\":10986:11013   */\n      swap1\n      pop\n        /* \"--CODEGEN--\":11024:11095   */\n      tag_296\n        /* \"--CODEGEN--\":11092:11093   */\n      0x00\n        /* \"--CODEGEN--\":11081:11090   */\n      dup4\n        /* \"--CODEGEN--\":11077:11094   */\n      add\n        /* \"--CODEGEN--\":11068:11074   */\n      dup9\n        /* \"--CODEGEN--\":11024:11095   */\n      tag_260\n      jump\t// in\n    tag_296:\n        /* \"--CODEGEN--\":11106:11178   */\n      tag_297\n        /* \"--CODEGEN--\":11174:11176   */\n      0x20\n        /* \"--CODEGEN--\":11163:11172   */\n      dup4\n        /* \"--CODEGEN--\":11159:11177   */\n      add\n        /* \"--CODEGEN--\":11150:11156   */\n      dup8\n        /* \"--CODEGEN--\":11106:11178   */\n      tag_260\n      jump\t// in\n    tag_297:\n        /* \"--CODEGEN--\":11189:11261   */\n      tag_298\n        /* \"--CODEGEN--\":11257:11259   */\n      0x40\n        /* \"--CODEGEN--\":11246:11255   */\n      dup4\n        /* \"--CODEGEN--\":11242:11260   */\n      add\n        /* \"--CODEGEN--\":11233:11239   */\n      dup7\n        /* \"--CODEGEN--\":11189:11261   */\n      tag_260\n      jump\t// in\n    tag_298:\n        /* \"--CODEGEN--\":11272:11344   */\n      tag_299\n        /* \"--CODEGEN--\":11340:11342   */\n      0x60\n        /* \"--CODEGEN--\":11329:11338   */\n      dup4\n        /* \"--CODEGEN--\":11325:11343   */\n      add\n        /* \"--CODEGEN--\":11316:11322   */\n      dup6\n        /* \"--CODEGEN--\":11272:11344   */\n      tag_260\n      jump\t// in\n    tag_299:\n        /* \"--CODEGEN--\":11355:11428   */\n      tag_300\n        /* \"--CODEGEN--\":11423:11426   */\n      0x80\n        /* \"--CODEGEN--\":11412:11421   */\n      dup4\n        /* \"--CODEGEN--\":11408:11427   */\n      add\n        /* \"--CODEGEN--\":11399:11405   */\n      dup5\n        /* \"--CODEGEN--\":11355:11428   */\n      tag_260\n      jump\t// in\n    tag_300:\n        /* \"--CODEGEN--\":10980:11438   */\n      swap7\n      swap6\n      pop\n      pop\n      pop\n      pop\n      pop\n      pop\n      jump\t// out\n        /* \"--CODEGEN--\":11446:11609   */\n    tag_245:\n      0x00\n        /* \"--CODEGEN--\":11561:11567   */\n      dup3\n        /* \"--CODEGEN--\":11556:11559   */\n      dup3\n        /* \"--CODEGEN--\":11549:11568   */\n      mstore\n        /* \"--CODEGEN--\":11598:11602   */\n      0x20\n        /* \"--CODEGEN--\":11593:11596   */\n      dup3\n        /* \"--CODEGEN--\":11589:11603   */\n      add\n        /* \"--CODEGEN--\":11574:11603   */\n      swap1\n      pop\n        /* \"--CODEGEN--\":11542:11609   */\n      swap3\n      swap2\n      pop\n      pop\n      jump\t// out\n        /* \"--CODEGEN--\":11617:11708   */\n    tag_225:\n      0x00\n        /* \"--CODEGEN--\":11679:11703   */\n      tag_303\n        /* \"--CODEGEN--\":11697:11702   */\n      dup3\n        /* \"--CODEGEN--\":11679:11703   */\n      tag_304\n      jump\t// in\n    tag_303:\n        /* \"--CODEGEN--\":11668:11703   */\n      swap1\n      pop\n        /* \"--CODEGEN--\":11662:11708   */\n      swap2\n      swap1\n      pop\n      jump\t// out\n        /* \"--CODEGEN--\":11715:11800   */\n    tag_305:\n      0x00\n        /* \"--CODEGEN--\":11788:11793   */\n      dup2\n        /* \"--CODEGEN--\":11781:11794   */\n      iszero\n        /* \"--CODEGEN--\":11774:11795   */\n      iszero\n        /* \"--CODEGEN--\":11763:11795   */\n      swap1\n      pop\n        /* \"--CODEGEN--\":11757:11800   */\n      swap2\n      swap1\n      pop\n      jump\t// out\n        /* \"--CODEGEN--\":11807:11913   */\n    tag_307:\n      0x00\n        /* \"--CODEGEN--\":11884:11908   */\n      tag_309\n        /* \"--CODEGEN--\":11902:11907   */\n      dup3\n        /* \"--CODEGEN--\":11884:11908   */\n      tag_225\n      jump\t// in\n    tag_309:\n        /* \"--CODEGEN--\":11873:11908   */\n      swap1\n      pop\n        /* \"--CODEGEN--\":11867:11913   */\n      swap2\n      swap1\n      pop\n      jump\t// out\n        /* \"--CODEGEN--\":11920:12025   */\n    tag_310:\n      0x00\n        /* \"--CODEGEN--\":11996:12020   */\n      tag_312\n        /* \"--CODEGEN--\":12014:12019   */\n      dup3\n        /* \"--CODEGEN--\":11996:12020   */\n      tag_225\n      jump\t// in\n    tag_312:\n        /* \"--CODEGEN--\":11985:12020   */\n      swap1\n      pop\n        /* \"--CODEGEN--\":11979:12025   */\n      swap2\n      swap1\n      pop\n      jump\t// out\n        /* \"--CODEGEN--\":12032:12153   */\n    tag_304:\n      0x00\n        /* \"--CODEGEN--\":12105:12147   */\n      0xffffffffffffffffffffffffffffffffffffffff\n        /* \"--CODEGEN--\":12098:12103   */\n      dup3\n        /* \"--CODEGEN--\":12094:12148   */\n      and\n        /* \"--CODEGEN--\":12083:12148   */\n      swap1\n      pop\n        /* \"--CODEGEN--\":12077:12153   */\n      swap2\n      swap1\n      pop\n      jump\t// out\n        /* \"--CODEGEN--\":12160:12232   */\n    tag_259:\n      0x00\n        /* \"--CODEGEN--\":12222:12227   */\n      dup2\n        /* \"--CODEGEN--\":12211:12227   */\n      swap1\n      pop\n        /* \"--CODEGEN--\":12205:12232   */\n      swap2\n      swap1\n      pop\n      jump\t// out\n        /* \"--CODEGEN--\":12239:12368   */\n    tag_221:\n      0x00\n        /* \"--CODEGEN--\":12326:12363   */\n      tag_316\n        /* \"--CODEGEN--\":12357:12362   */\n      dup3\n        /* \"--CODEGEN--\":12326:12363   */\n      tag_317\n      jump\t// in\n    tag_316:\n        /* \"--CODEGEN--\":12313:12363   */\n      swap1\n      pop\n        /* \"--CODEGEN--\":12307:12368   */\n      swap2\n      swap1\n      pop\n      jump\t// out\n        /* \"--CODEGEN--\":12375:12526   */\n    tag_229:\n      0x00\n        /* \"--CODEGEN--\":12469:12521   */\n      tag_319\n        /* \"--CODEGEN--\":12515:12520   */\n      dup3\n        /* \"--CODEGEN--\":12469:12521   */\n      tag_320\n      jump\t// in\n    tag_319:\n        /* \"--CODEGEN--\":12456:12521   */\n      swap1\n      pop\n        /* \"--CODEGEN--\":12450:12526   */\n      swap2\n      swap1\n      pop\n      jump\t// out\n        /* \"--CODEGEN--\":12533:12656   */\n    tag_320:\n      0x00\n        /* \"--CODEGEN--\":12627:12651   */\n      tag_322\n        /* \"--CODEGEN--\":12645:12650   */\n      dup3\n        /* \"--CODEGEN--\":12627:12651   */\n      tag_304\n      jump\t// in\n    tag_322:\n        /* \"--CODEGEN--\":12614:12651   */\n      swap1\n      pop\n        /* \"--CODEGEN--\":12608:12656   */\n      swap2\n      swap1\n      pop\n      jump\t// out\n        /* \"--CODEGEN--\":12663:12812   */\n    tag_233:\n      0x00\n        /* \"--CODEGEN--\":12756:12807   */\n      tag_324\n        /* \"--CODEGEN--\":12801:12806   */\n      dup3\n        /* \"--CODEGEN--\":12756:12807   */\n      tag_325\n      jump\t// in\n    tag_324:\n        /* \"--CODEGEN--\":12743:12807   */\n      swap1\n      pop\n        /* \"--CODEGEN--\":12737:12812   */\n      swap2\n      swap1\n      pop\n      jump\t// out\n        /* \"--CODEGEN--\":12819:12941   */\n    tag_325:\n      0x00\n        /* \"--CODEGEN--\":12912:12936   */\n      tag_327\n        /* \"--CODEGEN--\":12930:12935   */\n      dup3\n        /* \"--CODEGEN--\":12912:12936   */\n      tag_304\n      jump\t// in\n    tag_327:\n        /* \"--CODEGEN--\":12899:12936   */\n      swap1\n      pop\n        /* \"--CODEGEN--\":12893:12941   */\n      swap2\n      swap1\n      pop\n      jump\t// out\n        /* \"--CODEGEN--\":12948:13084   */\n    tag_237:\n      0x00\n        /* \"--CODEGEN--\":13055:13079   */\n      tag_329\n        /* \"--CODEGEN--\":13073:13078   */\n      dup3\n        /* \"--CODEGEN--\":13055:13079   */\n      tag_259\n      jump\t// in\n    tag_329:\n        /* \"--CODEGEN--\":13042:13079   */\n      swap1\n      pop\n        /* \"--CODEGEN--\":13036:13084   */\n      swap2\n      swap1\n      pop\n      jump\t// out\n        /* \"--CODEGEN--\":13091:13227   */\n    tag_241:\n      0x00\n        /* \"--CODEGEN--\":13198:13222   */\n      tag_331\n        /* \"--CODEGEN--\":13216:13221   */\n      dup3\n        /* \"--CODEGEN--\":13198:13222   */\n      tag_259\n      jump\t// in\n    tag_331:\n        /* \"--CODEGEN--\":13185:13222   */\n      swap1\n      pop\n        /* \"--CODEGEN--\":13179:13227   */\n      swap2\n      swap1\n      pop\n      jump\t// out\n        /* \"--CODEGEN--\":13234:13355   */\n    tag_317:\n      0x00\n        /* \"--CODEGEN--\":13313:13350   */\n      tag_333\n        /* \"--CODEGEN--\":13344:13349   */\n      dup3\n        /* \"--CODEGEN--\":13313:13350   */\n      tag_334\n      jump\t// in\n    tag_333:\n        /* \"--CODEGEN--\":13300:13350   */\n      swap1\n      pop\n        /* \"--CODEGEN--\":13294:13355   */\n      swap2\n      swap1\n      pop\n      jump\t// out\n        /* \"--CODEGEN--\":13362:13470   */\n    tag_334:\n      0x00\n        /* \"--CODEGEN--\":13441:13465   */\n      tag_336\n        /* \"--CODEGEN--\":13459:13464   */\n      dup3\n        /* \"--CODEGEN--\":13441:13465   */\n      tag_304\n      jump\t// in\n    tag_336:\n        /* \"--CODEGEN--\":13428:13465   */\n      swap1\n      pop\n        /* \"--CODEGEN--\":13422:13470   */\n      swap2\n      swap1\n      pop\n      jump\t// out\n        /* \"--CODEGEN--\":13477:13594   */\n    tag_169:\n        /* \"--CODEGEN--\":13546:13570   */\n      tag_338\n        /* \"--CODEGEN--\":13564:13569   */\n      dup2\n        /* \"--CODEGEN--\":13546:13570   */\n      tag_225\n      jump\t// in\n    tag_338:\n        /* \"--CODEGEN--\":13539:13544   */\n      dup2\n        /* \"--CODEGEN--\":13536:13571   */\n      eq\n        /* \"--CODEGEN--\":13526:13528   */\n      tag_339\n      jumpi\n        /* \"--CODEGEN--\":13585:13586   */\n      0x00\n        /* \"--CODEGEN--\":13582:13583   */\n      dup1\n        /* \"--CODEGEN--\":13575:13587   */\n      revert\n        /* \"--CODEGEN--\":13526:13528   */\n    tag_339:\n        /* \"--CODEGEN--\":13520:13594   */\n      pop\n      jump\t// out\n        /* \"--CODEGEN--\":13601:13712   */\n    tag_176:\n        /* \"--CODEGEN--\":13667:13688   */\n      tag_341\n        /* \"--CODEGEN--\":13682:13687   */\n      dup2\n        /* \"--CODEGEN--\":13667:13688   */\n      tag_305\n      jump\t// in\n    tag_341:\n        /* \"--CODEGEN--\":13660:13665   */\n      dup2\n        /* \"--CODEGEN--\":13657:13689   */\n      eq\n        /* \"--CODEGEN--\":13647:13649   */\n      tag_342\n      jumpi\n        /* \"--CODEGEN--\":13703:13704   */\n      0x00\n        /* \"--CODEGEN--\":13700:13701   */\n      dup1\n        /* \"--CODEGEN--\":13693:13705   */\n      revert\n        /* \"--CODEGEN--\":13647:13649   */\n    tag_342:\n        /* \"--CODEGEN--\":13641:13712   */\n      pop\n      jump\t// out\n        /* \"--CODEGEN--\":13719:13866   */\n    tag_180:\n        /* \"--CODEGEN--\":13803:13842   */\n      tag_344\n        /* \"--CODEGEN--\":13836:13841   */\n      dup2\n        /* \"--CODEGEN--\":13803:13842   */\n      tag_307\n      jump\t// in\n    tag_344:\n        /* \"--CODEGEN--\":13796:13801   */\n      dup2\n        /* \"--CODEGEN--\":13793:13843   */\n      eq\n        /* \"--CODEGEN--\":13783:13785   */\n      tag_345\n      jumpi\n        /* \"--CODEGEN--\":13857:13858   */\n      0x00\n        /* \"--CODEGEN--\":13854:13855   */\n      dup1\n        /* \"--CODEGEN--\":13847:13859   */\n      revert\n        /* \"--CODEGEN--\":13783:13785   */\n    tag_345:\n        /* \"--CODEGEN--\":13777:13866   */\n      pop\n      jump\t// out\n        /* \"--CODEGEN--\":13873:14018   */\n    tag_184:\n        /* \"--CODEGEN--\":13956:13994   */\n      tag_347\n        /* \"--CODEGEN--\":13988:13993   */\n      dup2\n        /* \"--CODEGEN--\":13956:13994   */\n      tag_310\n      jump\t// in\n    tag_347:\n        /* \"--CODEGEN--\":13949:13954   */\n      dup2\n        /* \"--CODEGEN--\":13946:13995   */\n      eq\n        /* \"--CODEGEN--\":13936:13938   */\n      tag_348\n      jumpi\n        /* \"--CODEGEN--\":14009:14010   */\n      0x00\n        /* \"--CODEGEN--\":14006:14007   */\n      dup1\n        /* \"--CODEGEN--\":13999:14011   */\n      revert\n        /* \"--CODEGEN--\":13936:13938   */\n    tag_348:\n        /* \"--CODEGEN--\":13930:14018   */\n      pop\n      jump\t// out\n        /* \"--CODEGEN--\":14025:14142   */\n    tag_188:\n        /* \"--CODEGEN--\":14094:14118   */\n      tag_350\n        /* \"--CODEGEN--\":14112:14117   */\n      dup2\n        /* \"--CODEGEN--\":14094:14118   */\n      tag_259\n      jump\t// in\n    tag_350:\n        /* \"--CODEGEN--\":14087:14092   */\n      dup2\n        /* \"--CODEGEN--\":14084:14119   */\n      eq\n        /* \"--CODEGEN--\":14074:14076   */\n      tag_351\n      jumpi\n        /* \"--CODEGEN--\":14133:14134   */\n      0x00\n        /* \"--CODEGEN--\":14130:14131   */\n      dup1\n        /* \"--CODEGEN--\":14123:14135   */\n      revert\n        /* \"--CODEGEN--\":14074:14076   */\n    tag_351:\n        /* \"--CODEGEN--\":14068:14142   */\n      pop\n      jump\t// out\n\n    auxdata: 0xa26469706673582212207366e07857331120a8f131af68d63a2ded457d32bc71c87d21a4e1b437b9ef7a64736f6c634300060c0033\n}\n",
				"bytecode": {
					"linkReferences": {},
					"object": "608060405234801561001057600080fd5b50611d3b806100206000396000f3fe608060405234801561001057600080fd5b50600436106100b45760003560e01c806388bb111d1161007157806388bb111d146101535780638dd812101461015d578063a13339171461018d578063c0c53b8b146101a9578063e20ccec3146101c5578063f1765de7146101e7576100b4565b80632f48ab7d146100b95780634f38c5f5146100d75780636440c6d8146100f357806369a01fc8146101115780636ce413541461012d578063800851d614610149575b600080fd5b6100c1610203565b6040516100ce9190611a8f565b60405180910390f35b6100f160048036038101906100ec91906116e9565b610229565b005b6100fb6102fd565b6040516101089190611a74565b60405180910390f35b61012b6004803603810190610126919061166e565b610323565b005b6101476004803603810190610142919061178a565b6103f7565b005b610151610491565b005b61015b6106c7565b005b6101776004803603810190610172919061166e565b6108b7565b6040516101849190611aea565b60405180910390f35b6101a760048036038101906101a29190611761565b610b99565b005b6101c360048036038101906101be9190611712565b610c6d565b005b6101cd610e64565b6040516101de959493929190611b20565b60405180910390f35b61020160048036038101906101fc919061178a565b610e88565b005b603b60009054906101000a900473ffffffffffffffffffffffffffffffffffffffff1681565b3373ffffffffffffffffffffffffffffffffffffffff16603960009054906101000a900473ffffffffffffffffffffffffffffffffffffffff1673ffffffffffffffffffffffffffffffffffffffff16146102b9576040517f08c379a00000000000000000000000000000000000000000000000000000000081526004016102b090611aca565b60405180910390fd5b80603a60006101000a81548173ffffffffffffffffffffffffffffffffffffffff021916908373ffffffffffffffffffffffffffffffffffffffff16021790555050565b603a60009054906101000a900473ffffffffffffffffffffffffffffffffffffffff1681565b3373ffffffffffffffffffffffffffffffffffffffff16603960009054906101000a900473ffffffffffffffffffffffffffffffffffffffff1673ffffffffffffffffffffffffffffffffffffffff16146103b3576040517f08c379a00000000000000000000000000000000000000000000000000000000081526004016103aa90611aca565b60405180910390fd5b80603860006101000a81548173ffffffffffffffffffffffffffffffffffffffff021916908373ffffffffffffffffffffffffffffffffffffffff16021790555050565b3373ffffffffffffffffffffffffffffffffffffffff16603960009054906101000a900473ffffffffffffffffffffffffffffffffffffffff1673ffffffffffffffffffffffffffffffffffffffff1614610487576040517f08c379a000000000000000000000000000000000000000000000000000000000815260040161047e90611aca565b60405180910390fd5b80603c8190555050565b6000610550603d60003373ffffffffffffffffffffffffffffffffffffffff1673ffffffffffffffffffffffffffffffffffffffff168152602001908152602001600020600301546105426064610534600a603d60003373ffffffffffffffffffffffffffffffffffffffff1673ffffffffffffffffffffffffffffffffffffffff1681526020019081526020016000206002015461156790919063ffffffff16565b61157b90919063ffffffff16565b61158890919063ffffffff16565b9050603b60009054906101000a900473ffffffffffffffffffffffffffffffffffffffff1673ffffffffffffffffffffffffffffffffffffffff166323b872dd603860009054906101000a900473ffffffffffffffffffffffffffffffffffffffff1633846040518463ffffffff1660e01b81526004016105d393929190611a3d565b602060405180830381600087803b1580156105ed57600080fd5b505af1158015610601573d6000803e3d6000fd5b505050506040513d601f19601f8201168201806040525081019061062591906116c0565b5080603d60003373ffffffffffffffffffffffffffffffffffffffff1673ffffffffffffffffffffffffffffffffffffffff168152602001908152602001600020600301600082825401925050819055503373ffffffffffffffffffffffffffffffffffffffff167fe76206fc979ffeb5d608de65c588dba39db74e075591960304a761e7bc421a62826040516106bc9190611b05565b60405180910390a250565b603a60009054906101000a900473ffffffffffffffffffffffffffffffffffffffff1673ffffffffffffffffffffffffffffffffffffffff166323b872dd603860009054906101000a900473ffffffffffffffffffffffffffffffffffffffff1633603d60003373ffffffffffffffffffffffffffffffffffffffff1673ffffffffffffffffffffffffffffffffffffffff168152602001908152602001600020600101546040518463ffffffff1660e01b815260040161078a93929190611a3d565b602060405180830381600087803b1580156107a457600080fd5b505af11580156107b8573d6000803e3d6000fd5b505050506040513d601f19601f820116820180604052508101906107dc91906116c0565b506000603d60003373ffffffffffffffffffffffffffffffffffffffff1673ffffffffffffffffffffffffffffffffffffffff168152602001908152602001600020600101819055503373ffffffffffffffffffffffffffffffffffffffff167f0c167bd84f1ceaf00e4f292b98dc3f4c77caa756d292285eaec79015474c6216603d60003373ffffffffffffffffffffffffffffffffffffffff1673ffffffffffffffffffffffffffffffffffffffff168152602001908152602001600020600101546040516108ad9190611b05565b60405180910390a2565b6108bf6115ac565b61091c670de0b6b3a7640000603d60008573ffffffffffffffffffffffffffffffffffffffff1673ffffffffffffffffffffffffffffffffffffffff1681526020019081526020016000206000015461156790919063ffffffff16565b603360000181905550610982670de0b6b3a7640000603d60008573ffffffffffffffffffffffffffffffffffffffff1673ffffffffffffffffffffffffffffffffffffffff1681526020019081526020016000206001015461156790919063ffffffff16565b603360010181905550603d60008373ffffffffffffffffffffffffffffffffffffffff1673ffffffffffffffffffffffffffffffffffffffff16815260200190815260200160002060020154603360030181905550603a60009054906101000a900473ffffffffffffffffffffffffffffffffffffffff1673ffffffffffffffffffffffffffffffffffffffff1663f05df5e2836040518263ffffffff1660e01b8152600401610a329190611962565b602060405180830381600087803b158015610a4c57600080fd5b505af1158015610a60573d6000803e3d6000fd5b505050506040513d601f19601f82011682018060405250810190610a8491906117b3565b603360020181905550610b4a603d60008473ffffffffffffffffffffffffffffffffffffffff1673ffffffffffffffffffffffffffffffffffffffff16815260200190815260200160002060030154610b3c6064610b2e600a603d60008973ffffffffffffffffffffffffffffffffffffffff1673ffffffffffffffffffffffffffffffffffffffff1681526020019081526020016000206002015461156790919063ffffffff16565b61157b90919063ffffffff16565b61158890919063ffffffff16565b60336004018190555060336040518060a0016040529081600082015481526020016001820154815260200160028201548152602001600382015481526020016004820154815250509050919050565b3373ffffffffffffffffffffffffffffffffffffffff16603960009054906101000a900473ffffffffffffffffffffffffffffffffffffffff1673ffffffffffffffffffffffffffffffffffffffff1614610c29576040517f08c379a0000000000000000000000000000000000000000000000000000000008152600401610c2090611aca565b60405180910390fd5b80603b60006101000a81548173ffffffffffffffffffffffffffffffffffffffff021916908373ffffffffffffffffffffffffffffffffffffffff16021790555050565b600060019054906101000a900460ff1680610c8c5750610c8b611595565b5b80610ca2575060008054906101000a900460ff16155b610ce1576040517f08c379a0000000000000000000000000000000000000000000000000000000008152600401610cd890611aaa565b60405180910390fd5b60008060019054906101000a900460ff161590508015610d31576001600060016101000a81548160ff02191690831515021790555060016000806101000a81548160ff0219169083151502179055505b83603a60006101000a81548173ffffffffffffffffffffffffffffffffffffffff021916908373ffffffffffffffffffffffffffffffffffffffff16021790555081603860006101000a81548173ffffffffffffffffffffffffffffffffffffffff021916908373ffffffffffffffffffffffffffffffffffffffff16021790555033603960006101000a81548173ffffffffffffffffffffffffffffffffffffffff021916908373ffffffffffffffffffffffffffffffffffffffff16021790555082603b60006101000a81548173ffffffffffffffffffffffffffffffffffffffff021916908373ffffffffffffffffffffffffffffffffffffffff1602179055506001603c819055508015610e5e5760008060016101000a81548160ff0219169083151502179055505b50505050565b60338060000154908060010154908060020154908060030154908060040154905085565b603b60009054906101000a900473ffffffffffffffffffffffffffffffffffffffff1673ffffffffffffffffffffffffffffffffffffffff166323b872dd33603860009054906101000a900473ffffffffffffffffffffffffffffffffffffffff16846040518463ffffffff1660e01b8152600401610f0993929190611998565b602060405180830381600087803b158015610f2357600080fd5b505af1158015610f37573d6000803e3d6000fd5b505050506040513d601f19601f82011682018060405250810190610f5b91906116c0565b5080603d60003373ffffffffffffffffffffffffffffffffffffffff1673ffffffffffffffffffffffffffffffffffffffff168152602001908152602001600020600001600082825401925050819055506802b5e3af16b188000081141561102257610fd2603c548261157b90919063ffffffff16565b603d60003373ffffffffffffffffffffffffffffffffffffffff1673ffffffffffffffffffffffffffffffffffffffff168152602001908152602001600020600101600082825401925050819055505b680ad78ebc5ac62000008114156111615780603d60003373ffffffffffffffffffffffffffffffffffffffff1673ffffffffffffffffffffffffffffffffffffffff16815260200190815260200160002060010160008282540192505081905550603a60009054906101000a900473ffffffffffffffffffffffffffffffffffffffff1673ffffffffffffffffffffffffffffffffffffffff166323b872dd603860009054906101000a900473ffffffffffffffffffffffffffffffffffffffff1633680ad78ebc5ac62000006040518463ffffffff1660e01b815260040161110d939291906119cf565b602060405180830381600087803b15801561112757600080fd5b505af115801561113b573d6000803e3d6000fd5b505050506040513d601f19601f8201168201806040525081019061115f91906116c0565b505b681b1ae4d6e2ef5000008114156112a05780603d60003373ffffffffffffffffffffffffffffffffffffffff1673ffffffffffffffffffffffffffffffffffffffff16815260200190815260200160002060010160008282540192505081905550603a60009054906101000a900473ffffffffffffffffffffffffffffffffffffffff1673ffffffffffffffffffffffffffffffffffffffff166323b872dd603860009054906101000a900473ffffffffffffffffffffffffffffffffffffffff1633681b1ae4d6e2ef5000006040518463ffffffff1660e01b815260040161124c93929190611a06565b602060405180830381600087803b15801561126657600080fd5b505af115801561127a573d6000803e3d6000fd5b505050506040513d601f19601f8201168201806040525081019061129e91906116c0565b505b600073ffffffffffffffffffffffffffffffffffffffff16603a60009054906101000a900473ffffffffffffffffffffffffffffffffffffffff1673ffffffffffffffffffffffffffffffffffffffff16631f5ed1b2336040518263ffffffff1660e01b8152600401611313919061197d565b602060405180830381600087803b15801561132d57600080fd5b505af1158015611341573d6000803e3d6000fd5b505050506040513d601f19601f820116820180604052508101906113659190611697565b73ffffffffffffffffffffffffffffffffffffffff16141580156113cb57506000603d60003373ffffffffffffffffffffffffffffffffffffffff1673ffffffffffffffffffffffffffffffffffffffff16815260200190815260200160002060040154145b15611516576001603d6000603a60009054906101000a900473ffffffffffffffffffffffffffffffffffffffff1673ffffffffffffffffffffffffffffffffffffffff16631f5ed1b2336040518263ffffffff1660e01b8152600401611431919061197d565b602060405180830381600087803b15801561144b57600080fd5b505af115801561145f573d6000803e3d6000fd5b505050506040513d601f19601f820116820180604052508101906114839190611697565b73ffffffffffffffffffffffffffffffffffffffff1673ffffffffffffffffffffffffffffffffffffffff168152602001908152602001600020600201600082825401925050819055506001603d60003373ffffffffffffffffffffffffffffffffffffffff1673ffffffffffffffffffffffffffffffffffffffff168152602001908152602001600020600401819055505b3373ffffffffffffffffffffffffffffffffffffffff167f6c6526de39dfaacb57fa46c88b14be8505d09f56cf193b2aef29af27967615ba8260405161155c9190611b05565b60405180910390a250565b600081838161157257fe5b04905092915050565b6000818302905092915050565b6000818303905092915050565b6000803090506000813b9050600081149250505090565b6040518060a0016040528060008152602001600081526020016000815260200160008152602001600081525090565b6000813590506115ea81611c92565b92915050565b6000815190506115ff81611c92565b92915050565b60008151905061161481611ca9565b92915050565b60008135905061162981611cc0565b92915050565b60008135905061163e81611cd7565b92915050565b60008135905061165381611cee565b92915050565b60008151905061166881611cee565b92915050565b60006020828403121561168057600080fd5b600061168e848285016115db565b91505092915050565b6000602082840312156116a957600080fd5b60006116b7848285016115f0565b91505092915050565b6000602082840312156116d257600080fd5b60006116e084828501611605565b91505092915050565b6000602082840312156116fb57600080fd5b60006117098482850161161a565b91505092915050565b60008060006060848603121561172757600080fd5b60006117358682870161161a565b93505060206117468682870161162f565b9250506040611757868287016115db565b9150509250925092565b60006020828403121561177357600080fd5b60006117818482850161162f565b91505092915050565b60006020828403121561179c57600080fd5b60006117aa84828501611644565b91505092915050565b6000602082840312156117c557600080fd5b60006117d384828501611659565b91505092915050565b6117e581611bf0565b82525050565b6117f481611b84565b82525050565b61180381611c02565b82525050565b61181281611c26565b82525050565b61182181611c4a565b82525050565b61183081611c5c565b82525050565b6000611843602e83611b73565b91507f436f6e747261637420696e7374616e63652068617320616c726561647920626560008301527f656e20696e697469616c697a65640000000000000000000000000000000000006020830152604082019050919050565b60006118a9600a83611b73565b91507f6f6e6c79206f776e6572000000000000000000000000000000000000000000006000830152602082019050919050565b60a0820160008201516118f26000850182611944565b5060208201516119056020850182611944565b5060408201516119186040850182611944565b50606082015161192b6060850182611944565b50608082015161193e6080850182611944565b50505050565b61194d81611be6565b82525050565b61195c81611be6565b82525050565b600060208201905061197760008301846117eb565b92915050565b600060208201905061199260008301846117dc565b92915050565b60006060820190506119ad60008301866117dc565b6119ba60208301856117eb565b6119c76040830184611953565b949350505050565b60006060820190506119e460008301866117eb565b6119f160208301856117dc565b6119fe6040830184611818565b949350505050565b6000606082019050611a1b60008301866117eb565b611a2860208301856117dc565b611a356040830184611827565b949350505050565b6000606082019050611a5260008301866117eb565b611a5f60208301856117dc565b611a6c6040830184611953565b949350505050565b6000602082019050611a8960008301846117fa565b92915050565b6000602082019050611aa46000830184611809565b92915050565b60006020820190508181036000830152611ac381611836565b9050919050565b60006020820190508181036000830152611ae38161189c565b9050919050565b600060a082019050611aff60008301846118dc565b92915050565b6000602082019050611b1a6000830184611953565b92915050565b600060a082019050611b356000830188611953565b611b426020830187611953565b611b4f6040830186611953565b611b5c6060830185611953565b611b696080830184611953565b9695505050505050565b600082825260208201905092915050565b6000611b8f82611bc6565b9050919050565b60008115159050919050565b6000611bad82611b84565b9050919050565b6000611bbf82611b84565b9050919050565b600073ffffffffffffffffffffffffffffffffffffffff82169050919050565b6000819050919050565b6000611bfb82611c6e565b9050919050565b6000611c0d82611c14565b9050919050565b6000611c1f82611bc6565b9050919050565b6000611c3182611c38565b9050919050565b6000611c4382611bc6565b9050919050565b6000611c5582611be6565b9050919050565b6000611c6782611be6565b9050919050565b6000611c7982611c80565b9050919050565b6000611c8b82611bc6565b9050919050565b611c9b81611b84565b8114611ca657600080fd5b50565b611cb281611b96565b8114611cbd57600080fd5b50565b611cc981611ba2565b8114611cd457600080fd5b50565b611ce081611bb4565b8114611ceb57600080fd5b50565b611cf781611be6565b8114611d0257600080fd5b5056fea26469706673582212207366e07857331120a8f131af68d63a2ded457d32bc71c87d21a4e1b437b9ef7a64736f6c634300060c0033",
					"opcodes": "PUSH1 0x80 PUSH1 0x40 MSTORE CALLVALUE DUP1 ISZERO PUSH2 0x10 JUMPI PUSH1 0x0 DUP1 REVERT JUMPDEST POP PUSH2 0x1D3B DUP1 PUSH2 0x20 PUSH1 0x0 CODECOPY PUSH1 0x0 RETURN INVALID PUSH1 0x80 PUSH1 0x40 MSTORE CALLVALUE DUP1 ISZERO PUSH2 0x10 JUMPI PUSH1 0x0 DUP1 REVERT JUMPDEST POP PUSH1 0x4 CALLDATASIZE LT PUSH2 0xB4 JUMPI PUSH1 0x0 CALLDATALOAD PUSH1 0xE0 SHR DUP1 PUSH4 0x88BB111D GT PUSH2 0x71 JUMPI DUP1 PUSH4 0x88BB111D EQ PUSH2 0x153 JUMPI DUP1 PUSH4 0x8DD81210 EQ PUSH2 0x15D JUMPI DUP1 PUSH4 0xA1333917 EQ PUSH2 0x18D JUMPI DUP1 PUSH4 0xC0C53B8B EQ PUSH2 0x1A9 JUMPI DUP1 PUSH4 0xE20CCEC3 EQ PUSH2 0x1C5 JUMPI DUP1 PUSH4 0xF1765DE7 EQ PUSH2 0x1E7 JUMPI PUSH2 0xB4 JUMP JUMPDEST DUP1 PUSH4 0x2F48AB7D EQ PUSH2 0xB9 JUMPI DUP1 PUSH4 0x4F38C5F5 EQ PUSH2 0xD7 JUMPI DUP1 PUSH4 0x6440C6D8 EQ PUSH2 0xF3 JUMPI DUP1 PUSH4 0x69A01FC8 EQ PUSH2 0x111 JUMPI DUP1 PUSH4 0x6CE41354 EQ PUSH2 0x12D JUMPI DUP1 PUSH4 0x800851D6 EQ PUSH2 0x149 JUMPI JUMPDEST PUSH1 0x0 DUP1 REVERT JUMPDEST PUSH2 0xC1 PUSH2 0x203 JUMP JUMPDEST PUSH1 0x40 MLOAD PUSH2 0xCE SWAP2 SWAP1 PUSH2 0x1A8F JUMP JUMPDEST PUSH1 0x40 MLOAD DUP1 SWAP2 SUB SWAP1 RETURN JUMPDEST PUSH2 0xF1 PUSH1 0x4 DUP1 CALLDATASIZE SUB DUP2 ADD SWAP1 PUSH2 0xEC SWAP2 SWAP1 PUSH2 0x16E9 JUMP JUMPDEST PUSH2 0x229 JUMP JUMPDEST STOP JUMPDEST PUSH2 0xFB PUSH2 0x2FD JUMP JUMPDEST PUSH1 0x40 MLOAD PUSH2 0x108 SWAP2 SWAP1 PUSH2 0x1A74 JUMP JUMPDEST PUSH1 0x40 MLOAD DUP1 SWAP2 SUB SWAP1 RETURN JUMPDEST PUSH2 0x12B PUSH1 0x4 DUP1 CALLDATASIZE SUB DUP2 ADD SWAP1 PUSH2 0x126 SWAP2 SWAP1 PUSH2 0x166E JUMP JUMPDEST PUSH2 0x323 JUMP JUMPDEST STOP JUMPDEST PUSH2 0x147 PUSH1 0x4 DUP1 CALLDATASIZE SUB DUP2 ADD SWAP1 PUSH2 0x142 SWAP2 SWAP1 PUSH2 0x178A JUMP JUMPDEST PUSH2 0x3F7 JUMP JUMPDEST STOP JUMPDEST PUSH2 0x151 PUSH2 0x491 JUMP JUMPDEST STOP JUMPDEST PUSH2 0x15B PUSH2 0x6C7 JUMP JUMPDEST STOP JUMPDEST PUSH2 0x177 PUSH1 0x4 DUP1 CALLDATASIZE SUB DUP2 ADD SWAP1 PUSH2 0x172 SWAP2 SWAP1 PUSH2 0x166E JUMP JUMPDEST PUSH2 0x8B7 JUMP JUMPDEST PUSH1 0x40 MLOAD PUSH2 0x184 SWAP2 SWAP1 PUSH2 0x1AEA JUMP JUMPDEST PUSH1 0x40 MLOAD DUP1 SWAP2 SUB SWAP1 RETURN JUMPDEST PUSH2 0x1A7 PUSH1 0x4 DUP1 CALLDATASIZE SUB DUP2 ADD SWAP1 PUSH2 0x1A2 SWAP2 SWAP1 PUSH2 0x1761 JUMP JUMPDEST PUSH2 0xB99 JUMP JUMPDEST STOP JUMPDEST PUSH2 0x1C3 PUSH1 0x4 DUP1 CALLDATASIZE SUB DUP2 ADD SWAP1 PUSH2 0x1BE SWAP2 SWAP1 PUSH2 0x1712 JUMP JUMPDEST PUSH2 0xC6D JUMP JUMPDEST STOP JUMPDEST PUSH2 0x1CD PUSH2 0xE64 JUMP JUMPDEST PUSH1 0x40 MLOAD PUSH2 0x1DE SWAP6 SWAP5 SWAP4 SWAP3 SWAP2 SWAP1 PUSH2 0x1B20 JUMP JUMPDEST PUSH1 0x40 MLOAD DUP1 SWAP2 SUB SWAP1 RETURN JUMPDEST PUSH2 0x201 PUSH1 0x4 DUP1 CALLDATASIZE SUB DUP2 ADD SWAP1 PUSH2 0x1FC SWAP2 SWAP1 PUSH2 0x178A JUMP JUMPDEST PUSH2 0xE88 JUMP JUMPDEST STOP JUMPDEST PUSH1 0x3B PUSH1 0x0 SWAP1 SLOAD SWAP1 PUSH2 0x100 EXP SWAP1 DIV PUSH20 0xFFFFFFFFFFFFFFFFFFFFFFFFFFFFFFFFFFFFFFFF AND DUP2 JUMP JUMPDEST CALLER PUSH20 0xFFFFFFFFFFFFFFFFFFFFFFFFFFFFFFFFFFFFFFFF AND PUSH1 0x39 PUSH1 0x0 SWAP1 SLOAD SWAP1 PUSH2 0x100 EXP SWAP1 DIV PUSH20 0xFFFFFFFFFFFFFFFFFFFFFFFFFFFFFFFFFFFFFFFF AND PUSH20 0xFFFFFFFFFFFFFFFFFFFFFFFFFFFFFFFFFFFFFFFF AND EQ PUSH2 0x2B9 JUMPI PUSH1 0x40 MLOAD PUSH32 0x8C379A000000000000000000000000000000000000000000000000000000000 DUP2 MSTORE PUSH1 0x4 ADD PUSH2 0x2B0 SWAP1 PUSH2 0x1ACA JUMP JUMPDEST PUSH1 0x40 MLOAD DUP1 SWAP2 SUB SWAP1 REVERT JUMPDEST DUP1 PUSH1 0x3A PUSH1 0x0 PUSH2 0x100 EXP DUP2 SLOAD DUP2 PUSH20 0xFFFFFFFFFFFFFFFFFFFFFFFFFFFFFFFFFFFFFFFF MUL NOT AND SWAP1 DUP4 PUSH20 0xFFFFFFFFFFFFFFFFFFFFFFFFFFFFFFFFFFFFFFFF AND MUL OR SWAP1 SSTORE POP POP JUMP JUMPDEST PUSH1 0x3A PUSH1 0x0 SWAP1 SLOAD SWAP1 PUSH2 0x100 EXP SWAP1 DIV PUSH20 0xFFFFFFFFFFFFFFFFFFFFFFFFFFFFFFFFFFFFFFFF AND DUP2 JUMP JUMPDEST CALLER PUSH20 0xFFFFFFFFFFFFFFFFFFFFFFFFFFFFFFFFFFFFFFFF AND PUSH1 0x39 PUSH1 0x0 SWAP1 SLOAD SWAP1 PUSH2 0x100 EXP SWAP1 DIV PUSH20 0xFFFFFFFFFFFFFFFFFFFFFFFFFFFFFFFFFFFFFFFF AND PUSH20 0xFFFFFFFFFFFFFFFFFFFFFFFFFFFFFFFFFFFFFFFF AND EQ PUSH2 0x3B3 JUMPI PUSH1 0x40 MLOAD PUSH32 0x8C379A000000000000000000000000000000000000000000000000000000000 DUP2 MSTORE PUSH1 0x4 ADD PUSH2 0x3AA SWAP1 PUSH2 0x1ACA JUMP JUMPDEST PUSH1 0x40 MLOAD DUP1 SWAP2 SUB SWAP1 REVERT JUMPDEST DUP1 PUSH1 0x38 PUSH1 0x0 PUSH2 0x100 EXP DUP2 SLOAD DUP2 PUSH20 0xFFFFFFFFFFFFFFFFFFFFFFFFFFFFFFFFFFFFFFFF MUL NOT AND SWAP1 DUP4 PUSH20 0xFFFFFFFFFFFFFFFFFFFFFFFFFFFFFFFFFFFFFFFF AND MUL OR SWAP1 SSTORE POP POP JUMP JUMPDEST CALLER PUSH20 0xFFFFFFFFFFFFFFFFFFFFFFFFFFFFFFFFFFFFFFFF AND PUSH1 0x39 PUSH1 0x0 SWAP1 SLOAD SWAP1 PUSH2 0x100 EXP SWAP1 DIV PUSH20 0xFFFFFFFFFFFFFFFFFFFFFFFFFFFFFFFFFFFFFFFF AND PUSH20 0xFFFFFFFFFFFFFFFFFFFFFFFFFFFFFFFFFFFFFFFF AND EQ PUSH2 0x487 JUMPI PUSH1 0x40 MLOAD PUSH32 0x8C379A000000000000000000000000000000000000000000000000000000000 DUP2 MSTORE PUSH1 0x4 ADD PUSH2 0x47E SWAP1 PUSH2 0x1ACA JUMP JUMPDEST PUSH1 0x40 MLOAD DUP1 SWAP2 SUB SWAP1 REVERT JUMPDEST DUP1 PUSH1 0x3C DUP2 SWAP1 SSTORE POP POP JUMP JUMPDEST PUSH1 0x0 PUSH2 0x550 PUSH1 0x3D PUSH1 0x0 CALLER PUSH20 0xFFFFFFFFFFFFFFFFFFFFFFFFFFFFFFFFFFFFFFFF AND PUSH20 0xFFFFFFFFFFFFFFFFFFFFFFFFFFFFFFFFFFFFFFFF AND DUP2 MSTORE PUSH1 0x20 ADD SWAP1 DUP2 MSTORE PUSH1 0x20 ADD PUSH1 0x0 KECCAK256 PUSH1 0x3 ADD SLOAD PUSH2 0x542 PUSH1 0x64 PUSH2 0x534 PUSH1 0xA PUSH1 0x3D PUSH1 0x0 CALLER PUSH20 0xFFFFFFFFFFFFFFFFFFFFFFFFFFFFFFFFFFFFFFFF AND PUSH20 0xFFFFFFFFFFFFFFFFFFFFFFFFFFFFFFFFFFFFFFFF AND DUP2 MSTORE PUSH1 0x20 ADD SWAP1 DUP2 MSTORE PUSH1 0x20 ADD PUSH1 0x0 KECCAK256 PUSH1 0x2 ADD SLOAD PUSH2 0x1567 SWAP1 SWAP2 SWAP1 PUSH4 0xFFFFFFFF AND JUMP JUMPDEST PUSH2 0x157B SWAP1 SWAP2 SWAP1 PUSH4 0xFFFFFFFF AND JUMP JUMPDEST PUSH2 0x1588 SWAP1 SWAP2 SWAP1 PUSH4 0xFFFFFFFF AND JUMP JUMPDEST SWAP1 POP PUSH1 0x3B PUSH1 0x0 SWAP1 SLOAD SWAP1 PUSH2 0x100 EXP SWAP1 DIV PUSH20 0xFFFFFFFFFFFFFFFFFFFFFFFFFFFFFFFFFFFFFFFF AND PUSH20 0xFFFFFFFFFFFFFFFFFFFFFFFFFFFFFFFFFFFFFFFF AND PUSH4 0x23B872DD PUSH1 0x38 PUSH1 0x0 SWAP1 SLOAD SWAP1 PUSH2 0x100 EXP SWAP1 DIV PUSH20 0xFFFFFFFFFFFFFFFFFFFFFFFFFFFFFFFFFFFFFFFF AND CALLER DUP5 PUSH1 0x40 MLOAD DUP5 PUSH4 0xFFFFFFFF AND PUSH1 0xE0 SHL DUP2 MSTORE PUSH1 0x4 ADD PUSH2 0x5D3 SWAP4 SWAP3 SWAP2 SWAP1 PUSH2 0x1A3D JUMP JUMPDEST PUSH1 0x20 PUSH1 0x40 MLOAD DUP1 DUP4 SUB DUP2 PUSH1 0x0 DUP8 DUP1 EXTCODESIZE ISZERO DUP1 ISZERO PUSH2 0x5ED JUMPI PUSH1 0x0 DUP1 REVERT JUMPDEST POP GAS CALL ISZERO DUP1 ISZERO PUSH2 0x601 JUMPI RETURNDATASIZE PUSH1 0x0 DUP1 RETURNDATACOPY RETURNDATASIZE PUSH1 0x0 REVERT JUMPDEST POP POP POP POP PUSH1 0x40 MLOAD RETURNDATASIZE PUSH1 0x1F NOT PUSH1 0x1F DUP3 ADD AND DUP3 ADD DUP1 PUSH1 0x40 MSTORE POP DUP2 ADD SWAP1 PUSH2 0x625 SWAP2 SWAP1 PUSH2 0x16C0 JUMP JUMPDEST POP DUP1 PUSH1 0x3D PUSH1 0x0 CALLER PUSH20 0xFFFFFFFFFFFFFFFFFFFFFFFFFFFFFFFFFFFFFFFF AND PUSH20 0xFFFFFFFFFFFFFFFFFFFFFFFFFFFFFFFFFFFFFFFF AND DUP2 MSTORE PUSH1 0x20 ADD SWAP1 DUP2 MSTORE PUSH1 0x20 ADD PUSH1 0x0 KECCAK256 PUSH1 0x3 ADD PUSH1 0x0 DUP3 DUP3 SLOAD ADD SWAP3 POP POP DUP2 SWAP1 SSTORE POP CALLER PUSH20 0xFFFFFFFFFFFFFFFFFFFFFFFFFFFFFFFFFFFFFFFF AND PUSH32 0xE76206FC979FFEB5D608DE65C588DBA39DB74E075591960304A761E7BC421A62 DUP3 PUSH1 0x40 MLOAD PUSH2 0x6BC SWAP2 SWAP1 PUSH2 0x1B05 JUMP JUMPDEST PUSH1 0x40 MLOAD DUP1 SWAP2 SUB SWAP1 LOG2 POP JUMP JUMPDEST PUSH1 0x3A PUSH1 0x0 SWAP1 SLOAD SWAP1 PUSH2 0x100 EXP SWAP1 DIV PUSH20 0xFFFFFFFFFFFFFFFFFFFFFFFFFFFFFFFFFFFFFFFF AND PUSH20 0xFFFFFFFFFFFFFFFFFFFFFFFFFFFFFFFFFFFFFFFF AND PUSH4 0x23B872DD PUSH1 0x38 PUSH1 0x0 SWAP1 SLOAD SWAP1 PUSH2 0x100 EXP SWAP1 DIV PUSH20 0xFFFFFFFFFFFFFFFFFFFFFFFFFFFFFFFFFFFFFFFF AND CALLER PUSH1 0x3D PUSH1 0x0 CALLER PUSH20 0xFFFFFFFFFFFFFFFFFFFFFFFFFFFFFFFFFFFFFFFF AND PUSH20 0xFFFFFFFFFFFFFFFFFFFFFFFFFFFFFFFFFFFFFFFF AND DUP2 MSTORE PUSH1 0x20 ADD SWAP1 DUP2 MSTORE PUSH1 0x20 ADD PUSH1 0x0 KECCAK256 PUSH1 0x1 ADD SLOAD PUSH1 0x40 MLOAD DUP5 PUSH4 0xFFFFFFFF AND PUSH1 0xE0 SHL DUP2 MSTORE PUSH1 0x4 ADD PUSH2 0x78A SWAP4 SWAP3 SWAP2 SWAP1 PUSH2 0x1A3D JUMP JUMPDEST PUSH1 0x20 PUSH1 0x40 MLOAD DUP1 DUP4 SUB DUP2 PUSH1 0x0 DUP8 DUP1 EXTCODESIZE ISZERO DUP1 ISZERO PUSH2 0x7A4 JUMPI PUSH1 0x0 DUP1 REVERT JUMPDEST POP GAS CALL ISZERO DUP1 ISZERO PUSH2 0x7B8 JUMPI RETURNDATASIZE PUSH1 0x0 DUP1 RETURNDATACOPY RETURNDATASIZE PUSH1 0x0 REVERT JUMPDEST POP POP POP POP PUSH1 0x40 MLOAD RETURNDATASIZE PUSH1 0x1F NOT PUSH1 0x1F DUP3 ADD AND DUP3 ADD DUP1 PUSH1 0x40 MSTORE POP DUP2 ADD SWAP1 PUSH2 0x7DC SWAP2 SWAP1 PUSH2 0x16C0 JUMP JUMPDEST POP PUSH1 0x0 PUSH1 0x3D PUSH1 0x0 CALLER PUSH20 0xFFFFFFFFFFFFFFFFFFFFFFFFFFFFFFFFFFFFFFFF AND PUSH20 0xFFFFFFFFFFFFFFFFFFFFFFFFFFFFFFFFFFFFFFFF AND DUP2 MSTORE PUSH1 0x20 ADD SWAP1 DUP2 MSTORE PUSH1 0x20 ADD PUSH1 0x0 KECCAK256 PUSH1 0x1 ADD DUP2 SWAP1 SSTORE POP CALLER PUSH20 0xFFFFFFFFFFFFFFFFFFFFFFFFFFFFFFFFFFFFFFFF AND PUSH32 0xC167BD84F1CEAF00E4F292B98DC3F4C77CAA756D292285EAEC79015474C6216 PUSH1 0x3D PUSH1 0x0 CALLER PUSH20 0xFFFFFFFFFFFFFFFFFFFFFFFFFFFFFFFFFFFFFFFF AND PUSH20 0xFFFFFFFFFFFFFFFFFFFFFFFFFFFFFFFFFFFFFFFF AND DUP2 MSTORE PUSH1 0x20 ADD SWAP1 DUP2 MSTORE PUSH1 0x20 ADD PUSH1 0x0 KECCAK256 PUSH1 0x1 ADD SLOAD PUSH1 0x40 MLOAD PUSH2 0x8AD SWAP2 SWAP1 PUSH2 0x1B05 JUMP JUMPDEST PUSH1 0x40 MLOAD DUP1 SWAP2 SUB SWAP1 LOG2 JUMP JUMPDEST PUSH2 0x8BF PUSH2 0x15AC JUMP JUMPDEST PUSH2 0x91C PUSH8 0xDE0B6B3A7640000 PUSH1 0x3D PUSH1 0x0 DUP6 PUSH20 0xFFFFFFFFFFFFFFFFFFFFFFFFFFFFFFFFFFFFFFFF AND PUSH20 0xFFFFFFFFFFFFFFFFFFFFFFFFFFFFFFFFFFFFFFFF AND DUP2 MSTORE PUSH1 0x20 ADD SWAP1 DUP2 MSTORE PUSH1 0x20 ADD PUSH1 0x0 KECCAK256 PUSH1 0x0 ADD SLOAD PUSH2 0x1567 SWAP1 SWAP2 SWAP1 PUSH4 0xFFFFFFFF AND JUMP JUMPDEST PUSH1 0x33 PUSH1 0x0 ADD DUP2 SWAP1 SSTORE POP PUSH2 0x982 PUSH8 0xDE0B6B3A7640000 PUSH1 0x3D PUSH1 0x0 DUP6 PUSH20 0xFFFFFFFFFFFFFFFFFFFFFFFFFFFFFFFFFFFFFFFF AND PUSH20 0xFFFFFFFFFFFFFFFFFFFFFFFFFFFFFFFFFFFFFFFF AND DUP2 MSTORE PUSH1 0x20 ADD SWAP1 DUP2 MSTORE PUSH1 0x20 ADD PUSH1 0x0 KECCAK256 PUSH1 0x1 ADD SLOAD PUSH2 0x1567 SWAP1 SWAP2 SWAP1 PUSH4 0xFFFFFFFF AND JUMP JUMPDEST PUSH1 0x33 PUSH1 0x1 ADD DUP2 SWAP1 SSTORE POP PUSH1 0x3D PUSH1 0x0 DUP4 PUSH20 0xFFFFFFFFFFFFFFFFFFFFFFFFFFFFFFFFFFFFFFFF AND PUSH20 0xFFFFFFFFFFFFFFFFFFFFFFFFFFFFFFFFFFFFFFFF AND DUP2 MSTORE PUSH1 0x20 ADD SWAP1 DUP2 MSTORE PUSH1 0x20 ADD PUSH1 0x0 KECCAK256 PUSH1 0x2 ADD SLOAD PUSH1 0x33 PUSH1 0x3 ADD DUP2 SWAP1 SSTORE POP PUSH1 0x3A PUSH1 0x0 SWAP1 SLOAD SWAP1 PUSH2 0x100 EXP SWAP1 DIV PUSH20 0xFFFFFFFFFFFFFFFFFFFFFFFFFFFFFFFFFFFFFFFF AND PUSH20 0xFFFFFFFFFFFFFFFFFFFFFFFFFFFFFFFFFFFFFFFF AND PUSH4 0xF05DF5E2 DUP4 PUSH1 0x40 MLOAD DUP3 PUSH4 0xFFFFFFFF AND PUSH1 0xE0 SHL DUP2 MSTORE PUSH1 0x4 ADD PUSH2 0xA32 SWAP2 SWAP1 PUSH2 0x1962 JUMP JUMPDEST PUSH1 0x20 PUSH1 0x40 MLOAD DUP1 DUP4 SUB DUP2 PUSH1 0x0 DUP8 DUP1 EXTCODESIZE ISZERO DUP1 ISZERO PUSH2 0xA4C JUMPI PUSH1 0x0 DUP1 REVERT JUMPDEST POP GAS CALL ISZERO DUP1 ISZERO PUSH2 0xA60 JUMPI RETURNDATASIZE PUSH1 0x0 DUP1 RETURNDATACOPY RETURNDATASIZE PUSH1 0x0 REVERT JUMPDEST POP POP POP POP PUSH1 0x40 MLOAD RETURNDATASIZE PUSH1 0x1F NOT PUSH1 0x1F DUP3 ADD AND DUP3 ADD DUP1 PUSH1 0x40 MSTORE POP DUP2 ADD SWAP1 PUSH2 0xA84 SWAP2 SWAP1 PUSH2 0x17B3 JUMP JUMPDEST PUSH1 0x33 PUSH1 0x2 ADD DUP2 SWAP1 SSTORE POP PUSH2 0xB4A PUSH1 0x3D PUSH1 0x0 DUP5 PUSH20 0xFFFFFFFFFFFFFFFFFFFFFFFFFFFFFFFFFFFFFFFF AND PUSH20 0xFFFFFFFFFFFFFFFFFFFFFFFFFFFFFFFFFFFFFFFF AND DUP2 MSTORE PUSH1 0x20 ADD SWAP1 DUP2 MSTORE PUSH1 0x20 ADD PUSH1 0x0 KECCAK256 PUSH1 0x3 ADD SLOAD PUSH2 0xB3C PUSH1 0x64 PUSH2 0xB2E PUSH1 0xA PUSH1 0x3D PUSH1 0x0 DUP10 PUSH20 0xFFFFFFFFFFFFFFFFFFFFFFFFFFFFFFFFFFFFFFFF AND PUSH20 0xFFFFFFFFFFFFFFFFFFFFFFFFFFFFFFFFFFFFFFFF AND DUP2 MSTORE PUSH1 0x20 ADD SWAP1 DUP2 MSTORE PUSH1 0x20 ADD PUSH1 0x0 KECCAK256 PUSH1 0x2 ADD SLOAD PUSH2 0x1567 SWAP1 SWAP2 SWAP1 PUSH4 0xFFFFFFFF AND JUMP JUMPDEST PUSH2 0x157B SWAP1 SWAP2 SWAP1 PUSH4 0xFFFFFFFF AND JUMP JUMPDEST PUSH2 0x1588 SWAP1 SWAP2 SWAP1 PUSH4 0xFFFFFFFF AND JUMP JUMPDEST PUSH1 0x33 PUSH1 0x4 ADD DUP2 SWAP1 SSTORE POP PUSH1 0x33 PUSH1 0x40 MLOAD DUP1 PUSH1 0xA0 ADD PUSH1 0x40 MSTORE SWAP1 DUP2 PUSH1 0x0 DUP3 ADD SLOAD DUP2 MSTORE PUSH1 0x20 ADD PUSH1 0x1 DUP3 ADD SLOAD DUP2 MSTORE PUSH1 0x20 ADD PUSH1 0x2 DUP3 ADD SLOAD DUP2 MSTORE PUSH1 0x20 ADD PUSH1 0x3 DUP3 ADD SLOAD DUP2 MSTORE PUSH1 0x20 ADD PUSH1 0x4 DUP3 ADD SLOAD DUP2 MSTORE POP POP SWAP1 POP SWAP2 SWAP1 POP JUMP JUMPDEST CALLER PUSH20 0xFFFFFFFFFFFFFFFFFFFFFFFFFFFFFFFFFFFFFFFF AND PUSH1 0x39 PUSH1 0x0 SWAP1 SLOAD SWAP1 PUSH2 0x100 EXP SWAP1 DIV PUSH20 0xFFFFFFFFFFFFFFFFFFFFFFFFFFFFFFFFFFFFFFFF AND PUSH20 0xFFFFFFFFFFFFFFFFFFFFFFFFFFFFFFFFFFFFFFFF AND EQ PUSH2 0xC29 JUMPI PUSH1 0x40 MLOAD PUSH32 0x8C379A000000000000000000000000000000000000000000000000000000000 DUP2 MSTORE PUSH1 0x4 ADD PUSH2 0xC20 SWAP1 PUSH2 0x1ACA JUMP JUMPDEST PUSH1 0x40 MLOAD DUP1 SWAP2 SUB SWAP1 REVERT JUMPDEST DUP1 PUSH1 0x3B PUSH1 0x0 PUSH2 0x100 EXP DUP2 SLOAD DUP2 PUSH20 0xFFFFFFFFFFFFFFFFFFFFFFFFFFFFFFFFFFFFFFFF MUL NOT AND SWAP1 DUP4 PUSH20 0xFFFFFFFFFFFFFFFFFFFFFFFFFFFFFFFFFFFFFFFF AND MUL OR SWAP1 SSTORE POP POP JUMP JUMPDEST PUSH1 0x0 PUSH1 0x1 SWAP1 SLOAD SWAP1 PUSH2 0x100 EXP SWAP1 DIV PUSH1 0xFF AND DUP1 PUSH2 0xC8C JUMPI POP PUSH2 0xC8B PUSH2 0x1595 JUMP JUMPDEST JUMPDEST DUP1 PUSH2 0xCA2 JUMPI POP PUSH1 0x0 DUP1 SLOAD SWAP1 PUSH2 0x100 EXP SWAP1 DIV PUSH1 0xFF AND ISZERO JUMPDEST PUSH2 0xCE1 JUMPI PUSH1 0x40 MLOAD PUSH32 0x8C379A000000000000000000000000000000000000000000000000000000000 DUP2 MSTORE PUSH1 0x4 ADD PUSH2 0xCD8 SWAP1 PUSH2 0x1AAA JUMP JUMPDEST PUSH1 0x40 MLOAD DUP1 SWAP2 SUB SWAP1 REVERT JUMPDEST PUSH1 0x0 DUP1 PUSH1 0x1 SWAP1 SLOAD SWAP1 PUSH2 0x100 EXP SWAP1 DIV PUSH1 0xFF AND ISZERO SWAP1 POP DUP1 ISZERO PUSH2 0xD31 JUMPI PUSH1 0x1 PUSH1 0x0 PUSH1 0x1 PUSH2 0x100 EXP DUP2 SLOAD DUP2 PUSH1 0xFF MUL NOT AND SWAP1 DUP4 ISZERO ISZERO MUL OR SWAP1 SSTORE POP PUSH1 0x1 PUSH1 0x0 DUP1 PUSH2 0x100 EXP DUP2 SLOAD DUP2 PUSH1 0xFF MUL NOT AND SWAP1 DUP4 ISZERO ISZERO MUL OR SWAP1 SSTORE POP JUMPDEST DUP4 PUSH1 0x3A PUSH1 0x0 PUSH2 0x100 EXP DUP2 SLOAD DUP2 PUSH20 0xFFFFFFFFFFFFFFFFFFFFFFFFFFFFFFFFFFFFFFFF MUL NOT AND SWAP1 DUP4 PUSH20 0xFFFFFFFFFFFFFFFFFFFFFFFFFFFFFFFFFFFFFFFF AND MUL OR SWAP1 SSTORE POP DUP2 PUSH1 0x38 PUSH1 0x0 PUSH2 0x100 EXP DUP2 SLOAD DUP2 PUSH20 0xFFFFFFFFFFFFFFFFFFFFFFFFFFFFFFFFFFFFFFFF MUL NOT AND SWAP1 DUP4 PUSH20 0xFFFFFFFFFFFFFFFFFFFFFFFFFFFFFFFFFFFFFFFF AND MUL OR SWAP1 SSTORE POP CALLER PUSH1 0x39 PUSH1 0x0 PUSH2 0x100 EXP DUP2 SLOAD DUP2 PUSH20 0xFFFFFFFFFFFFFFFFFFFFFFFFFFFFFFFFFFFFFFFF MUL NOT AND SWAP1 DUP4 PUSH20 0xFFFFFFFFFFFFFFFFFFFFFFFFFFFFFFFFFFFFFFFF AND MUL OR SWAP1 SSTORE POP DUP3 PUSH1 0x3B PUSH1 0x0 PUSH2 0x100 EXP DUP2 SLOAD DUP2 PUSH20 0xFFFFFFFFFFFFFFFFFFFFFFFFFFFFFFFFFFFFFFFF MUL NOT AND SWAP1 DUP4 PUSH20 0xFFFFFFFFFFFFFFFFFFFFFFFFFFFFFFFFFFFFFFFF AND MUL OR SWAP1 SSTORE POP PUSH1 0x1 PUSH1 0x3C DUP2 SWAP1 SSTORE POP DUP1 ISZERO PUSH2 0xE5E JUMPI PUSH1 0x0 DUP1 PUSH1 0x1 PUSH2 0x100 EXP DUP2 SLOAD DUP2 PUSH1 0xFF MUL NOT AND SWAP1 DUP4 ISZERO ISZERO MUL OR SWAP1 SSTORE POP JUMPDEST POP POP POP POP JUMP JUMPDEST PUSH1 0x33 DUP1 PUSH1 0x0 ADD SLOAD SWAP1 DUP1 PUSH1 0x1 ADD SLOAD SWAP1 DUP1 PUSH1 0x2 ADD SLOAD SWAP1 DUP1 PUSH1 0x3 ADD SLOAD SWAP1 DUP1 PUSH1 0x4 ADD SLOAD SWAP1 POP DUP6 JUMP JUMPDEST PUSH1 0x3B PUSH1 0x0 SWAP1 SLOAD SWAP1 PUSH2 0x100 EXP SWAP1 DIV PUSH20 0xFFFFFFFFFFFFFFFFFFFFFFFFFFFFFFFFFFFFFFFF AND PUSH20 0xFFFFFFFFFFFFFFFFFFFFFFFFFFFFFFFFFFFFFFFF AND PUSH4 0x23B872DD CALLER PUSH1 0x38 PUSH1 0x0 SWAP1 SLOAD SWAP1 PUSH2 0x100 EXP SWAP1 DIV PUSH20 0xFFFFFFFFFFFFFFFFFFFFFFFFFFFFFFFFFFFFFFFF AND DUP5 PUSH1 0x40 MLOAD DUP5 PUSH4 0xFFFFFFFF AND PUSH1 0xE0 SHL DUP2 MSTORE PUSH1 0x4 ADD PUSH2 0xF09 SWAP4 SWAP3 SWAP2 SWAP1 PUSH2 0x1998 JUMP JUMPDEST PUSH1 0x20 PUSH1 0x40 MLOAD DUP1 DUP4 SUB DUP2 PUSH1 0x0 DUP8 DUP1 EXTCODESIZE ISZERO DUP1 ISZERO PUSH2 0xF23 JUMPI PUSH1 0x0 DUP1 REVERT JUMPDEST POP GAS CALL ISZERO DUP1 ISZERO PUSH2 0xF37 JUMPI RETURNDATASIZE PUSH1 0x0 DUP1 RETURNDATACOPY RETURNDATASIZE PUSH1 0x0 REVERT JUMPDEST POP POP POP POP PUSH1 0x40 MLOAD RETURNDATASIZE PUSH1 0x1F NOT PUSH1 0x1F DUP3 ADD AND DUP3 ADD DUP1 PUSH1 0x40 MSTORE POP DUP2 ADD SWAP1 PUSH2 0xF5B SWAP2 SWAP1 PUSH2 0x16C0 JUMP JUMPDEST POP DUP1 PUSH1 0x3D PUSH1 0x0 CALLER PUSH20 0xFFFFFFFFFFFFFFFFFFFFFFFFFFFFFFFFFFFFFFFF AND PUSH20 0xFFFFFFFFFFFFFFFFFFFFFFFFFFFFFFFFFFFFFFFF AND DUP2 MSTORE PUSH1 0x20 ADD SWAP1 DUP2 MSTORE PUSH1 0x20 ADD PUSH1 0x0 KECCAK256 PUSH1 0x0 ADD PUSH1 0x0 DUP3 DUP3 SLOAD ADD SWAP3 POP POP DUP2 SWAP1 SSTORE POP PUSH9 0x2B5E3AF16B1880000 DUP2 EQ ISZERO PUSH2 0x1022 JUMPI PUSH2 0xFD2 PUSH1 0x3C SLOAD DUP3 PUSH2 0x157B SWAP1 SWAP2 SWAP1 PUSH4 0xFFFFFFFF AND JUMP JUMPDEST PUSH1 0x3D PUSH1 0x0 CALLER PUSH20 0xFFFFFFFFFFFFFFFFFFFFFFFFFFFFFFFFFFFFFFFF AND PUSH20 0xFFFFFFFFFFFFFFFFFFFFFFFFFFFFFFFFFFFFFFFF AND DUP2 MSTORE PUSH1 0x20 ADD SWAP1 DUP2 MSTORE PUSH1 0x20 ADD PUSH1 0x0 KECCAK256 PUSH1 0x1 ADD PUSH1 0x0 DUP3 DUP3 SLOAD ADD SWAP3 POP POP DUP2 SWAP1 SSTORE POP JUMPDEST PUSH9 0xAD78EBC5AC6200000 DUP2 EQ ISZERO PUSH2 0x1161 JUMPI DUP1 PUSH1 0x3D PUSH1 0x0 CALLER PUSH20 0xFFFFFFFFFFFFFFFFFFFFFFFFFFFFFFFFFFFFFFFF AND PUSH20 0xFFFFFFFFFFFFFFFFFFFFFFFFFFFFFFFFFFFFFFFF AND DUP2 MSTORE PUSH1 0x20 ADD SWAP1 DUP2 MSTORE PUSH1 0x20 ADD PUSH1 0x0 KECCAK256 PUSH1 0x1 ADD PUSH1 0x0 DUP3 DUP3 SLOAD ADD SWAP3 POP POP DUP2 SWAP1 SSTORE POP PUSH1 0x3A PUSH1 0x0 SWAP1 SLOAD SWAP1 PUSH2 0x100 EXP SWAP1 DIV PUSH20 0xFFFFFFFFFFFFFFFFFFFFFFFFFFFFFFFFFFFFFFFF AND PUSH20 0xFFFFFFFFFFFFFFFFFFFFFFFFFFFFFFFFFFFFFFFF AND PUSH4 0x23B872DD PUSH1 0x38 PUSH1 0x0 SWAP1 SLOAD SWAP1 PUSH2 0x100 EXP SWAP1 DIV PUSH20 0xFFFFFFFFFFFFFFFFFFFFFFFFFFFFFFFFFFFFFFFF AND CALLER PUSH9 0xAD78EBC5AC6200000 PUSH1 0x40 MLOAD DUP5 PUSH4 0xFFFFFFFF AND PUSH1 0xE0 SHL DUP2 MSTORE PUSH1 0x4 ADD PUSH2 0x110D SWAP4 SWAP3 SWAP2 SWAP1 PUSH2 0x19CF JUMP JUMPDEST PUSH1 0x20 PUSH1 0x40 MLOAD DUP1 DUP4 SUB DUP2 PUSH1 0x0 DUP8 DUP1 EXTCODESIZE ISZERO DUP1 ISZERO PUSH2 0x1127 JUMPI PUSH1 0x0 DUP1 REVERT JUMPDEST POP GAS CALL ISZERO DUP1 ISZERO PUSH2 0x113B JUMPI RETURNDATASIZE PUSH1 0x0 DUP1 RETURNDATACOPY RETURNDATASIZE PUSH1 0x0 REVERT JUMPDEST POP POP POP POP PUSH1 0x40 MLOAD RETURNDATASIZE PUSH1 0x1F NOT PUSH1 0x1F DUP3 ADD AND DUP3 ADD DUP1 PUSH1 0x40 MSTORE POP DUP2 ADD SWAP1 PUSH2 0x115F SWAP2 SWAP1 PUSH2 0x16C0 JUMP JUMPDEST POP JUMPDEST PUSH9 0x1B1AE4D6E2EF500000 DUP2 EQ ISZERO PUSH2 0x12A0 JUMPI DUP1 PUSH1 0x3D PUSH1 0x0 CALLER PUSH20 0xFFFFFFFFFFFFFFFFFFFFFFFFFFFFFFFFFFFFFFFF AND PUSH20 0xFFFFFFFFFFFFFFFFFFFFFFFFFFFFFFFFFFFFFFFF AND DUP2 MSTORE PUSH1 0x20 ADD SWAP1 DUP2 MSTORE PUSH1 0x20 ADD PUSH1 0x0 KECCAK256 PUSH1 0x1 ADD PUSH1 0x0 DUP3 DUP3 SLOAD ADD SWAP3 POP POP DUP2 SWAP1 SSTORE POP PUSH1 0x3A PUSH1 0x0 SWAP1 SLOAD SWAP1 PUSH2 0x100 EXP SWAP1 DIV PUSH20 0xFFFFFFFFFFFFFFFFFFFFFFFFFFFFFFFFFFFFFFFF AND PUSH20 0xFFFFFFFFFFFFFFFFFFFFFFFFFFFFFFFFFFFFFFFF AND PUSH4 0x23B872DD PUSH1 0x38 PUSH1 0x0 SWAP1 SLOAD SWAP1 PUSH2 0x100 EXP SWAP1 DIV PUSH20 0xFFFFFFFFFFFFFFFFFFFFFFFFFFFFFFFFFFFFFFFF AND CALLER PUSH9 0x1B1AE4D6E2EF500000 PUSH1 0x40 MLOAD DUP5 PUSH4 0xFFFFFFFF AND PUSH1 0xE0 SHL DUP2 MSTORE PUSH1 0x4 ADD PUSH2 0x124C SWAP4 SWAP3 SWAP2 SWAP1 PUSH2 0x1A06 JUMP JUMPDEST PUSH1 0x20 PUSH1 0x40 MLOAD DUP1 DUP4 SUB DUP2 PUSH1 0x0 DUP8 DUP1 EXTCODESIZE ISZERO DUP1 ISZERO PUSH2 0x1266 JUMPI PUSH1 0x0 DUP1 REVERT JUMPDEST POP GAS CALL ISZERO DUP1 ISZERO PUSH2 0x127A JUMPI RETURNDATASIZE PUSH1 0x0 DUP1 RETURNDATACOPY RETURNDATASIZE PUSH1 0x0 REVERT JUMPDEST POP POP POP POP PUSH1 0x40 MLOAD RETURNDATASIZE PUSH1 0x1F NOT PUSH1 0x1F DUP3 ADD AND DUP3 ADD DUP1 PUSH1 0x40 MSTORE POP DUP2 ADD SWAP1 PUSH2 0x129E SWAP2 SWAP1 PUSH2 0x16C0 JUMP JUMPDEST POP JUMPDEST PUSH1 0x0 PUSH20 0xFFFFFFFFFFFFFFFFFFFFFFFFFFFFFFFFFFFFFFFF AND PUSH1 0x3A PUSH1 0x0 SWAP1 SLOAD SWAP1 PUSH2 0x100 EXP SWAP1 DIV PUSH20 0xFFFFFFFFFFFFFFFFFFFFFFFFFFFFFFFFFFFFFFFF AND PUSH20 0xFFFFFFFFFFFFFFFFFFFFFFFFFFFFFFFFFFFFFFFF AND PUSH4 0x1F5ED1B2 CALLER PUSH1 0x40 MLOAD DUP3 PUSH4 0xFFFFFFFF AND PUSH1 0xE0 SHL DUP2 MSTORE PUSH1 0x4 ADD PUSH2 0x1313 SWAP2 SWAP1 PUSH2 0x197D JUMP JUMPDEST PUSH1 0x20 PUSH1 0x40 MLOAD DUP1 DUP4 SUB DUP2 PUSH1 0x0 DUP8 DUP1 EXTCODESIZE ISZERO DUP1 ISZERO PUSH2 0x132D JUMPI PUSH1 0x0 DUP1 REVERT JUMPDEST POP GAS CALL ISZERO DUP1 ISZERO PUSH2 0x1341 JUMPI RETURNDATASIZE PUSH1 0x0 DUP1 RETURNDATACOPY RETURNDATASIZE PUSH1 0x0 REVERT JUMPDEST POP POP POP POP PUSH1 0x40 MLOAD RETURNDATASIZE PUSH1 0x1F NOT PUSH1 0x1F DUP3 ADD AND DUP3 ADD DUP1 PUSH1 0x40 MSTORE POP DUP2 ADD SWAP1 PUSH2 0x1365 SWAP2 SWAP1 PUSH2 0x1697 JUMP JUMPDEST PUSH20 0xFFFFFFFFFFFFFFFFFFFFFFFFFFFFFFFFFFFFFFFF AND EQ ISZERO DUP1 ISZERO PUSH2 0x13CB JUMPI POP PUSH1 0x0 PUSH1 0x3D PUSH1 0x0 CALLER PUSH20 0xFFFFFFFFFFFFFFFFFFFFFFFFFFFFFFFFFFFFFFFF AND PUSH20 0xFFFFFFFFFFFFFFFFFFFFFFFFFFFFFFFFFFFFFFFF AND DUP2 MSTORE PUSH1 0x20 ADD SWAP1 DUP2 MSTORE PUSH1 0x20 ADD PUSH1 0x0 KECCAK256 PUSH1 0x4 ADD SLOAD EQ JUMPDEST ISZERO PUSH2 0x1516 JUMPI PUSH1 0x1 PUSH1 0x3D PUSH1 0x0 PUSH1 0x3A PUSH1 0x0 SWAP1 SLOAD SWAP1 PUSH2 0x100 EXP SWAP1 DIV PUSH20 0xFFFFFFFFFFFFFFFFFFFFFFFFFFFFFFFFFFFFFFFF AND PUSH20 0xFFFFFFFFFFFFFFFFFFFFFFFFFFFFFFFFFFFFFFFF AND PUSH4 0x1F5ED1B2 CALLER PUSH1 0x40 MLOAD DUP3 PUSH4 0xFFFFFFFF AND PUSH1 0xE0 SHL DUP2 MSTORE PUSH1 0x4 ADD PUSH2 0x1431 SWAP2 SWAP1 PUSH2 0x197D JUMP JUMPDEST PUSH1 0x20 PUSH1 0x40 MLOAD DUP1 DUP4 SUB DUP2 PUSH1 0x0 DUP8 DUP1 EXTCODESIZE ISZERO DUP1 ISZERO PUSH2 0x144B JUMPI PUSH1 0x0 DUP1 REVERT JUMPDEST POP GAS CALL ISZERO DUP1 ISZERO PUSH2 0x145F JUMPI RETURNDATASIZE PUSH1 0x0 DUP1 RETURNDATACOPY RETURNDATASIZE PUSH1 0x0 REVERT JUMPDEST POP POP POP POP PUSH1 0x40 MLOAD RETURNDATASIZE PUSH1 0x1F NOT PUSH1 0x1F DUP3 ADD AND DUP3 ADD DUP1 PUSH1 0x40 MSTORE POP DUP2 ADD SWAP1 PUSH2 0x1483 SWAP2 SWAP1 PUSH2 0x1697 JUMP JUMPDEST PUSH20 0xFFFFFFFFFFFFFFFFFFFFFFFFFFFFFFFFFFFFFFFF AND PUSH20 0xFFFFFFFFFFFFFFFFFFFFFFFFFFFFFFFFFFFFFFFF AND DUP2 MSTORE PUSH1 0x20 ADD SWAP1 DUP2 MSTORE PUSH1 0x20 ADD PUSH1 0x0 KECCAK256 PUSH1 0x2 ADD PUSH1 0x0 DUP3 DUP3 SLOAD ADD SWAP3 POP POP DUP2 SWAP1 SSTORE POP PUSH1 0x1 PUSH1 0x3D PUSH1 0x0 CALLER PUSH20 0xFFFFFFFFFFFFFFFFFFFFFFFFFFFFFFFFFFFFFFFF AND PUSH20 0xFFFFFFFFFFFFFFFFFFFFFFFFFFFFFFFFFFFFFFFF AND DUP2 MSTORE PUSH1 0x20 ADD SWAP1 DUP2 MSTORE PUSH1 0x20 ADD PUSH1 0x0 KECCAK256 PUSH1 0x4 ADD DUP2 SWAP1 SSTORE POP JUMPDEST CALLER PUSH20 0xFFFFFFFFFFFFFFFFFFFFFFFFFFFFFFFFFFFFFFFF AND PUSH32 0x6C6526DE39DFAACB57FA46C88B14BE8505D09F56CF193B2AEF29AF27967615BA DUP3 PUSH1 0x40 MLOAD PUSH2 0x155C SWAP2 SWAP1 PUSH2 0x1B05 JUMP JUMPDEST PUSH1 0x40 MLOAD DUP1 SWAP2 SUB SWAP1 LOG2 POP JUMP JUMPDEST PUSH1 0x0 DUP2 DUP4 DUP2 PUSH2 0x1572 JUMPI INVALID JUMPDEST DIV SWAP1 POP SWAP3 SWAP2 POP POP JUMP JUMPDEST PUSH1 0x0 DUP2 DUP4 MUL SWAP1 POP SWAP3 SWAP2 POP POP JUMP JUMPDEST PUSH1 0x0 DUP2 DUP4 SUB SWAP1 POP SWAP3 SWAP2 POP POP JUMP JUMPDEST PUSH1 0x0 DUP1 ADDRESS SWAP1 POP PUSH1 0x0 DUP2 EXTCODESIZE SWAP1 POP PUSH1 0x0 DUP2 EQ SWAP3 POP POP POP SWAP1 JUMP JUMPDEST PUSH1 0x40 MLOAD DUP1 PUSH1 0xA0 ADD PUSH1 0x40 MSTORE DUP1 PUSH1 0x0 DUP2 MSTORE PUSH1 0x20 ADD PUSH1 0x0 DUP2 MSTORE PUSH1 0x20 ADD PUSH1 0x0 DUP2 MSTORE PUSH1 0x20 ADD PUSH1 0x0 DUP2 MSTORE PUSH1 0x20 ADD PUSH1 0x0 DUP2 MSTORE POP SWAP1 JUMP JUMPDEST PUSH1 0x0 DUP2 CALLDATALOAD SWAP1 POP PUSH2 0x15EA DUP2 PUSH2 0x1C92 JUMP JUMPDEST SWAP3 SWAP2 POP POP JUMP JUMPDEST PUSH1 0x0 DUP2 MLOAD SWAP1 POP PUSH2 0x15FF DUP2 PUSH2 0x1C92 JUMP JUMPDEST SWAP3 SWAP2 POP POP JUMP JUMPDEST PUSH1 0x0 DUP2 MLOAD SWAP1 POP PUSH2 0x1614 DUP2 PUSH2 0x1CA9 JUMP JUMPDEST SWAP3 SWAP2 POP POP JUMP JUMPDEST PUSH1 0x0 DUP2 CALLDATALOAD SWAP1 POP PUSH2 0x1629 DUP2 PUSH2 0x1CC0 JUMP JUMPDEST SWAP3 SWAP2 POP POP JUMP JUMPDEST PUSH1 0x0 DUP2 CALLDATALOAD SWAP1 POP PUSH2 0x163E DUP2 PUSH2 0x1CD7 JUMP JUMPDEST SWAP3 SWAP2 POP POP JUMP JUMPDEST PUSH1 0x0 DUP2 CALLDATALOAD SWAP1 POP PUSH2 0x1653 DUP2 PUSH2 0x1CEE JUMP JUMPDEST SWAP3 SWAP2 POP POP JUMP JUMPDEST PUSH1 0x0 DUP2 MLOAD SWAP1 POP PUSH2 0x1668 DUP2 PUSH2 0x1CEE JUMP JUMPDEST SWAP3 SWAP2 POP POP JUMP JUMPDEST PUSH1 0x0 PUSH1 0x20 DUP3 DUP5 SUB SLT ISZERO PUSH2 0x1680 JUMPI PUSH1 0x0 DUP1 REVERT JUMPDEST PUSH1 0x0 PUSH2 0x168E DUP5 DUP3 DUP6 ADD PUSH2 0x15DB JUMP JUMPDEST SWAP2 POP POP SWAP3 SWAP2 POP POP JUMP JUMPDEST PUSH1 0x0 PUSH1 0x20 DUP3 DUP5 SUB SLT ISZERO PUSH2 0x16A9 JUMPI PUSH1 0x0 DUP1 REVERT JUMPDEST PUSH1 0x0 PUSH2 0x16B7 DUP5 DUP3 DUP6 ADD PUSH2 0x15F0 JUMP JUMPDEST SWAP2 POP POP SWAP3 SWAP2 POP POP JUMP JUMPDEST PUSH1 0x0 PUSH1 0x20 DUP3 DUP5 SUB SLT ISZERO PUSH2 0x16D2 JUMPI PUSH1 0x0 DUP1 REVERT JUMPDEST PUSH1 0x0 PUSH2 0x16E0 DUP5 DUP3 DUP6 ADD PUSH2 0x1605 JUMP JUMPDEST SWAP2 POP POP SWAP3 SWAP2 POP POP JUMP JUMPDEST PUSH1 0x0 PUSH1 0x20 DUP3 DUP5 SUB SLT ISZERO PUSH2 0x16FB JUMPI PUSH1 0x0 DUP1 REVERT JUMPDEST PUSH1 0x0 PUSH2 0x1709 DUP5 DUP3 DUP6 ADD PUSH2 0x161A JUMP JUMPDEST SWAP2 POP POP SWAP3 SWAP2 POP POP JUMP JUMPDEST PUSH1 0x0 DUP1 PUSH1 0x0 PUSH1 0x60 DUP5 DUP7 SUB SLT ISZERO PUSH2 0x1727 JUMPI PUSH1 0x0 DUP1 REVERT JUMPDEST PUSH1 0x0 PUSH2 0x1735 DUP7 DUP3 DUP8 ADD PUSH2 0x161A JUMP JUMPDEST SWAP4 POP POP PUSH1 0x20 PUSH2 0x1746 DUP7 DUP3 DUP8 ADD PUSH2 0x162F JUMP JUMPDEST SWAP3 POP POP PUSH1 0x40 PUSH2 0x1757 DUP7 DUP3 DUP8 ADD PUSH2 0x15DB JUMP JUMPDEST SWAP2 POP POP SWAP3 POP SWAP3 POP SWAP3 JUMP JUMPDEST PUSH1 0x0 PUSH1 0x20 DUP3 DUP5 SUB SLT ISZERO PUSH2 0x1773 JUMPI PUSH1 0x0 DUP1 REVERT JUMPDEST PUSH1 0x0 PUSH2 0x1781 DUP5 DUP3 DUP6 ADD PUSH2 0x162F JUMP JUMPDEST SWAP2 POP POP SWAP3 SWAP2 POP POP JUMP JUMPDEST PUSH1 0x0 PUSH1 0x20 DUP3 DUP5 SUB SLT ISZERO PUSH2 0x179C JUMPI PUSH1 0x0 DUP1 REVERT JUMPDEST PUSH1 0x0 PUSH2 0x17AA DUP5 DUP3 DUP6 ADD PUSH2 0x1644 JUMP JUMPDEST SWAP2 POP POP SWAP3 SWAP2 POP POP JUMP JUMPDEST PUSH1 0x0 PUSH1 0x20 DUP3 DUP5 SUB SLT ISZERO PUSH2 0x17C5 JUMPI PUSH1 0x0 DUP1 REVERT JUMPDEST PUSH1 0x0 PUSH2 0x17D3 DUP5 DUP3 DUP6 ADD PUSH2 0x1659 JUMP JUMPDEST SWAP2 POP POP SWAP3 SWAP2 POP POP JUMP JUMPDEST PUSH2 0x17E5 DUP2 PUSH2 0x1BF0 JUMP JUMPDEST DUP3 MSTORE POP POP JUMP JUMPDEST PUSH2 0x17F4 DUP2 PUSH2 0x1B84 JUMP JUMPDEST DUP3 MSTORE POP POP JUMP JUMPDEST PUSH2 0x1803 DUP2 PUSH2 0x1C02 JUMP JUMPDEST DUP3 MSTORE POP POP JUMP JUMPDEST PUSH2 0x1812 DUP2 PUSH2 0x1C26 JUMP JUMPDEST DUP3 MSTORE POP POP JUMP JUMPDEST PUSH2 0x1821 DUP2 PUSH2 0x1C4A JUMP JUMPDEST DUP3 MSTORE POP POP JUMP JUMPDEST PUSH2 0x1830 DUP2 PUSH2 0x1C5C JUMP JUMPDEST DUP3 MSTORE POP POP JUMP JUMPDEST PUSH1 0x0 PUSH2 0x1843 PUSH1 0x2E DUP4 PUSH2 0x1B73 JUMP JUMPDEST SWAP2 POP PUSH32 0x436F6E747261637420696E7374616E63652068617320616C7265616479206265 PUSH1 0x0 DUP4 ADD MSTORE PUSH32 0x656E20696E697469616C697A6564000000000000000000000000000000000000 PUSH1 0x20 DUP4 ADD MSTORE PUSH1 0x40 DUP3 ADD SWAP1 POP SWAP2 SWAP1 POP JUMP JUMPDEST PUSH1 0x0 PUSH2 0x18A9 PUSH1 0xA DUP4 PUSH2 0x1B73 JUMP JUMPDEST SWAP2 POP PUSH32 0x6F6E6C79206F776E657200000000000000000000000000000000000000000000 PUSH1 0x0 DUP4 ADD MSTORE PUSH1 0x20 DUP3 ADD SWAP1 POP SWAP2 SWAP1 POP JUMP JUMPDEST PUSH1 0xA0 DUP3 ADD PUSH1 0x0 DUP3 ADD MLOAD PUSH2 0x18F2 PUSH1 0x0 DUP6 ADD DUP3 PUSH2 0x1944 JUMP JUMPDEST POP PUSH1 0x20 DUP3 ADD MLOAD PUSH2 0x1905 PUSH1 0x20 DUP6 ADD DUP3 PUSH2 0x1944 JUMP JUMPDEST POP PUSH1 0x40 DUP3 ADD MLOAD PUSH2 0x1918 PUSH1 0x40 DUP6 ADD DUP3 PUSH2 0x1944 JUMP JUMPDEST POP PUSH1 0x60 DUP3 ADD MLOAD PUSH2 0x192B PUSH1 0x60 DUP6 ADD DUP3 PUSH2 0x1944 JUMP JUMPDEST POP PUSH1 0x80 DUP3 ADD MLOAD PUSH2 0x193E PUSH1 0x80 DUP6 ADD DUP3 PUSH2 0x1944 JUMP JUMPDEST POP POP POP POP JUMP JUMPDEST PUSH2 0x194D DUP2 PUSH2 0x1BE6 JUMP JUMPDEST DUP3 MSTORE POP POP JUMP JUMPDEST PUSH2 0x195C DUP2 PUSH2 0x1BE6 JUMP JUMPDEST DUP3 MSTORE POP POP JUMP JUMPDEST PUSH1 0x0 PUSH1 0x20 DUP3 ADD SWAP1 POP PUSH2 0x1977 PUSH1 0x0 DUP4 ADD DUP5 PUSH2 0x17EB JUMP JUMPDEST SWAP3 SWAP2 POP POP JUMP JUMPDEST PUSH1 0x0 PUSH1 0x20 DUP3 ADD SWAP1 POP PUSH2 0x1992 PUSH1 0x0 DUP4 ADD DUP5 PUSH2 0x17DC JUMP JUMPDEST SWAP3 SWAP2 POP POP JUMP JUMPDEST PUSH1 0x0 PUSH1 0x60 DUP3 ADD SWAP1 POP PUSH2 0x19AD PUSH1 0x0 DUP4 ADD DUP7 PUSH2 0x17DC JUMP JUMPDEST PUSH2 0x19BA PUSH1 0x20 DUP4 ADD DUP6 PUSH2 0x17EB JUMP JUMPDEST PUSH2 0x19C7 PUSH1 0x40 DUP4 ADD DUP5 PUSH2 0x1953 JUMP JUMPDEST SWAP5 SWAP4 POP POP POP POP JUMP JUMPDEST PUSH1 0x0 PUSH1 0x60 DUP3 ADD SWAP1 POP PUSH2 0x19E4 PUSH1 0x0 DUP4 ADD DUP7 PUSH2 0x17EB JUMP JUMPDEST PUSH2 0x19F1 PUSH1 0x20 DUP4 ADD DUP6 PUSH2 0x17DC JUMP JUMPDEST PUSH2 0x19FE PUSH1 0x40 DUP4 ADD DUP5 PUSH2 0x1818 JUMP JUMPDEST SWAP5 SWAP4 POP POP POP POP JUMP JUMPDEST PUSH1 0x0 PUSH1 0x60 DUP3 ADD SWAP1 POP PUSH2 0x1A1B PUSH1 0x0 DUP4 ADD DUP7 PUSH2 0x17EB JUMP JUMPDEST PUSH2 0x1A28 PUSH1 0x20 DUP4 ADD DUP6 PUSH2 0x17DC JUMP JUMPDEST PUSH2 0x1A35 PUSH1 0x40 DUP4 ADD DUP5 PUSH2 0x1827 JUMP JUMPDEST SWAP5 SWAP4 POP POP POP POP JUMP JUMPDEST PUSH1 0x0 PUSH1 0x60 DUP3 ADD SWAP1 POP PUSH2 0x1A52 PUSH1 0x0 DUP4 ADD DUP7 PUSH2 0x17EB JUMP JUMPDEST PUSH2 0x1A5F PUSH1 0x20 DUP4 ADD DUP6 PUSH2 0x17DC JUMP JUMPDEST PUSH2 0x1A6C PUSH1 0x40 DUP4 ADD DUP5 PUSH2 0x1953 JUMP JUMPDEST SWAP5 SWAP4 POP POP POP POP JUMP JUMPDEST PUSH1 0x0 PUSH1 0x20 DUP3 ADD SWAP1 POP PUSH2 0x1A89 PUSH1 0x0 DUP4 ADD DUP5 PUSH2 0x17FA JUMP JUMPDEST SWAP3 SWAP2 POP POP JUMP JUMPDEST PUSH1 0x0 PUSH1 0x20 DUP3 ADD SWAP1 POP PUSH2 0x1AA4 PUSH1 0x0 DUP4 ADD DUP5 PUSH2 0x1809 JUMP JUMPDEST SWAP3 SWAP2 POP POP JUMP JUMPDEST PUSH1 0x0 PUSH1 0x20 DUP3 ADD SWAP1 POP DUP2 DUP2 SUB PUSH1 0x0 DUP4 ADD MSTORE PUSH2 0x1AC3 DUP2 PUSH2 0x1836 JUMP JUMPDEST SWAP1 POP SWAP2 SWAP1 POP JUMP JUMPDEST PUSH1 0x0 PUSH1 0x20 DUP3 ADD SWAP1 POP DUP2 DUP2 SUB PUSH1 0x0 DUP4 ADD MSTORE PUSH2 0x1AE3 DUP2 PUSH2 0x189C JUMP JUMPDEST SWAP1 POP SWAP2 SWAP1 POP JUMP JUMPDEST PUSH1 0x0 PUSH1 0xA0 DUP3 ADD SWAP1 POP PUSH2 0x1AFF PUSH1 0x0 DUP4 ADD DUP5 PUSH2 0x18DC JUMP JUMPDEST SWAP3 SWAP2 POP POP JUMP JUMPDEST PUSH1 0x0 PUSH1 0x20 DUP3 ADD SWAP1 POP PUSH2 0x1B1A PUSH1 0x0 DUP4 ADD DUP5 PUSH2 0x1953 JUMP JUMPDEST SWAP3 SWAP2 POP POP JUMP JUMPDEST PUSH1 0x0 PUSH1 0xA0 DUP3 ADD SWAP1 POP PUSH2 0x1B35 PUSH1 0x0 DUP4 ADD DUP9 PUSH2 0x1953 JUMP JUMPDEST PUSH2 0x1B42 PUSH1 0x20 DUP4 ADD DUP8 PUSH2 0x1953 JUMP JUMPDEST PUSH2 0x1B4F PUSH1 0x40 DUP4 ADD DUP7 PUSH2 0x1953 JUMP JUMPDEST PUSH2 0x1B5C PUSH1 0x60 DUP4 ADD DUP6 PUSH2 0x1953 JUMP JUMPDEST PUSH2 0x1B69 PUSH1 0x80 DUP4 ADD DUP5 PUSH2 0x1953 JUMP JUMPDEST SWAP7 SWAP6 POP POP POP POP POP POP JUMP JUMPDEST PUSH1 0x0 DUP3 DUP3 MSTORE PUSH1 0x20 DUP3 ADD SWAP1 POP SWAP3 SWAP2 POP POP JUMP JUMPDEST PUSH1 0x0 PUSH2 0x1B8F DUP3 PUSH2 0x1BC6 JUMP JUMPDEST SWAP1 POP SWAP2 SWAP1 POP JUMP JUMPDEST PUSH1 0x0 DUP2 ISZERO ISZERO SWAP1 POP SWAP2 SWAP1 POP JUMP JUMPDEST PUSH1 0x0 PUSH2 0x1BAD DUP3 PUSH2 0x1B84 JUMP JUMPDEST SWAP1 POP SWAP2 SWAP1 POP JUMP JUMPDEST PUSH1 0x0 PUSH2 0x1BBF DUP3 PUSH2 0x1B84 JUMP JUMPDEST SWAP1 POP SWAP2 SWAP1 POP JUMP JUMPDEST PUSH1 0x0 PUSH20 0xFFFFFFFFFFFFFFFFFFFFFFFFFFFFFFFFFFFFFFFF DUP3 AND SWAP1 POP SWAP2 SWAP1 POP JUMP JUMPDEST PUSH1 0x0 DUP2 SWAP1 POP SWAP2 SWAP1 POP JUMP JUMPDEST PUSH1 0x0 PUSH2 0x1BFB DUP3 PUSH2 0x1C6E JUMP JUMPDEST SWAP1 POP SWAP2 SWAP1 POP JUMP JUMPDEST PUSH1 0x0 PUSH2 0x1C0D DUP3 PUSH2 0x1C14 JUMP JUMPDEST SWAP1 POP SWAP2 SWAP1 POP JUMP JUMPDEST PUSH1 0x0 PUSH2 0x1C1F DUP3 PUSH2 0x1BC6 JUMP JUMPDEST SWAP1 POP SWAP2 SWAP1 POP JUMP JUMPDEST PUSH1 0x0 PUSH2 0x1C31 DUP3 PUSH2 0x1C38 JUMP JUMPDEST SWAP1 POP SWAP2 SWAP1 POP JUMP JUMPDEST PUSH1 0x0 PUSH2 0x1C43 DUP3 PUSH2 0x1BC6 JUMP JUMPDEST SWAP1 POP SWAP2 SWAP1 POP JUMP JUMPDEST PUSH1 0x0 PUSH2 0x1C55 DUP3 PUSH2 0x1BE6 JUMP JUMPDEST SWAP1 POP SWAP2 SWAP1 POP JUMP JUMPDEST PUSH1 0x0 PUSH2 0x1C67 DUP3 PUSH2 0x1BE6 JUMP JUMPDEST SWAP1 POP SWAP2 SWAP1 POP JUMP JUMPDEST PUSH1 0x0 PUSH2 0x1C79 DUP3 PUSH2 0x1C80 JUMP JUMPDEST SWAP1 POP SWAP2 SWAP1 POP JUMP JUMPDEST PUSH1 0x0 PUSH2 0x1C8B DUP3 PUSH2 0x1BC6 JUMP JUMPDEST SWAP1 POP SWAP2 SWAP1 POP JUMP JUMPDEST PUSH2 0x1C9B DUP2 PUSH2 0x1B84 JUMP JUMPDEST DUP2 EQ PUSH2 0x1CA6 JUMPI PUSH1 0x0 DUP1 REVERT JUMPDEST POP JUMP JUMPDEST PUSH2 0x1CB2 DUP2 PUSH2 0x1B96 JUMP JUMPDEST DUP2 EQ PUSH2 0x1CBD JUMPI PUSH1 0x0 DUP1 REVERT JUMPDEST POP JUMP JUMPDEST PUSH2 0x1CC9 DUP2 PUSH2 0x1BA2 JUMP JUMPDEST DUP2 EQ PUSH2 0x1CD4 JUMPI PUSH1 0x0 DUP1 REVERT JUMPDEST POP JUMP JUMPDEST PUSH2 0x1CE0 DUP2 PUSH2 0x1BB4 JUMP JUMPDEST DUP2 EQ PUSH2 0x1CEB JUMPI PUSH1 0x0 DUP1 REVERT JUMPDEST POP JUMP JUMPDEST PUSH2 0x1CF7 DUP2 PUSH2 0x1BE6 JUMP JUMPDEST DUP2 EQ PUSH2 0x1D02 JUMPI PUSH1 0x0 DUP1 REVERT JUMPDEST POP JUMP INVALID LOG2 PUSH5 0x6970667358 0x22 SLT KECCAK256 PUSH20 0x66E07857331120A8F131AF68D63A2DED457D32BC PUSH18 0xC87D21A4E1B437B9EF7A64736F6C63430006 0xC STOP CALLER "
				},
				"gasEstimates": {
					"creation": {
						"codeDepositCost": "1496600",
						"executionCost": "1561",
						"totalCost": "1498161"
					},
					"external": {
						"coffee()": "1302",
						"doIDO(uint256)": "infinite",
						"harvestCoffee()": "infinite",
						"harvestUSDT()": "infinite",
						"initialize(address,address,address)": "infinite",
						"pending()": "infinite",
						"pendingUser(address)": "infinite",
						"updatecoffee(address)": "22258",
						"updatedevelopTeam(address)": "22259",
						"updateidoRewardRatio(uint256)": "21379",
						"updateusdt(address)": "22279",
						"usdt()": "1258"
					}
				},
				"methodIdentifiers": {
					"coffee()": "6440c6d8",
					"doIDO(uint256)": "f1765de7",
					"harvestCoffee()": "88bb111d",
					"harvestUSDT()": "800851d6",
					"initialize(address,address,address)": "c0c53b8b",
					"pending()": "e20ccec3",
					"pendingUser(address)": "8dd81210",
					"updatecoffee(address)": "4f38c5f5",
					"updatedevelopTeam(address)": "69a01fc8",
					"updateidoRewardRatio(uint256)": "6ce41354",
					"updateusdt(address)": "a1333917",
					"usdt()": "2f48ab7d"
				}
			},
			"storageLayout": {
				"storage": [
					{
						"astId": 5,
						"contract": "contracts/IDO.sol:IDO",
						"label": "initialized",
						"offset": 0,
						"slot": "0",
						"type": "t_bool"
					},
					{
						"astId": 8,
						"contract": "contracts/IDO.sol:IDO",
						"label": "initializing",
						"offset": 1,
						"slot": "0",
						"type": "t_bool"
					},
					{
						"astId": 73,
						"contract": "contracts/IDO.sol:IDO",
						"label": "______gap",
						"offset": 0,
						"slot": "1",
						"type": "t_array(t_uint256)50_storage"
					},
					{
						"astId": 521,
						"contract": "contracts/IDO.sol:IDO",
						"label": "pending",
						"offset": 0,
						"slot": "51",
						"type": "t_struct(PENDING)519_storage"
					},
					{
						"astId": 523,
						"contract": "contracts/IDO.sol:IDO",
						"label": "developTeam",
						"offset": 0,
						"slot": "56",
						"type": "t_address"
					},
					{
						"astId": 525,
						"contract": "contracts/IDO.sol:IDO",
						"label": "owner",
						"offset": 0,
						"slot": "57",
						"type": "t_address"
					},
					{
						"astId": 527,
						"contract": "contracts/IDO.sol:IDO",
						"label": "coffee",
						"offset": 0,
						"slot": "58",
						"type": "t_contract(ICoffee)492"
					},
					{
						"astId": 529,
						"contract": "contracts/IDO.sol:IDO",
						"label": "usdt",
						"offset": 0,
						"slot": "59",
						"type": "t_contract(IERC20)149"
					},
					{
						"astId": 531,
						"contract": "contracts/IDO.sol:IDO",
						"label": "idoRewardRatio",
						"offset": 0,
						"slot": "60",
						"type": "t_uint256"
					},
					{
						"astId": 535,
						"contract": "contracts/IDO.sol:IDO",
						"label": "idoUserInfo",
						"offset": 0,
						"slot": "61",
						"type": "t_mapping(t_address,t_struct(IDOUserInfo)508_storage)"
					}
				],
				"types": {
					"t_address": {
						"encoding": "inplace",
						"label": "address",
						"numberOfBytes": "20"
					},
					"t_array(t_uint256)50_storage": {
						"base": "t_uint256",
						"encoding": "inplace",
						"label": "uint256[50]",
						"numberOfBytes": "1600"
					},
					"t_bool": {
						"encoding": "inplace",
						"label": "bool",
						"numberOfBytes": "1"
					},
					"t_contract(ICoffee)492": {
						"encoding": "inplace",
						"label": "contract ICoffee",
						"numberOfBytes": "20"
					},
					"t_contract(IERC20)149": {
						"encoding": "inplace",
						"label": "contract IERC20",
						"numberOfBytes": "20"
					},
					"t_mapping(t_address,t_struct(IDOUserInfo)508_storage)": {
						"encoding": "mapping",
						"key": "t_address",
						"label": "mapping(address => struct IDO.IDOUserInfo)",
						"numberOfBytes": "32",
						"value": "t_struct(IDOUserInfo)508_storage"
					},
					"t_struct(IDOUserInfo)508_storage": {
						"encoding": "inplace",
						"label": "struct IDO.IDOUserInfo",
						"members": [
							{
								"astId": 499,
								"contract": "contracts/IDO.sol:IDO",
								"label": "totalIDO",
								"offset": 0,
								"slot": "0",
								"type": "t_uint256"
							},
							{
								"astId": 501,
								"contract": "contracts/IDO.sol:IDO",
								"label": "totalReward",
								"offset": 0,
								"slot": "1",
								"type": "t_uint256"
							},
							{
								"astId": 503,
								"contract": "contracts/IDO.sol:IDO",
								"label": "totalPromoteAndIDO",
								"offset": 0,
								"slot": "2",
								"type": "t_uint256"
							},
							{
								"astId": 505,
								"contract": "contracts/IDO.sol:IDO",
								"label": "USDTGot",
								"offset": 0,
								"slot": "3",
								"type": "t_uint256"
							},
							{
								"astId": 507,
								"contract": "contracts/IDO.sol:IDO",
								"label": "HigherUpLock",
								"offset": 0,
								"slot": "4",
								"type": "t_uint256"
							}
						],
						"numberOfBytes": "160"
					},
					"t_struct(PENDING)519_storage": {
						"encoding": "inplace",
						"label": "struct IDO.PENDING",
						"members": [
							{
								"astId": 510,
								"contract": "contracts/IDO.sol:IDO",
								"label": "userTotalIDO",
								"offset": 0,
								"slot": "0",
								"type": "t_uint256"
							},
							{
								"astId": 512,
								"contract": "contracts/IDO.sol:IDO",
								"label": "userTotalReward",
								"offset": 0,
								"slot": "1",
								"type": "t_uint256"
							},
							{
								"astId": 514,
								"contract": "contracts/IDO.sol:IDO",
								"label": "userTotalPromote",
								"offset": 0,
								"slot": "2",
								"type": "t_uint256"
							},
							{
								"astId": 516,
								"contract": "contracts/IDO.sol:IDO",
								"label": "userTotalPromoteAndIDO",
								"offset": 0,
								"slot": "3",
								"type": "t_uint256"
							},
							{
								"astId": 518,
								"contract": "contracts/IDO.sol:IDO",
								"label": "userUSDTReward",
								"offset": 0,
								"slot": "4",
								"type": "t_uint256"
							}
						],
						"numberOfBytes": "160"
					},
					"t_uint256": {
						"encoding": "inplace",
						"label": "uint256",
						"numberOfBytes": "32"
					}
				}
			},
			"userdoc": {
				"kind": "user",
				"methods": {},
				"version": 1
			}
		}
	}
}