{
	"contracts/IDO.sol": {
		"IDO": {
			"abi": [
				{
					"anonymous": false,
					"inputs": [
						{
							"indexed": true,
							"internalType": "address",
							"name": "user",
							"type": "address"
						},
						{
							"indexed": false,
							"internalType": "uint256",
							"name": "amount",
							"type": "uint256"
						}
					],
					"name": "DOIDO",
					"type": "event"
				},
				{
					"anonymous": false,
					"inputs": [
						{
							"indexed": true,
							"internalType": "address",
							"name": "user",
							"type": "address"
						},
						{
							"indexed": false,
							"internalType": "uint256",
							"name": "amount",
							"type": "uint256"
						}
					],
					"name": "doHarvestcoffee",
					"type": "event"
				},
				{
					"anonymous": false,
					"inputs": [
						{
							"indexed": true,
							"internalType": "address",
							"name": "user",
							"type": "address"
						},
						{
							"indexed": false,
							"internalType": "uint256",
							"name": "amount",
							"type": "uint256"
						}
					],
					"name": "doHarvestusdt",
					"type": "event"
				},
				{
					"inputs": [],
					"name": "coffee",
					"outputs": [
						{
							"internalType": "contract ICoffee",
							"name": "",
							"type": "address"
						}
					],
					"stateMutability": "view",
					"type": "function"
				},
				{
					"inputs": [
						{
							"internalType": "uint256",
							"name": "_amount",
							"type": "uint256"
						}
					],
					"name": "doIDO",
					"outputs": [],
					"stateMutability": "nonpayable",
					"type": "function"
				},
				{
					"inputs": [],
					"name": "harvestCoffee",
					"outputs": [],
					"stateMutability": "nonpayable",
					"type": "function"
				},
				{
					"inputs": [],
					"name": "harvestUSDT",
					"outputs": [],
					"stateMutability": "nonpayable",
					"type": "function"
				},
				{
					"inputs": [
						{
							"internalType": "contract ICoffee",
							"name": "_coffee",
							"type": "address"
						},
						{
							"internalType": "contract IERC20",
							"name": "_usdt",
							"type": "address"
						},
						{
							"internalType": "address",
							"name": "_developTeam",
							"type": "address"
						}
					],
					"name": "initialize",
					"outputs": [],
					"stateMutability": "nonpayable",
					"type": "function"
				},
				{
					"inputs": [],
					"name": "pending",
					"outputs": [
						{
							"internalType": "uint256",
							"name": "userTotalIDO",
							"type": "uint256"
						},
						{
							"internalType": "uint256",
							"name": "userTotalReward",
							"type": "uint256"
						},
						{
							"internalType": "uint256",
							"name": "userTotalPromote",
							"type": "uint256"
						},
						{
							"internalType": "uint256",
							"name": "userTotalPromoteAndIDO",
							"type": "uint256"
						},
						{
							"internalType": "uint256",
							"name": "userUSDTReward",
							"type": "uint256"
						}
					],
					"stateMutability": "view",
					"type": "function"
				},
				{
					"inputs": [
						{
							"internalType": "address",
							"name": "_user",
							"type": "address"
						}
					],
					"name": "pendingUser",
					"outputs": [
						{
							"components": [
								{
									"internalType": "uint256",
									"name": "userTotalIDO",
									"type": "uint256"
								},
								{
									"internalType": "uint256",
									"name": "userTotalReward",
									"type": "uint256"
								},
								{
									"internalType": "uint256",
									"name": "userTotalPromote",
									"type": "uint256"
								},
								{
									"internalType": "uint256",
									"name": "userTotalPromoteAndIDO",
									"type": "uint256"
								},
								{
									"internalType": "uint256",
									"name": "userUSDTReward",
									"type": "uint256"
								}
							],
							"internalType": "struct IDO.PENDING",
							"name": "",
							"type": "tuple"
						}
					],
					"stateMutability": "nonpayable",
					"type": "function"
				},
				{
					"inputs": [
						{
							"internalType": "contract ICoffee",
							"name": "_coffee",
							"type": "address"
						}
					],
					"name": "updatecoffee",
					"outputs": [],
					"stateMutability": "nonpayable",
					"type": "function"
				},
				{
					"inputs": [
						{
							"internalType": "address",
							"name": "_developTeam",
							"type": "address"
						}
					],
					"name": "updatedevelopTeam",
					"outputs": [],
					"stateMutability": "nonpayable",
					"type": "function"
				},
				{
					"inputs": [
						{
							"internalType": "uint256",
							"name": "_idoRewardRatio",
							"type": "uint256"
						}
					],
					"name": "updateidoRewardRatio",
					"outputs": [],
					"stateMutability": "nonpayable",
					"type": "function"
				},
				{
					"inputs": [
						{
							"internalType": "contract IERC20",
							"name": "_usdt",
							"type": "address"
						}
					],
					"name": "updateusdt",
					"outputs": [],
					"stateMutability": "nonpayable",
					"type": "function"
				},
				{
					"inputs": [],
					"name": "usdt",
					"outputs": [
						{
							"internalType": "contract IERC20",
							"name": "",
							"type": "address"
						}
					],
					"stateMutability": "view",
					"type": "function"
				}
			],
			"devdoc": {
				"kind": "dev",
				"methods": {},
				"version": 1
			},
			"evm": {
				"assembly": "    /* \"contracts/IDO.sol\":10842:14990  contract IDO is Initializable {... */\n  mstore(0x40, 0x80)\n  callvalue\n  dup1\n  iszero\n  tag_1\n  jumpi\n  0x00\n  dup1\n  revert\ntag_1:\n  pop\n  dataSize(sub_0)\n  dup1\n  dataOffset(sub_0)\n  0x00\n  codecopy\n  0x00\n  return\nstop\n\nsub_0: assembly {\n        /* \"contracts/IDO.sol\":10842:14990  contract IDO is Initializable {... */\n      mstore(0x40, 0x80)\n      callvalue\n      dup1\n      iszero\n      tag_1\n      jumpi\n      0x00\n      dup1\n      revert\n    tag_1:\n      pop\n      jumpi(tag_2, lt(calldatasize, 0x04))\n      shr(0xe0, calldataload(0x00))\n      dup1\n      0x88bb111d\n      gt\n      tag_15\n      jumpi\n      dup1\n      0x88bb111d\n      eq\n      tag_9\n      jumpi\n      dup1\n      0x8dd81210\n      eq\n      tag_10\n      jumpi\n      dup1\n      0xa1333917\n      eq\n      tag_11\n      jumpi\n      dup1\n      0xc0c53b8b\n      eq\n      tag_12\n      jumpi\n      dup1\n      0xe20ccec3\n      eq\n      tag_13\n      jumpi\n      dup1\n      0xf1765de7\n      eq\n      tag_14\n      jumpi\n      jump(tag_2)\n    tag_15:\n      dup1\n      0x2f48ab7d\n      eq\n      tag_3\n      jumpi\n      dup1\n      0x4f38c5f5\n      eq\n      tag_4\n      jumpi\n      dup1\n      0x6440c6d8\n      eq\n      tag_5\n      jumpi\n      dup1\n      0x69a01fc8\n      eq\n      tag_6\n      jumpi\n      dup1\n      0x6ce41354\n      eq\n      tag_7\n      jumpi\n      dup1\n      0x800851d6\n      eq\n      tag_8\n      jumpi\n    tag_2:\n      0x00\n      dup1\n      revert\n        /* \"contracts/IDO.sol\":11608:11626  IERC20 public usdt */\n    tag_3:\n      tag_16\n      tag_17\n      jump\t// in\n    tag_16:\n      mload(0x40)\n      tag_18\n      swap2\n      swap1\n      tag_19\n      jump\t// in\n    tag_18:\n      mload(0x40)\n      dup1\n      swap2\n      sub\n      swap1\n      return\n        /* \"contracts/IDO.sol\":12450:12578  function updatecoffee(ICoffee _coffee) public {... */\n    tag_4:\n      tag_20\n      0x04\n      dup1\n      calldatasize\n      sub\n      dup2\n      add\n      swap1\n      tag_21\n      swap2\n      swap1\n      tag_22\n      jump\t// in\n    tag_21:\n      tag_23\n      jump\t// in\n    tag_20:\n      stop\n        /* \"contracts/IDO.sol\":11581:11602  ICoffee public coffee */\n    tag_5:\n      tag_24\n      tag_25\n      jump\t// in\n    tag_24:\n      mload(0x40)\n      tag_26\n      swap2\n      swap1\n      tag_27\n      jump\t// in\n    tag_26:\n      mload(0x40)\n      dup1\n      swap2\n      sub\n      swap1\n      return\n        /* \"contracts/IDO.sol\":12297:12445  function updatedevelopTeam(address _developTeam) public {... */\n    tag_6:\n      tag_28\n      0x04\n      dup1\n      calldatasize\n      sub\n      dup2\n      add\n      swap1\n      tag_29\n      swap2\n      swap1\n      tag_30\n      jump\t// in\n    tag_29:\n      tag_31\n      jump\t// in\n    tag_28:\n      stop\n        /* \"contracts/IDO.sol\":12135:12292  function updateidoRewardRatio(uint _idoRewardRatio) public {... */\n    tag_7:\n      tag_32\n      0x04\n      dup1\n      calldatasize\n      sub\n      dup2\n      add\n      swap1\n      tag_33\n      swap2\n      swap1\n      tag_34\n      jump\t// in\n    tag_33:\n      tag_35\n      jump\t// in\n    tag_32:\n      stop\n        /* \"contracts/IDO.sol\":14645:14988  function harvestUSDT() public{... */\n    tag_8:\n      tag_36\n      tag_37\n      jump\t// in\n    tag_36:\n      stop\n        /* \"contracts/IDO.sol\":14373:14639  function harvestCoffee() public{... */\n    tag_9:\n      tag_38\n      tag_39\n      jump\t// in\n    tag_38:\n      stop\n        /* \"contracts/IDO.sol\":13837:14367  function pendingUser(address _user) external returns(PENDING memory){... */\n    tag_10:\n      tag_40\n      0x04\n      dup1\n      calldatasize\n      sub\n      dup2\n      add\n      swap1\n      tag_41\n      swap2\n      swap1\n      tag_30\n      jump\t// in\n    tag_41:\n      tag_42\n      jump\t// in\n    tag_40:\n      mload(0x40)\n      tag_43\n      swap2\n      swap1\n      tag_44\n      jump\t// in\n    tag_43:\n      mload(0x40)\n      dup1\n      swap2\n      sub\n      swap1\n      return\n        /* \"contracts/IDO.sol\":12583:12702  function updateusdt(IERC20 _usdt) public {... */\n    tag_11:\n      tag_45\n      0x04\n      dup1\n      calldatasize\n      sub\n      dup2\n      add\n      swap1\n      tag_46\n      swap2\n      swap1\n      tag_47\n      jump\t// in\n    tag_46:\n      tag_48\n      jump\t// in\n    tag_45:\n      stop\n        /* \"contracts/IDO.sol\":11893:12129  function initialize(ICoffee _coffee,IERC20 _usdt,address _developTeam) public initializer{... */\n    tag_12:\n      tag_49\n      0x04\n      dup1\n      calldatasize\n      sub\n      dup2\n      add\n      swap1\n      tag_50\n      swap2\n      swap1\n      tag_51\n      jump\t// in\n    tag_50:\n      tag_52\n      jump\t// in\n    tag_49:\n      stop\n        /* \"contracts/IDO.sol\":11509:11531  PENDING public pending */\n    tag_13:\n      tag_53\n      tag_54\n      jump\t// in\n    tag_53:\n      mload(0x40)\n      tag_55\n      swap6\n      swap5\n      swap4\n      swap3\n      swap2\n      swap1\n      tag_56\n      jump\t// in\n    tag_55:\n      mload(0x40)\n      dup1\n      swap2\n      sub\n      swap1\n      return\n        /* \"contracts/IDO.sol\":12708:13831  function doIDO(uint _amount) public {... */\n    tag_14:\n      tag_57\n      0x04\n      dup1\n      calldatasize\n      sub\n      dup2\n      add\n      swap1\n      tag_58\n      swap2\n      swap1\n      tag_34\n      jump\t// in\n    tag_58:\n      tag_59\n      jump\t// in\n    tag_57:\n      stop\n        /* \"contracts/IDO.sol\":11608:11626  IERC20 public usdt */\n    tag_17:\n      0x3b\n      0x00\n      swap1\n      sload\n      swap1\n      0x0100\n      exp\n      swap1\n      div\n      0xffffffffffffffffffffffffffffffffffffffff\n      and\n      dup2\n      jump\t// out\n        /* \"contracts/IDO.sol\":12450:12578  function updatecoffee(ICoffee _coffee) public {... */\n    tag_23:\n        /* \"contracts/IDO.sol\":12521:12531  msg.sender */\n      caller\n        /* \"contracts/IDO.sol\":12514:12531  owner==msg.sender */\n      0xffffffffffffffffffffffffffffffffffffffff\n      and\n        /* \"contracts/IDO.sol\":12514:12519  owner */\n      0x39\n      0x00\n      swap1\n      sload\n      swap1\n      0x0100\n      exp\n      swap1\n      div\n      0xffffffffffffffffffffffffffffffffffffffff\n      and\n        /* \"contracts/IDO.sol\":12514:12531  owner==msg.sender */\n      0xffffffffffffffffffffffffffffffffffffffff\n      and\n      eq\n        /* \"contracts/IDO.sol\":12506:12545  require(owner==msg.sender,\"only owner\") */\n      tag_61\n      jumpi\n      mload(0x40)\n      0x08c379a000000000000000000000000000000000000000000000000000000000\n      dup2\n      mstore\n      0x04\n      add\n      tag_62\n      swap1\n      tag_63\n      jump\t// in\n    tag_62:\n      mload(0x40)\n      dup1\n      swap2\n      sub\n      swap1\n      revert\n    tag_61:\n        /* \"contracts/IDO.sol\":12564:12571  _coffee */\n      dup1\n        /* \"contracts/IDO.sol\":12555:12561  coffee */\n      0x3a\n      0x00\n        /* \"contracts/IDO.sol\":12555:12571  coffee = _coffee */\n      0x0100\n      exp\n      dup2\n      sload\n      dup2\n      0xffffffffffffffffffffffffffffffffffffffff\n      mul\n      not\n      and\n      swap1\n      dup4\n      0xffffffffffffffffffffffffffffffffffffffff\n      and\n      mul\n      or\n      swap1\n      sstore\n      pop\n        /* \"contracts/IDO.sol\":12450:12578  function updatecoffee(ICoffee _coffee) public {... */\n      pop\n      jump\t// out\n        /* \"contracts/IDO.sol\":11581:11602  ICoffee public coffee */\n    tag_25:\n      0x3a\n      0x00\n      swap1\n      sload\n      swap1\n      0x0100\n      exp\n      swap1\n      div\n      0xffffffffffffffffffffffffffffffffffffffff\n      and\n      dup2\n      jump\t// out\n        /* \"contracts/IDO.sol\":12297:12445  function updatedevelopTeam(address _developTeam) public {... */\n    tag_31:\n        /* \"contracts/IDO.sol\":12378:12388  msg.sender */\n      caller\n        /* \"contracts/IDO.sol\":12371:12388  owner==msg.sender */\n      0xffffffffffffffffffffffffffffffffffffffff\n      and\n        /* \"contracts/IDO.sol\":12371:12376  owner */\n      0x39\n      0x00\n      swap1\n      sload\n      swap1\n      0x0100\n      exp\n      swap1\n      div\n      0xffffffffffffffffffffffffffffffffffffffff\n      and\n        /* \"contracts/IDO.sol\":12371:12388  owner==msg.sender */\n      0xffffffffffffffffffffffffffffffffffffffff\n      and\n      eq\n        /* \"contracts/IDO.sol\":12363:12402  require(owner==msg.sender,\"only owner\") */\n      tag_65\n      jumpi\n      mload(0x40)\n      0x08c379a000000000000000000000000000000000000000000000000000000000\n      dup2\n      mstore\n      0x04\n      add\n      tag_66\n      swap1\n      tag_63\n      jump\t// in\n    tag_66:\n      mload(0x40)\n      dup1\n      swap2\n      sub\n      swap1\n      revert\n    tag_65:\n        /* \"contracts/IDO.sol\":12426:12438  _developTeam */\n      dup1\n        /* \"contracts/IDO.sol\":12412:12423  developTeam */\n      0x38\n      0x00\n        /* \"contracts/IDO.sol\":12412:12438  developTeam = _developTeam */\n      0x0100\n      exp\n      dup2\n      sload\n      dup2\n      0xffffffffffffffffffffffffffffffffffffffff\n      mul\n      not\n      and\n      swap1\n      dup4\n      0xffffffffffffffffffffffffffffffffffffffff\n      and\n      mul\n      or\n      swap1\n      sstore\n      pop\n        /* \"contracts/IDO.sol\":12297:12445  function updatedevelopTeam(address _developTeam) public {... */\n      pop\n      jump\t// out\n        /* \"contracts/IDO.sol\":12135:12292  function updateidoRewardRatio(uint _idoRewardRatio) public {... */\n    tag_35:\n        /* \"contracts/IDO.sol\":12219:12229  msg.sender */\n      caller\n        /* \"contracts/IDO.sol\":12212:12229  owner==msg.sender */\n      0xffffffffffffffffffffffffffffffffffffffff\n      and\n        /* \"contracts/IDO.sol\":12212:12217  owner */\n      0x39\n      0x00\n      swap1\n      sload\n      swap1\n      0x0100\n      exp\n      swap1\n      div\n      0xffffffffffffffffffffffffffffffffffffffff\n      and\n        /* \"contracts/IDO.sol\":12212:12229  owner==msg.sender */\n      0xffffffffffffffffffffffffffffffffffffffff\n      and\n      eq\n        /* \"contracts/IDO.sol\":12204:12243  require(owner==msg.sender,\"only owner\") */\n      tag_68\n      jumpi\n      mload(0x40)\n      0x08c379a000000000000000000000000000000000000000000000000000000000\n      dup2\n      mstore\n      0x04\n      add\n      tag_69\n      swap1\n      tag_63\n      jump\t// in\n    tag_69:\n      mload(0x40)\n      dup1\n      swap2\n      sub\n      swap1\n      revert\n    tag_68:\n        /* \"contracts/IDO.sol\":12270:12285  _idoRewardRatio */\n      dup1\n        /* \"contracts/IDO.sol\":12253:12267  idoRewardRatio */\n      0x3c\n        /* \"contracts/IDO.sol\":12253:12285  idoRewardRatio = _idoRewardRatio */\n      dup2\n      swap1\n      sstore\n      pop\n        /* \"contracts/IDO.sol\":12135:12292  function updateidoRewardRatio(uint _idoRewardRatio) public {... */\n      pop\n      jump\t// out\n        /* \"contracts/IDO.sol\":14645:14988  function harvestUSDT() public{... */\n    tag_37:\n        /* \"contracts/IDO.sol\":14684:14700  uint USDTwaiting */\n      0x00\n        /* \"contracts/IDO.sol\":14703:14801  (idoUserInfo[msg.sender].totalPromoteAndIDO).div(10).mul(100).sub(idoUserInfo[msg.sender].USDTGot) */\n      tag_71\n        /* \"contracts/IDO.sol\":14769:14780  idoUserInfo */\n      0x3d\n        /* \"contracts/IDO.sol\":14769:14792  idoUserInfo[msg.sender] */\n      0x00\n        /* \"contracts/IDO.sol\":14781:14791  msg.sender */\n      caller\n        /* \"contracts/IDO.sol\":14769:14792  idoUserInfo[msg.sender] */\n      0xffffffffffffffffffffffffffffffffffffffff\n      and\n      0xffffffffffffffffffffffffffffffffffffffff\n      and\n      dup2\n      mstore\n      0x20\n      add\n      swap1\n      dup2\n      mstore\n      0x20\n      add\n      0x00\n      keccak256\n        /* \"contracts/IDO.sol\":14769:14800  idoUserInfo[msg.sender].USDTGot */\n      0x03\n      add\n      sload\n        /* \"contracts/IDO.sol\":14703:14764  (idoUserInfo[msg.sender].totalPromoteAndIDO).div(10).mul(100) */\n      tag_72\n        /* \"contracts/IDO.sol\":14760:14763  100 */\n      0x64\n        /* \"contracts/IDO.sol\":14703:14755  (idoUserInfo[msg.sender].totalPromoteAndIDO).div(10) */\n      tag_73\n        /* \"contracts/IDO.sol\":14752:14754  10 */\n      0x0a\n        /* \"contracts/IDO.sol\":14704:14715  idoUserInfo */\n      0x3d\n        /* \"contracts/IDO.sol\":14704:14727  idoUserInfo[msg.sender] */\n      0x00\n        /* \"contracts/IDO.sol\":14716:14726  msg.sender */\n      caller\n        /* \"contracts/IDO.sol\":14704:14727  idoUserInfo[msg.sender] */\n      0xffffffffffffffffffffffffffffffffffffffff\n      and\n      0xffffffffffffffffffffffffffffffffffffffff\n      and\n      dup2\n      mstore\n      0x20\n      add\n      swap1\n      dup2\n      mstore\n      0x20\n      add\n      0x00\n      keccak256\n        /* \"contracts/IDO.sol\":14704:14746  idoUserInfo[msg.sender].totalPromoteAndIDO */\n      0x02\n      add\n      sload\n        /* \"contracts/IDO.sol\":14703:14751  (idoUserInfo[msg.sender].totalPromoteAndIDO).div */\n      tag_74\n      swap1\n        /* \"contracts/IDO.sol\":14703:14755  (idoUserInfo[msg.sender].totalPromoteAndIDO).div(10) */\n      swap2\n      swap1\n      0xffffffff\n      and\n      jump\t// in\n    tag_73:\n        /* \"contracts/IDO.sol\":14703:14759  (idoUserInfo[msg.sender].totalPromoteAndIDO).div(10).mul */\n      tag_75\n      swap1\n        /* \"contracts/IDO.sol\":14703:14764  (idoUserInfo[msg.sender].totalPromoteAndIDO).div(10).mul(100) */\n      swap2\n      swap1\n      0xffffffff\n      and\n      jump\t// in\n    tag_72:\n        /* \"contracts/IDO.sol\":14703:14768  (idoUserInfo[msg.sender].totalPromoteAndIDO).div(10).mul(100).sub */\n      tag_76\n      swap1\n        /* \"contracts/IDO.sol\":14703:14801  (idoUserInfo[msg.sender].totalPromoteAndIDO).div(10).mul(100).sub(idoUserInfo[msg.sender].USDTGot) */\n      swap2\n      swap1\n      0xffffffff\n      and\n      jump\t// in\n    tag_71:\n        /* \"contracts/IDO.sol\":14684:14801  uint USDTwaiting = (idoUserInfo[msg.sender].totalPromoteAndIDO).div(10).mul(100).sub(idoUserInfo[msg.sender].USDTGot) */\n      swap1\n      pop\n        /* \"contracts/IDO.sol\":14818:14822  usdt */\n      0x3b\n      0x00\n      swap1\n      sload\n      swap1\n      0x0100\n      exp\n      swap1\n      div\n      0xffffffffffffffffffffffffffffffffffffffff\n      and\n        /* \"contracts/IDO.sol\":14811:14836  IERC20(usdt).transferFrom */\n      0xffffffffffffffffffffffffffffffffffffffff\n      and\n      0x23b872dd\n        /* \"contracts/IDO.sol\":14837:14848  developTeam */\n      0x38\n      0x00\n      swap1\n      sload\n      swap1\n      0x0100\n      exp\n      swap1\n      div\n      0xffffffffffffffffffffffffffffffffffffffff\n      and\n        /* \"contracts/IDO.sol\":14849:14859  msg.sender */\n      caller\n        /* \"contracts/IDO.sol\":14860:14871  USDTwaiting */\n      dup5\n        /* \"contracts/IDO.sol\":14811:14872  IERC20(usdt).transferFrom(developTeam,msg.sender,USDTwaiting) */\n      mload(0x40)\n      dup5\n      0xffffffff\n      and\n      0xe0\n      shl\n      dup2\n      mstore\n      0x04\n      add\n      tag_77\n      swap4\n      swap3\n      swap2\n      swap1\n      tag_78\n      jump\t// in\n    tag_77:\n      0x20\n      mload(0x40)\n      dup1\n      dup4\n      sub\n      dup2\n      0x00\n      dup8\n      dup1\n      extcodesize\n      iszero\n      dup1\n      iszero\n      tag_79\n      jumpi\n      0x00\n      dup1\n      revert\n    tag_79:\n      pop\n      gas\n      call\n      iszero\n      dup1\n      iszero\n      tag_81\n      jumpi\n      returndatasize\n      0x00\n      dup1\n      returndatacopy\n      revert(0x00, returndatasize)\n    tag_81:\n      pop\n      pop\n      pop\n      pop\n      mload(0x40)\n      returndatasize\n      not(0x1f)\n      0x1f\n      dup3\n      add\n      and\n      dup3\n      add\n      dup1\n      0x40\n      mstore\n      pop\n      dup2\n      add\n      swap1\n      tag_82\n      swap2\n      swap1\n      tag_83\n      jump\t// in\n    tag_82:\n      pop\n        /* \"contracts/IDO.sol\":14917:14928  USDTwaiting */\n      dup1\n        /* \"contracts/IDO.sol\":14882:14893  idoUserInfo */\n      0x3d\n        /* \"contracts/IDO.sol\":14882:14905  idoUserInfo[msg.sender] */\n      0x00\n        /* \"contracts/IDO.sol\":14894:14904  msg.sender */\n      caller\n        /* \"contracts/IDO.sol\":14882:14905  idoUserInfo[msg.sender] */\n      0xffffffffffffffffffffffffffffffffffffffff\n      and\n      0xffffffffffffffffffffffffffffffffffffffff\n      and\n      dup2\n      mstore\n      0x20\n      add\n      swap1\n      dup2\n      mstore\n      0x20\n      add\n      0x00\n      keccak256\n        /* \"contracts/IDO.sol\":14882:14913  idoUserInfo[msg.sender].USDTGot */\n      0x03\n      add\n      0x00\n        /* \"contracts/IDO.sol\":14882:14928  idoUserInfo[msg.sender].USDTGot += USDTwaiting */\n      dup3\n      dup3\n      sload\n      add\n      swap3\n      pop\n      pop\n      dup2\n      swap1\n      sstore\n      pop\n        /* \"contracts/IDO.sol\":14957:14967  msg.sender */\n      caller\n        /* \"contracts/IDO.sol\":14943:14981  doHarvestusdt(msg.sender, USDTwaiting) */\n      0xffffffffffffffffffffffffffffffffffffffff\n      and\n      0xe76206fc979ffeb5d608de65c588dba39db74e075591960304a761e7bc421a62\n        /* \"contracts/IDO.sol\":14969:14980  USDTwaiting */\n      dup3\n        /* \"contracts/IDO.sol\":14943:14981  doHarvestusdt(msg.sender, USDTwaiting) */\n      mload(0x40)\n      tag_84\n      swap2\n      swap1\n      tag_85\n      jump\t// in\n    tag_84:\n      mload(0x40)\n      dup1\n      swap2\n      sub\n      swap1\n      log2\n        /* \"contracts/IDO.sol\":14645:14988  function harvestUSDT() public{... */\n      pop\n      jump\t// out\n        /* \"contracts/IDO.sol\":14373:14639  function harvestCoffee() public{... */\n    tag_39:\n        /* \"contracts/IDO.sol\":14422:14428  coffee */\n      0x3a\n      0x00\n      swap1\n      sload\n      swap1\n      0x0100\n      exp\n      swap1\n      div\n      0xffffffffffffffffffffffffffffffffffffffff\n      and\n        /* \"contracts/IDO.sol\":14414:14442  ICoffee(coffee).transferFrom */\n      0xffffffffffffffffffffffffffffffffffffffff\n      and\n      0x23b872dd\n        /* \"contracts/IDO.sol\":14443:14454  developTeam */\n      0x38\n      0x00\n      swap1\n      sload\n      swap1\n      0x0100\n      exp\n      swap1\n      div\n      0xffffffffffffffffffffffffffffffffffffffff\n      and\n        /* \"contracts/IDO.sol\":14456:14466  msg.sender */\n      caller\n        /* \"contracts/IDO.sol\":14468:14479  idoUserInfo */\n      0x3d\n        /* \"contracts/IDO.sol\":14468:14491  idoUserInfo[msg.sender] */\n      0x00\n        /* \"contracts/IDO.sol\":14480:14490  msg.sender */\n      caller\n        /* \"contracts/IDO.sol\":14468:14491  idoUserInfo[msg.sender] */\n      0xffffffffffffffffffffffffffffffffffffffff\n      and\n      0xffffffffffffffffffffffffffffffffffffffff\n      and\n      dup2\n      mstore\n      0x20\n      add\n      swap1\n      dup2\n      mstore\n      0x20\n      add\n      0x00\n      keccak256\n        /* \"contracts/IDO.sol\":14468:14503  idoUserInfo[msg.sender].totalReward */\n      0x01\n      add\n      sload\n        /* \"contracts/IDO.sol\":14414:14504  ICoffee(coffee).transferFrom(developTeam, msg.sender, idoUserInfo[msg.sender].totalReward) */\n      mload(0x40)\n      dup5\n      0xffffffff\n      and\n      0xe0\n      shl\n      dup2\n      mstore\n      0x04\n      add\n      tag_87\n      swap4\n      swap3\n      swap2\n      swap1\n      tag_78\n      jump\t// in\n    tag_87:\n      0x20\n      mload(0x40)\n      dup1\n      dup4\n      sub\n      dup2\n      0x00\n      dup8\n      dup1\n      extcodesize\n      iszero\n      dup1\n      iszero\n      tag_88\n      jumpi\n      0x00\n      dup1\n      revert\n    tag_88:\n      pop\n      gas\n      call\n      iszero\n      dup1\n      iszero\n      tag_90\n      jumpi\n      returndatasize\n      0x00\n      dup1\n      returndatacopy\n      revert(0x00, returndatasize)\n    tag_90:\n      pop\n      pop\n      pop\n      pop\n      mload(0x40)\n      returndatasize\n      not(0x1f)\n      0x1f\n      dup3\n      add\n      and\n      dup3\n      add\n      dup1\n      0x40\n      mstore\n      pop\n      dup2\n      add\n      swap1\n      tag_91\n      swap2\n      swap1\n      tag_83\n      jump\t// in\n    tag_91:\n      pop\n        /* \"contracts/IDO.sol\":14552:14553  0 */\n      0x00\n        /* \"contracts/IDO.sol\":14514:14525  idoUserInfo */\n      0x3d\n        /* \"contracts/IDO.sol\":14514:14537  idoUserInfo[msg.sender] */\n      0x00\n        /* \"contracts/IDO.sol\":14526:14536  msg.sender */\n      caller\n        /* \"contracts/IDO.sol\":14514:14537  idoUserInfo[msg.sender] */\n      0xffffffffffffffffffffffffffffffffffffffff\n      and\n      0xffffffffffffffffffffffffffffffffffffffff\n      and\n      dup2\n      mstore\n      0x20\n      add\n      swap1\n      dup2\n      mstore\n      0x20\n      add\n      0x00\n      keccak256\n        /* \"contracts/IDO.sol\":14514:14549  idoUserInfo[msg.sender].totalReward */\n      0x01\n      add\n        /* \"contracts/IDO.sol\":14514:14553  idoUserInfo[msg.sender].totalReward = 0 */\n      dup2\n      swap1\n      sstore\n      pop\n        /* \"contracts/IDO.sol\":14584:14594  msg.sender */\n      caller\n        /* \"contracts/IDO.sol\":14568:14632  doHarvestcoffee(msg.sender, idoUserInfo[msg.sender].totalReward) */\n      0xffffffffffffffffffffffffffffffffffffffff\n      and\n      0x0c167bd84f1ceaf00e4f292b98dc3f4c77caa756d292285eaec79015474c6216\n        /* \"contracts/IDO.sol\":14596:14607  idoUserInfo */\n      0x3d\n        /* \"contracts/IDO.sol\":14596:14619  idoUserInfo[msg.sender] */\n      0x00\n        /* \"contracts/IDO.sol\":14608:14618  msg.sender */\n      caller\n        /* \"contracts/IDO.sol\":14596:14619  idoUserInfo[msg.sender] */\n      0xffffffffffffffffffffffffffffffffffffffff\n      and\n      0xffffffffffffffffffffffffffffffffffffffff\n      and\n      dup2\n      mstore\n      0x20\n      add\n      swap1\n      dup2\n      mstore\n      0x20\n      add\n      0x00\n      keccak256\n        /* \"contracts/IDO.sol\":14596:14631  idoUserInfo[msg.sender].totalReward */\n      0x01\n      add\n      sload\n        /* \"contracts/IDO.sol\":14568:14632  doHarvestcoffee(msg.sender, idoUserInfo[msg.sender].totalReward) */\n      mload(0x40)\n      tag_92\n      swap2\n      swap1\n      tag_85\n      jump\t// in\n    tag_92:\n      mload(0x40)\n      dup1\n      swap2\n      sub\n      swap1\n      log2\n        /* \"contracts/IDO.sol\":14373:14639  function harvestCoffee() public{... */\n      jump\t// out\n        /* \"contracts/IDO.sol\":13837:14367  function pendingUser(address _user) external returns(PENDING memory){... */\n    tag_42:\n        /* \"contracts/IDO.sol\":13890:13904  PENDING memory */\n      tag_93\n      tag_94\n      jump\t// in\n    tag_93:\n        /* \"contracts/IDO.sol\":13938:13977  idoUserInfo[_user].totalIDO.div(10**18) */\n      tag_96\n        /* \"contracts/IDO.sol\":13970:13976  10**18 */\n      0x0de0b6b3a7640000\n        /* \"contracts/IDO.sol\":13938:13949  idoUserInfo */\n      0x3d\n        /* \"contracts/IDO.sol\":13938:13956  idoUserInfo[_user] */\n      0x00\n        /* \"contracts/IDO.sol\":13950:13955  _user */\n      dup6\n        /* \"contracts/IDO.sol\":13938:13956  idoUserInfo[_user] */\n      0xffffffffffffffffffffffffffffffffffffffff\n      and\n      0xffffffffffffffffffffffffffffffffffffffff\n      and\n      dup2\n      mstore\n      0x20\n      add\n      swap1\n      dup2\n      mstore\n      0x20\n      add\n      0x00\n      keccak256\n        /* \"contracts/IDO.sol\":13938:13965  idoUserInfo[_user].totalIDO */\n      0x00\n      add\n      sload\n        /* \"contracts/IDO.sol\":13938:13969  idoUserInfo[_user].totalIDO.div */\n      tag_74\n      swap1\n        /* \"contracts/IDO.sol\":13938:13977  idoUserInfo[_user].totalIDO.div(10**18) */\n      swap2\n      swap1\n      0xffffffff\n      and\n      jump\t// in\n    tag_96:\n        /* \"contracts/IDO.sol\":13915:13922  pending */\n      0x33\n        /* \"contracts/IDO.sol\":13915:13935  pending.userTotalIDO */\n      0x00\n      add\n        /* \"contracts/IDO.sol\":13915:13977  pending.userTotalIDO = idoUserInfo[_user].totalIDO.div(10**18) */\n      dup2\n      swap1\n      sstore\n      pop\n        /* \"contracts/IDO.sol\":14013:14055  idoUserInfo[_user].totalReward.div(10**18) */\n      tag_97\n        /* \"contracts/IDO.sol\":14048:14054  10**18 */\n      0x0de0b6b3a7640000\n        /* \"contracts/IDO.sol\":14013:14024  idoUserInfo */\n      0x3d\n        /* \"contracts/IDO.sol\":14013:14031  idoUserInfo[_user] */\n      0x00\n        /* \"contracts/IDO.sol\":14025:14030  _user */\n      dup6\n        /* \"contracts/IDO.sol\":14013:14031  idoUserInfo[_user] */\n      0xffffffffffffffffffffffffffffffffffffffff\n      and\n      0xffffffffffffffffffffffffffffffffffffffff\n      and\n      dup2\n      mstore\n      0x20\n      add\n      swap1\n      dup2\n      mstore\n      0x20\n      add\n      0x00\n      keccak256\n        /* \"contracts/IDO.sol\":14013:14043  idoUserInfo[_user].totalReward */\n      0x01\n      add\n      sload\n        /* \"contracts/IDO.sol\":14013:14047  idoUserInfo[_user].totalReward.div */\n      tag_74\n      swap1\n        /* \"contracts/IDO.sol\":14013:14055  idoUserInfo[_user].totalReward.div(10**18) */\n      swap2\n      swap1\n      0xffffffff\n      and\n      jump\t// in\n    tag_97:\n        /* \"contracts/IDO.sol\":13987:13994  pending */\n      0x33\n        /* \"contracts/IDO.sol\":13987:14010  pending.userTotalReward */\n      0x01\n      add\n        /* \"contracts/IDO.sol\":13987:14055  pending.userTotalReward = idoUserInfo[_user].totalReward.div(10**18) */\n      dup2\n      swap1\n      sstore\n      pop\n        /* \"contracts/IDO.sol\":14098:14109  idoUserInfo */\n      0x3d\n        /* \"contracts/IDO.sol\":14098:14116  idoUserInfo[_user] */\n      0x00\n        /* \"contracts/IDO.sol\":14110:14115  _user */\n      dup4\n        /* \"contracts/IDO.sol\":14098:14116  idoUserInfo[_user] */\n      0xffffffffffffffffffffffffffffffffffffffff\n      and\n      0xffffffffffffffffffffffffffffffffffffffff\n      and\n      dup2\n      mstore\n      0x20\n      add\n      swap1\n      dup2\n      mstore\n      0x20\n      add\n      0x00\n      keccak256\n        /* \"contracts/IDO.sol\":14098:14135  idoUserInfo[_user].totalPromoteAndIDO */\n      0x02\n      add\n      sload\n        /* \"contracts/IDO.sol\":14065:14072  pending */\n      0x33\n        /* \"contracts/IDO.sol\":14065:14095  pending.userTotalPromoteAndIDO */\n      0x03\n      add\n        /* \"contracts/IDO.sol\":14065:14135  pending.userTotalPromoteAndIDO = idoUserInfo[_user].totalPromoteAndIDO */\n      dup2\n      swap1\n      sstore\n      pop\n        /* \"contracts/IDO.sol\":14180:14186  coffee */\n      0x3a\n      0x00\n      swap1\n      sload\n      swap1\n      0x0100\n      exp\n      swap1\n      div\n      0xffffffffffffffffffffffffffffffffffffffff\n      and\n        /* \"contracts/IDO.sol\":14172:14205  ICoffee(coffee).getSentCOFPromote */\n      0xffffffffffffffffffffffffffffffffffffffff\n      and\n      0xf05df5e2\n        /* \"contracts/IDO.sol\":14206:14211  _user */\n      dup4\n        /* \"contracts/IDO.sol\":14172:14212  ICoffee(coffee).getSentCOFPromote(_user) */\n      mload(0x40)\n      dup3\n      0xffffffff\n      and\n      0xe0\n      shl\n      dup2\n      mstore\n      0x04\n      add\n      tag_98\n      swap2\n      swap1\n      tag_99\n      jump\t// in\n    tag_98:\n      0x20\n      mload(0x40)\n      dup1\n      dup4\n      sub\n      dup2\n      0x00\n      dup8\n      dup1\n      extcodesize\n      iszero\n      dup1\n      iszero\n      tag_100\n      jumpi\n      0x00\n      dup1\n      revert\n    tag_100:\n      pop\n      gas\n      call\n      iszero\n      dup1\n      iszero\n      tag_102\n      jumpi\n      returndatasize\n      0x00\n      dup1\n      returndatacopy\n      revert(0x00, returndatasize)\n    tag_102:\n      pop\n      pop\n      pop\n      pop\n      mload(0x40)\n      returndatasize\n      not(0x1f)\n      0x1f\n      dup3\n      add\n      and\n      dup3\n      add\n      dup1\n      0x40\n      mstore\n      pop\n      dup2\n      add\n      swap1\n      tag_103\n      swap2\n      swap1\n      tag_104\n      jump\t// in\n    tag_103:\n        /* \"contracts/IDO.sol\":14145:14152  pending */\n      0x33\n        /* \"contracts/IDO.sol\":14145:14169  pending.userTotalPromote */\n      0x02\n      add\n        /* \"contracts/IDO.sol\":14145:14212  pending.userTotalPromote = ICoffee(coffee).getSentCOFPromote(_user) */\n      dup2\n      swap1\n      sstore\n      pop\n        /* \"contracts/IDO.sol\":14248:14336  (idoUserInfo[_user].totalPromoteAndIDO).div(10).mul(100).sub(idoUserInfo[_user].USDTGot) */\n      tag_105\n        /* \"contracts/IDO.sol\":14309:14320  idoUserInfo */\n      0x3d\n        /* \"contracts/IDO.sol\":14309:14327  idoUserInfo[_user] */\n      0x00\n        /* \"contracts/IDO.sol\":14321:14326  _user */\n      dup5\n        /* \"contracts/IDO.sol\":14309:14327  idoUserInfo[_user] */\n      0xffffffffffffffffffffffffffffffffffffffff\n      and\n      0xffffffffffffffffffffffffffffffffffffffff\n      and\n      dup2\n      mstore\n      0x20\n      add\n      swap1\n      dup2\n      mstore\n      0x20\n      add\n      0x00\n      keccak256\n        /* \"contracts/IDO.sol\":14309:14335  idoUserInfo[_user].USDTGot */\n      0x03\n      add\n      sload\n        /* \"contracts/IDO.sol\":14248:14304  (idoUserInfo[_user].totalPromoteAndIDO).div(10).mul(100) */\n      tag_106\n        /* \"contracts/IDO.sol\":14300:14303  100 */\n      0x64\n        /* \"contracts/IDO.sol\":14248:14295  (idoUserInfo[_user].totalPromoteAndIDO).div(10) */\n      tag_107\n        /* \"contracts/IDO.sol\":14292:14294  10 */\n      0x0a\n        /* \"contracts/IDO.sol\":14249:14260  idoUserInfo */\n      0x3d\n        /* \"contracts/IDO.sol\":14249:14267  idoUserInfo[_user] */\n      0x00\n        /* \"contracts/IDO.sol\":14261:14266  _user */\n      dup10\n        /* \"contracts/IDO.sol\":14249:14267  idoUserInfo[_user] */\n      0xffffffffffffffffffffffffffffffffffffffff\n      and\n      0xffffffffffffffffffffffffffffffffffffffff\n      and\n      dup2\n      mstore\n      0x20\n      add\n      swap1\n      dup2\n      mstore\n      0x20\n      add\n      0x00\n      keccak256\n        /* \"contracts/IDO.sol\":14249:14286  idoUserInfo[_user].totalPromoteAndIDO */\n      0x02\n      add\n      sload\n        /* \"contracts/IDO.sol\":14248:14291  (idoUserInfo[_user].totalPromoteAndIDO).div */\n      tag_74\n      swap1\n        /* \"contracts/IDO.sol\":14248:14295  (idoUserInfo[_user].totalPromoteAndIDO).div(10) */\n      swap2\n      swap1\n      0xffffffff\n      and\n      jump\t// in\n    tag_107:\n        /* \"contracts/IDO.sol\":14248:14299  (idoUserInfo[_user].totalPromoteAndIDO).div(10).mul */\n      tag_75\n      swap1\n        /* \"contracts/IDO.sol\":14248:14304  (idoUserInfo[_user].totalPromoteAndIDO).div(10).mul(100) */\n      swap2\n      swap1\n      0xffffffff\n      and\n      jump\t// in\n    tag_106:\n        /* \"contracts/IDO.sol\":14248:14308  (idoUserInfo[_user].totalPromoteAndIDO).div(10).mul(100).sub */\n      tag_76\n      swap1\n        /* \"contracts/IDO.sol\":14248:14336  (idoUserInfo[_user].totalPromoteAndIDO).div(10).mul(100).sub(idoUserInfo[_user].USDTGot) */\n      swap2\n      swap1\n      0xffffffff\n      and\n      jump\t// in\n    tag_105:\n        /* \"contracts/IDO.sol\":14222:14229  pending */\n      0x33\n        /* \"contracts/IDO.sol\":14222:14244  pending.userUSDTReward */\n      0x04\n      add\n        /* \"contracts/IDO.sol\":14222:14336  pending.userUSDTReward =  (idoUserInfo[_user].totalPromoteAndIDO).div(10).mul(100).sub(idoUserInfo[_user].USDTGot) */\n      dup2\n      swap1\n      sstore\n      pop\n        /* \"contracts/IDO.sol\":14353:14360  pending */\n      0x33\n        /* \"contracts/IDO.sol\":14346:14360  return pending */\n      mload(0x40)\n      dup1\n      0xa0\n      add\n      0x40\n      mstore\n      swap1\n      dup2\n      0x00\n      dup3\n      add\n      sload\n      dup2\n      mstore\n      0x20\n      add\n      0x01\n      dup3\n      add\n      sload\n      dup2\n      mstore\n      0x20\n      add\n      0x02\n      dup3\n      add\n      sload\n      dup2\n      mstore\n      0x20\n      add\n      0x03\n      dup3\n      add\n      sload\n      dup2\n      mstore\n      0x20\n      add\n      0x04\n      dup3\n      add\n      sload\n      dup2\n      mstore\n      pop\n      pop\n      swap1\n      pop\n        /* \"contracts/IDO.sol\":13837:14367  function pendingUser(address _user) external returns(PENDING memory){... */\n      swap2\n      swap1\n      pop\n      jump\t// out\n        /* \"contracts/IDO.sol\":12583:12702  function updateusdt(IERC20 _usdt) public {... */\n    tag_48:\n        /* \"contracts/IDO.sol\":12649:12659  msg.sender */\n      caller\n        /* \"contracts/IDO.sol\":12642:12659  owner==msg.sender */\n      0xffffffffffffffffffffffffffffffffffffffff\n      and\n        /* \"contracts/IDO.sol\":12642:12647  owner */\n      0x39\n      0x00\n      swap1\n      sload\n      swap1\n      0x0100\n      exp\n      swap1\n      div\n      0xffffffffffffffffffffffffffffffffffffffff\n      and\n        /* \"contracts/IDO.sol\":12642:12659  owner==msg.sender */\n      0xffffffffffffffffffffffffffffffffffffffff\n      and\n      eq\n        /* \"contracts/IDO.sol\":12634:12673  require(owner==msg.sender,\"only owner\") */\n      tag_109\n      jumpi\n      mload(0x40)\n      0x08c379a000000000000000000000000000000000000000000000000000000000\n      dup2\n      mstore\n      0x04\n      add\n      tag_110\n      swap1\n      tag_63\n      jump\t// in\n    tag_110:\n      mload(0x40)\n      dup1\n      swap2\n      sub\n      swap1\n      revert\n    tag_109:\n        /* \"contracts/IDO.sol\":12690:12695  _usdt */\n      dup1\n        /* \"contracts/IDO.sol\":12683:12687  usdt */\n      0x3b\n      0x00\n        /* \"contracts/IDO.sol\":12683:12695  usdt = _usdt */\n      0x0100\n      exp\n      dup2\n      sload\n      dup2\n      0xffffffffffffffffffffffffffffffffffffffff\n      mul\n      not\n      and\n      swap1\n      dup4\n      0xffffffffffffffffffffffffffffffffffffffff\n      and\n      mul\n      or\n      swap1\n      sstore\n      pop\n        /* \"contracts/IDO.sol\":12583:12702  function updateusdt(IERC20 _usdt) public {... */\n      pop\n      jump\t// out\n        /* \"contracts/IDO.sol\":11893:12129  function initialize(ICoffee _coffee,IERC20 _usdt,address _developTeam) public initializer{... */\n    tag_52:\n        /* \"contracts/IDO.sol\":461:473  initializing */\n      0x00\n      0x01\n      swap1\n      sload\n      swap1\n      0x0100\n      exp\n      swap1\n      div\n      0xff\n      and\n        /* \"contracts/IDO.sol\":461:492  initializing || isConstructor() */\n      dup1\n      tag_112\n      jumpi\n      pop\n        /* \"contracts/IDO.sol\":477:492  isConstructor() */\n      tag_113\n        /* \"contracts/IDO.sol\":477:490  isConstructor */\n      tag_114\n        /* \"contracts/IDO.sol\":477:492  isConstructor() */\n      jump\t// in\n    tag_113:\n        /* \"contracts/IDO.sol\":461:492  initializing || isConstructor() */\n    tag_112:\n        /* \"contracts/IDO.sol\":461:508  initializing || isConstructor() || !initialized */\n      dup1\n      tag_115\n      jumpi\n      pop\n        /* \"contracts/IDO.sol\":497:508  initialized */\n      0x00\n      dup1\n      sload\n      swap1\n      0x0100\n      exp\n      swap1\n      div\n      0xff\n      and\n        /* \"contracts/IDO.sol\":496:508  !initialized */\n      iszero\n        /* \"contracts/IDO.sol\":461:508  initializing || isConstructor() || !initialized */\n    tag_115:\n        /* \"contracts/IDO.sol\":453:559  require(initializing || isConstructor() || !initialized, \"Contract instance has already been initialized\") */\n      tag_116\n      jumpi\n      mload(0x40)\n      0x08c379a000000000000000000000000000000000000000000000000000000000\n      dup2\n      mstore\n      0x04\n      add\n      tag_117\n      swap1\n      tag_118\n      jump\t// in\n    tag_117:\n      mload(0x40)\n      dup1\n      swap2\n      sub\n      swap1\n      revert\n    tag_116:\n        /* \"contracts/IDO.sol\":566:585  bool isTopLevelCall */\n      0x00\n        /* \"contracts/IDO.sol\":589:601  initializing */\n      dup1\n      0x01\n      swap1\n      sload\n      swap1\n      0x0100\n      exp\n      swap1\n      div\n      0xff\n      and\n        /* \"contracts/IDO.sol\":588:601  !initializing */\n      iszero\n        /* \"contracts/IDO.sol\":566:601  bool isTopLevelCall = !initializing */\n      swap1\n      pop\n        /* \"contracts/IDO.sol\":611:625  isTopLevelCall */\n      dup1\n        /* \"contracts/IDO.sol\":607:687  if (isTopLevelCall) {... */\n      iszero\n      tag_119\n      jumpi\n        /* \"contracts/IDO.sol\":650:654  true */\n      0x01\n        /* \"contracts/IDO.sol\":635:647  initializing */\n      0x00\n      0x01\n        /* \"contracts/IDO.sol\":635:654  initializing = true */\n      0x0100\n      exp\n      dup2\n      sload\n      dup2\n      0xff\n      mul\n      not\n      and\n      swap1\n      dup4\n      iszero\n      iszero\n      mul\n      or\n      swap1\n      sstore\n      pop\n        /* \"contracts/IDO.sol\":676:680  true */\n      0x01\n        /* \"contracts/IDO.sol\":662:673  initialized */\n      0x00\n      dup1\n        /* \"contracts/IDO.sol\":662:680  initialized = true */\n      0x0100\n      exp\n      dup2\n      sload\n      dup2\n      0xff\n      mul\n      not\n      and\n      swap1\n      dup4\n      iszero\n      iszero\n      mul\n      or\n      swap1\n      sstore\n      pop\n        /* \"contracts/IDO.sol\":607:687  if (isTopLevelCall) {... */\n    tag_119:\n        /* \"contracts/IDO.sol\":12001:12008  _coffee */\n      dup4\n        /* \"contracts/IDO.sol\":11992:11998  coffee */\n      0x3a\n      0x00\n        /* \"contracts/IDO.sol\":11992:12008  coffee = _coffee */\n      0x0100\n      exp\n      dup2\n      sload\n      dup2\n      0xffffffffffffffffffffffffffffffffffffffff\n      mul\n      not\n      and\n      swap1\n      dup4\n      0xffffffffffffffffffffffffffffffffffffffff\n      and\n      mul\n      or\n      swap1\n      sstore\n      pop\n        /* \"contracts/IDO.sol\":12032:12044  _developTeam */\n      dup2\n        /* \"contracts/IDO.sol\":12018:12029  developTeam */\n      0x38\n      0x00\n        /* \"contracts/IDO.sol\":12018:12044  developTeam = _developTeam */\n      0x0100\n      exp\n      dup2\n      sload\n      dup2\n      0xffffffffffffffffffffffffffffffffffffffff\n      mul\n      not\n      and\n      swap1\n      dup4\n      0xffffffffffffffffffffffffffffffffffffffff\n      and\n      mul\n      or\n      swap1\n      sstore\n      pop\n        /* \"contracts/IDO.sol\":12062:12072  msg.sender */\n      caller\n        /* \"contracts/IDO.sol\":12054:12059  owner */\n      0x39\n      0x00\n        /* \"contracts/IDO.sol\":12054:12072  owner = msg.sender */\n      0x0100\n      exp\n      dup2\n      sload\n      dup2\n      0xffffffffffffffffffffffffffffffffffffffff\n      mul\n      not\n      and\n      swap1\n      dup4\n      0xffffffffffffffffffffffffffffffffffffffff\n      and\n      mul\n      or\n      swap1\n      sstore\n      pop\n        /* \"contracts/IDO.sol\":12089:12094  _usdt */\n      dup3\n        /* \"contracts/IDO.sol\":12082:12086  usdt */\n      0x3b\n      0x00\n        /* \"contracts/IDO.sol\":12082:12094  usdt = _usdt */\n      0x0100\n      exp\n      dup2\n      sload\n      dup2\n      0xffffffffffffffffffffffffffffffffffffffff\n      mul\n      not\n      and\n      swap1\n      dup4\n      0xffffffffffffffffffffffffffffffffffffffff\n      and\n      mul\n      or\n      swap1\n      sstore\n      pop\n        /* \"contracts/IDO.sol\":12121:12122  1 */\n      0x01\n        /* \"contracts/IDO.sol\":12104:12118  idoRewardRatio */\n      0x3c\n        /* \"contracts/IDO.sol\":12104:12122  idoRewardRatio = 1 */\n      dup2\n      swap1\n      sstore\n      pop\n        /* \"contracts/IDO.sol\":705:719  isTopLevelCall */\n      dup1\n        /* \"contracts/IDO.sol\":701:756  if (isTopLevelCall) {... */\n      iszero\n      tag_121\n      jumpi\n        /* \"contracts/IDO.sol\":744:749  false */\n      0x00\n        /* \"contracts/IDO.sol\":729:741  initializing */\n      dup1\n      0x01\n        /* \"contracts/IDO.sol\":729:749  initializing = false */\n      0x0100\n      exp\n      dup2\n      sload\n      dup2\n      0xff\n      mul\n      not\n      and\n      swap1\n      dup4\n      iszero\n      iszero\n      mul\n      or\n      swap1\n      sstore\n      pop\n        /* \"contracts/IDO.sol\":701:756  if (isTopLevelCall) {... */\n    tag_121:\n        /* \"contracts/IDO.sol\":11893:12129  function initialize(ICoffee _coffee,IERC20 _usdt,address _developTeam) public initializer{... */\n      pop\n      pop\n      pop\n      pop\n      jump\t// out\n        /* \"contracts/IDO.sol\":11509:11531  PENDING public pending */\n    tag_54:\n      0x33\n      dup1\n      0x00\n      add\n      sload\n      swap1\n      dup1\n      0x01\n      add\n      sload\n      swap1\n      dup1\n      0x02\n      add\n      sload\n      swap1\n      dup1\n      0x03\n      add\n      sload\n      swap1\n      dup1\n      0x04\n      add\n      sload\n      swap1\n      pop\n      dup6\n      jump\t// out\n        /* \"contracts/IDO.sol\":12708:13831  function doIDO(uint _amount) public {... */\n    tag_59:\n        /* \"contracts/IDO.sol\":12761:12765  usdt */\n      0x3b\n      0x00\n      swap1\n      sload\n      swap1\n      0x0100\n      exp\n      swap1\n      div\n      0xffffffffffffffffffffffffffffffffffffffff\n      and\n        /* \"contracts/IDO.sol\":12754:12779  IERC20(usdt).transferFrom */\n      0xffffffffffffffffffffffffffffffffffffffff\n      and\n      0x23b872dd\n        /* \"contracts/IDO.sol\":12780:12790  msg.sender */\n      caller\n        /* \"contracts/IDO.sol\":12791:12802  developTeam */\n      0x38\n      0x00\n      swap1\n      sload\n      swap1\n      0x0100\n      exp\n      swap1\n      div\n      0xffffffffffffffffffffffffffffffffffffffff\n      and\n        /* \"contracts/IDO.sol\":12803:12810  _amount */\n      dup5\n        /* \"contracts/IDO.sol\":12754:12811  IERC20(usdt).transferFrom(msg.sender,developTeam,_amount) */\n      mload(0x40)\n      dup5\n      0xffffffff\n      and\n      0xe0\n      shl\n      dup2\n      mstore\n      0x04\n      add\n      tag_123\n      swap4\n      swap3\n      swap2\n      swap1\n      tag_124\n      jump\t// in\n    tag_123:\n      0x20\n      mload(0x40)\n      dup1\n      dup4\n      sub\n      dup2\n      0x00\n      dup8\n      dup1\n      extcodesize\n      iszero\n      dup1\n      iszero\n      tag_125\n      jumpi\n      0x00\n      dup1\n      revert\n    tag_125:\n      pop\n      gas\n      call\n      iszero\n      dup1\n      iszero\n      tag_127\n      jumpi\n      returndatasize\n      0x00\n      dup1\n      returndatacopy\n      revert(0x00, returndatasize)\n    tag_127:\n      pop\n      pop\n      pop\n      pop\n      mload(0x40)\n      returndatasize\n      not(0x1f)\n      0x1f\n      dup3\n      add\n      and\n      dup3\n      add\n      dup1\n      0x40\n      mstore\n      pop\n      dup2\n      add\n      swap1\n      tag_128\n      swap2\n      swap1\n      tag_83\n      jump\t// in\n    tag_128:\n      pop\n        /* \"contracts/IDO.sol\":12857:12864  _amount */\n      dup1\n        /* \"contracts/IDO.sol\":12821:12832  idoUserInfo */\n      0x3d\n        /* \"contracts/IDO.sol\":12821:12844  idoUserInfo[msg.sender] */\n      0x00\n        /* \"contracts/IDO.sol\":12833:12843  msg.sender */\n      caller\n        /* \"contracts/IDO.sol\":12821:12844  idoUserInfo[msg.sender] */\n      0xffffffffffffffffffffffffffffffffffffffff\n      and\n      0xffffffffffffffffffffffffffffffffffffffff\n      and\n      dup2\n      mstore\n      0x20\n      add\n      swap1\n      dup2\n      mstore\n      0x20\n      add\n      0x00\n      keccak256\n        /* \"contracts/IDO.sol\":12821:12853  idoUserInfo[msg.sender].totalIDO */\n      0x00\n      add\n      0x00\n        /* \"contracts/IDO.sol\":12821:12864  idoUserInfo[msg.sender].totalIDO += _amount */\n      dup3\n      dup3\n      sload\n      add\n      swap3\n      pop\n      pop\n      dup2\n      swap1\n      sstore\n      pop\n        /* \"contracts/IDO.sol\":12897:12919  5000000000000000000000 */\n      0x010f0cf064dd59200000\n        /* \"contracts/IDO.sol\":12886:12893  _amount */\n      dup2\n        /* \"contracts/IDO.sol\":12886:12919  _amount == 5000000000000000000000 */\n      eq\n        /* \"contracts/IDO.sol\":12883:13011  if(_amount == 5000000000000000000000){... */\n      iszero\n      tag_129\n      jumpi\n        /* \"contracts/IDO.sol\":12973:13000  _amount.mul(idoRewardRatio) */\n      tag_130\n        /* \"contracts/IDO.sol\":12985:12999  idoRewardRatio */\n      sload(0x3c)\n        /* \"contracts/IDO.sol\":12973:12980  _amount */\n      dup3\n        /* \"contracts/IDO.sol\":12973:12984  _amount.mul */\n      tag_75\n      swap1\n        /* \"contracts/IDO.sol\":12973:13000  _amount.mul(idoRewardRatio) */\n      swap2\n      swap1\n      0xffffffff\n      and\n      jump\t// in\n    tag_130:\n        /* \"contracts/IDO.sol\":12934:12945  idoUserInfo */\n      0x3d\n        /* \"contracts/IDO.sol\":12934:12957  idoUserInfo[msg.sender] */\n      0x00\n        /* \"contracts/IDO.sol\":12946:12956  msg.sender */\n      caller\n        /* \"contracts/IDO.sol\":12934:12957  idoUserInfo[msg.sender] */\n      0xffffffffffffffffffffffffffffffffffffffff\n      and\n      0xffffffffffffffffffffffffffffffffffffffff\n      and\n      dup2\n      mstore\n      0x20\n      add\n      swap1\n      dup2\n      mstore\n      0x20\n      add\n      0x00\n      keccak256\n        /* \"contracts/IDO.sol\":12934:12969  idoUserInfo[msg.sender].totalReward */\n      0x01\n      add\n      0x00\n        /* \"contracts/IDO.sol\":12934:13000  idoUserInfo[msg.sender].totalReward += _amount.mul(idoRewardRatio) */\n      dup3\n      dup3\n      sload\n      add\n      swap3\n      pop\n      pop\n      dup2\n      swap1\n      sstore\n      pop\n        /* \"contracts/IDO.sol\":12883:13011  if(_amount == 5000000000000000000000){... */\n    tag_129:\n        /* \"contracts/IDO.sol\":13034:13057  20000000000000000000000 */\n      0x043c33c1937564800000\n        /* \"contracts/IDO.sol\":13023:13030  _amount */\n      dup2\n        /* \"contracts/IDO.sol\":13023:13057  _amount == 20000000000000000000000 */\n      eq\n        /* \"contracts/IDO.sol\":13020:13219  if(_amount == 20000000000000000000000){... */\n      iszero\n      tag_131\n      jumpi\n        /* \"contracts/IDO.sol\":13111:13118  _amount */\n      dup1\n        /* \"contracts/IDO.sol\":13072:13083  idoUserInfo */\n      0x3d\n        /* \"contracts/IDO.sol\":13072:13095  idoUserInfo[msg.sender] */\n      0x00\n        /* \"contracts/IDO.sol\":13084:13094  msg.sender */\n      caller\n        /* \"contracts/IDO.sol\":13072:13095  idoUserInfo[msg.sender] */\n      0xffffffffffffffffffffffffffffffffffffffff\n      and\n      0xffffffffffffffffffffffffffffffffffffffff\n      and\n      dup2\n      mstore\n      0x20\n      add\n      swap1\n      dup2\n      mstore\n      0x20\n      add\n      0x00\n      keccak256\n        /* \"contracts/IDO.sol\":13072:13107  idoUserInfo[msg.sender].totalReward */\n      0x01\n      add\n      0x00\n        /* \"contracts/IDO.sol\":13072:13118  idoUserInfo[msg.sender].totalReward += _amount */\n      dup3\n      dup3\n      sload\n      add\n      swap3\n      pop\n      pop\n      dup2\n      swap1\n      sstore\n      pop\n        /* \"contracts/IDO.sol\":13140:13146  coffee */\n      0x3a\n      0x00\n      swap1\n      sload\n      swap1\n      0x0100\n      exp\n      swap1\n      div\n      0xffffffffffffffffffffffffffffffffffffffff\n      and\n        /* \"contracts/IDO.sol\":13132:13160  ICoffee(coffee).transferFrom */\n      0xffffffffffffffffffffffffffffffffffffffff\n      and\n      0x23b872dd\n        /* \"contracts/IDO.sol\":13161:13172  developTeam */\n      0x38\n      0x00\n      swap1\n      sload\n      swap1\n      0x0100\n      exp\n      swap1\n      div\n      0xffffffffffffffffffffffffffffffffffffffff\n      and\n        /* \"contracts/IDO.sol\":13173:13183  msg.sender */\n      caller\n        /* \"contracts/IDO.sol\":13184:13207  20000000000000000000000 */\n      0x043c33c1937564800000\n        /* \"contracts/IDO.sol\":13132:13208  ICoffee(coffee).transferFrom(developTeam,msg.sender,20000000000000000000000) */\n      mload(0x40)\n      dup5\n      0xffffffff\n      and\n      0xe0\n      shl\n      dup2\n      mstore\n      0x04\n      add\n      tag_132\n      swap4\n      swap3\n      swap2\n      swap1\n      tag_133\n      jump\t// in\n    tag_132:\n      0x20\n      mload(0x40)\n      dup1\n      dup4\n      sub\n      dup2\n      0x00\n      dup8\n      dup1\n      extcodesize\n      iszero\n      dup1\n      iszero\n      tag_134\n      jumpi\n      0x00\n      dup1\n      revert\n    tag_134:\n      pop\n      gas\n      call\n      iszero\n      dup1\n      iszero\n      tag_136\n      jumpi\n      returndatasize\n      0x00\n      dup1\n      returndatacopy\n      revert(0x00, returndatasize)\n    tag_136:\n      pop\n      pop\n      pop\n      pop\n      mload(0x40)\n      returndatasize\n      not(0x1f)\n      0x1f\n      dup3\n      add\n      and\n      dup3\n      add\n      dup1\n      0x40\n      mstore\n      pop\n      dup2\n      add\n      swap1\n      tag_137\n      swap2\n      swap1\n      tag_83\n      jump\t// in\n    tag_137:\n      pop\n        /* \"contracts/IDO.sol\":13020:13219  if(_amount == 20000000000000000000000){... */\n    tag_131:\n        /* \"contracts/IDO.sol\":13242:13265  50000000000000000000000 */\n      0x0a968163f0a57b400000\n        /* \"contracts/IDO.sol\":13231:13238  _amount */\n      dup2\n        /* \"contracts/IDO.sol\":13231:13265  _amount == 50000000000000000000000 */\n      eq\n        /* \"contracts/IDO.sol\":13228:13427  if(_amount == 50000000000000000000000){... */\n      iszero\n      tag_138\n      jumpi\n        /* \"contracts/IDO.sol\":13319:13326  _amount */\n      dup1\n        /* \"contracts/IDO.sol\":13280:13291  idoUserInfo */\n      0x3d\n        /* \"contracts/IDO.sol\":13280:13303  idoUserInfo[msg.sender] */\n      0x00\n        /* \"contracts/IDO.sol\":13292:13302  msg.sender */\n      caller\n        /* \"contracts/IDO.sol\":13280:13303  idoUserInfo[msg.sender] */\n      0xffffffffffffffffffffffffffffffffffffffff\n      and\n      0xffffffffffffffffffffffffffffffffffffffff\n      and\n      dup2\n      mstore\n      0x20\n      add\n      swap1\n      dup2\n      mstore\n      0x20\n      add\n      0x00\n      keccak256\n        /* \"contracts/IDO.sol\":13280:13315  idoUserInfo[msg.sender].totalReward */\n      0x01\n      add\n      0x00\n        /* \"contracts/IDO.sol\":13280:13326  idoUserInfo[msg.sender].totalReward += _amount */\n      dup3\n      dup3\n      sload\n      add\n      swap3\n      pop\n      pop\n      dup2\n      swap1\n      sstore\n      pop\n        /* \"contracts/IDO.sol\":13348:13354  coffee */\n      0x3a\n      0x00\n      swap1\n      sload\n      swap1\n      0x0100\n      exp\n      swap1\n      div\n      0xffffffffffffffffffffffffffffffffffffffff\n      and\n        /* \"contracts/IDO.sol\":13340:13368  ICoffee(coffee).transferFrom */\n      0xffffffffffffffffffffffffffffffffffffffff\n      and\n      0x23b872dd\n        /* \"contracts/IDO.sol\":13369:13380  developTeam */\n      0x38\n      0x00\n      swap1\n      sload\n      swap1\n      0x0100\n      exp\n      swap1\n      div\n      0xffffffffffffffffffffffffffffffffffffffff\n      and\n        /* \"contracts/IDO.sol\":13381:13391  msg.sender */\n      caller\n        /* \"contracts/IDO.sol\":13392:13415  50000000000000000000000 */\n      0x0a968163f0a57b400000\n        /* \"contracts/IDO.sol\":13340:13416  ICoffee(coffee).transferFrom(developTeam,msg.sender,50000000000000000000000) */\n      mload(0x40)\n      dup5\n      0xffffffff\n      and\n      0xe0\n      shl\n      dup2\n      mstore\n      0x04\n      add\n      tag_139\n      swap4\n      swap3\n      swap2\n      swap1\n      tag_140\n      jump\t// in\n    tag_139:\n      0x20\n      mload(0x40)\n      dup1\n      dup4\n      sub\n      dup2\n      0x00\n      dup8\n      dup1\n      extcodesize\n      iszero\n      dup1\n      iszero\n      tag_141\n      jumpi\n      0x00\n      dup1\n      revert\n    tag_141:\n      pop\n      gas\n      call\n      iszero\n      dup1\n      iszero\n      tag_143\n      jumpi\n      returndatasize\n      0x00\n      dup1\n      returndatacopy\n      revert(0x00, returndatasize)\n    tag_143:\n      pop\n      pop\n      pop\n      pop\n      mload(0x40)\n      returndatasize\n      not(0x1f)\n      0x1f\n      dup3\n      add\n      and\n      dup3\n      add\n      dup1\n      0x40\n      mstore\n      pop\n      dup2\n      add\n      swap1\n      tag_144\n      swap2\n      swap1\n      tag_83\n      jump\t// in\n    tag_144:\n      pop\n        /* \"contracts/IDO.sol\":13228:13427  if(_amount == 50000000000000000000000){... */\n    tag_138:\n        /* \"contracts/IDO.sol\":13581:13582  0 */\n      0x00\n        /* \"contracts/IDO.sol\":13525:13583  ICoffee(coffee).getSentCOFHigherUp(msg.sender)!=address(0) */\n      0xffffffffffffffffffffffffffffffffffffffff\n      and\n        /* \"contracts/IDO.sol\":13533:13539  coffee */\n      0x3a\n      0x00\n      swap1\n      sload\n      swap1\n      0x0100\n      exp\n      swap1\n      div\n      0xffffffffffffffffffffffffffffffffffffffff\n      and\n        /* \"contracts/IDO.sol\":13525:13559  ICoffee(coffee).getSentCOFHigherUp */\n      0xffffffffffffffffffffffffffffffffffffffff\n      and\n      0x1f5ed1b2\n        /* \"contracts/IDO.sol\":13560:13570  msg.sender */\n      caller\n        /* \"contracts/IDO.sol\":13525:13571  ICoffee(coffee).getSentCOFHigherUp(msg.sender) */\n      mload(0x40)\n      dup3\n      0xffffffff\n      and\n      0xe0\n      shl\n      dup2\n      mstore\n      0x04\n      add\n      tag_145\n      swap2\n      swap1\n      tag_146\n      jump\t// in\n    tag_145:\n      0x20\n      mload(0x40)\n      dup1\n      dup4\n      sub\n      dup2\n      0x00\n      dup8\n      dup1\n      extcodesize\n      iszero\n      dup1\n      iszero\n      tag_147\n      jumpi\n      0x00\n      dup1\n      revert\n    tag_147:\n      pop\n      gas\n      call\n      iszero\n      dup1\n      iszero\n      tag_149\n      jumpi\n      returndatasize\n      0x00\n      dup1\n      returndatacopy\n      revert(0x00, returndatasize)\n    tag_149:\n      pop\n      pop\n      pop\n      pop\n      mload(0x40)\n      returndatasize\n      not(0x1f)\n      0x1f\n      dup3\n      add\n      and\n      dup3\n      add\n      dup1\n      0x40\n      mstore\n      pop\n      dup2\n      add\n      swap1\n      tag_150\n      swap2\n      swap1\n      tag_151\n      jump\t// in\n    tag_150:\n        /* \"contracts/IDO.sol\":13525:13583  ICoffee(coffee).getSentCOFHigherUp(msg.sender)!=address(0) */\n      0xffffffffffffffffffffffffffffffffffffffff\n      and\n      eq\n      iszero\n        /* \"contracts/IDO.sol\":13525:13624  ICoffee(coffee).getSentCOFHigherUp(msg.sender)!=address(0)&&idoUserInfo[msg.sender].HigherUpLock==0 */\n      dup1\n      iszero\n      tag_152\n      jumpi\n      pop\n        /* \"contracts/IDO.sol\":13623:13624  0 */\n      0x00\n        /* \"contracts/IDO.sol\":13585:13596  idoUserInfo */\n      0x3d\n        /* \"contracts/IDO.sol\":13585:13608  idoUserInfo[msg.sender] */\n      0x00\n        /* \"contracts/IDO.sol\":13597:13607  msg.sender */\n      caller\n        /* \"contracts/IDO.sol\":13585:13608  idoUserInfo[msg.sender] */\n      0xffffffffffffffffffffffffffffffffffffffff\n      and\n      0xffffffffffffffffffffffffffffffffffffffff\n      and\n      dup2\n      mstore\n      0x20\n      add\n      swap1\n      dup2\n      mstore\n      0x20\n      add\n      0x00\n      keccak256\n        /* \"contracts/IDO.sol\":13585:13621  idoUserInfo[msg.sender].HigherUpLock */\n      0x04\n      add\n      sload\n        /* \"contracts/IDO.sol\":13585:13624  idoUserInfo[msg.sender].HigherUpLock==0 */\n      eq\n        /* \"contracts/IDO.sol\":13525:13624  ICoffee(coffee).getSentCOFHigherUp(msg.sender)!=address(0)&&idoUserInfo[msg.sender].HigherUpLock==0 */\n    tag_152:\n        /* \"contracts/IDO.sol\":13522:13785  if(ICoffee(coffee).getSentCOFHigherUp(msg.sender)!=address(0)&&idoUserInfo[msg.sender].HigherUpLock==0){... */\n      iszero\n      tag_153\n      jumpi\n        /* \"contracts/IDO.sol\":13719:13720  1 */\n      0x01\n        /* \"contracts/IDO.sol\":13639:13650  idoUserInfo */\n      0x3d\n        /* \"contracts/IDO.sol\":13639:13698  idoUserInfo[ICoffee(coffee).getSentCOFHigherUp(msg.sender)] */\n      0x00\n        /* \"contracts/IDO.sol\":13659:13665  coffee */\n      0x3a\n      0x00\n      swap1\n      sload\n      swap1\n      0x0100\n      exp\n      swap1\n      div\n      0xffffffffffffffffffffffffffffffffffffffff\n      and\n        /* \"contracts/IDO.sol\":13651:13685  ICoffee(coffee).getSentCOFHigherUp */\n      0xffffffffffffffffffffffffffffffffffffffff\n      and\n      0x1f5ed1b2\n        /* \"contracts/IDO.sol\":13686:13696  msg.sender */\n      caller\n        /* \"contracts/IDO.sol\":13651:13697  ICoffee(coffee).getSentCOFHigherUp(msg.sender) */\n      mload(0x40)\n      dup3\n      0xffffffff\n      and\n      0xe0\n      shl\n      dup2\n      mstore\n      0x04\n      add\n      tag_154\n      swap2\n      swap1\n      tag_146\n      jump\t// in\n    tag_154:\n      0x20\n      mload(0x40)\n      dup1\n      dup4\n      sub\n      dup2\n      0x00\n      dup8\n      dup1\n      extcodesize\n      iszero\n      dup1\n      iszero\n      tag_155\n      jumpi\n      0x00\n      dup1\n      revert\n    tag_155:\n      pop\n      gas\n      call\n      iszero\n      dup1\n      iszero\n      tag_157\n      jumpi\n      returndatasize\n      0x00\n      dup1\n      returndatacopy\n      revert(0x00, returndatasize)\n    tag_157:\n      pop\n      pop\n      pop\n      pop\n      mload(0x40)\n      returndatasize\n      not(0x1f)\n      0x1f\n      dup3\n      add\n      and\n      dup3\n      add\n      dup1\n      0x40\n      mstore\n      pop\n      dup2\n      add\n      swap1\n      tag_158\n      swap2\n      swap1\n      tag_151\n      jump\t// in\n    tag_158:\n        /* \"contracts/IDO.sol\":13639:13698  idoUserInfo[ICoffee(coffee).getSentCOFHigherUp(msg.sender)] */\n      0xffffffffffffffffffffffffffffffffffffffff\n      and\n      0xffffffffffffffffffffffffffffffffffffffff\n      and\n      dup2\n      mstore\n      0x20\n      add\n      swap1\n      dup2\n      mstore\n      0x20\n      add\n      0x00\n      keccak256\n        /* \"contracts/IDO.sol\":13639:13717  idoUserInfo[ICoffee(coffee).getSentCOFHigherUp(msg.sender)].totalPromoteAndIDO */\n      0x02\n      add\n      0x00\n        /* \"contracts/IDO.sol\":13639:13720  idoUserInfo[ICoffee(coffee).getSentCOFHigherUp(msg.sender)].totalPromoteAndIDO+=1 */\n      dup3\n      dup3\n      sload\n      add\n      swap3\n      pop\n      pop\n      dup2\n      swap1\n      sstore\n      pop\n        /* \"contracts/IDO.sol\":13773:13774  1 */\n      0x01\n        /* \"contracts/IDO.sol\":13734:13745  idoUserInfo */\n      0x3d\n        /* \"contracts/IDO.sol\":13734:13757  idoUserInfo[msg.sender] */\n      0x00\n        /* \"contracts/IDO.sol\":13746:13756  msg.sender */\n      caller\n        /* \"contracts/IDO.sol\":13734:13757  idoUserInfo[msg.sender] */\n      0xffffffffffffffffffffffffffffffffffffffff\n      and\n      0xffffffffffffffffffffffffffffffffffffffff\n      and\n      dup2\n      mstore\n      0x20\n      add\n      swap1\n      dup2\n      mstore\n      0x20\n      add\n      0x00\n      keccak256\n        /* \"contracts/IDO.sol\":13734:13770  idoUserInfo[msg.sender].HigherUpLock */\n      0x04\n      add\n        /* \"contracts/IDO.sol\":13734:13774  idoUserInfo[msg.sender].HigherUpLock = 1 */\n      dup2\n      swap1\n      sstore\n      pop\n        /* \"contracts/IDO.sol\":13522:13785  if(ICoffee(coffee).getSentCOFHigherUp(msg.sender)!=address(0)&&idoUserInfo[msg.sender].HigherUpLock==0){... */\n    tag_153:\n        /* \"contracts/IDO.sol\":13805:13815  msg.sender */\n      caller\n        /* \"contracts/IDO.sol\":13799:13824  DOIDO(msg.sender,_amount) */\n      0xffffffffffffffffffffffffffffffffffffffff\n      and\n      0x6c6526de39dfaacb57fa46c88b14be8505d09f56cf193b2aef29af27967615ba\n        /* \"contracts/IDO.sol\":13816:13823  _amount */\n      dup3\n        /* \"contracts/IDO.sol\":13799:13824  DOIDO(msg.sender,_amount) */\n      mload(0x40)\n      tag_159\n      swap2\n      swap1\n      tag_85\n      jump\t// in\n    tag_159:\n      mload(0x40)\n      dup1\n      swap2\n      sub\n      swap1\n      log2\n        /* \"contracts/IDO.sol\":12708:13831  function doIDO(uint _amount) public {... */\n      pop\n      jump\t// out\n        /* \"contracts/IDO.sol\":7417:7513  function div(uint256 a, uint256 b) internal pure returns (uint256) {... */\n    tag_74:\n        /* \"contracts/IDO.sol\":7475:7482  uint256 */\n      0x00\n        /* \"contracts/IDO.sol\":7505:7506  b */\n      dup2\n        /* \"contracts/IDO.sol\":7501:7502  a */\n      dup4\n        /* \"contracts/IDO.sol\":7501:7506  a / b */\n      dup2\n      tag_161\n      jumpi\n      invalid\n    tag_161:\n      div\n        /* \"contracts/IDO.sol\":7494:7506  return a / b */\n      swap1\n      pop\n        /* \"contracts/IDO.sol\":7417:7513  function div(uint256 a, uint256 b) internal pure returns (uint256) {... */\n      swap3\n      swap2\n      pop\n      pop\n      jump\t// out\n        /* \"contracts/IDO.sol\":7032:7128  function mul(uint256 a, uint256 b) internal pure returns (uint256) {... */\n    tag_75:\n        /* \"contracts/IDO.sol\":7090:7097  uint256 */\n      0x00\n        /* \"contracts/IDO.sol\":7120:7121  b */\n      dup2\n        /* \"contracts/IDO.sol\":7116:7117  a */\n      dup4\n        /* \"contracts/IDO.sol\":7116:7121  a * b */\n      mul\n        /* \"contracts/IDO.sol\":7109:7121  return a * b */\n      swap1\n      pop\n        /* \"contracts/IDO.sol\":7032:7128  function mul(uint256 a, uint256 b) internal pure returns (uint256) {... */\n      swap3\n      swap2\n      pop\n      pop\n      jump\t// out\n        /* \"contracts/IDO.sol\":6689:6785  function sub(uint256 a, uint256 b) internal pure returns (uint256) {... */\n    tag_76:\n        /* \"contracts/IDO.sol\":6747:6754  uint256 */\n      0x00\n        /* \"contracts/IDO.sol\":6777:6778  b */\n      dup2\n        /* \"contracts/IDO.sol\":6773:6774  a */\n      dup4\n        /* \"contracts/IDO.sol\":6773:6778  a - b */\n      sub\n        /* \"contracts/IDO.sol\":6766:6778  return a - b */\n      swap1\n      pop\n        /* \"contracts/IDO.sol\":6689:6785  function sub(uint256 a, uint256 b) internal pure returns (uint256) {... */\n      swap3\n      swap2\n      pop\n      pop\n      jump\t// out\n        /* \"contracts/IDO.sol\":846:1344  function isConstructor() private view returns (bool) {... */\n    tag_114:\n        /* \"contracts/IDO.sol\":893:897  bool */\n      0x00\n        /* \"contracts/IDO.sol\":1234:1246  address self */\n      dup1\n        /* \"contracts/IDO.sol\":1257:1261  this */\n      address\n        /* \"contracts/IDO.sol\":1234:1262  address self = address(this) */\n      swap1\n      pop\n        /* \"contracts/IDO.sol\":1268:1278  uint256 cs */\n      0x00\n        /* \"contracts/IDO.sol\":1313:1317  self */\n      dup2\n        /* \"contracts/IDO.sol\":1301:1318  extcodesize(self) */\n      extcodesize\n        /* \"contracts/IDO.sol\":1295:1318  cs := extcodesize(self) */\n      swap1\n      pop\n        /* \"contracts/IDO.sol\":1338:1339  0 */\n      0x00\n        /* \"contracts/IDO.sol\":1332:1334  cs */\n      dup2\n        /* \"contracts/IDO.sol\":1332:1339  cs == 0 */\n      eq\n        /* \"contracts/IDO.sol\":1325:1339  return cs == 0 */\n      swap3\n      pop\n      pop\n      pop\n        /* \"contracts/IDO.sol\":846:1344  function isConstructor() private view returns (bool) {... */\n      swap1\n      jump\t// out\n    tag_94:\n      mload(0x40)\n      dup1\n      0xa0\n      add\n      0x40\n      mstore\n      dup1\n      0x00\n      dup2\n      mstore\n      0x20\n      add\n      0x00\n      dup2\n      mstore\n      0x20\n      add\n      0x00\n      dup2\n      mstore\n      0x20\n      add\n      0x00\n      dup2\n      mstore\n      0x20\n      add\n      0x00\n      dup2\n      mstore\n      pop\n      swap1\n      jump\t// out\n        /* \"--CODEGEN--\":5:135   */\n    tag_166:\n      0x00\n        /* \"--CODEGEN--\":85:91   */\n      dup2\n        /* \"--CODEGEN--\":72:92   */\n      calldataload\n        /* \"--CODEGEN--\":63:92   */\n      swap1\n      pop\n        /* \"--CODEGEN--\":97:130   */\n      tag_168\n        /* \"--CODEGEN--\":124:129   */\n      dup2\n        /* \"--CODEGEN--\":97:130   */\n      tag_169\n      jump\t// in\n    tag_168:\n        /* \"--CODEGEN--\":57:135   */\n      swap3\n      swap2\n      pop\n      pop\n      jump\t// out\n        /* \"--CODEGEN--\":142:276   */\n    tag_170:\n      0x00\n        /* \"--CODEGEN--\":226:232   */\n      dup2\n        /* \"--CODEGEN--\":220:233   */\n      mload\n        /* \"--CODEGEN--\":211:233   */\n      swap1\n      pop\n        /* \"--CODEGEN--\":238:271   */\n      tag_172\n        /* \"--CODEGEN--\":265:270   */\n      dup2\n        /* \"--CODEGEN--\":238:271   */\n      tag_169\n      jump\t// in\n    tag_172:\n        /* \"--CODEGEN--\":205:276   */\n      swap3\n      swap2\n      pop\n      pop\n      jump\t// out\n        /* \"--CODEGEN--\":283:411   */\n    tag_173:\n      0x00\n        /* \"--CODEGEN--\":364:370   */\n      dup2\n        /* \"--CODEGEN--\":358:371   */\n      mload\n        /* \"--CODEGEN--\":349:371   */\n      swap1\n      pop\n        /* \"--CODEGEN--\":376:406   */\n      tag_175\n        /* \"--CODEGEN--\":400:405   */\n      dup2\n        /* \"--CODEGEN--\":376:406   */\n      tag_176\n      jump\t// in\n    tag_175:\n        /* \"--CODEGEN--\":343:411   */\n      swap3\n      swap2\n      pop\n      pop\n      jump\t// out\n        /* \"--CODEGEN--\":418:578   */\n    tag_177:\n      0x00\n        /* \"--CODEGEN--\":513:519   */\n      dup2\n        /* \"--CODEGEN--\":500:520   */\n      calldataload\n        /* \"--CODEGEN--\":491:520   */\n      swap1\n      pop\n        /* \"--CODEGEN--\":525:573   */\n      tag_179\n        /* \"--CODEGEN--\":567:572   */\n      dup2\n        /* \"--CODEGEN--\":525:573   */\n      tag_180\n      jump\t// in\n    tag_179:\n        /* \"--CODEGEN--\":485:578   */\n      swap3\n      swap2\n      pop\n      pop\n      jump\t// out\n        /* \"--CODEGEN--\":585:743   */\n    tag_181:\n      0x00\n        /* \"--CODEGEN--\":679:685   */\n      dup2\n        /* \"--CODEGEN--\":666:686   */\n      calldataload\n        /* \"--CODEGEN--\":657:686   */\n      swap1\n      pop\n        /* \"--CODEGEN--\":691:738   */\n      tag_183\n        /* \"--CODEGEN--\":732:737   */\n      dup2\n        /* \"--CODEGEN--\":691:738   */\n      tag_184\n      jump\t// in\n    tag_183:\n        /* \"--CODEGEN--\":651:743   */\n      swap3\n      swap2\n      pop\n      pop\n      jump\t// out\n        /* \"--CODEGEN--\":750:880   */\n    tag_185:\n      0x00\n        /* \"--CODEGEN--\":830:836   */\n      dup2\n        /* \"--CODEGEN--\":817:837   */\n      calldataload\n        /* \"--CODEGEN--\":808:837   */\n      swap1\n      pop\n        /* \"--CODEGEN--\":842:875   */\n      tag_187\n        /* \"--CODEGEN--\":869:874   */\n      dup2\n        /* \"--CODEGEN--\":842:875   */\n      tag_188\n      jump\t// in\n    tag_187:\n        /* \"--CODEGEN--\":802:880   */\n      swap3\n      swap2\n      pop\n      pop\n      jump\t// out\n        /* \"--CODEGEN--\":887:1021   */\n    tag_189:\n      0x00\n        /* \"--CODEGEN--\":971:977   */\n      dup2\n        /* \"--CODEGEN--\":965:978   */\n      mload\n        /* \"--CODEGEN--\":956:978   */\n      swap1\n      pop\n        /* \"--CODEGEN--\":983:1016   */\n      tag_191\n        /* \"--CODEGEN--\":1010:1015   */\n      dup2\n        /* \"--CODEGEN--\":983:1016   */\n      tag_188\n      jump\t// in\n    tag_191:\n        /* \"--CODEGEN--\":950:1021   */\n      swap3\n      swap2\n      pop\n      pop\n      jump\t// out\n        /* \"--CODEGEN--\":1028:1269   */\n    tag_30:\n      0x00\n        /* \"--CODEGEN--\":1132:1134   */\n      0x20\n        /* \"--CODEGEN--\":1120:1129   */\n      dup3\n        /* \"--CODEGEN--\":1111:1118   */\n      dup5\n        /* \"--CODEGEN--\":1107:1130   */\n      sub\n        /* \"--CODEGEN--\":1103:1135   */\n      slt\n        /* \"--CODEGEN--\":1100:1102   */\n      iszero\n      tag_193\n      jumpi\n        /* \"--CODEGEN--\":1148:1149   */\n      0x00\n        /* \"--CODEGEN--\":1145:1146   */\n      dup1\n        /* \"--CODEGEN--\":1138:1150   */\n      revert\n        /* \"--CODEGEN--\":1100:1102   */\n    tag_193:\n        /* \"--CODEGEN--\":1183:1184   */\n      0x00\n        /* \"--CODEGEN--\":1200:1253   */\n      tag_194\n        /* \"--CODEGEN--\":1245:1252   */\n      dup5\n        /* \"--CODEGEN--\":1236:1242   */\n      dup3\n        /* \"--CODEGEN--\":1225:1234   */\n      dup6\n        /* \"--CODEGEN--\":1221:1243   */\n      add\n        /* \"--CODEGEN--\":1200:1253   */\n      tag_166\n      jump\t// in\n    tag_194:\n        /* \"--CODEGEN--\":1190:1253   */\n      swap2\n      pop\n        /* \"--CODEGEN--\":1162:1259   */\n      pop\n        /* \"--CODEGEN--\":1094:1269   */\n      swap3\n      swap2\n      pop\n      pop\n      jump\t// out\n        /* \"--CODEGEN--\":1276:1539   */\n    tag_151:\n      0x00\n        /* \"--CODEGEN--\":1391:1393   */\n      0x20\n        /* \"--CODEGEN--\":1379:1388   */\n      dup3\n        /* \"--CODEGEN--\":1370:1377   */\n      dup5\n        /* \"--CODEGEN--\":1366:1389   */\n      sub\n        /* \"--CODEGEN--\":1362:1394   */\n      slt\n        /* \"--CODEGEN--\":1359:1361   */\n      iszero\n      tag_196\n      jumpi\n        /* \"--CODEGEN--\":1407:1408   */\n      0x00\n        /* \"--CODEGEN--\":1404:1405   */\n      dup1\n        /* \"--CODEGEN--\":1397:1409   */\n      revert\n        /* \"--CODEGEN--\":1359:1361   */\n    tag_196:\n        /* \"--CODEGEN--\":1442:1443   */\n      0x00\n        /* \"--CODEGEN--\":1459:1523   */\n      tag_197\n        /* \"--CODEGEN--\":1515:1522   */\n      dup5\n        /* \"--CODEGEN--\":1506:1512   */\n      dup3\n        /* \"--CODEGEN--\":1495:1504   */\n      dup6\n        /* \"--CODEGEN--\":1491:1513   */\n      add\n        /* \"--CODEGEN--\":1459:1523   */\n      tag_170\n      jump\t// in\n    tag_197:\n        /* \"--CODEGEN--\":1449:1523   */\n      swap2\n      pop\n        /* \"--CODEGEN--\":1421:1529   */\n      pop\n        /* \"--CODEGEN--\":1353:1539   */\n      swap3\n      swap2\n      pop\n      pop\n      jump\t// out\n        /* \"--CODEGEN--\":1546:1803   */\n    tag_83:\n      0x00\n        /* \"--CODEGEN--\":1658:1660   */\n      0x20\n        /* \"--CODEGEN--\":1646:1655   */\n      dup3\n        /* \"--CODEGEN--\":1637:1644   */\n      dup5\n        /* \"--CODEGEN--\":1633:1656   */\n      sub\n        /* \"--CODEGEN--\":1629:1661   */\n      slt\n        /* \"--CODEGEN--\":1626:1628   */\n      iszero\n      tag_199\n      jumpi\n        /* \"--CODEGEN--\":1674:1675   */\n      0x00\n        /* \"--CODEGEN--\":1671:1672   */\n      dup1\n        /* \"--CODEGEN--\":1664:1676   */\n      revert\n        /* \"--CODEGEN--\":1626:1628   */\n    tag_199:\n        /* \"--CODEGEN--\":1709:1710   */\n      0x00\n        /* \"--CODEGEN--\":1726:1787   */\n      tag_200\n        /* \"--CODEGEN--\":1779:1786   */\n      dup5\n        /* \"--CODEGEN--\":1770:1776   */\n      dup3\n        /* \"--CODEGEN--\":1759:1768   */\n      dup6\n        /* \"--CODEGEN--\":1755:1777   */\n      add\n        /* \"--CODEGEN--\":1726:1787   */\n      tag_173\n      jump\t// in\n    tag_200:\n        /* \"--CODEGEN--\":1716:1787   */\n      swap2\n      pop\n        /* \"--CODEGEN--\":1688:1793   */\n      pop\n        /* \"--CODEGEN--\":1620:1803   */\n      swap3\n      swap2\n      pop\n      pop\n      jump\t// out\n        /* \"--CODEGEN--\":1810:2081   */\n    tag_22:\n      0x00\n        /* \"--CODEGEN--\":1929:1931   */\n      0x20\n        /* \"--CODEGEN--\":1917:1926   */\n      dup3\n        /* \"--CODEGEN--\":1908:1915   */\n      dup5\n        /* \"--CODEGEN--\":1904:1927   */\n      sub\n        /* \"--CODEGEN--\":1900:1932   */\n      slt\n        /* \"--CODEGEN--\":1897:1899   */\n      iszero\n      tag_202\n      jumpi\n        /* \"--CODEGEN--\":1945:1946   */\n      0x00\n        /* \"--CODEGEN--\":1942:1943   */\n      dup1\n        /* \"--CODEGEN--\":1935:1947   */\n      revert\n        /* \"--CODEGEN--\":1897:1899   */\n    tag_202:\n        /* \"--CODEGEN--\":1980:1981   */\n      0x00\n        /* \"--CODEGEN--\":1997:2065   */\n      tag_203\n        /* \"--CODEGEN--\":2057:2064   */\n      dup5\n        /* \"--CODEGEN--\":2048:2054   */\n      dup3\n        /* \"--CODEGEN--\":2037:2046   */\n      dup6\n        /* \"--CODEGEN--\":2033:2055   */\n      add\n        /* \"--CODEGEN--\":1997:2065   */\n      tag_177\n      jump\t// in\n    tag_203:\n        /* \"--CODEGEN--\":1987:2065   */\n      swap2\n      pop\n        /* \"--CODEGEN--\":1959:2071   */\n      pop\n        /* \"--CODEGEN--\":1891:2081   */\n      swap3\n      swap2\n      pop\n      pop\n      jump\t// out\n        /* \"--CODEGEN--\":2088:2637   */\n    tag_51:\n      0x00\n      dup1\n      0x00\n        /* \"--CODEGEN--\":2255:2257   */\n      0x60\n        /* \"--CODEGEN--\":2243:2252   */\n      dup5\n        /* \"--CODEGEN--\":2234:2241   */\n      dup7\n        /* \"--CODEGEN--\":2230:2253   */\n      sub\n        /* \"--CODEGEN--\":2226:2258   */\n      slt\n        /* \"--CODEGEN--\":2223:2225   */\n      iszero\n      tag_205\n      jumpi\n        /* \"--CODEGEN--\":2271:2272   */\n      0x00\n        /* \"--CODEGEN--\":2268:2269   */\n      dup1\n        /* \"--CODEGEN--\":2261:2273   */\n      revert\n        /* \"--CODEGEN--\":2223:2225   */\n    tag_205:\n        /* \"--CODEGEN--\":2306:2307   */\n      0x00\n        /* \"--CODEGEN--\":2323:2391   */\n      tag_206\n        /* \"--CODEGEN--\":2383:2390   */\n      dup7\n        /* \"--CODEGEN--\":2374:2380   */\n      dup3\n        /* \"--CODEGEN--\":2363:2372   */\n      dup8\n        /* \"--CODEGEN--\":2359:2381   */\n      add\n        /* \"--CODEGEN--\":2323:2391   */\n      tag_177\n      jump\t// in\n    tag_206:\n        /* \"--CODEGEN--\":2313:2391   */\n      swap4\n      pop\n        /* \"--CODEGEN--\":2285:2397   */\n      pop\n        /* \"--CODEGEN--\":2428:2430   */\n      0x20\n        /* \"--CODEGEN--\":2446:2513   */\n      tag_207\n        /* \"--CODEGEN--\":2505:2512   */\n      dup7\n        /* \"--CODEGEN--\":2496:2502   */\n      dup3\n        /* \"--CODEGEN--\":2485:2494   */\n      dup8\n        /* \"--CODEGEN--\":2481:2503   */\n      add\n        /* \"--CODEGEN--\":2446:2513   */\n      tag_181\n      jump\t// in\n    tag_207:\n        /* \"--CODEGEN--\":2436:2513   */\n      swap3\n      pop\n        /* \"--CODEGEN--\":2407:2519   */\n      pop\n        /* \"--CODEGEN--\":2550:2552   */\n      0x40\n        /* \"--CODEGEN--\":2568:2621   */\n      tag_208\n        /* \"--CODEGEN--\":2613:2620   */\n      dup7\n        /* \"--CODEGEN--\":2604:2610   */\n      dup3\n        /* \"--CODEGEN--\":2593:2602   */\n      dup8\n        /* \"--CODEGEN--\":2589:2611   */\n      add\n        /* \"--CODEGEN--\":2568:2621   */\n      tag_166\n      jump\t// in\n    tag_208:\n        /* \"--CODEGEN--\":2558:2621   */\n      swap2\n      pop\n        /* \"--CODEGEN--\":2529:2627   */\n      pop\n        /* \"--CODEGEN--\":2217:2637   */\n      swap3\n      pop\n      swap3\n      pop\n      swap3\n      jump\t// out\n        /* \"--CODEGEN--\":2644:2913   */\n    tag_47:\n      0x00\n        /* \"--CODEGEN--\":2762:2764   */\n      0x20\n        /* \"--CODEGEN--\":2750:2759   */\n      dup3\n        /* \"--CODEGEN--\":2741:2748   */\n      dup5\n        /* \"--CODEGEN--\":2737:2760   */\n      sub\n        /* \"--CODEGEN--\":2733:2765   */\n      slt\n        /* \"--CODEGEN--\":2730:2732   */\n      iszero\n      tag_210\n      jumpi\n        /* \"--CODEGEN--\":2778:2779   */\n      0x00\n        /* \"--CODEGEN--\":2775:2776   */\n      dup1\n        /* \"--CODEGEN--\":2768:2780   */\n      revert\n        /* \"--CODEGEN--\":2730:2732   */\n    tag_210:\n        /* \"--CODEGEN--\":2813:2814   */\n      0x00\n        /* \"--CODEGEN--\":2830:2897   */\n      tag_211\n        /* \"--CODEGEN--\":2889:2896   */\n      dup5\n        /* \"--CODEGEN--\":2880:2886   */\n      dup3\n        /* \"--CODEGEN--\":2869:2878   */\n      dup6\n        /* \"--CODEGEN--\":2865:2887   */\n      add\n        /* \"--CODEGEN--\":2830:2897   */\n      tag_181\n      jump\t// in\n    tag_211:\n        /* \"--CODEGEN--\":2820:2897   */\n      swap2\n      pop\n        /* \"--CODEGEN--\":2792:2903   */\n      pop\n        /* \"--CODEGEN--\":2724:2913   */\n      swap3\n      swap2\n      pop\n      pop\n      jump\t// out\n        /* \"--CODEGEN--\":2920:3161   */\n    tag_34:\n      0x00\n        /* \"--CODEGEN--\":3024:3026   */\n      0x20\n        /* \"--CODEGEN--\":3012:3021   */\n      dup3\n        /* \"--CODEGEN--\":3003:3010   */\n      dup5\n        /* \"--CODEGEN--\":2999:3022   */\n      sub\n        /* \"--CODEGEN--\":2995:3027   */\n      slt\n        /* \"--CODEGEN--\":2992:2994   */\n      iszero\n      tag_213\n      jumpi\n        /* \"--CODEGEN--\":3040:3041   */\n      0x00\n        /* \"--CODEGEN--\":3037:3038   */\n      dup1\n        /* \"--CODEGEN--\":3030:3042   */\n      revert\n        /* \"--CODEGEN--\":2992:2994   */\n    tag_213:\n        /* \"--CODEGEN--\":3075:3076   */\n      0x00\n        /* \"--CODEGEN--\":3092:3145   */\n      tag_214\n        /* \"--CODEGEN--\":3137:3144   */\n      dup5\n        /* \"--CODEGEN--\":3128:3134   */\n      dup3\n        /* \"--CODEGEN--\":3117:3126   */\n      dup6\n        /* \"--CODEGEN--\":3113:3135   */\n      add\n        /* \"--CODEGEN--\":3092:3145   */\n      tag_185\n      jump\t// in\n    tag_214:\n        /* \"--CODEGEN--\":3082:3145   */\n      swap2\n      pop\n        /* \"--CODEGEN--\":3054:3151   */\n      pop\n        /* \"--CODEGEN--\":2986:3161   */\n      swap3\n      swap2\n      pop\n      pop\n      jump\t// out\n        /* \"--CODEGEN--\":3168:3431   */\n    tag_104:\n      0x00\n        /* \"--CODEGEN--\":3283:3285   */\n      0x20\n        /* \"--CODEGEN--\":3271:3280   */\n      dup3\n        /* \"--CODEGEN--\":3262:3269   */\n      dup5\n        /* \"--CODEGEN--\":3258:3281   */\n      sub\n        /* \"--CODEGEN--\":3254:3286   */\n      slt\n        /* \"--CODEGEN--\":3251:3253   */\n      iszero\n      tag_216\n      jumpi\n        /* \"--CODEGEN--\":3299:3300   */\n      0x00\n        /* \"--CODEGEN--\":3296:3297   */\n      dup1\n        /* \"--CODEGEN--\":3289:3301   */\n      revert\n        /* \"--CODEGEN--\":3251:3253   */\n    tag_216:\n        /* \"--CODEGEN--\":3334:3335   */\n      0x00\n        /* \"--CODEGEN--\":3351:3415   */\n      tag_217\n        /* \"--CODEGEN--\":3407:3414   */\n      dup5\n        /* \"--CODEGEN--\":3398:3404   */\n      dup3\n        /* \"--CODEGEN--\":3387:3396   */\n      dup6\n        /* \"--CODEGEN--\":3383:3405   */\n      add\n        /* \"--CODEGEN--\":3351:3415   */\n      tag_189\n      jump\t// in\n    tag_217:\n        /* \"--CODEGEN--\":3341:3415   */\n      swap2\n      pop\n        /* \"--CODEGEN--\":3313:3421   */\n      pop\n        /* \"--CODEGEN--\":3245:3431   */\n      swap3\n      swap2\n      pop\n      pop\n      jump\t// out\n        /* \"--CODEGEN--\":3438:3580   */\n    tag_218:\n        /* \"--CODEGEN--\":3529:3574   */\n      tag_220\n        /* \"--CODEGEN--\":3568:3573   */\n      dup2\n        /* \"--CODEGEN--\":3529:3574   */\n      tag_221\n      jump\t// in\n    tag_220:\n        /* \"--CODEGEN--\":3524:3527   */\n      dup3\n        /* \"--CODEGEN--\":3517:3575   */\n      mstore\n        /* \"--CODEGEN--\":3511:3580   */\n      pop\n      pop\n      jump\t// out\n        /* \"--CODEGEN--\":3587:3700   */\n    tag_222:\n        /* \"--CODEGEN--\":3670:3694   */\n      tag_224\n        /* \"--CODEGEN--\":3688:3693   */\n      dup2\n        /* \"--CODEGEN--\":3670:3694   */\n      tag_225\n      jump\t// in\n    tag_224:\n        /* \"--CODEGEN--\":3665:3668   */\n      dup3\n        /* \"--CODEGEN--\":3658:3695   */\n      mstore\n        /* \"--CODEGEN--\":3652:3700   */\n      pop\n      pop\n      jump\t// out\n        /* \"--CODEGEN--\":3707:3863   */\n    tag_226:\n        /* \"--CODEGEN--\":3805:3857   */\n      tag_228\n        /* \"--CODEGEN--\":3851:3856   */\n      dup2\n        /* \"--CODEGEN--\":3805:3857   */\n      tag_229\n      jump\t// in\n    tag_228:\n        /* \"--CODEGEN--\":3800:3803   */\n      dup3\n        /* \"--CODEGEN--\":3793:3858   */\n      mstore\n        /* \"--CODEGEN--\":3787:3863   */\n      pop\n      pop\n      jump\t// out\n        /* \"--CODEGEN--\":3870:4024   */\n    tag_230:\n        /* \"--CODEGEN--\":3967:4018   */\n      tag_232\n        /* \"--CODEGEN--\":4012:4017   */\n      dup2\n        /* \"--CODEGEN--\":3967:4018   */\n      tag_233\n      jump\t// in\n    tag_232:\n        /* \"--CODEGEN--\":3962:3965   */\n      dup3\n        /* \"--CODEGEN--\":3955:4019   */\n      mstore\n        /* \"--CODEGEN--\":3949:4024   */\n      pop\n      pop\n      jump\t// out\n        /* \"--CODEGEN--\":4031:4217   */\n    tag_234:\n        /* \"--CODEGEN--\":4144:4211   */\n      tag_236\n        /* \"--CODEGEN--\":4205:4210   */\n      dup2\n        /* \"--CODEGEN--\":4144:4211   */\n      tag_237\n      jump\t// in\n    tag_236:\n        /* \"--CODEGEN--\":4139:4142   */\n      dup3\n        /* \"--CODEGEN--\":4132:4212   */\n      mstore\n        /* \"--CODEGEN--\":4126:4217   */\n      pop\n      pop\n      jump\t// out\n        /* \"--CODEGEN--\":4224:4410   */\n    tag_238:\n        /* \"--CODEGEN--\":4337:4404   */\n      tag_240\n        /* \"--CODEGEN--\":4398:4403   */\n      dup2\n        /* \"--CODEGEN--\":4337:4404   */\n      tag_241\n      jump\t// in\n    tag_240:\n        /* \"--CODEGEN--\":4332:4335   */\n      dup3\n        /* \"--CODEGEN--\":4325:4405   */\n      mstore\n        /* \"--CODEGEN--\":4319:4410   */\n      pop\n      pop\n      jump\t// out\n        /* \"--CODEGEN--\":4418:4801   */\n    tag_242:\n      0x00\n        /* \"--CODEGEN--\":4578:4645   */\n      tag_244\n        /* \"--CODEGEN--\":4642:4644   */\n      0x2e\n        /* \"--CODEGEN--\":4637:4640   */\n      dup4\n        /* \"--CODEGEN--\":4578:4645   */\n      tag_245\n      jump\t// in\n    tag_244:\n        /* \"--CODEGEN--\":4571:4645   */\n      swap2\n      pop\n        /* \"--CODEGEN--\":4678:4712   */\n      0x436f6e747261637420696e7374616e63652068617320616c7265616479206265\n        /* \"--CODEGEN--\":4674:4675   */\n      0x00\n        /* \"--CODEGEN--\":4669:4672   */\n      dup4\n        /* \"--CODEGEN--\":4665:4676   */\n      add\n        /* \"--CODEGEN--\":4658:4713   */\n      mstore\n        /* \"--CODEGEN--\":4747:4763   */\n      0x656e20696e697469616c697a6564000000000000000000000000000000000000\n        /* \"--CODEGEN--\":4742:4744   */\n      0x20\n        /* \"--CODEGEN--\":4737:4740   */\n      dup4\n        /* \"--CODEGEN--\":4733:4745   */\n      add\n        /* \"--CODEGEN--\":4726:4764   */\n      mstore\n        /* \"--CODEGEN--\":4792:4794   */\n      0x40\n        /* \"--CODEGEN--\":4787:4790   */\n      dup3\n        /* \"--CODEGEN--\":4783:4795   */\n      add\n        /* \"--CODEGEN--\":4776:4795   */\n      swap1\n      pop\n        /* \"--CODEGEN--\":4564:4801   */\n      swap2\n      swap1\n      pop\n      jump\t// out\n        /* \"--CODEGEN--\":4810:5120   */\n    tag_246:\n      0x00\n        /* \"--CODEGEN--\":4970:5037   */\n      tag_248\n        /* \"--CODEGEN--\":5034:5036   */\n      0x0a\n        /* \"--CODEGEN--\":5029:5032   */\n      dup4\n        /* \"--CODEGEN--\":4970:5037   */\n      tag_245\n      jump\t// in\n    tag_248:\n        /* \"--CODEGEN--\":4963:5037   */\n      swap2\n      pop\n        /* \"--CODEGEN--\":5070:5082   */\n      0x6f6e6c79206f776e657200000000000000000000000000000000000000000000\n        /* \"--CODEGEN--\":5066:5067   */\n      0x00\n        /* \"--CODEGEN--\":5061:5064   */\n      dup4\n        /* \"--CODEGEN--\":5057:5068   */\n      add\n        /* \"--CODEGEN--\":5050:5083   */\n      mstore\n        /* \"--CODEGEN--\":5111:5113   */\n      0x20\n        /* \"--CODEGEN--\":5106:5109   */\n      dup3\n        /* \"--CODEGEN--\":5102:5114   */\n      add\n        /* \"--CODEGEN--\":5095:5114   */\n      swap1\n      pop\n        /* \"--CODEGEN--\":4956:5120   */\n      swap2\n      swap1\n      pop\n      jump\t// out\n        /* \"--CODEGEN--\":5175:6170   */\n    tag_249:\n        /* \"--CODEGEN--\":5316:5320   */\n      0xa0\n        /* \"--CODEGEN--\":5311:5314   */\n      dup3\n        /* \"--CODEGEN--\":5307:5321   */\n      add\n        /* \"--CODEGEN--\":5407:5411   */\n      0x00\n        /* \"--CODEGEN--\":5400:5405   */\n      dup3\n        /* \"--CODEGEN--\":5396:5412   */\n      add\n        /* \"--CODEGEN--\":5390:5413   */\n      mload\n        /* \"--CODEGEN--\":5419:5482   */\n      tag_251\n        /* \"--CODEGEN--\":5476:5480   */\n      0x00\n        /* \"--CODEGEN--\":5471:5474   */\n      dup6\n        /* \"--CODEGEN--\":5467:5481   */\n      add\n        /* \"--CODEGEN--\":5453:5465   */\n      dup3\n        /* \"--CODEGEN--\":5419:5482   */\n      tag_252\n      jump\t// in\n    tag_251:\n        /* \"--CODEGEN--\":5336:5488   */\n      pop\n        /* \"--CODEGEN--\":5572:5576   */\n      0x20\n        /* \"--CODEGEN--\":5565:5570   */\n      dup3\n        /* \"--CODEGEN--\":5561:5577   */\n      add\n        /* \"--CODEGEN--\":5555:5578   */\n      mload\n        /* \"--CODEGEN--\":5584:5647   */\n      tag_253\n        /* \"--CODEGEN--\":5641:5645   */\n      0x20\n        /* \"--CODEGEN--\":5636:5639   */\n      dup6\n        /* \"--CODEGEN--\":5632:5646   */\n      add\n        /* \"--CODEGEN--\":5618:5630   */\n      dup3\n        /* \"--CODEGEN--\":5584:5647   */\n      tag_252\n      jump\t// in\n    tag_253:\n        /* \"--CODEGEN--\":5498:5653   */\n      pop\n        /* \"--CODEGEN--\":5738:5742   */\n      0x40\n        /* \"--CODEGEN--\":5731:5736   */\n      dup3\n        /* \"--CODEGEN--\":5727:5743   */\n      add\n        /* \"--CODEGEN--\":5721:5744   */\n      mload\n        /* \"--CODEGEN--\":5750:5813   */\n      tag_254\n        /* \"--CODEGEN--\":5807:5811   */\n      0x40\n        /* \"--CODEGEN--\":5802:5805   */\n      dup6\n        /* \"--CODEGEN--\":5798:5812   */\n      add\n        /* \"--CODEGEN--\":5784:5796   */\n      dup3\n        /* \"--CODEGEN--\":5750:5813   */\n      tag_252\n      jump\t// in\n    tag_254:\n        /* \"--CODEGEN--\":5663:5819   */\n      pop\n        /* \"--CODEGEN--\":5910:5914   */\n      0x60\n        /* \"--CODEGEN--\":5903:5908   */\n      dup3\n        /* \"--CODEGEN--\":5899:5915   */\n      add\n        /* \"--CODEGEN--\":5893:5916   */\n      mload\n        /* \"--CODEGEN--\":5922:5985   */\n      tag_255\n        /* \"--CODEGEN--\":5979:5983   */\n      0x60\n        /* \"--CODEGEN--\":5974:5977   */\n      dup6\n        /* \"--CODEGEN--\":5970:5984   */\n      add\n        /* \"--CODEGEN--\":5956:5968   */\n      dup3\n        /* \"--CODEGEN--\":5922:5985   */\n      tag_252\n      jump\t// in\n    tag_255:\n        /* \"--CODEGEN--\":5829:5991   */\n      pop\n        /* \"--CODEGEN--\":6074:6078   */\n      0x80\n        /* \"--CODEGEN--\":6067:6072   */\n      dup3\n        /* \"--CODEGEN--\":6063:6079   */\n      add\n        /* \"--CODEGEN--\":6057:6080   */\n      mload\n        /* \"--CODEGEN--\":6086:6149   */\n      tag_256\n        /* \"--CODEGEN--\":6143:6147   */\n      0x80\n        /* \"--CODEGEN--\":6138:6141   */\n      dup6\n        /* \"--CODEGEN--\":6134:6148   */\n      add\n        /* \"--CODEGEN--\":6120:6132   */\n      dup3\n        /* \"--CODEGEN--\":6086:6149   */\n      tag_252\n      jump\t// in\n    tag_256:\n        /* \"--CODEGEN--\":6001:6155   */\n      pop\n        /* \"--CODEGEN--\":5289:6170   */\n      pop\n      pop\n      pop\n      jump\t// out\n        /* \"--CODEGEN--\":6177:6280   */\n    tag_252:\n        /* \"--CODEGEN--\":6250:6274   */\n      tag_258\n        /* \"--CODEGEN--\":6268:6273   */\n      dup2\n        /* \"--CODEGEN--\":6250:6274   */\n      tag_259\n      jump\t// in\n    tag_258:\n        /* \"--CODEGEN--\":6245:6248   */\n      dup3\n        /* \"--CODEGEN--\":6238:6275   */\n      mstore\n        /* \"--CODEGEN--\":6232:6280   */\n      pop\n      pop\n      jump\t// out\n        /* \"--CODEGEN--\":6287:6400   */\n    tag_260:\n        /* \"--CODEGEN--\":6370:6394   */\n      tag_262\n        /* \"--CODEGEN--\":6388:6393   */\n      dup2\n        /* \"--CODEGEN--\":6370:6394   */\n      tag_259\n      jump\t// in\n    tag_262:\n        /* \"--CODEGEN--\":6365:6368   */\n      dup3\n        /* \"--CODEGEN--\":6358:6395   */\n      mstore\n        /* \"--CODEGEN--\":6352:6400   */\n      pop\n      pop\n      jump\t// out\n        /* \"--CODEGEN--\":6407:6629   */\n    tag_99:\n      0x00\n        /* \"--CODEGEN--\":6534:6536   */\n      0x20\n        /* \"--CODEGEN--\":6523:6532   */\n      dup3\n        /* \"--CODEGEN--\":6519:6537   */\n      add\n        /* \"--CODEGEN--\":6511:6537   */\n      swap1\n      pop\n        /* \"--CODEGEN--\":6548:6619   */\n      tag_264\n        /* \"--CODEGEN--\":6616:6617   */\n      0x00\n        /* \"--CODEGEN--\":6605:6614   */\n      dup4\n        /* \"--CODEGEN--\":6601:6618   */\n      add\n        /* \"--CODEGEN--\":6592:6598   */\n      dup5\n        /* \"--CODEGEN--\":6548:6619   */\n      tag_222\n      jump\t// in\n    tag_264:\n        /* \"--CODEGEN--\":6505:6629   */\n      swap3\n      swap2\n      pop\n      pop\n      jump\t// out\n        /* \"--CODEGEN--\":6636:6874   */\n    tag_146:\n      0x00\n        /* \"--CODEGEN--\":6771:6773   */\n      0x20\n        /* \"--CODEGEN--\":6760:6769   */\n      dup3\n        /* \"--CODEGEN--\":6756:6774   */\n      add\n        /* \"--CODEGEN--\":6748:6774   */\n      swap1\n      pop\n        /* \"--CODEGEN--\":6785:6864   */\n      tag_266\n        /* \"--CODEGEN--\":6861:6862   */\n      0x00\n        /* \"--CODEGEN--\":6850:6859   */\n      dup4\n        /* \"--CODEGEN--\":6846:6863   */\n      add\n        /* \"--CODEGEN--\":6837:6843   */\n      dup5\n        /* \"--CODEGEN--\":6785:6864   */\n      tag_218\n      jump\t// in\n    tag_266:\n        /* \"--CODEGEN--\":6742:6874   */\n      swap3\n      swap2\n      pop\n      pop\n      jump\t// out\n        /* \"--CODEGEN--\":6881:7341   */\n    tag_124:\n      0x00\n        /* \"--CODEGEN--\":7072:7074   */\n      0x60\n        /* \"--CODEGEN--\":7061:7070   */\n      dup3\n        /* \"--CODEGEN--\":7057:7075   */\n      add\n        /* \"--CODEGEN--\":7049:7075   */\n      swap1\n      pop\n        /* \"--CODEGEN--\":7086:7165   */\n      tag_268\n        /* \"--CODEGEN--\":7162:7163   */\n      0x00\n        /* \"--CODEGEN--\":7151:7160   */\n      dup4\n        /* \"--CODEGEN--\":7147:7164   */\n      add\n        /* \"--CODEGEN--\":7138:7144   */\n      dup7\n        /* \"--CODEGEN--\":7086:7165   */\n      tag_218\n      jump\t// in\n    tag_268:\n        /* \"--CODEGEN--\":7176:7248   */\n      tag_269\n        /* \"--CODEGEN--\":7244:7246   */\n      0x20\n        /* \"--CODEGEN--\":7233:7242   */\n      dup4\n        /* \"--CODEGEN--\":7229:7247   */\n      add\n        /* \"--CODEGEN--\":7220:7226   */\n      dup6\n        /* \"--CODEGEN--\":7176:7248   */\n      tag_222\n      jump\t// in\n    tag_269:\n        /* \"--CODEGEN--\":7259:7331   */\n      tag_270\n        /* \"--CODEGEN--\":7327:7329   */\n      0x40\n        /* \"--CODEGEN--\":7316:7325   */\n      dup4\n        /* \"--CODEGEN--\":7312:7330   */\n      add\n        /* \"--CODEGEN--\":7303:7309   */\n      dup5\n        /* \"--CODEGEN--\":7259:7331   */\n      tag_260\n      jump\t// in\n    tag_270:\n        /* \"--CODEGEN--\":7043:7341   */\n      swap5\n      swap4\n      pop\n      pop\n      pop\n      pop\n      jump\t// out\n        /* \"--CODEGEN--\":7348:7868   */\n    tag_133:\n      0x00\n        /* \"--CODEGEN--\":7569:7571   */\n      0x60\n        /* \"--CODEGEN--\":7558:7567   */\n      dup3\n        /* \"--CODEGEN--\":7554:7572   */\n      add\n        /* \"--CODEGEN--\":7546:7572   */\n      swap1\n      pop\n        /* \"--CODEGEN--\":7583:7654   */\n      tag_272\n        /* \"--CODEGEN--\":7651:7652   */\n      0x00\n        /* \"--CODEGEN--\":7640:7649   */\n      dup4\n        /* \"--CODEGEN--\":7636:7653   */\n      add\n        /* \"--CODEGEN--\":7627:7633   */\n      dup7\n        /* \"--CODEGEN--\":7583:7654   */\n      tag_222\n      jump\t// in\n    tag_272:\n        /* \"--CODEGEN--\":7665:7745   */\n      tag_273\n        /* \"--CODEGEN--\":7741:7743   */\n      0x20\n        /* \"--CODEGEN--\":7730:7739   */\n      dup4\n        /* \"--CODEGEN--\":7726:7744   */\n      add\n        /* \"--CODEGEN--\":7717:7723   */\n      dup6\n        /* \"--CODEGEN--\":7665:7745   */\n      tag_218\n      jump\t// in\n    tag_273:\n        /* \"--CODEGEN--\":7756:7858   */\n      tag_274\n        /* \"--CODEGEN--\":7854:7856   */\n      0x40\n        /* \"--CODEGEN--\":7843:7852   */\n      dup4\n        /* \"--CODEGEN--\":7839:7857   */\n      add\n        /* \"--CODEGEN--\":7830:7836   */\n      dup5\n        /* \"--CODEGEN--\":7756:7858   */\n      tag_234\n      jump\t// in\n    tag_274:\n        /* \"--CODEGEN--\":7540:7868   */\n      swap5\n      swap4\n      pop\n      pop\n      pop\n      pop\n      jump\t// out\n        /* \"--CODEGEN--\":7875:8395   */\n    tag_140:\n      0x00\n        /* \"--CODEGEN--\":8096:8098   */\n      0x60\n        /* \"--CODEGEN--\":8085:8094   */\n      dup3\n        /* \"--CODEGEN--\":8081:8099   */\n      add\n        /* \"--CODEGEN--\":8073:8099   */\n      swap1\n      pop\n        /* \"--CODEGEN--\":8110:8181   */\n      tag_276\n        /* \"--CODEGEN--\":8178:8179   */\n      0x00\n        /* \"--CODEGEN--\":8167:8176   */\n      dup4\n        /* \"--CODEGEN--\":8163:8180   */\n      add\n        /* \"--CODEGEN--\":8154:8160   */\n      dup7\n        /* \"--CODEGEN--\":8110:8181   */\n      tag_222\n      jump\t// in\n    tag_276:\n        /* \"--CODEGEN--\":8192:8272   */\n      tag_277\n        /* \"--CODEGEN--\":8268:8270   */\n      0x20\n        /* \"--CODEGEN--\":8257:8266   */\n      dup4\n        /* \"--CODEGEN--\":8253:8271   */\n      add\n        /* \"--CODEGEN--\":8244:8250   */\n      dup6\n        /* \"--CODEGEN--\":8192:8272   */\n      tag_218\n      jump\t// in\n    tag_277:\n        /* \"--CODEGEN--\":8283:8385   */\n      tag_278\n        /* \"--CODEGEN--\":8381:8383   */\n      0x40\n        /* \"--CODEGEN--\":8370:8379   */\n      dup4\n        /* \"--CODEGEN--\":8366:8384   */\n      add\n        /* \"--CODEGEN--\":8357:8363   */\n      dup5\n        /* \"--CODEGEN--\":8283:8385   */\n      tag_238\n      jump\t// in\n    tag_278:\n        /* \"--CODEGEN--\":8067:8395   */\n      swap5\n      swap4\n      pop\n      pop\n      pop\n      pop\n      jump\t// out\n        /* \"--CODEGEN--\":8402:8862   */\n    tag_78:\n      0x00\n        /* \"--CODEGEN--\":8593:8595   */\n      0x60\n        /* \"--CODEGEN--\":8582:8591   */\n      dup3\n        /* \"--CODEGEN--\":8578:8596   */\n      add\n        /* \"--CODEGEN--\":8570:8596   */\n      swap1\n      pop\n        /* \"--CODEGEN--\":8607:8678   */\n      tag_280\n        /* \"--CODEGEN--\":8675:8676   */\n      0x00\n        /* \"--CODEGEN--\":8664:8673   */\n      dup4\n        /* \"--CODEGEN--\":8660:8677   */\n      add\n        /* \"--CODEGEN--\":8651:8657   */\n      dup7\n        /* \"--CODEGEN--\":8607:8678   */\n      tag_222\n      jump\t// in\n    tag_280:\n        /* \"--CODEGEN--\":8689:8769   */\n      tag_281\n        /* \"--CODEGEN--\":8765:8767   */\n      0x20\n        /* \"--CODEGEN--\":8754:8763   */\n      dup4\n        /* \"--CODEGEN--\":8750:8768   */\n      add\n        /* \"--CODEGEN--\":8741:8747   */\n      dup6\n        /* \"--CODEGEN--\":8689:8769   */\n      tag_218\n      jump\t// in\n    tag_281:\n        /* \"--CODEGEN--\":8780:8852   */\n      tag_282\n        /* \"--CODEGEN--\":8848:8850   */\n      0x40\n        /* \"--CODEGEN--\":8837:8846   */\n      dup4\n        /* \"--CODEGEN--\":8833:8851   */\n      add\n        /* \"--CODEGEN--\":8824:8830   */\n      dup5\n        /* \"--CODEGEN--\":8780:8852   */\n      tag_260\n      jump\t// in\n    tag_282:\n        /* \"--CODEGEN--\":8564:8862   */\n      swap5\n      swap4\n      pop\n      pop\n      pop\n      pop\n      jump\t// out\n        /* \"--CODEGEN--\":8869:9121   */\n    tag_27:\n      0x00\n        /* \"--CODEGEN--\":9011:9013   */\n      0x20\n        /* \"--CODEGEN--\":9000:9009   */\n      dup3\n        /* \"--CODEGEN--\":8996:9014   */\n      add\n        /* \"--CODEGEN--\":8988:9014   */\n      swap1\n      pop\n        /* \"--CODEGEN--\":9025:9111   */\n      tag_284\n        /* \"--CODEGEN--\":9108:9109   */\n      0x00\n        /* \"--CODEGEN--\":9097:9106   */\n      dup4\n        /* \"--CODEGEN--\":9093:9110   */\n      add\n        /* \"--CODEGEN--\":9084:9090   */\n      dup5\n        /* \"--CODEGEN--\":9025:9111   */\n      tag_226\n      jump\t// in\n    tag_284:\n        /* \"--CODEGEN--\":8982:9121   */\n      swap3\n      swap2\n      pop\n      pop\n      jump\t// out\n        /* \"--CODEGEN--\":9128:9378   */\n    tag_19:\n      0x00\n        /* \"--CODEGEN--\":9269:9271   */\n      0x20\n        /* \"--CODEGEN--\":9258:9267   */\n      dup3\n        /* \"--CODEGEN--\":9254:9272   */\n      add\n        /* \"--CODEGEN--\":9246:9272   */\n      swap1\n      pop\n        /* \"--CODEGEN--\":9283:9368   */\n      tag_286\n        /* \"--CODEGEN--\":9365:9366   */\n      0x00\n        /* \"--CODEGEN--\":9354:9363   */\n      dup4\n        /* \"--CODEGEN--\":9350:9367   */\n      add\n        /* \"--CODEGEN--\":9341:9347   */\n      dup5\n        /* \"--CODEGEN--\":9283:9368   */\n      tag_230\n      jump\t// in\n    tag_286:\n        /* \"--CODEGEN--\":9240:9378   */\n      swap3\n      swap2\n      pop\n      pop\n      jump\t// out\n        /* \"--CODEGEN--\":9385:9801   */\n    tag_118:\n      0x00\n        /* \"--CODEGEN--\":9585:9587   */\n      0x20\n        /* \"--CODEGEN--\":9574:9583   */\n      dup3\n        /* \"--CODEGEN--\":9570:9588   */\n      add\n        /* \"--CODEGEN--\":9562:9588   */\n      swap1\n      pop\n        /* \"--CODEGEN--\":9635:9644   */\n      dup2\n        /* \"--CODEGEN--\":9629:9633   */\n      dup2\n        /* \"--CODEGEN--\":9625:9645   */\n      sub\n        /* \"--CODEGEN--\":9621:9622   */\n      0x00\n        /* \"--CODEGEN--\":9610:9619   */\n      dup4\n        /* \"--CODEGEN--\":9606:9623   */\n      add\n        /* \"--CODEGEN--\":9599:9646   */\n      mstore\n        /* \"--CODEGEN--\":9660:9791   */\n      tag_288\n        /* \"--CODEGEN--\":9786:9790   */\n      dup2\n        /* \"--CODEGEN--\":9660:9791   */\n      tag_242\n      jump\t// in\n    tag_288:\n        /* \"--CODEGEN--\":9652:9791   */\n      swap1\n      pop\n        /* \"--CODEGEN--\":9556:9801   */\n      swap2\n      swap1\n      pop\n      jump\t// out\n        /* \"--CODEGEN--\":9808:10224   */\n    tag_63:\n      0x00\n        /* \"--CODEGEN--\":10008:10010   */\n      0x20\n        /* \"--CODEGEN--\":9997:10006   */\n      dup3\n        /* \"--CODEGEN--\":9993:10011   */\n      add\n        /* \"--CODEGEN--\":9985:10011   */\n      swap1\n      pop\n        /* \"--CODEGEN--\":10058:10067   */\n      dup2\n        /* \"--CODEGEN--\":10052:10056   */\n      dup2\n        /* \"--CODEGEN--\":10048:10068   */\n      sub\n        /* \"--CODEGEN--\":10044:10045   */\n      0x00\n        /* \"--CODEGEN--\":10033:10042   */\n      dup4\n        /* \"--CODEGEN--\":10029:10046   */\n      add\n        /* \"--CODEGEN--\":10022:10069   */\n      mstore\n        /* \"--CODEGEN--\":10083:10214   */\n      tag_290\n        /* \"--CODEGEN--\":10209:10213   */\n      dup2\n        /* \"--CODEGEN--\":10083:10214   */\n      tag_246\n      jump\t// in\n    tag_290:\n        /* \"--CODEGEN--\":10075:10214   */\n      swap1\n      pop\n        /* \"--CODEGEN--\":9979:10224   */\n      swap2\n      swap1\n      pop\n      jump\t// out\n        /* \"--CODEGEN--\":10231:10550   */\n    tag_44:\n      0x00\n        /* \"--CODEGEN--\":10406:10409   */\n      0xa0\n        /* \"--CODEGEN--\":10395:10404   */\n      dup3\n        /* \"--CODEGEN--\":10391:10410   */\n      add\n        /* \"--CODEGEN--\":10383:10410   */\n      swap1\n      pop\n        /* \"--CODEGEN--\":10421:10540   */\n      tag_292\n        /* \"--CODEGEN--\":10537:10538   */\n      0x00\n        /* \"--CODEGEN--\":10526:10535   */\n      dup4\n        /* \"--CODEGEN--\":10522:10539   */\n      add\n        /* \"--CODEGEN--\":10513:10519   */\n      dup5\n        /* \"--CODEGEN--\":10421:10540   */\n      tag_249\n      jump\t// in\n    tag_292:\n        /* \"--CODEGEN--\":10377:10550   */\n      swap3\n      swap2\n      pop\n      pop\n      jump\t// out\n        /* \"--CODEGEN--\":10557:10779   */\n    tag_85:\n      0x00\n        /* \"--CODEGEN--\":10684:10686   */\n      0x20\n        /* \"--CODEGEN--\":10673:10682   */\n      dup3\n        /* \"--CODEGEN--\":10669:10687   */\n      add\n        /* \"--CODEGEN--\":10661:10687   */\n      swap1\n      pop\n        /* \"--CODEGEN--\":10698:10769   */\n      tag_294\n        /* \"--CODEGEN--\":10766:10767   */\n      0x00\n        /* \"--CODEGEN--\":10755:10764   */\n      dup4\n        /* \"--CODEGEN--\":10751:10768   */\n      add\n        /* \"--CODEGEN--\":10742:10748   */\n      dup5\n        /* \"--CODEGEN--\":10698:10769   */\n      tag_260\n      jump\t// in\n    tag_294:\n        /* \"--CODEGEN--\":10655:10779   */\n      swap3\n      swap2\n      pop\n      pop\n      jump\t// out\n        /* \"--CODEGEN--\":10786:11454   */\n    tag_56:\n      0x00\n        /* \"--CODEGEN--\":11025:11028   */\n      0xa0\n        /* \"--CODEGEN--\":11014:11023   */\n      dup3\n        /* \"--CODEGEN--\":11010:11029   */\n      add\n        /* \"--CODEGEN--\":11002:11029   */\n      swap1\n      pop\n        /* \"--CODEGEN--\":11040:11111   */\n      tag_296\n        /* \"--CODEGEN--\":11108:11109   */\n      0x00\n        /* \"--CODEGEN--\":11097:11106   */\n      dup4\n        /* \"--CODEGEN--\":11093:11110   */\n      add\n        /* \"--CODEGEN--\":11084:11090   */\n      dup9\n        /* \"--CODEGEN--\":11040:11111   */\n      tag_260\n      jump\t// in\n    tag_296:\n        /* \"--CODEGEN--\":11122:11194   */\n      tag_297\n        /* \"--CODEGEN--\":11190:11192   */\n      0x20\n        /* \"--CODEGEN--\":11179:11188   */\n      dup4\n        /* \"--CODEGEN--\":11175:11193   */\n      add\n        /* \"--CODEGEN--\":11166:11172   */\n      dup8\n        /* \"--CODEGEN--\":11122:11194   */\n      tag_260\n      jump\t// in\n    tag_297:\n        /* \"--CODEGEN--\":11205:11277   */\n      tag_298\n        /* \"--CODEGEN--\":11273:11275   */\n      0x40\n        /* \"--CODEGEN--\":11262:11271   */\n      dup4\n        /* \"--CODEGEN--\":11258:11276   */\n      add\n        /* \"--CODEGEN--\":11249:11255   */\n      dup7\n        /* \"--CODEGEN--\":11205:11277   */\n      tag_260\n      jump\t// in\n    tag_298:\n        /* \"--CODEGEN--\":11288:11360   */\n      tag_299\n        /* \"--CODEGEN--\":11356:11358   */\n      0x60\n        /* \"--CODEGEN--\":11345:11354   */\n      dup4\n        /* \"--CODEGEN--\":11341:11359   */\n      add\n        /* \"--CODEGEN--\":11332:11338   */\n      dup6\n        /* \"--CODEGEN--\":11288:11360   */\n      tag_260\n      jump\t// in\n    tag_299:\n        /* \"--CODEGEN--\":11371:11444   */\n      tag_300\n        /* \"--CODEGEN--\":11439:11442   */\n      0x80\n        /* \"--CODEGEN--\":11428:11437   */\n      dup4\n        /* \"--CODEGEN--\":11424:11443   */\n      add\n        /* \"--CODEGEN--\":11415:11421   */\n      dup5\n        /* \"--CODEGEN--\":11371:11444   */\n      tag_260\n      jump\t// in\n    tag_300:\n        /* \"--CODEGEN--\":10996:11454   */\n      swap7\n      swap6\n      pop\n      pop\n      pop\n      pop\n      pop\n      pop\n      jump\t// out\n        /* \"--CODEGEN--\":11462:11625   */\n    tag_245:\n      0x00\n        /* \"--CODEGEN--\":11577:11583   */\n      dup3\n        /* \"--CODEGEN--\":11572:11575   */\n      dup3\n        /* \"--CODEGEN--\":11565:11584   */\n      mstore\n        /* \"--CODEGEN--\":11614:11618   */\n      0x20\n        /* \"--CODEGEN--\":11609:11612   */\n      dup3\n        /* \"--CODEGEN--\":11605:11619   */\n      add\n        /* \"--CODEGEN--\":11590:11619   */\n      swap1\n      pop\n        /* \"--CODEGEN--\":11558:11625   */\n      swap3\n      swap2\n      pop\n      pop\n      jump\t// out\n        /* \"--CODEGEN--\":11633:11724   */\n    tag_225:\n      0x00\n        /* \"--CODEGEN--\":11695:11719   */\n      tag_303\n        /* \"--CODEGEN--\":11713:11718   */\n      dup3\n        /* \"--CODEGEN--\":11695:11719   */\n      tag_304\n      jump\t// in\n    tag_303:\n        /* \"--CODEGEN--\":11684:11719   */\n      swap1\n      pop\n        /* \"--CODEGEN--\":11678:11724   */\n      swap2\n      swap1\n      pop\n      jump\t// out\n        /* \"--CODEGEN--\":11731:11816   */\n    tag_305:\n      0x00\n        /* \"--CODEGEN--\":11804:11809   */\n      dup2\n        /* \"--CODEGEN--\":11797:11810   */\n      iszero\n        /* \"--CODEGEN--\":11790:11811   */\n      iszero\n        /* \"--CODEGEN--\":11779:11811   */\n      swap1\n      pop\n        /* \"--CODEGEN--\":11773:11816   */\n      swap2\n      swap1\n      pop\n      jump\t// out\n        /* \"--CODEGEN--\":11823:11929   */\n    tag_307:\n      0x00\n        /* \"--CODEGEN--\":11900:11924   */\n      tag_309\n        /* \"--CODEGEN--\":11918:11923   */\n      dup3\n        /* \"--CODEGEN--\":11900:11924   */\n      tag_225\n      jump\t// in\n    tag_309:\n        /* \"--CODEGEN--\":11889:11924   */\n      swap1\n      pop\n        /* \"--CODEGEN--\":11883:11929   */\n      swap2\n      swap1\n      pop\n      jump\t// out\n        /* \"--CODEGEN--\":11936:12041   */\n    tag_310:\n      0x00\n        /* \"--CODEGEN--\":12012:12036   */\n      tag_312\n        /* \"--CODEGEN--\":12030:12035   */\n      dup3\n        /* \"--CODEGEN--\":12012:12036   */\n      tag_225\n      jump\t// in\n    tag_312:\n        /* \"--CODEGEN--\":12001:12036   */\n      swap1\n      pop\n        /* \"--CODEGEN--\":11995:12041   */\n      swap2\n      swap1\n      pop\n      jump\t// out\n        /* \"--CODEGEN--\":12048:12169   */\n    tag_304:\n      0x00\n        /* \"--CODEGEN--\":12121:12163   */\n      0xffffffffffffffffffffffffffffffffffffffff\n        /* \"--CODEGEN--\":12114:12119   */\n      dup3\n        /* \"--CODEGEN--\":12110:12164   */\n      and\n        /* \"--CODEGEN--\":12099:12164   */\n      swap1\n      pop\n        /* \"--CODEGEN--\":12093:12169   */\n      swap2\n      swap1\n      pop\n      jump\t// out\n        /* \"--CODEGEN--\":12176:12248   */\n    tag_259:\n      0x00\n        /* \"--CODEGEN--\":12238:12243   */\n      dup2\n        /* \"--CODEGEN--\":12227:12243   */\n      swap1\n      pop\n        /* \"--CODEGEN--\":12221:12248   */\n      swap2\n      swap1\n      pop\n      jump\t// out\n        /* \"--CODEGEN--\":12255:12384   */\n    tag_221:\n      0x00\n        /* \"--CODEGEN--\":12342:12379   */\n      tag_316\n        /* \"--CODEGEN--\":12373:12378   */\n      dup3\n        /* \"--CODEGEN--\":12342:12379   */\n      tag_317\n      jump\t// in\n    tag_316:\n        /* \"--CODEGEN--\":12329:12379   */\n      swap1\n      pop\n        /* \"--CODEGEN--\":12323:12384   */\n      swap2\n      swap1\n      pop\n      jump\t// out\n        /* \"--CODEGEN--\":12391:12542   */\n    tag_229:\n      0x00\n        /* \"--CODEGEN--\":12485:12537   */\n      tag_319\n        /* \"--CODEGEN--\":12531:12536   */\n      dup3\n        /* \"--CODEGEN--\":12485:12537   */\n      tag_320\n      jump\t// in\n    tag_319:\n        /* \"--CODEGEN--\":12472:12537   */\n      swap1\n      pop\n        /* \"--CODEGEN--\":12466:12542   */\n      swap2\n      swap1\n      pop\n      jump\t// out\n        /* \"--CODEGEN--\":12549:12672   */\n    tag_320:\n      0x00\n        /* \"--CODEGEN--\":12643:12667   */\n      tag_322\n        /* \"--CODEGEN--\":12661:12666   */\n      dup3\n        /* \"--CODEGEN--\":12643:12667   */\n      tag_304\n      jump\t// in\n    tag_322:\n        /* \"--CODEGEN--\":12630:12667   */\n      swap1\n      pop\n        /* \"--CODEGEN--\":12624:12672   */\n      swap2\n      swap1\n      pop\n      jump\t// out\n        /* \"--CODEGEN--\":12679:12828   */\n    tag_233:\n      0x00\n        /* \"--CODEGEN--\":12772:12823   */\n      tag_324\n        /* \"--CODEGEN--\":12817:12822   */\n      dup3\n        /* \"--CODEGEN--\":12772:12823   */\n      tag_325\n      jump\t// in\n    tag_324:\n        /* \"--CODEGEN--\":12759:12823   */\n      swap1\n      pop\n        /* \"--CODEGEN--\":12753:12828   */\n      swap2\n      swap1\n      pop\n      jump\t// out\n        /* \"--CODEGEN--\":12835:12957   */\n    tag_325:\n      0x00\n        /* \"--CODEGEN--\":12928:12952   */\n      tag_327\n        /* \"--CODEGEN--\":12946:12951   */\n      dup3\n        /* \"--CODEGEN--\":12928:12952   */\n      tag_304\n      jump\t// in\n    tag_327:\n        /* \"--CODEGEN--\":12915:12952   */\n      swap1\n      pop\n        /* \"--CODEGEN--\":12909:12957   */\n      swap2\n      swap1\n      pop\n      jump\t// out\n        /* \"--CODEGEN--\":12964:13102   */\n    tag_237:\n      0x00\n        /* \"--CODEGEN--\":13073:13097   */\n      tag_329\n        /* \"--CODEGEN--\":13091:13096   */\n      dup3\n        /* \"--CODEGEN--\":13073:13097   */\n      tag_259\n      jump\t// in\n    tag_329:\n        /* \"--CODEGEN--\":13060:13097   */\n      swap1\n      pop\n        /* \"--CODEGEN--\":13054:13102   */\n      swap2\n      swap1\n      pop\n      jump\t// out\n        /* \"--CODEGEN--\":13109:13247   */\n    tag_241:\n      0x00\n        /* \"--CODEGEN--\":13218:13242   */\n      tag_331\n        /* \"--CODEGEN--\":13236:13241   */\n      dup3\n        /* \"--CODEGEN--\":13218:13242   */\n      tag_259\n      jump\t// in\n    tag_331:\n        /* \"--CODEGEN--\":13205:13242   */\n      swap1\n      pop\n        /* \"--CODEGEN--\":13199:13247   */\n      swap2\n      swap1\n      pop\n      jump\t// out\n        /* \"--CODEGEN--\":13254:13375   */\n    tag_317:\n      0x00\n        /* \"--CODEGEN--\":13333:13370   */\n      tag_333\n        /* \"--CODEGEN--\":13364:13369   */\n      dup3\n        /* \"--CODEGEN--\":13333:13370   */\n      tag_334\n      jump\t// in\n    tag_333:\n        /* \"--CODEGEN--\":13320:13370   */\n      swap1\n      pop\n        /* \"--CODEGEN--\":13314:13375   */\n      swap2\n      swap1\n      pop\n      jump\t// out\n        /* \"--CODEGEN--\":13382:13490   */\n    tag_334:\n      0x00\n        /* \"--CODEGEN--\":13461:13485   */\n      tag_336\n        /* \"--CODEGEN--\":13479:13484   */\n      dup3\n        /* \"--CODEGEN--\":13461:13485   */\n      tag_304\n      jump\t// in\n    tag_336:\n        /* \"--CODEGEN--\":13448:13485   */\n      swap1\n      pop\n        /* \"--CODEGEN--\":13442:13490   */\n      swap2\n      swap1\n      pop\n      jump\t// out\n        /* \"--CODEGEN--\":13497:13614   */\n    tag_169:\n        /* \"--CODEGEN--\":13566:13590   */\n      tag_338\n        /* \"--CODEGEN--\":13584:13589   */\n      dup2\n        /* \"--CODEGEN--\":13566:13590   */\n      tag_225\n      jump\t// in\n    tag_338:\n        /* \"--CODEGEN--\":13559:13564   */\n      dup2\n        /* \"--CODEGEN--\":13556:13591   */\n      eq\n        /* \"--CODEGEN--\":13546:13548   */\n      tag_339\n      jumpi\n        /* \"--CODEGEN--\":13605:13606   */\n      0x00\n        /* \"--CODEGEN--\":13602:13603   */\n      dup1\n        /* \"--CODEGEN--\":13595:13607   */\n      revert\n        /* \"--CODEGEN--\":13546:13548   */\n    tag_339:\n        /* \"--CODEGEN--\":13540:13614   */\n      pop\n      jump\t// out\n        /* \"--CODEGEN--\":13621:13732   */\n    tag_176:\n        /* \"--CODEGEN--\":13687:13708   */\n      tag_341\n        /* \"--CODEGEN--\":13702:13707   */\n      dup2\n        /* \"--CODEGEN--\":13687:13708   */\n      tag_305\n      jump\t// in\n    tag_341:\n        /* \"--CODEGEN--\":13680:13685   */\n      dup2\n        /* \"--CODEGEN--\":13677:13709   */\n      eq\n        /* \"--CODEGEN--\":13667:13669   */\n      tag_342\n      jumpi\n        /* \"--CODEGEN--\":13723:13724   */\n      0x00\n        /* \"--CODEGEN--\":13720:13721   */\n      dup1\n        /* \"--CODEGEN--\":13713:13725   */\n      revert\n        /* \"--CODEGEN--\":13667:13669   */\n    tag_342:\n        /* \"--CODEGEN--\":13661:13732   */\n      pop\n      jump\t// out\n        /* \"--CODEGEN--\":13739:13886   */\n    tag_180:\n        /* \"--CODEGEN--\":13823:13862   */\n      tag_344\n        /* \"--CODEGEN--\":13856:13861   */\n      dup2\n        /* \"--CODEGEN--\":13823:13862   */\n      tag_307\n      jump\t// in\n    tag_344:\n        /* \"--CODEGEN--\":13816:13821   */\n      dup2\n        /* \"--CODEGEN--\":13813:13863   */\n      eq\n        /* \"--CODEGEN--\":13803:13805   */\n      tag_345\n      jumpi\n        /* \"--CODEGEN--\":13877:13878   */\n      0x00\n        /* \"--CODEGEN--\":13874:13875   */\n      dup1\n        /* \"--CODEGEN--\":13867:13879   */\n      revert\n        /* \"--CODEGEN--\":13803:13805   */\n    tag_345:\n        /* \"--CODEGEN--\":13797:13886   */\n      pop\n      jump\t// out\n        /* \"--CODEGEN--\":13893:14038   */\n    tag_184:\n        /* \"--CODEGEN--\":13976:14014   */\n      tag_347\n        /* \"--CODEGEN--\":14008:14013   */\n      dup2\n        /* \"--CODEGEN--\":13976:14014   */\n      tag_310\n      jump\t// in\n    tag_347:\n        /* \"--CODEGEN--\":13969:13974   */\n      dup2\n        /* \"--CODEGEN--\":13966:14015   */\n      eq\n        /* \"--CODEGEN--\":13956:13958   */\n      tag_348\n      jumpi\n        /* \"--CODEGEN--\":14029:14030   */\n      0x00\n        /* \"--CODEGEN--\":14026:14027   */\n      dup1\n        /* \"--CODEGEN--\":14019:14031   */\n      revert\n        /* \"--CODEGEN--\":13956:13958   */\n    tag_348:\n        /* \"--CODEGEN--\":13950:14038   */\n      pop\n      jump\t// out\n        /* \"--CODEGEN--\":14045:14162   */\n    tag_188:\n        /* \"--CODEGEN--\":14114:14138   */\n      tag_350\n        /* \"--CODEGEN--\":14132:14137   */\n      dup2\n        /* \"--CODEGEN--\":14114:14138   */\n      tag_259\n      jump\t// in\n    tag_350:\n        /* \"--CODEGEN--\":14107:14112   */\n      dup2\n        /* \"--CODEGEN--\":14104:14139   */\n      eq\n        /* \"--CODEGEN--\":14094:14096   */\n      tag_351\n      jumpi\n        /* \"--CODEGEN--\":14153:14154   */\n      0x00\n        /* \"--CODEGEN--\":14150:14151   */\n      dup1\n        /* \"--CODEGEN--\":14143:14155   */\n      revert\n        /* \"--CODEGEN--\":14094:14096   */\n    tag_351:\n        /* \"--CODEGEN--\":14088:14162   */\n      pop\n      jump\t// out\n\n    auxdata: 0xa26469706673582212207e67cb6ff1c667c4ad6af70a817d22ef44e497b4abb45186f8e593531613cd9064736f6c634300060c0033\n}\n",
				"bytecode": {
					"linkReferences": {},
					"object": "608060405234801561001057600080fd5b50611d40806100206000396000f3fe608060405234801561001057600080fd5b50600436106100b45760003560e01c806388bb111d1161007157806388bb111d146101535780638dd812101461015d578063a13339171461018d578063c0c53b8b146101a9578063e20ccec3146101c5578063f1765de7146101e7576100b4565b80632f48ab7d146100b95780634f38c5f5146100d75780636440c6d8146100f357806369a01fc8146101115780636ce413541461012d578063800851d614610149575b600080fd5b6100c1610203565b6040516100ce9190611a94565b60405180910390f35b6100f160048036038101906100ec91906116ee565b610229565b005b6100fb6102fd565b6040516101089190611a79565b60405180910390f35b61012b60048036038101906101269190611673565b610323565b005b6101476004803603810190610142919061178f565b6103f7565b005b610151610491565b005b61015b6106c7565b005b61017760048036038101906101729190611673565b6108b7565b6040516101849190611aef565b60405180910390f35b6101a760048036038101906101a29190611766565b610b99565b005b6101c360048036038101906101be9190611717565b610c6d565b005b6101cd610e64565b6040516101de959493929190611b25565b60405180910390f35b61020160048036038101906101fc919061178f565b610e88565b005b603b60009054906101000a900473ffffffffffffffffffffffffffffffffffffffff1681565b3373ffffffffffffffffffffffffffffffffffffffff16603960009054906101000a900473ffffffffffffffffffffffffffffffffffffffff1673ffffffffffffffffffffffffffffffffffffffff16146102b9576040517f08c379a00000000000000000000000000000000000000000000000000000000081526004016102b090611acf565b60405180910390fd5b80603a60006101000a81548173ffffffffffffffffffffffffffffffffffffffff021916908373ffffffffffffffffffffffffffffffffffffffff16021790555050565b603a60009054906101000a900473ffffffffffffffffffffffffffffffffffffffff1681565b3373ffffffffffffffffffffffffffffffffffffffff16603960009054906101000a900473ffffffffffffffffffffffffffffffffffffffff1673ffffffffffffffffffffffffffffffffffffffff16146103b3576040517f08c379a00000000000000000000000000000000000000000000000000000000081526004016103aa90611acf565b60405180910390fd5b80603860006101000a81548173ffffffffffffffffffffffffffffffffffffffff021916908373ffffffffffffffffffffffffffffffffffffffff16021790555050565b3373ffffffffffffffffffffffffffffffffffffffff16603960009054906101000a900473ffffffffffffffffffffffffffffffffffffffff1673ffffffffffffffffffffffffffffffffffffffff1614610487576040517f08c379a000000000000000000000000000000000000000000000000000000000815260040161047e90611acf565b60405180910390fd5b80603c8190555050565b6000610550603d60003373ffffffffffffffffffffffffffffffffffffffff1673ffffffffffffffffffffffffffffffffffffffff168152602001908152602001600020600301546105426064610534600a603d60003373ffffffffffffffffffffffffffffffffffffffff1673ffffffffffffffffffffffffffffffffffffffff1681526020019081526020016000206002015461156c90919063ffffffff16565b61158090919063ffffffff16565b61158d90919063ffffffff16565b9050603b60009054906101000a900473ffffffffffffffffffffffffffffffffffffffff1673ffffffffffffffffffffffffffffffffffffffff166323b872dd603860009054906101000a900473ffffffffffffffffffffffffffffffffffffffff1633846040518463ffffffff1660e01b81526004016105d393929190611a42565b602060405180830381600087803b1580156105ed57600080fd5b505af1158015610601573d6000803e3d6000fd5b505050506040513d601f19601f8201168201806040525081019061062591906116c5565b5080603d60003373ffffffffffffffffffffffffffffffffffffffff1673ffffffffffffffffffffffffffffffffffffffff168152602001908152602001600020600301600082825401925050819055503373ffffffffffffffffffffffffffffffffffffffff167fe76206fc979ffeb5d608de65c588dba39db74e075591960304a761e7bc421a62826040516106bc9190611b0a565b60405180910390a250565b603a60009054906101000a900473ffffffffffffffffffffffffffffffffffffffff1673ffffffffffffffffffffffffffffffffffffffff166323b872dd603860009054906101000a900473ffffffffffffffffffffffffffffffffffffffff1633603d60003373ffffffffffffffffffffffffffffffffffffffff1673ffffffffffffffffffffffffffffffffffffffff168152602001908152602001600020600101546040518463ffffffff1660e01b815260040161078a93929190611a42565b602060405180830381600087803b1580156107a457600080fd5b505af11580156107b8573d6000803e3d6000fd5b505050506040513d601f19601f820116820180604052508101906107dc91906116c5565b506000603d60003373ffffffffffffffffffffffffffffffffffffffff1673ffffffffffffffffffffffffffffffffffffffff168152602001908152602001600020600101819055503373ffffffffffffffffffffffffffffffffffffffff167f0c167bd84f1ceaf00e4f292b98dc3f4c77caa756d292285eaec79015474c6216603d60003373ffffffffffffffffffffffffffffffffffffffff1673ffffffffffffffffffffffffffffffffffffffff168152602001908152602001600020600101546040516108ad9190611b0a565b60405180910390a2565b6108bf6115b1565b61091c670de0b6b3a7640000603d60008573ffffffffffffffffffffffffffffffffffffffff1673ffffffffffffffffffffffffffffffffffffffff1681526020019081526020016000206000015461156c90919063ffffffff16565b603360000181905550610982670de0b6b3a7640000603d60008573ffffffffffffffffffffffffffffffffffffffff1673ffffffffffffffffffffffffffffffffffffffff1681526020019081526020016000206001015461156c90919063ffffffff16565b603360010181905550603d60008373ffffffffffffffffffffffffffffffffffffffff1673ffffffffffffffffffffffffffffffffffffffff16815260200190815260200160002060020154603360030181905550603a60009054906101000a900473ffffffffffffffffffffffffffffffffffffffff1673ffffffffffffffffffffffffffffffffffffffff1663f05df5e2836040518263ffffffff1660e01b8152600401610a329190611967565b602060405180830381600087803b158015610a4c57600080fd5b505af1158015610a60573d6000803e3d6000fd5b505050506040513d601f19601f82011682018060405250810190610a8491906117b8565b603360020181905550610b4a603d60008473ffffffffffffffffffffffffffffffffffffffff1673ffffffffffffffffffffffffffffffffffffffff16815260200190815260200160002060030154610b3c6064610b2e600a603d60008973ffffffffffffffffffffffffffffffffffffffff1673ffffffffffffffffffffffffffffffffffffffff1681526020019081526020016000206002015461156c90919063ffffffff16565b61158090919063ffffffff16565b61158d90919063ffffffff16565b60336004018190555060336040518060a0016040529081600082015481526020016001820154815260200160028201548152602001600382015481526020016004820154815250509050919050565b3373ffffffffffffffffffffffffffffffffffffffff16603960009054906101000a900473ffffffffffffffffffffffffffffffffffffffff1673ffffffffffffffffffffffffffffffffffffffff1614610c29576040517f08c379a0000000000000000000000000000000000000000000000000000000008152600401610c2090611acf565b60405180910390fd5b80603b60006101000a81548173ffffffffffffffffffffffffffffffffffffffff021916908373ffffffffffffffffffffffffffffffffffffffff16021790555050565b600060019054906101000a900460ff1680610c8c5750610c8b61159a565b5b80610ca2575060008054906101000a900460ff16155b610ce1576040517f08c379a0000000000000000000000000000000000000000000000000000000008152600401610cd890611aaf565b60405180910390fd5b60008060019054906101000a900460ff161590508015610d31576001600060016101000a81548160ff02191690831515021790555060016000806101000a81548160ff0219169083151502179055505b83603a60006101000a81548173ffffffffffffffffffffffffffffffffffffffff021916908373ffffffffffffffffffffffffffffffffffffffff16021790555081603860006101000a81548173ffffffffffffffffffffffffffffffffffffffff021916908373ffffffffffffffffffffffffffffffffffffffff16021790555033603960006101000a81548173ffffffffffffffffffffffffffffffffffffffff021916908373ffffffffffffffffffffffffffffffffffffffff16021790555082603b60006101000a81548173ffffffffffffffffffffffffffffffffffffffff021916908373ffffffffffffffffffffffffffffffffffffffff1602179055506001603c819055508015610e5e5760008060016101000a81548160ff0219169083151502179055505b50505050565b60338060000154908060010154908060020154908060030154908060040154905085565b603b60009054906101000a900473ffffffffffffffffffffffffffffffffffffffff1673ffffffffffffffffffffffffffffffffffffffff166323b872dd33603860009054906101000a900473ffffffffffffffffffffffffffffffffffffffff16846040518463ffffffff1660e01b8152600401610f099392919061199d565b602060405180830381600087803b158015610f2357600080fd5b505af1158015610f37573d6000803e3d6000fd5b505050506040513d601f19601f82011682018060405250810190610f5b91906116c5565b5080603d60003373ffffffffffffffffffffffffffffffffffffffff1673ffffffffffffffffffffffffffffffffffffffff1681526020019081526020016000206000016000828254019250508190555069010f0cf064dd5920000081141561102357610fd3603c548261158090919063ffffffff16565b603d60003373ffffffffffffffffffffffffffffffffffffffff1673ffffffffffffffffffffffffffffffffffffffff168152602001908152602001600020600101600082825401925050819055505b69043c33c19375648000008114156111645780603d60003373ffffffffffffffffffffffffffffffffffffffff1673ffffffffffffffffffffffffffffffffffffffff16815260200190815260200160002060010160008282540192505081905550603a60009054906101000a900473ffffffffffffffffffffffffffffffffffffffff1673ffffffffffffffffffffffffffffffffffffffff166323b872dd603860009054906101000a900473ffffffffffffffffffffffffffffffffffffffff163369043c33c19375648000006040518463ffffffff1660e01b8152600401611110939291906119d4565b602060405180830381600087803b15801561112a57600080fd5b505af115801561113e573d6000803e3d6000fd5b505050506040513d601f19601f8201168201806040525081019061116291906116c5565b505b690a968163f0a57b4000008114156112a55780603d60003373ffffffffffffffffffffffffffffffffffffffff1673ffffffffffffffffffffffffffffffffffffffff16815260200190815260200160002060010160008282540192505081905550603a60009054906101000a900473ffffffffffffffffffffffffffffffffffffffff1673ffffffffffffffffffffffffffffffffffffffff166323b872dd603860009054906101000a900473ffffffffffffffffffffffffffffffffffffffff1633690a968163f0a57b4000006040518463ffffffff1660e01b815260040161125193929190611a0b565b602060405180830381600087803b15801561126b57600080fd5b505af115801561127f573d6000803e3d6000fd5b505050506040513d601f19601f820116820180604052508101906112a391906116c5565b505b600073ffffffffffffffffffffffffffffffffffffffff16603a60009054906101000a900473ffffffffffffffffffffffffffffffffffffffff1673ffffffffffffffffffffffffffffffffffffffff16631f5ed1b2336040518263ffffffff1660e01b81526004016113189190611982565b602060405180830381600087803b15801561133257600080fd5b505af1158015611346573d6000803e3d6000fd5b505050506040513d601f19601f8201168201806040525081019061136a919061169c565b73ffffffffffffffffffffffffffffffffffffffff16141580156113d057506000603d60003373ffffffffffffffffffffffffffffffffffffffff1673ffffffffffffffffffffffffffffffffffffffff16815260200190815260200160002060040154145b1561151b576001603d6000603a60009054906101000a900473ffffffffffffffffffffffffffffffffffffffff1673ffffffffffffffffffffffffffffffffffffffff16631f5ed1b2336040518263ffffffff1660e01b81526004016114369190611982565b602060405180830381600087803b15801561145057600080fd5b505af1158015611464573d6000803e3d6000fd5b505050506040513d601f19601f82011682018060405250810190611488919061169c565b73ffffffffffffffffffffffffffffffffffffffff1673ffffffffffffffffffffffffffffffffffffffff168152602001908152602001600020600201600082825401925050819055506001603d60003373ffffffffffffffffffffffffffffffffffffffff1673ffffffffffffffffffffffffffffffffffffffff168152602001908152602001600020600401819055505b3373ffffffffffffffffffffffffffffffffffffffff167f6c6526de39dfaacb57fa46c88b14be8505d09f56cf193b2aef29af27967615ba826040516115619190611b0a565b60405180910390a250565b600081838161157757fe5b04905092915050565b6000818302905092915050565b6000818303905092915050565b6000803090506000813b9050600081149250505090565b6040518060a0016040528060008152602001600081526020016000815260200160008152602001600081525090565b6000813590506115ef81611c97565b92915050565b60008151905061160481611c97565b92915050565b60008151905061161981611cae565b92915050565b60008135905061162e81611cc5565b92915050565b60008135905061164381611cdc565b92915050565b60008135905061165881611cf3565b92915050565b60008151905061166d81611cf3565b92915050565b60006020828403121561168557600080fd5b6000611693848285016115e0565b91505092915050565b6000602082840312156116ae57600080fd5b60006116bc848285016115f5565b91505092915050565b6000602082840312156116d757600080fd5b60006116e58482850161160a565b91505092915050565b60006020828403121561170057600080fd5b600061170e8482850161161f565b91505092915050565b60008060006060848603121561172c57600080fd5b600061173a8682870161161f565b935050602061174b86828701611634565b925050604061175c868287016115e0565b9150509250925092565b60006020828403121561177857600080fd5b600061178684828501611634565b91505092915050565b6000602082840312156117a157600080fd5b60006117af84828501611649565b91505092915050565b6000602082840312156117ca57600080fd5b60006117d88482850161165e565b91505092915050565b6117ea81611bf5565b82525050565b6117f981611b89565b82525050565b61180881611c07565b82525050565b61181781611c2b565b82525050565b61182681611c4f565b82525050565b61183581611c61565b82525050565b6000611848602e83611b78565b91507f436f6e747261637420696e7374616e63652068617320616c726561647920626560008301527f656e20696e697469616c697a65640000000000000000000000000000000000006020830152604082019050919050565b60006118ae600a83611b78565b91507f6f6e6c79206f776e6572000000000000000000000000000000000000000000006000830152602082019050919050565b60a0820160008201516118f76000850182611949565b50602082015161190a6020850182611949565b50604082015161191d6040850182611949565b5060608201516119306060850182611949565b5060808201516119436080850182611949565b50505050565b61195281611beb565b82525050565b61196181611beb565b82525050565b600060208201905061197c60008301846117f0565b92915050565b600060208201905061199760008301846117e1565b92915050565b60006060820190506119b260008301866117e1565b6119bf60208301856117f0565b6119cc6040830184611958565b949350505050565b60006060820190506119e960008301866117f0565b6119f660208301856117e1565b611a03604083018461181d565b949350505050565b6000606082019050611a2060008301866117f0565b611a2d60208301856117e1565b611a3a604083018461182c565b949350505050565b6000606082019050611a5760008301866117f0565b611a6460208301856117e1565b611a716040830184611958565b949350505050565b6000602082019050611a8e60008301846117ff565b92915050565b6000602082019050611aa9600083018461180e565b92915050565b60006020820190508181036000830152611ac88161183b565b9050919050565b60006020820190508181036000830152611ae8816118a1565b9050919050565b600060a082019050611b0460008301846118e1565b92915050565b6000602082019050611b1f6000830184611958565b92915050565b600060a082019050611b3a6000830188611958565b611b476020830187611958565b611b546040830186611958565b611b616060830185611958565b611b6e6080830184611958565b9695505050505050565b600082825260208201905092915050565b6000611b9482611bcb565b9050919050565b60008115159050919050565b6000611bb282611b89565b9050919050565b6000611bc482611b89565b9050919050565b600073ffffffffffffffffffffffffffffffffffffffff82169050919050565b6000819050919050565b6000611c0082611c73565b9050919050565b6000611c1282611c19565b9050919050565b6000611c2482611bcb565b9050919050565b6000611c3682611c3d565b9050919050565b6000611c4882611bcb565b9050919050565b6000611c5a82611beb565b9050919050565b6000611c6c82611beb565b9050919050565b6000611c7e82611c85565b9050919050565b6000611c9082611bcb565b9050919050565b611ca081611b89565b8114611cab57600080fd5b50565b611cb781611b9b565b8114611cc257600080fd5b50565b611cce81611ba7565b8114611cd957600080fd5b50565b611ce581611bb9565b8114611cf057600080fd5b50565b611cfc81611beb565b8114611d0757600080fd5b5056fea26469706673582212207e67cb6ff1c667c4ad6af70a817d22ef44e497b4abb45186f8e593531613cd9064736f6c634300060c0033",
					"opcodes": "PUSH1 0x80 PUSH1 0x40 MSTORE CALLVALUE DUP1 ISZERO PUSH2 0x10 JUMPI PUSH1 0x0 DUP1 REVERT JUMPDEST POP PUSH2 0x1D40 DUP1 PUSH2 0x20 PUSH1 0x0 CODECOPY PUSH1 0x0 RETURN INVALID PUSH1 0x80 PUSH1 0x40 MSTORE CALLVALUE DUP1 ISZERO PUSH2 0x10 JUMPI PUSH1 0x0 DUP1 REVERT JUMPDEST POP PUSH1 0x4 CALLDATASIZE LT PUSH2 0xB4 JUMPI PUSH1 0x0 CALLDATALOAD PUSH1 0xE0 SHR DUP1 PUSH4 0x88BB111D GT PUSH2 0x71 JUMPI DUP1 PUSH4 0x88BB111D EQ PUSH2 0x153 JUMPI DUP1 PUSH4 0x8DD81210 EQ PUSH2 0x15D JUMPI DUP1 PUSH4 0xA1333917 EQ PUSH2 0x18D JUMPI DUP1 PUSH4 0xC0C53B8B EQ PUSH2 0x1A9 JUMPI DUP1 PUSH4 0xE20CCEC3 EQ PUSH2 0x1C5 JUMPI DUP1 PUSH4 0xF1765DE7 EQ PUSH2 0x1E7 JUMPI PUSH2 0xB4 JUMP JUMPDEST DUP1 PUSH4 0x2F48AB7D EQ PUSH2 0xB9 JUMPI DUP1 PUSH4 0x4F38C5F5 EQ PUSH2 0xD7 JUMPI DUP1 PUSH4 0x6440C6D8 EQ PUSH2 0xF3 JUMPI DUP1 PUSH4 0x69A01FC8 EQ PUSH2 0x111 JUMPI DUP1 PUSH4 0x6CE41354 EQ PUSH2 0x12D JUMPI DUP1 PUSH4 0x800851D6 EQ PUSH2 0x149 JUMPI JUMPDEST PUSH1 0x0 DUP1 REVERT JUMPDEST PUSH2 0xC1 PUSH2 0x203 JUMP JUMPDEST PUSH1 0x40 MLOAD PUSH2 0xCE SWAP2 SWAP1 PUSH2 0x1A94 JUMP JUMPDEST PUSH1 0x40 MLOAD DUP1 SWAP2 SUB SWAP1 RETURN JUMPDEST PUSH2 0xF1 PUSH1 0x4 DUP1 CALLDATASIZE SUB DUP2 ADD SWAP1 PUSH2 0xEC SWAP2 SWAP1 PUSH2 0x16EE JUMP JUMPDEST PUSH2 0x229 JUMP JUMPDEST STOP JUMPDEST PUSH2 0xFB PUSH2 0x2FD JUMP JUMPDEST PUSH1 0x40 MLOAD PUSH2 0x108 SWAP2 SWAP1 PUSH2 0x1A79 JUMP JUMPDEST PUSH1 0x40 MLOAD DUP1 SWAP2 SUB SWAP1 RETURN JUMPDEST PUSH2 0x12B PUSH1 0x4 DUP1 CALLDATASIZE SUB DUP2 ADD SWAP1 PUSH2 0x126 SWAP2 SWAP1 PUSH2 0x1673 JUMP JUMPDEST PUSH2 0x323 JUMP JUMPDEST STOP JUMPDEST PUSH2 0x147 PUSH1 0x4 DUP1 CALLDATASIZE SUB DUP2 ADD SWAP1 PUSH2 0x142 SWAP2 SWAP1 PUSH2 0x178F JUMP JUMPDEST PUSH2 0x3F7 JUMP JUMPDEST STOP JUMPDEST PUSH2 0x151 PUSH2 0x491 JUMP JUMPDEST STOP JUMPDEST PUSH2 0x15B PUSH2 0x6C7 JUMP JUMPDEST STOP JUMPDEST PUSH2 0x177 PUSH1 0x4 DUP1 CALLDATASIZE SUB DUP2 ADD SWAP1 PUSH2 0x172 SWAP2 SWAP1 PUSH2 0x1673 JUMP JUMPDEST PUSH2 0x8B7 JUMP JUMPDEST PUSH1 0x40 MLOAD PUSH2 0x184 SWAP2 SWAP1 PUSH2 0x1AEF JUMP JUMPDEST PUSH1 0x40 MLOAD DUP1 SWAP2 SUB SWAP1 RETURN JUMPDEST PUSH2 0x1A7 PUSH1 0x4 DUP1 CALLDATASIZE SUB DUP2 ADD SWAP1 PUSH2 0x1A2 SWAP2 SWAP1 PUSH2 0x1766 JUMP JUMPDEST PUSH2 0xB99 JUMP JUMPDEST STOP JUMPDEST PUSH2 0x1C3 PUSH1 0x4 DUP1 CALLDATASIZE SUB DUP2 ADD SWAP1 PUSH2 0x1BE SWAP2 SWAP1 PUSH2 0x1717 JUMP JUMPDEST PUSH2 0xC6D JUMP JUMPDEST STOP JUMPDEST PUSH2 0x1CD PUSH2 0xE64 JUMP JUMPDEST PUSH1 0x40 MLOAD PUSH2 0x1DE SWAP6 SWAP5 SWAP4 SWAP3 SWAP2 SWAP1 PUSH2 0x1B25 JUMP JUMPDEST PUSH1 0x40 MLOAD DUP1 SWAP2 SUB SWAP1 RETURN JUMPDEST PUSH2 0x201 PUSH1 0x4 DUP1 CALLDATASIZE SUB DUP2 ADD SWAP1 PUSH2 0x1FC SWAP2 SWAP1 PUSH2 0x178F JUMP JUMPDEST PUSH2 0xE88 JUMP JUMPDEST STOP JUMPDEST PUSH1 0x3B PUSH1 0x0 SWAP1 SLOAD SWAP1 PUSH2 0x100 EXP SWAP1 DIV PUSH20 0xFFFFFFFFFFFFFFFFFFFFFFFFFFFFFFFFFFFFFFFF AND DUP2 JUMP JUMPDEST CALLER PUSH20 0xFFFFFFFFFFFFFFFFFFFFFFFFFFFFFFFFFFFFFFFF AND PUSH1 0x39 PUSH1 0x0 SWAP1 SLOAD SWAP1 PUSH2 0x100 EXP SWAP1 DIV PUSH20 0xFFFFFFFFFFFFFFFFFFFFFFFFFFFFFFFFFFFFFFFF AND PUSH20 0xFFFFFFFFFFFFFFFFFFFFFFFFFFFFFFFFFFFFFFFF AND EQ PUSH2 0x2B9 JUMPI PUSH1 0x40 MLOAD PUSH32 0x8C379A000000000000000000000000000000000000000000000000000000000 DUP2 MSTORE PUSH1 0x4 ADD PUSH2 0x2B0 SWAP1 PUSH2 0x1ACF JUMP JUMPDEST PUSH1 0x40 MLOAD DUP1 SWAP2 SUB SWAP1 REVERT JUMPDEST DUP1 PUSH1 0x3A PUSH1 0x0 PUSH2 0x100 EXP DUP2 SLOAD DUP2 PUSH20 0xFFFFFFFFFFFFFFFFFFFFFFFFFFFFFFFFFFFFFFFF MUL NOT AND SWAP1 DUP4 PUSH20 0xFFFFFFFFFFFFFFFFFFFFFFFFFFFFFFFFFFFFFFFF AND MUL OR SWAP1 SSTORE POP POP JUMP JUMPDEST PUSH1 0x3A PUSH1 0x0 SWAP1 SLOAD SWAP1 PUSH2 0x100 EXP SWAP1 DIV PUSH20 0xFFFFFFFFFFFFFFFFFFFFFFFFFFFFFFFFFFFFFFFF AND DUP2 JUMP JUMPDEST CALLER PUSH20 0xFFFFFFFFFFFFFFFFFFFFFFFFFFFFFFFFFFFFFFFF AND PUSH1 0x39 PUSH1 0x0 SWAP1 SLOAD SWAP1 PUSH2 0x100 EXP SWAP1 DIV PUSH20 0xFFFFFFFFFFFFFFFFFFFFFFFFFFFFFFFFFFFFFFFF AND PUSH20 0xFFFFFFFFFFFFFFFFFFFFFFFFFFFFFFFFFFFFFFFF AND EQ PUSH2 0x3B3 JUMPI PUSH1 0x40 MLOAD PUSH32 0x8C379A000000000000000000000000000000000000000000000000000000000 DUP2 MSTORE PUSH1 0x4 ADD PUSH2 0x3AA SWAP1 PUSH2 0x1ACF JUMP JUMPDEST PUSH1 0x40 MLOAD DUP1 SWAP2 SUB SWAP1 REVERT JUMPDEST DUP1 PUSH1 0x38 PUSH1 0x0 PUSH2 0x100 EXP DUP2 SLOAD DUP2 PUSH20 0xFFFFFFFFFFFFFFFFFFFFFFFFFFFFFFFFFFFFFFFF MUL NOT AND SWAP1 DUP4 PUSH20 0xFFFFFFFFFFFFFFFFFFFFFFFFFFFFFFFFFFFFFFFF AND MUL OR SWAP1 SSTORE POP POP JUMP JUMPDEST CALLER PUSH20 0xFFFFFFFFFFFFFFFFFFFFFFFFFFFFFFFFFFFFFFFF AND PUSH1 0x39 PUSH1 0x0 SWAP1 SLOAD SWAP1 PUSH2 0x100 EXP SWAP1 DIV PUSH20 0xFFFFFFFFFFFFFFFFFFFFFFFFFFFFFFFFFFFFFFFF AND PUSH20 0xFFFFFFFFFFFFFFFFFFFFFFFFFFFFFFFFFFFFFFFF AND EQ PUSH2 0x487 JUMPI PUSH1 0x40 MLOAD PUSH32 0x8C379A000000000000000000000000000000000000000000000000000000000 DUP2 MSTORE PUSH1 0x4 ADD PUSH2 0x47E SWAP1 PUSH2 0x1ACF JUMP JUMPDEST PUSH1 0x40 MLOAD DUP1 SWAP2 SUB SWAP1 REVERT JUMPDEST DUP1 PUSH1 0x3C DUP2 SWAP1 SSTORE POP POP JUMP JUMPDEST PUSH1 0x0 PUSH2 0x550 PUSH1 0x3D PUSH1 0x0 CALLER PUSH20 0xFFFFFFFFFFFFFFFFFFFFFFFFFFFFFFFFFFFFFFFF AND PUSH20 0xFFFFFFFFFFFFFFFFFFFFFFFFFFFFFFFFFFFFFFFF AND DUP2 MSTORE PUSH1 0x20 ADD SWAP1 DUP2 MSTORE PUSH1 0x20 ADD PUSH1 0x0 KECCAK256 PUSH1 0x3 ADD SLOAD PUSH2 0x542 PUSH1 0x64 PUSH2 0x534 PUSH1 0xA PUSH1 0x3D PUSH1 0x0 CALLER PUSH20 0xFFFFFFFFFFFFFFFFFFFFFFFFFFFFFFFFFFFFFFFF AND PUSH20 0xFFFFFFFFFFFFFFFFFFFFFFFFFFFFFFFFFFFFFFFF AND DUP2 MSTORE PUSH1 0x20 ADD SWAP1 DUP2 MSTORE PUSH1 0x20 ADD PUSH1 0x0 KECCAK256 PUSH1 0x2 ADD SLOAD PUSH2 0x156C SWAP1 SWAP2 SWAP1 PUSH4 0xFFFFFFFF AND JUMP JUMPDEST PUSH2 0x1580 SWAP1 SWAP2 SWAP1 PUSH4 0xFFFFFFFF AND JUMP JUMPDEST PUSH2 0x158D SWAP1 SWAP2 SWAP1 PUSH4 0xFFFFFFFF AND JUMP JUMPDEST SWAP1 POP PUSH1 0x3B PUSH1 0x0 SWAP1 SLOAD SWAP1 PUSH2 0x100 EXP SWAP1 DIV PUSH20 0xFFFFFFFFFFFFFFFFFFFFFFFFFFFFFFFFFFFFFFFF AND PUSH20 0xFFFFFFFFFFFFFFFFFFFFFFFFFFFFFFFFFFFFFFFF AND PUSH4 0x23B872DD PUSH1 0x38 PUSH1 0x0 SWAP1 SLOAD SWAP1 PUSH2 0x100 EXP SWAP1 DIV PUSH20 0xFFFFFFFFFFFFFFFFFFFFFFFFFFFFFFFFFFFFFFFF AND CALLER DUP5 PUSH1 0x40 MLOAD DUP5 PUSH4 0xFFFFFFFF AND PUSH1 0xE0 SHL DUP2 MSTORE PUSH1 0x4 ADD PUSH2 0x5D3 SWAP4 SWAP3 SWAP2 SWAP1 PUSH2 0x1A42 JUMP JUMPDEST PUSH1 0x20 PUSH1 0x40 MLOAD DUP1 DUP4 SUB DUP2 PUSH1 0x0 DUP8 DUP1 EXTCODESIZE ISZERO DUP1 ISZERO PUSH2 0x5ED JUMPI PUSH1 0x0 DUP1 REVERT JUMPDEST POP GAS CALL ISZERO DUP1 ISZERO PUSH2 0x601 JUMPI RETURNDATASIZE PUSH1 0x0 DUP1 RETURNDATACOPY RETURNDATASIZE PUSH1 0x0 REVERT JUMPDEST POP POP POP POP PUSH1 0x40 MLOAD RETURNDATASIZE PUSH1 0x1F NOT PUSH1 0x1F DUP3 ADD AND DUP3 ADD DUP1 PUSH1 0x40 MSTORE POP DUP2 ADD SWAP1 PUSH2 0x625 SWAP2 SWAP1 PUSH2 0x16C5 JUMP JUMPDEST POP DUP1 PUSH1 0x3D PUSH1 0x0 CALLER PUSH20 0xFFFFFFFFFFFFFFFFFFFFFFFFFFFFFFFFFFFFFFFF AND PUSH20 0xFFFFFFFFFFFFFFFFFFFFFFFFFFFFFFFFFFFFFFFF AND DUP2 MSTORE PUSH1 0x20 ADD SWAP1 DUP2 MSTORE PUSH1 0x20 ADD PUSH1 0x0 KECCAK256 PUSH1 0x3 ADD PUSH1 0x0 DUP3 DUP3 SLOAD ADD SWAP3 POP POP DUP2 SWAP1 SSTORE POP CALLER PUSH20 0xFFFFFFFFFFFFFFFFFFFFFFFFFFFFFFFFFFFFFFFF AND PUSH32 0xE76206FC979FFEB5D608DE65C588DBA39DB74E075591960304A761E7BC421A62 DUP3 PUSH1 0x40 MLOAD PUSH2 0x6BC SWAP2 SWAP1 PUSH2 0x1B0A JUMP JUMPDEST PUSH1 0x40 MLOAD DUP1 SWAP2 SUB SWAP1 LOG2 POP JUMP JUMPDEST PUSH1 0x3A PUSH1 0x0 SWAP1 SLOAD SWAP1 PUSH2 0x100 EXP SWAP1 DIV PUSH20 0xFFFFFFFFFFFFFFFFFFFFFFFFFFFFFFFFFFFFFFFF AND PUSH20 0xFFFFFFFFFFFFFFFFFFFFFFFFFFFFFFFFFFFFFFFF AND PUSH4 0x23B872DD PUSH1 0x38 PUSH1 0x0 SWAP1 SLOAD SWAP1 PUSH2 0x100 EXP SWAP1 DIV PUSH20 0xFFFFFFFFFFFFFFFFFFFFFFFFFFFFFFFFFFFFFFFF AND CALLER PUSH1 0x3D PUSH1 0x0 CALLER PUSH20 0xFFFFFFFFFFFFFFFFFFFFFFFFFFFFFFFFFFFFFFFF AND PUSH20 0xFFFFFFFFFFFFFFFFFFFFFFFFFFFFFFFFFFFFFFFF AND DUP2 MSTORE PUSH1 0x20 ADD SWAP1 DUP2 MSTORE PUSH1 0x20 ADD PUSH1 0x0 KECCAK256 PUSH1 0x1 ADD SLOAD PUSH1 0x40 MLOAD DUP5 PUSH4 0xFFFFFFFF AND PUSH1 0xE0 SHL DUP2 MSTORE PUSH1 0x4 ADD PUSH2 0x78A SWAP4 SWAP3 SWAP2 SWAP1 PUSH2 0x1A42 JUMP JUMPDEST PUSH1 0x20 PUSH1 0x40 MLOAD DUP1 DUP4 SUB DUP2 PUSH1 0x0 DUP8 DUP1 EXTCODESIZE ISZERO DUP1 ISZERO PUSH2 0x7A4 JUMPI PUSH1 0x0 DUP1 REVERT JUMPDEST POP GAS CALL ISZERO DUP1 ISZERO PUSH2 0x7B8 JUMPI RETURNDATASIZE PUSH1 0x0 DUP1 RETURNDATACOPY RETURNDATASIZE PUSH1 0x0 REVERT JUMPDEST POP POP POP POP PUSH1 0x40 MLOAD RETURNDATASIZE PUSH1 0x1F NOT PUSH1 0x1F DUP3 ADD AND DUP3 ADD DUP1 PUSH1 0x40 MSTORE POP DUP2 ADD SWAP1 PUSH2 0x7DC SWAP2 SWAP1 PUSH2 0x16C5 JUMP JUMPDEST POP PUSH1 0x0 PUSH1 0x3D PUSH1 0x0 CALLER PUSH20 0xFFFFFFFFFFFFFFFFFFFFFFFFFFFFFFFFFFFFFFFF AND PUSH20 0xFFFFFFFFFFFFFFFFFFFFFFFFFFFFFFFFFFFFFFFF AND DUP2 MSTORE PUSH1 0x20 ADD SWAP1 DUP2 MSTORE PUSH1 0x20 ADD PUSH1 0x0 KECCAK256 PUSH1 0x1 ADD DUP2 SWAP1 SSTORE POP CALLER PUSH20 0xFFFFFFFFFFFFFFFFFFFFFFFFFFFFFFFFFFFFFFFF AND PUSH32 0xC167BD84F1CEAF00E4F292B98DC3F4C77CAA756D292285EAEC79015474C6216 PUSH1 0x3D PUSH1 0x0 CALLER PUSH20 0xFFFFFFFFFFFFFFFFFFFFFFFFFFFFFFFFFFFFFFFF AND PUSH20 0xFFFFFFFFFFFFFFFFFFFFFFFFFFFFFFFFFFFFFFFF AND DUP2 MSTORE PUSH1 0x20 ADD SWAP1 DUP2 MSTORE PUSH1 0x20 ADD PUSH1 0x0 KECCAK256 PUSH1 0x1 ADD SLOAD PUSH1 0x40 MLOAD PUSH2 0x8AD SWAP2 SWAP1 PUSH2 0x1B0A JUMP JUMPDEST PUSH1 0x40 MLOAD DUP1 SWAP2 SUB SWAP1 LOG2 JUMP JUMPDEST PUSH2 0x8BF PUSH2 0x15B1 JUMP JUMPDEST PUSH2 0x91C PUSH8 0xDE0B6B3A7640000 PUSH1 0x3D PUSH1 0x0 DUP6 PUSH20 0xFFFFFFFFFFFFFFFFFFFFFFFFFFFFFFFFFFFFFFFF AND PUSH20 0xFFFFFFFFFFFFFFFFFFFFFFFFFFFFFFFFFFFFFFFF AND DUP2 MSTORE PUSH1 0x20 ADD SWAP1 DUP2 MSTORE PUSH1 0x20 ADD PUSH1 0x0 KECCAK256 PUSH1 0x0 ADD SLOAD PUSH2 0x156C SWAP1 SWAP2 SWAP1 PUSH4 0xFFFFFFFF AND JUMP JUMPDEST PUSH1 0x33 PUSH1 0x0 ADD DUP2 SWAP1 SSTORE POP PUSH2 0x982 PUSH8 0xDE0B6B3A7640000 PUSH1 0x3D PUSH1 0x0 DUP6 PUSH20 0xFFFFFFFFFFFFFFFFFFFFFFFFFFFFFFFFFFFFFFFF AND PUSH20 0xFFFFFFFFFFFFFFFFFFFFFFFFFFFFFFFFFFFFFFFF AND DUP2 MSTORE PUSH1 0x20 ADD SWAP1 DUP2 MSTORE PUSH1 0x20 ADD PUSH1 0x0 KECCAK256 PUSH1 0x1 ADD SLOAD PUSH2 0x156C SWAP1 SWAP2 SWAP1 PUSH4 0xFFFFFFFF AND JUMP JUMPDEST PUSH1 0x33 PUSH1 0x1 ADD DUP2 SWAP1 SSTORE POP PUSH1 0x3D PUSH1 0x0 DUP4 PUSH20 0xFFFFFFFFFFFFFFFFFFFFFFFFFFFFFFFFFFFFFFFF AND PUSH20 0xFFFFFFFFFFFFFFFFFFFFFFFFFFFFFFFFFFFFFFFF AND DUP2 MSTORE PUSH1 0x20 ADD SWAP1 DUP2 MSTORE PUSH1 0x20 ADD PUSH1 0x0 KECCAK256 PUSH1 0x2 ADD SLOAD PUSH1 0x33 PUSH1 0x3 ADD DUP2 SWAP1 SSTORE POP PUSH1 0x3A PUSH1 0x0 SWAP1 SLOAD SWAP1 PUSH2 0x100 EXP SWAP1 DIV PUSH20 0xFFFFFFFFFFFFFFFFFFFFFFFFFFFFFFFFFFFFFFFF AND PUSH20 0xFFFFFFFFFFFFFFFFFFFFFFFFFFFFFFFFFFFFFFFF AND PUSH4 0xF05DF5E2 DUP4 PUSH1 0x40 MLOAD DUP3 PUSH4 0xFFFFFFFF AND PUSH1 0xE0 SHL DUP2 MSTORE PUSH1 0x4 ADD PUSH2 0xA32 SWAP2 SWAP1 PUSH2 0x1967 JUMP JUMPDEST PUSH1 0x20 PUSH1 0x40 MLOAD DUP1 DUP4 SUB DUP2 PUSH1 0x0 DUP8 DUP1 EXTCODESIZE ISZERO DUP1 ISZERO PUSH2 0xA4C JUMPI PUSH1 0x0 DUP1 REVERT JUMPDEST POP GAS CALL ISZERO DUP1 ISZERO PUSH2 0xA60 JUMPI RETURNDATASIZE PUSH1 0x0 DUP1 RETURNDATACOPY RETURNDATASIZE PUSH1 0x0 REVERT JUMPDEST POP POP POP POP PUSH1 0x40 MLOAD RETURNDATASIZE PUSH1 0x1F NOT PUSH1 0x1F DUP3 ADD AND DUP3 ADD DUP1 PUSH1 0x40 MSTORE POP DUP2 ADD SWAP1 PUSH2 0xA84 SWAP2 SWAP1 PUSH2 0x17B8 JUMP JUMPDEST PUSH1 0x33 PUSH1 0x2 ADD DUP2 SWAP1 SSTORE POP PUSH2 0xB4A PUSH1 0x3D PUSH1 0x0 DUP5 PUSH20 0xFFFFFFFFFFFFFFFFFFFFFFFFFFFFFFFFFFFFFFFF AND PUSH20 0xFFFFFFFFFFFFFFFFFFFFFFFFFFFFFFFFFFFFFFFF AND DUP2 MSTORE PUSH1 0x20 ADD SWAP1 DUP2 MSTORE PUSH1 0x20 ADD PUSH1 0x0 KECCAK256 PUSH1 0x3 ADD SLOAD PUSH2 0xB3C PUSH1 0x64 PUSH2 0xB2E PUSH1 0xA PUSH1 0x3D PUSH1 0x0 DUP10 PUSH20 0xFFFFFFFFFFFFFFFFFFFFFFFFFFFFFFFFFFFFFFFF AND PUSH20 0xFFFFFFFFFFFFFFFFFFFFFFFFFFFFFFFFFFFFFFFF AND DUP2 MSTORE PUSH1 0x20 ADD SWAP1 DUP2 MSTORE PUSH1 0x20 ADD PUSH1 0x0 KECCAK256 PUSH1 0x2 ADD SLOAD PUSH2 0x156C SWAP1 SWAP2 SWAP1 PUSH4 0xFFFFFFFF AND JUMP JUMPDEST PUSH2 0x1580 SWAP1 SWAP2 SWAP1 PUSH4 0xFFFFFFFF AND JUMP JUMPDEST PUSH2 0x158D SWAP1 SWAP2 SWAP1 PUSH4 0xFFFFFFFF AND JUMP JUMPDEST PUSH1 0x33 PUSH1 0x4 ADD DUP2 SWAP1 SSTORE POP PUSH1 0x33 PUSH1 0x40 MLOAD DUP1 PUSH1 0xA0 ADD PUSH1 0x40 MSTORE SWAP1 DUP2 PUSH1 0x0 DUP3 ADD SLOAD DUP2 MSTORE PUSH1 0x20 ADD PUSH1 0x1 DUP3 ADD SLOAD DUP2 MSTORE PUSH1 0x20 ADD PUSH1 0x2 DUP3 ADD SLOAD DUP2 MSTORE PUSH1 0x20 ADD PUSH1 0x3 DUP3 ADD SLOAD DUP2 MSTORE PUSH1 0x20 ADD PUSH1 0x4 DUP3 ADD SLOAD DUP2 MSTORE POP POP SWAP1 POP SWAP2 SWAP1 POP JUMP JUMPDEST CALLER PUSH20 0xFFFFFFFFFFFFFFFFFFFFFFFFFFFFFFFFFFFFFFFF AND PUSH1 0x39 PUSH1 0x0 SWAP1 SLOAD SWAP1 PUSH2 0x100 EXP SWAP1 DIV PUSH20 0xFFFFFFFFFFFFFFFFFFFFFFFFFFFFFFFFFFFFFFFF AND PUSH20 0xFFFFFFFFFFFFFFFFFFFFFFFFFFFFFFFFFFFFFFFF AND EQ PUSH2 0xC29 JUMPI PUSH1 0x40 MLOAD PUSH32 0x8C379A000000000000000000000000000000000000000000000000000000000 DUP2 MSTORE PUSH1 0x4 ADD PUSH2 0xC20 SWAP1 PUSH2 0x1ACF JUMP JUMPDEST PUSH1 0x40 MLOAD DUP1 SWAP2 SUB SWAP1 REVERT JUMPDEST DUP1 PUSH1 0x3B PUSH1 0x0 PUSH2 0x100 EXP DUP2 SLOAD DUP2 PUSH20 0xFFFFFFFFFFFFFFFFFFFFFFFFFFFFFFFFFFFFFFFF MUL NOT AND SWAP1 DUP4 PUSH20 0xFFFFFFFFFFFFFFFFFFFFFFFFFFFFFFFFFFFFFFFF AND MUL OR SWAP1 SSTORE POP POP JUMP JUMPDEST PUSH1 0x0 PUSH1 0x1 SWAP1 SLOAD SWAP1 PUSH2 0x100 EXP SWAP1 DIV PUSH1 0xFF AND DUP1 PUSH2 0xC8C JUMPI POP PUSH2 0xC8B PUSH2 0x159A JUMP JUMPDEST JUMPDEST DUP1 PUSH2 0xCA2 JUMPI POP PUSH1 0x0 DUP1 SLOAD SWAP1 PUSH2 0x100 EXP SWAP1 DIV PUSH1 0xFF AND ISZERO JUMPDEST PUSH2 0xCE1 JUMPI PUSH1 0x40 MLOAD PUSH32 0x8C379A000000000000000000000000000000000000000000000000000000000 DUP2 MSTORE PUSH1 0x4 ADD PUSH2 0xCD8 SWAP1 PUSH2 0x1AAF JUMP JUMPDEST PUSH1 0x40 MLOAD DUP1 SWAP2 SUB SWAP1 REVERT JUMPDEST PUSH1 0x0 DUP1 PUSH1 0x1 SWAP1 SLOAD SWAP1 PUSH2 0x100 EXP SWAP1 DIV PUSH1 0xFF AND ISZERO SWAP1 POP DUP1 ISZERO PUSH2 0xD31 JUMPI PUSH1 0x1 PUSH1 0x0 PUSH1 0x1 PUSH2 0x100 EXP DUP2 SLOAD DUP2 PUSH1 0xFF MUL NOT AND SWAP1 DUP4 ISZERO ISZERO MUL OR SWAP1 SSTORE POP PUSH1 0x1 PUSH1 0x0 DUP1 PUSH2 0x100 EXP DUP2 SLOAD DUP2 PUSH1 0xFF MUL NOT AND SWAP1 DUP4 ISZERO ISZERO MUL OR SWAP1 SSTORE POP JUMPDEST DUP4 PUSH1 0x3A PUSH1 0x0 PUSH2 0x100 EXP DUP2 SLOAD DUP2 PUSH20 0xFFFFFFFFFFFFFFFFFFFFFFFFFFFFFFFFFFFFFFFF MUL NOT AND SWAP1 DUP4 PUSH20 0xFFFFFFFFFFFFFFFFFFFFFFFFFFFFFFFFFFFFFFFF AND MUL OR SWAP1 SSTORE POP DUP2 PUSH1 0x38 PUSH1 0x0 PUSH2 0x100 EXP DUP2 SLOAD DUP2 PUSH20 0xFFFFFFFFFFFFFFFFFFFFFFFFFFFFFFFFFFFFFFFF MUL NOT AND SWAP1 DUP4 PUSH20 0xFFFFFFFFFFFFFFFFFFFFFFFFFFFFFFFFFFFFFFFF AND MUL OR SWAP1 SSTORE POP CALLER PUSH1 0x39 PUSH1 0x0 PUSH2 0x100 EXP DUP2 SLOAD DUP2 PUSH20 0xFFFFFFFFFFFFFFFFFFFFFFFFFFFFFFFFFFFFFFFF MUL NOT AND SWAP1 DUP4 PUSH20 0xFFFFFFFFFFFFFFFFFFFFFFFFFFFFFFFFFFFFFFFF AND MUL OR SWAP1 SSTORE POP DUP3 PUSH1 0x3B PUSH1 0x0 PUSH2 0x100 EXP DUP2 SLOAD DUP2 PUSH20 0xFFFFFFFFFFFFFFFFFFFFFFFFFFFFFFFFFFFFFFFF MUL NOT AND SWAP1 DUP4 PUSH20 0xFFFFFFFFFFFFFFFFFFFFFFFFFFFFFFFFFFFFFFFF AND MUL OR SWAP1 SSTORE POP PUSH1 0x1 PUSH1 0x3C DUP2 SWAP1 SSTORE POP DUP1 ISZERO PUSH2 0xE5E JUMPI PUSH1 0x0 DUP1 PUSH1 0x1 PUSH2 0x100 EXP DUP2 SLOAD DUP2 PUSH1 0xFF MUL NOT AND SWAP1 DUP4 ISZERO ISZERO MUL OR SWAP1 SSTORE POP JUMPDEST POP POP POP POP JUMP JUMPDEST PUSH1 0x33 DUP1 PUSH1 0x0 ADD SLOAD SWAP1 DUP1 PUSH1 0x1 ADD SLOAD SWAP1 DUP1 PUSH1 0x2 ADD SLOAD SWAP1 DUP1 PUSH1 0x3 ADD SLOAD SWAP1 DUP1 PUSH1 0x4 ADD SLOAD SWAP1 POP DUP6 JUMP JUMPDEST PUSH1 0x3B PUSH1 0x0 SWAP1 SLOAD SWAP1 PUSH2 0x100 EXP SWAP1 DIV PUSH20 0xFFFFFFFFFFFFFFFFFFFFFFFFFFFFFFFFFFFFFFFF AND PUSH20 0xFFFFFFFFFFFFFFFFFFFFFFFFFFFFFFFFFFFFFFFF AND PUSH4 0x23B872DD CALLER PUSH1 0x38 PUSH1 0x0 SWAP1 SLOAD SWAP1 PUSH2 0x100 EXP SWAP1 DIV PUSH20 0xFFFFFFFFFFFFFFFFFFFFFFFFFFFFFFFFFFFFFFFF AND DUP5 PUSH1 0x40 MLOAD DUP5 PUSH4 0xFFFFFFFF AND PUSH1 0xE0 SHL DUP2 MSTORE PUSH1 0x4 ADD PUSH2 0xF09 SWAP4 SWAP3 SWAP2 SWAP1 PUSH2 0x199D JUMP JUMPDEST PUSH1 0x20 PUSH1 0x40 MLOAD DUP1 DUP4 SUB DUP2 PUSH1 0x0 DUP8 DUP1 EXTCODESIZE ISZERO DUP1 ISZERO PUSH2 0xF23 JUMPI PUSH1 0x0 DUP1 REVERT JUMPDEST POP GAS CALL ISZERO DUP1 ISZERO PUSH2 0xF37 JUMPI RETURNDATASIZE PUSH1 0x0 DUP1 RETURNDATACOPY RETURNDATASIZE PUSH1 0x0 REVERT JUMPDEST POP POP POP POP PUSH1 0x40 MLOAD RETURNDATASIZE PUSH1 0x1F NOT PUSH1 0x1F DUP3 ADD AND DUP3 ADD DUP1 PUSH1 0x40 MSTORE POP DUP2 ADD SWAP1 PUSH2 0xF5B SWAP2 SWAP1 PUSH2 0x16C5 JUMP JUMPDEST POP DUP1 PUSH1 0x3D PUSH1 0x0 CALLER PUSH20 0xFFFFFFFFFFFFFFFFFFFFFFFFFFFFFFFFFFFFFFFF AND PUSH20 0xFFFFFFFFFFFFFFFFFFFFFFFFFFFFFFFFFFFFFFFF AND DUP2 MSTORE PUSH1 0x20 ADD SWAP1 DUP2 MSTORE PUSH1 0x20 ADD PUSH1 0x0 KECCAK256 PUSH1 0x0 ADD PUSH1 0x0 DUP3 DUP3 SLOAD ADD SWAP3 POP POP DUP2 SWAP1 SSTORE POP PUSH10 0x10F0CF064DD59200000 DUP2 EQ ISZERO PUSH2 0x1023 JUMPI PUSH2 0xFD3 PUSH1 0x3C SLOAD DUP3 PUSH2 0x1580 SWAP1 SWAP2 SWAP1 PUSH4 0xFFFFFFFF AND JUMP JUMPDEST PUSH1 0x3D PUSH1 0x0 CALLER PUSH20 0xFFFFFFFFFFFFFFFFFFFFFFFFFFFFFFFFFFFFFFFF AND PUSH20 0xFFFFFFFFFFFFFFFFFFFFFFFFFFFFFFFFFFFFFFFF AND DUP2 MSTORE PUSH1 0x20 ADD SWAP1 DUP2 MSTORE PUSH1 0x20 ADD PUSH1 0x0 KECCAK256 PUSH1 0x1 ADD PUSH1 0x0 DUP3 DUP3 SLOAD ADD SWAP3 POP POP DUP2 SWAP1 SSTORE POP JUMPDEST PUSH10 0x43C33C1937564800000 DUP2 EQ ISZERO PUSH2 0x1164 JUMPI DUP1 PUSH1 0x3D PUSH1 0x0 CALLER PUSH20 0xFFFFFFFFFFFFFFFFFFFFFFFFFFFFFFFFFFFFFFFF AND PUSH20 0xFFFFFFFFFFFFFFFFFFFFFFFFFFFFFFFFFFFFFFFF AND DUP2 MSTORE PUSH1 0x20 ADD SWAP1 DUP2 MSTORE PUSH1 0x20 ADD PUSH1 0x0 KECCAK256 PUSH1 0x1 ADD PUSH1 0x0 DUP3 DUP3 SLOAD ADD SWAP3 POP POP DUP2 SWAP1 SSTORE POP PUSH1 0x3A PUSH1 0x0 SWAP1 SLOAD SWAP1 PUSH2 0x100 EXP SWAP1 DIV PUSH20 0xFFFFFFFFFFFFFFFFFFFFFFFFFFFFFFFFFFFFFFFF AND PUSH20 0xFFFFFFFFFFFFFFFFFFFFFFFFFFFFFFFFFFFFFFFF AND PUSH4 0x23B872DD PUSH1 0x38 PUSH1 0x0 SWAP1 SLOAD SWAP1 PUSH2 0x100 EXP SWAP1 DIV PUSH20 0xFFFFFFFFFFFFFFFFFFFFFFFFFFFFFFFFFFFFFFFF AND CALLER PUSH10 0x43C33C1937564800000 PUSH1 0x40 MLOAD DUP5 PUSH4 0xFFFFFFFF AND PUSH1 0xE0 SHL DUP2 MSTORE PUSH1 0x4 ADD PUSH2 0x1110 SWAP4 SWAP3 SWAP2 SWAP1 PUSH2 0x19D4 JUMP JUMPDEST PUSH1 0x20 PUSH1 0x40 MLOAD DUP1 DUP4 SUB DUP2 PUSH1 0x0 DUP8 DUP1 EXTCODESIZE ISZERO DUP1 ISZERO PUSH2 0x112A JUMPI PUSH1 0x0 DUP1 REVERT JUMPDEST POP GAS CALL ISZERO DUP1 ISZERO PUSH2 0x113E JUMPI RETURNDATASIZE PUSH1 0x0 DUP1 RETURNDATACOPY RETURNDATASIZE PUSH1 0x0 REVERT JUMPDEST POP POP POP POP PUSH1 0x40 MLOAD RETURNDATASIZE PUSH1 0x1F NOT PUSH1 0x1F DUP3 ADD AND DUP3 ADD DUP1 PUSH1 0x40 MSTORE POP DUP2 ADD SWAP1 PUSH2 0x1162 SWAP2 SWAP1 PUSH2 0x16C5 JUMP JUMPDEST POP JUMPDEST PUSH10 0xA968163F0A57B400000 DUP2 EQ ISZERO PUSH2 0x12A5 JUMPI DUP1 PUSH1 0x3D PUSH1 0x0 CALLER PUSH20 0xFFFFFFFFFFFFFFFFFFFFFFFFFFFFFFFFFFFFFFFF AND PUSH20 0xFFFFFFFFFFFFFFFFFFFFFFFFFFFFFFFFFFFFFFFF AND DUP2 MSTORE PUSH1 0x20 ADD SWAP1 DUP2 MSTORE PUSH1 0x20 ADD PUSH1 0x0 KECCAK256 PUSH1 0x1 ADD PUSH1 0x0 DUP3 DUP3 SLOAD ADD SWAP3 POP POP DUP2 SWAP1 SSTORE POP PUSH1 0x3A PUSH1 0x0 SWAP1 SLOAD SWAP1 PUSH2 0x100 EXP SWAP1 DIV PUSH20 0xFFFFFFFFFFFFFFFFFFFFFFFFFFFFFFFFFFFFFFFF AND PUSH20 0xFFFFFFFFFFFFFFFFFFFFFFFFFFFFFFFFFFFFFFFF AND PUSH4 0x23B872DD PUSH1 0x38 PUSH1 0x0 SWAP1 SLOAD SWAP1 PUSH2 0x100 EXP SWAP1 DIV PUSH20 0xFFFFFFFFFFFFFFFFFFFFFFFFFFFFFFFFFFFFFFFF AND CALLER PUSH10 0xA968163F0A57B400000 PUSH1 0x40 MLOAD DUP5 PUSH4 0xFFFFFFFF AND PUSH1 0xE0 SHL DUP2 MSTORE PUSH1 0x4 ADD PUSH2 0x1251 SWAP4 SWAP3 SWAP2 SWAP1 PUSH2 0x1A0B JUMP JUMPDEST PUSH1 0x20 PUSH1 0x40 MLOAD DUP1 DUP4 SUB DUP2 PUSH1 0x0 DUP8 DUP1 EXTCODESIZE ISZERO DUP1 ISZERO PUSH2 0x126B JUMPI PUSH1 0x0 DUP1 REVERT JUMPDEST POP GAS CALL ISZERO DUP1 ISZERO PUSH2 0x127F JUMPI RETURNDATASIZE PUSH1 0x0 DUP1 RETURNDATACOPY RETURNDATASIZE PUSH1 0x0 REVERT JUMPDEST POP POP POP POP PUSH1 0x40 MLOAD RETURNDATASIZE PUSH1 0x1F NOT PUSH1 0x1F DUP3 ADD AND DUP3 ADD DUP1 PUSH1 0x40 MSTORE POP DUP2 ADD SWAP1 PUSH2 0x12A3 SWAP2 SWAP1 PUSH2 0x16C5 JUMP JUMPDEST POP JUMPDEST PUSH1 0x0 PUSH20 0xFFFFFFFFFFFFFFFFFFFFFFFFFFFFFFFFFFFFFFFF AND PUSH1 0x3A PUSH1 0x0 SWAP1 SLOAD SWAP1 PUSH2 0x100 EXP SWAP1 DIV PUSH20 0xFFFFFFFFFFFFFFFFFFFFFFFFFFFFFFFFFFFFFFFF AND PUSH20 0xFFFFFFFFFFFFFFFFFFFFFFFFFFFFFFFFFFFFFFFF AND PUSH4 0x1F5ED1B2 CALLER PUSH1 0x40 MLOAD DUP3 PUSH4 0xFFFFFFFF AND PUSH1 0xE0 SHL DUP2 MSTORE PUSH1 0x4 ADD PUSH2 0x1318 SWAP2 SWAP1 PUSH2 0x1982 JUMP JUMPDEST PUSH1 0x20 PUSH1 0x40 MLOAD DUP1 DUP4 SUB DUP2 PUSH1 0x0 DUP8 DUP1 EXTCODESIZE ISZERO DUP1 ISZERO PUSH2 0x1332 JUMPI PUSH1 0x0 DUP1 REVERT JUMPDEST POP GAS CALL ISZERO DUP1 ISZERO PUSH2 0x1346 JUMPI RETURNDATASIZE PUSH1 0x0 DUP1 RETURNDATACOPY RETURNDATASIZE PUSH1 0x0 REVERT JUMPDEST POP POP POP POP PUSH1 0x40 MLOAD RETURNDATASIZE PUSH1 0x1F NOT PUSH1 0x1F DUP3 ADD AND DUP3 ADD DUP1 PUSH1 0x40 MSTORE POP DUP2 ADD SWAP1 PUSH2 0x136A SWAP2 SWAP1 PUSH2 0x169C JUMP JUMPDEST PUSH20 0xFFFFFFFFFFFFFFFFFFFFFFFFFFFFFFFFFFFFFFFF AND EQ ISZERO DUP1 ISZERO PUSH2 0x13D0 JUMPI POP PUSH1 0x0 PUSH1 0x3D PUSH1 0x0 CALLER PUSH20 0xFFFFFFFFFFFFFFFFFFFFFFFFFFFFFFFFFFFFFFFF AND PUSH20 0xFFFFFFFFFFFFFFFFFFFFFFFFFFFFFFFFFFFFFFFF AND DUP2 MSTORE PUSH1 0x20 ADD SWAP1 DUP2 MSTORE PUSH1 0x20 ADD PUSH1 0x0 KECCAK256 PUSH1 0x4 ADD SLOAD EQ JUMPDEST ISZERO PUSH2 0x151B JUMPI PUSH1 0x1 PUSH1 0x3D PUSH1 0x0 PUSH1 0x3A PUSH1 0x0 SWAP1 SLOAD SWAP1 PUSH2 0x100 EXP SWAP1 DIV PUSH20 0xFFFFFFFFFFFFFFFFFFFFFFFFFFFFFFFFFFFFFFFF AND PUSH20 0xFFFFFFFFFFFFFFFFFFFFFFFFFFFFFFFFFFFFFFFF AND PUSH4 0x1F5ED1B2 CALLER PUSH1 0x40 MLOAD DUP3 PUSH4 0xFFFFFFFF AND PUSH1 0xE0 SHL DUP2 MSTORE PUSH1 0x4 ADD PUSH2 0x1436 SWAP2 SWAP1 PUSH2 0x1982 JUMP JUMPDEST PUSH1 0x20 PUSH1 0x40 MLOAD DUP1 DUP4 SUB DUP2 PUSH1 0x0 DUP8 DUP1 EXTCODESIZE ISZERO DUP1 ISZERO PUSH2 0x1450 JUMPI PUSH1 0x0 DUP1 REVERT JUMPDEST POP GAS CALL ISZERO DUP1 ISZERO PUSH2 0x1464 JUMPI RETURNDATASIZE PUSH1 0x0 DUP1 RETURNDATACOPY RETURNDATASIZE PUSH1 0x0 REVERT JUMPDEST POP POP POP POP PUSH1 0x40 MLOAD RETURNDATASIZE PUSH1 0x1F NOT PUSH1 0x1F DUP3 ADD AND DUP3 ADD DUP1 PUSH1 0x40 MSTORE POP DUP2 ADD SWAP1 PUSH2 0x1488 SWAP2 SWAP1 PUSH2 0x169C JUMP JUMPDEST PUSH20 0xFFFFFFFFFFFFFFFFFFFFFFFFFFFFFFFFFFFFFFFF AND PUSH20 0xFFFFFFFFFFFFFFFFFFFFFFFFFFFFFFFFFFFFFFFF AND DUP2 MSTORE PUSH1 0x20 ADD SWAP1 DUP2 MSTORE PUSH1 0x20 ADD PUSH1 0x0 KECCAK256 PUSH1 0x2 ADD PUSH1 0x0 DUP3 DUP3 SLOAD ADD SWAP3 POP POP DUP2 SWAP1 SSTORE POP PUSH1 0x1 PUSH1 0x3D PUSH1 0x0 CALLER PUSH20 0xFFFFFFFFFFFFFFFFFFFFFFFFFFFFFFFFFFFFFFFF AND PUSH20 0xFFFFFFFFFFFFFFFFFFFFFFFFFFFFFFFFFFFFFFFF AND DUP2 MSTORE PUSH1 0x20 ADD SWAP1 DUP2 MSTORE PUSH1 0x20 ADD PUSH1 0x0 KECCAK256 PUSH1 0x4 ADD DUP2 SWAP1 SSTORE POP JUMPDEST CALLER PUSH20 0xFFFFFFFFFFFFFFFFFFFFFFFFFFFFFFFFFFFFFFFF AND PUSH32 0x6C6526DE39DFAACB57FA46C88B14BE8505D09F56CF193B2AEF29AF27967615BA DUP3 PUSH1 0x40 MLOAD PUSH2 0x1561 SWAP2 SWAP1 PUSH2 0x1B0A JUMP JUMPDEST PUSH1 0x40 MLOAD DUP1 SWAP2 SUB SWAP1 LOG2 POP JUMP JUMPDEST PUSH1 0x0 DUP2 DUP4 DUP2 PUSH2 0x1577 JUMPI INVALID JUMPDEST DIV SWAP1 POP SWAP3 SWAP2 POP POP JUMP JUMPDEST PUSH1 0x0 DUP2 DUP4 MUL SWAP1 POP SWAP3 SWAP2 POP POP JUMP JUMPDEST PUSH1 0x0 DUP2 DUP4 SUB SWAP1 POP SWAP3 SWAP2 POP POP JUMP JUMPDEST PUSH1 0x0 DUP1 ADDRESS SWAP1 POP PUSH1 0x0 DUP2 EXTCODESIZE SWAP1 POP PUSH1 0x0 DUP2 EQ SWAP3 POP POP POP SWAP1 JUMP JUMPDEST PUSH1 0x40 MLOAD DUP1 PUSH1 0xA0 ADD PUSH1 0x40 MSTORE DUP1 PUSH1 0x0 DUP2 MSTORE PUSH1 0x20 ADD PUSH1 0x0 DUP2 MSTORE PUSH1 0x20 ADD PUSH1 0x0 DUP2 MSTORE PUSH1 0x20 ADD PUSH1 0x0 DUP2 MSTORE PUSH1 0x20 ADD PUSH1 0x0 DUP2 MSTORE POP SWAP1 JUMP JUMPDEST PUSH1 0x0 DUP2 CALLDATALOAD SWAP1 POP PUSH2 0x15EF DUP2 PUSH2 0x1C97 JUMP JUMPDEST SWAP3 SWAP2 POP POP JUMP JUMPDEST PUSH1 0x0 DUP2 MLOAD SWAP1 POP PUSH2 0x1604 DUP2 PUSH2 0x1C97 JUMP JUMPDEST SWAP3 SWAP2 POP POP JUMP JUMPDEST PUSH1 0x0 DUP2 MLOAD SWAP1 POP PUSH2 0x1619 DUP2 PUSH2 0x1CAE JUMP JUMPDEST SWAP3 SWAP2 POP POP JUMP JUMPDEST PUSH1 0x0 DUP2 CALLDATALOAD SWAP1 POP PUSH2 0x162E DUP2 PUSH2 0x1CC5 JUMP JUMPDEST SWAP3 SWAP2 POP POP JUMP JUMPDEST PUSH1 0x0 DUP2 CALLDATALOAD SWAP1 POP PUSH2 0x1643 DUP2 PUSH2 0x1CDC JUMP JUMPDEST SWAP3 SWAP2 POP POP JUMP JUMPDEST PUSH1 0x0 DUP2 CALLDATALOAD SWAP1 POP PUSH2 0x1658 DUP2 PUSH2 0x1CF3 JUMP JUMPDEST SWAP3 SWAP2 POP POP JUMP JUMPDEST PUSH1 0x0 DUP2 MLOAD SWAP1 POP PUSH2 0x166D DUP2 PUSH2 0x1CF3 JUMP JUMPDEST SWAP3 SWAP2 POP POP JUMP JUMPDEST PUSH1 0x0 PUSH1 0x20 DUP3 DUP5 SUB SLT ISZERO PUSH2 0x1685 JUMPI PUSH1 0x0 DUP1 REVERT JUMPDEST PUSH1 0x0 PUSH2 0x1693 DUP5 DUP3 DUP6 ADD PUSH2 0x15E0 JUMP JUMPDEST SWAP2 POP POP SWAP3 SWAP2 POP POP JUMP JUMPDEST PUSH1 0x0 PUSH1 0x20 DUP3 DUP5 SUB SLT ISZERO PUSH2 0x16AE JUMPI PUSH1 0x0 DUP1 REVERT JUMPDEST PUSH1 0x0 PUSH2 0x16BC DUP5 DUP3 DUP6 ADD PUSH2 0x15F5 JUMP JUMPDEST SWAP2 POP POP SWAP3 SWAP2 POP POP JUMP JUMPDEST PUSH1 0x0 PUSH1 0x20 DUP3 DUP5 SUB SLT ISZERO PUSH2 0x16D7 JUMPI PUSH1 0x0 DUP1 REVERT JUMPDEST PUSH1 0x0 PUSH2 0x16E5 DUP5 DUP3 DUP6 ADD PUSH2 0x160A JUMP JUMPDEST SWAP2 POP POP SWAP3 SWAP2 POP POP JUMP JUMPDEST PUSH1 0x0 PUSH1 0x20 DUP3 DUP5 SUB SLT ISZERO PUSH2 0x1700 JUMPI PUSH1 0x0 DUP1 REVERT JUMPDEST PUSH1 0x0 PUSH2 0x170E DUP5 DUP3 DUP6 ADD PUSH2 0x161F JUMP JUMPDEST SWAP2 POP POP SWAP3 SWAP2 POP POP JUMP JUMPDEST PUSH1 0x0 DUP1 PUSH1 0x0 PUSH1 0x60 DUP5 DUP7 SUB SLT ISZERO PUSH2 0x172C JUMPI PUSH1 0x0 DUP1 REVERT JUMPDEST PUSH1 0x0 PUSH2 0x173A DUP7 DUP3 DUP8 ADD PUSH2 0x161F JUMP JUMPDEST SWAP4 POP POP PUSH1 0x20 PUSH2 0x174B DUP7 DUP3 DUP8 ADD PUSH2 0x1634 JUMP JUMPDEST SWAP3 POP POP PUSH1 0x40 PUSH2 0x175C DUP7 DUP3 DUP8 ADD PUSH2 0x15E0 JUMP JUMPDEST SWAP2 POP POP SWAP3 POP SWAP3 POP SWAP3 JUMP JUMPDEST PUSH1 0x0 PUSH1 0x20 DUP3 DUP5 SUB SLT ISZERO PUSH2 0x1778 JUMPI PUSH1 0x0 DUP1 REVERT JUMPDEST PUSH1 0x0 PUSH2 0x1786 DUP5 DUP3 DUP6 ADD PUSH2 0x1634 JUMP JUMPDEST SWAP2 POP POP SWAP3 SWAP2 POP POP JUMP JUMPDEST PUSH1 0x0 PUSH1 0x20 DUP3 DUP5 SUB SLT ISZERO PUSH2 0x17A1 JUMPI PUSH1 0x0 DUP1 REVERT JUMPDEST PUSH1 0x0 PUSH2 0x17AF DUP5 DUP3 DUP6 ADD PUSH2 0x1649 JUMP JUMPDEST SWAP2 POP POP SWAP3 SWAP2 POP POP JUMP JUMPDEST PUSH1 0x0 PUSH1 0x20 DUP3 DUP5 SUB SLT ISZERO PUSH2 0x17CA JUMPI PUSH1 0x0 DUP1 REVERT JUMPDEST PUSH1 0x0 PUSH2 0x17D8 DUP5 DUP3 DUP6 ADD PUSH2 0x165E JUMP JUMPDEST SWAP2 POP POP SWAP3 SWAP2 POP POP JUMP JUMPDEST PUSH2 0x17EA DUP2 PUSH2 0x1BF5 JUMP JUMPDEST DUP3 MSTORE POP POP JUMP JUMPDEST PUSH2 0x17F9 DUP2 PUSH2 0x1B89 JUMP JUMPDEST DUP3 MSTORE POP POP JUMP JUMPDEST PUSH2 0x1808 DUP2 PUSH2 0x1C07 JUMP JUMPDEST DUP3 MSTORE POP POP JUMP JUMPDEST PUSH2 0x1817 DUP2 PUSH2 0x1C2B JUMP JUMPDEST DUP3 MSTORE POP POP JUMP JUMPDEST PUSH2 0x1826 DUP2 PUSH2 0x1C4F JUMP JUMPDEST DUP3 MSTORE POP POP JUMP JUMPDEST PUSH2 0x1835 DUP2 PUSH2 0x1C61 JUMP JUMPDEST DUP3 MSTORE POP POP JUMP JUMPDEST PUSH1 0x0 PUSH2 0x1848 PUSH1 0x2E DUP4 PUSH2 0x1B78 JUMP JUMPDEST SWAP2 POP PUSH32 0x436F6E747261637420696E7374616E63652068617320616C7265616479206265 PUSH1 0x0 DUP4 ADD MSTORE PUSH32 0x656E20696E697469616C697A6564000000000000000000000000000000000000 PUSH1 0x20 DUP4 ADD MSTORE PUSH1 0x40 DUP3 ADD SWAP1 POP SWAP2 SWAP1 POP JUMP JUMPDEST PUSH1 0x0 PUSH2 0x18AE PUSH1 0xA DUP4 PUSH2 0x1B78 JUMP JUMPDEST SWAP2 POP PUSH32 0x6F6E6C79206F776E657200000000000000000000000000000000000000000000 PUSH1 0x0 DUP4 ADD MSTORE PUSH1 0x20 DUP3 ADD SWAP1 POP SWAP2 SWAP1 POP JUMP JUMPDEST PUSH1 0xA0 DUP3 ADD PUSH1 0x0 DUP3 ADD MLOAD PUSH2 0x18F7 PUSH1 0x0 DUP6 ADD DUP3 PUSH2 0x1949 JUMP JUMPDEST POP PUSH1 0x20 DUP3 ADD MLOAD PUSH2 0x190A PUSH1 0x20 DUP6 ADD DUP3 PUSH2 0x1949 JUMP JUMPDEST POP PUSH1 0x40 DUP3 ADD MLOAD PUSH2 0x191D PUSH1 0x40 DUP6 ADD DUP3 PUSH2 0x1949 JUMP JUMPDEST POP PUSH1 0x60 DUP3 ADD MLOAD PUSH2 0x1930 PUSH1 0x60 DUP6 ADD DUP3 PUSH2 0x1949 JUMP JUMPDEST POP PUSH1 0x80 DUP3 ADD MLOAD PUSH2 0x1943 PUSH1 0x80 DUP6 ADD DUP3 PUSH2 0x1949 JUMP JUMPDEST POP POP POP POP JUMP JUMPDEST PUSH2 0x1952 DUP2 PUSH2 0x1BEB JUMP JUMPDEST DUP3 MSTORE POP POP JUMP JUMPDEST PUSH2 0x1961 DUP2 PUSH2 0x1BEB JUMP JUMPDEST DUP3 MSTORE POP POP JUMP JUMPDEST PUSH1 0x0 PUSH1 0x20 DUP3 ADD SWAP1 POP PUSH2 0x197C PUSH1 0x0 DUP4 ADD DUP5 PUSH2 0x17F0 JUMP JUMPDEST SWAP3 SWAP2 POP POP JUMP JUMPDEST PUSH1 0x0 PUSH1 0x20 DUP3 ADD SWAP1 POP PUSH2 0x1997 PUSH1 0x0 DUP4 ADD DUP5 PUSH2 0x17E1 JUMP JUMPDEST SWAP3 SWAP2 POP POP JUMP JUMPDEST PUSH1 0x0 PUSH1 0x60 DUP3 ADD SWAP1 POP PUSH2 0x19B2 PUSH1 0x0 DUP4 ADD DUP7 PUSH2 0x17E1 JUMP JUMPDEST PUSH2 0x19BF PUSH1 0x20 DUP4 ADD DUP6 PUSH2 0x17F0 JUMP JUMPDEST PUSH2 0x19CC PUSH1 0x40 DUP4 ADD DUP5 PUSH2 0x1958 JUMP JUMPDEST SWAP5 SWAP4 POP POP POP POP JUMP JUMPDEST PUSH1 0x0 PUSH1 0x60 DUP3 ADD SWAP1 POP PUSH2 0x19E9 PUSH1 0x0 DUP4 ADD DUP7 PUSH2 0x17F0 JUMP JUMPDEST PUSH2 0x19F6 PUSH1 0x20 DUP4 ADD DUP6 PUSH2 0x17E1 JUMP JUMPDEST PUSH2 0x1A03 PUSH1 0x40 DUP4 ADD DUP5 PUSH2 0x181D JUMP JUMPDEST SWAP5 SWAP4 POP POP POP POP JUMP JUMPDEST PUSH1 0x0 PUSH1 0x60 DUP3 ADD SWAP1 POP PUSH2 0x1A20 PUSH1 0x0 DUP4 ADD DUP7 PUSH2 0x17F0 JUMP JUMPDEST PUSH2 0x1A2D PUSH1 0x20 DUP4 ADD DUP6 PUSH2 0x17E1 JUMP JUMPDEST PUSH2 0x1A3A PUSH1 0x40 DUP4 ADD DUP5 PUSH2 0x182C JUMP JUMPDEST SWAP5 SWAP4 POP POP POP POP JUMP JUMPDEST PUSH1 0x0 PUSH1 0x60 DUP3 ADD SWAP1 POP PUSH2 0x1A57 PUSH1 0x0 DUP4 ADD DUP7 PUSH2 0x17F0 JUMP JUMPDEST PUSH2 0x1A64 PUSH1 0x20 DUP4 ADD DUP6 PUSH2 0x17E1 JUMP JUMPDEST PUSH2 0x1A71 PUSH1 0x40 DUP4 ADD DUP5 PUSH2 0x1958 JUMP JUMPDEST SWAP5 SWAP4 POP POP POP POP JUMP JUMPDEST PUSH1 0x0 PUSH1 0x20 DUP3 ADD SWAP1 POP PUSH2 0x1A8E PUSH1 0x0 DUP4 ADD DUP5 PUSH2 0x17FF JUMP JUMPDEST SWAP3 SWAP2 POP POP JUMP JUMPDEST PUSH1 0x0 PUSH1 0x20 DUP3 ADD SWAP1 POP PUSH2 0x1AA9 PUSH1 0x0 DUP4 ADD DUP5 PUSH2 0x180E JUMP JUMPDEST SWAP3 SWAP2 POP POP JUMP JUMPDEST PUSH1 0x0 PUSH1 0x20 DUP3 ADD SWAP1 POP DUP2 DUP2 SUB PUSH1 0x0 DUP4 ADD MSTORE PUSH2 0x1AC8 DUP2 PUSH2 0x183B JUMP JUMPDEST SWAP1 POP SWAP2 SWAP1 POP JUMP JUMPDEST PUSH1 0x0 PUSH1 0x20 DUP3 ADD SWAP1 POP DUP2 DUP2 SUB PUSH1 0x0 DUP4 ADD MSTORE PUSH2 0x1AE8 DUP2 PUSH2 0x18A1 JUMP JUMPDEST SWAP1 POP SWAP2 SWAP1 POP JUMP JUMPDEST PUSH1 0x0 PUSH1 0xA0 DUP3 ADD SWAP1 POP PUSH2 0x1B04 PUSH1 0x0 DUP4 ADD DUP5 PUSH2 0x18E1 JUMP JUMPDEST SWAP3 SWAP2 POP POP JUMP JUMPDEST PUSH1 0x0 PUSH1 0x20 DUP3 ADD SWAP1 POP PUSH2 0x1B1F PUSH1 0x0 DUP4 ADD DUP5 PUSH2 0x1958 JUMP JUMPDEST SWAP3 SWAP2 POP POP JUMP JUMPDEST PUSH1 0x0 PUSH1 0xA0 DUP3 ADD SWAP1 POP PUSH2 0x1B3A PUSH1 0x0 DUP4 ADD DUP9 PUSH2 0x1958 JUMP JUMPDEST PUSH2 0x1B47 PUSH1 0x20 DUP4 ADD DUP8 PUSH2 0x1958 JUMP JUMPDEST PUSH2 0x1B54 PUSH1 0x40 DUP4 ADD DUP7 PUSH2 0x1958 JUMP JUMPDEST PUSH2 0x1B61 PUSH1 0x60 DUP4 ADD DUP6 PUSH2 0x1958 JUMP JUMPDEST PUSH2 0x1B6E PUSH1 0x80 DUP4 ADD DUP5 PUSH2 0x1958 JUMP JUMPDEST SWAP7 SWAP6 POP POP POP POP POP POP JUMP JUMPDEST PUSH1 0x0 DUP3 DUP3 MSTORE PUSH1 0x20 DUP3 ADD SWAP1 POP SWAP3 SWAP2 POP POP JUMP JUMPDEST PUSH1 0x0 PUSH2 0x1B94 DUP3 PUSH2 0x1BCB JUMP JUMPDEST SWAP1 POP SWAP2 SWAP1 POP JUMP JUMPDEST PUSH1 0x0 DUP2 ISZERO ISZERO SWAP1 POP SWAP2 SWAP1 POP JUMP JUMPDEST PUSH1 0x0 PUSH2 0x1BB2 DUP3 PUSH2 0x1B89 JUMP JUMPDEST SWAP1 POP SWAP2 SWAP1 POP JUMP JUMPDEST PUSH1 0x0 PUSH2 0x1BC4 DUP3 PUSH2 0x1B89 JUMP JUMPDEST SWAP1 POP SWAP2 SWAP1 POP JUMP JUMPDEST PUSH1 0x0 PUSH20 0xFFFFFFFFFFFFFFFFFFFFFFFFFFFFFFFFFFFFFFFF DUP3 AND SWAP1 POP SWAP2 SWAP1 POP JUMP JUMPDEST PUSH1 0x0 DUP2 SWAP1 POP SWAP2 SWAP1 POP JUMP JUMPDEST PUSH1 0x0 PUSH2 0x1C00 DUP3 PUSH2 0x1C73 JUMP JUMPDEST SWAP1 POP SWAP2 SWAP1 POP JUMP JUMPDEST PUSH1 0x0 PUSH2 0x1C12 DUP3 PUSH2 0x1C19 JUMP JUMPDEST SWAP1 POP SWAP2 SWAP1 POP JUMP JUMPDEST PUSH1 0x0 PUSH2 0x1C24 DUP3 PUSH2 0x1BCB JUMP JUMPDEST SWAP1 POP SWAP2 SWAP1 POP JUMP JUMPDEST PUSH1 0x0 PUSH2 0x1C36 DUP3 PUSH2 0x1C3D JUMP JUMPDEST SWAP1 POP SWAP2 SWAP1 POP JUMP JUMPDEST PUSH1 0x0 PUSH2 0x1C48 DUP3 PUSH2 0x1BCB JUMP JUMPDEST SWAP1 POP SWAP2 SWAP1 POP JUMP JUMPDEST PUSH1 0x0 PUSH2 0x1C5A DUP3 PUSH2 0x1BEB JUMP JUMPDEST SWAP1 POP SWAP2 SWAP1 POP JUMP JUMPDEST PUSH1 0x0 PUSH2 0x1C6C DUP3 PUSH2 0x1BEB JUMP JUMPDEST SWAP1 POP SWAP2 SWAP1 POP JUMP JUMPDEST PUSH1 0x0 PUSH2 0x1C7E DUP3 PUSH2 0x1C85 JUMP JUMPDEST SWAP1 POP SWAP2 SWAP1 POP JUMP JUMPDEST PUSH1 0x0 PUSH2 0x1C90 DUP3 PUSH2 0x1BCB JUMP JUMPDEST SWAP1 POP SWAP2 SWAP1 POP JUMP JUMPDEST PUSH2 0x1CA0 DUP2 PUSH2 0x1B89 JUMP JUMPDEST DUP2 EQ PUSH2 0x1CAB JUMPI PUSH1 0x0 DUP1 REVERT JUMPDEST POP JUMP JUMPDEST PUSH2 0x1CB7 DUP2 PUSH2 0x1B9B JUMP JUMPDEST DUP2 EQ PUSH2 0x1CC2 JUMPI PUSH1 0x0 DUP1 REVERT JUMPDEST POP JUMP JUMPDEST PUSH2 0x1CCE DUP2 PUSH2 0x1BA7 JUMP JUMPDEST DUP2 EQ PUSH2 0x1CD9 JUMPI PUSH1 0x0 DUP1 REVERT JUMPDEST POP JUMP JUMPDEST PUSH2 0x1CE5 DUP2 PUSH2 0x1BB9 JUMP JUMPDEST DUP2 EQ PUSH2 0x1CF0 JUMPI PUSH1 0x0 DUP1 REVERT JUMPDEST POP JUMP JUMPDEST PUSH2 0x1CFC DUP2 PUSH2 0x1BEB JUMP JUMPDEST DUP2 EQ PUSH2 0x1D07 JUMPI PUSH1 0x0 DUP1 REVERT JUMPDEST POP JUMP INVALID LOG2 PUSH5 0x6970667358 0x22 SLT KECCAK256 PUSH31 0x67CB6FF1C667C4AD6AF70A817D22EF44E497B4ABB45186F8E593531613CD90 PUSH5 0x736F6C6343 STOP MOD 0xC STOP CALLER "
				},
				"gasEstimates": {
					"creation": {
						"codeDepositCost": "1497600",
						"executionCost": "1561",
						"totalCost": "1499161"
					},
					"external": {
						"coffee()": "1302",
						"doIDO(uint256)": "infinite",
						"harvestCoffee()": "infinite",
						"harvestUSDT()": "infinite",
						"initialize(address,address,address)": "infinite",
						"pending()": "infinite",
						"pendingUser(address)": "infinite",
						"updatecoffee(address)": "22258",
						"updatedevelopTeam(address)": "22259",
						"updateidoRewardRatio(uint256)": "21379",
						"updateusdt(address)": "22279",
						"usdt()": "1258"
					}
				},
				"methodIdentifiers": {
					"coffee()": "6440c6d8",
					"doIDO(uint256)": "f1765de7",
					"harvestCoffee()": "88bb111d",
					"harvestUSDT()": "800851d6",
					"initialize(address,address,address)": "c0c53b8b",
					"pending()": "e20ccec3",
					"pendingUser(address)": "8dd81210",
					"updatecoffee(address)": "4f38c5f5",
					"updatedevelopTeam(address)": "69a01fc8",
					"updateidoRewardRatio(uint256)": "6ce41354",
					"updateusdt(address)": "a1333917",
					"usdt()": "2f48ab7d"
				}
			},
			"storageLayout": {
				"storage": [
					{
						"astId": 5,
						"contract": "contracts/IDO.sol:IDO",
						"label": "initialized",
						"offset": 0,
						"slot": "0",
						"type": "t_bool"
					},
					{
						"astId": 8,
						"contract": "contracts/IDO.sol:IDO",
						"label": "initializing",
						"offset": 1,
						"slot": "0",
						"type": "t_bool"
					},
					{
						"astId": 73,
						"contract": "contracts/IDO.sol:IDO",
						"label": "______gap",
						"offset": 0,
						"slot": "1",
						"type": "t_array(t_uint256)50_storage"
					},
					{
						"astId": 521,
						"contract": "contracts/IDO.sol:IDO",
						"label": "pending",
						"offset": 0,
						"slot": "51",
						"type": "t_struct(PENDING)519_storage"
					},
					{
						"astId": 523,
						"contract": "contracts/IDO.sol:IDO",
						"label": "developTeam",
						"offset": 0,
						"slot": "56",
						"type": "t_address"
					},
					{
						"astId": 525,
						"contract": "contracts/IDO.sol:IDO",
						"label": "owner",
						"offset": 0,
						"slot": "57",
						"type": "t_address"
					},
					{
						"astId": 527,
						"contract": "contracts/IDO.sol:IDO",
						"label": "coffee",
						"offset": 0,
						"slot": "58",
						"type": "t_contract(ICoffee)492"
					},
					{
						"astId": 529,
						"contract": "contracts/IDO.sol:IDO",
						"label": "usdt",
						"offset": 0,
						"slot": "59",
						"type": "t_contract(IERC20)149"
					},
					{
						"astId": 531,
						"contract": "contracts/IDO.sol:IDO",
						"label": "idoRewardRatio",
						"offset": 0,
						"slot": "60",
						"type": "t_uint256"
					},
					{
						"astId": 535,
						"contract": "contracts/IDO.sol:IDO",
						"label": "idoUserInfo",
						"offset": 0,
						"slot": "61",
						"type": "t_mapping(t_address,t_struct(IDOUserInfo)508_storage)"
					}
				],
				"types": {
					"t_address": {
						"encoding": "inplace",
						"label": "address",
						"numberOfBytes": "20"
					},
					"t_array(t_uint256)50_storage": {
						"base": "t_uint256",
						"encoding": "inplace",
						"label": "uint256[50]",
						"numberOfBytes": "1600"
					},
					"t_bool": {
						"encoding": "inplace",
						"label": "bool",
						"numberOfBytes": "1"
					},
					"t_contract(ICoffee)492": {
						"encoding": "inplace",
						"label": "contract ICoffee",
						"numberOfBytes": "20"
					},
					"t_contract(IERC20)149": {
						"encoding": "inplace",
						"label": "contract IERC20",
						"numberOfBytes": "20"
					},
					"t_mapping(t_address,t_struct(IDOUserInfo)508_storage)": {
						"encoding": "mapping",
						"key": "t_address",
						"label": "mapping(address => struct IDO.IDOUserInfo)",
						"numberOfBytes": "32",
						"value": "t_struct(IDOUserInfo)508_storage"
					},
					"t_struct(IDOUserInfo)508_storage": {
						"encoding": "inplace",
						"label": "struct IDO.IDOUserInfo",
						"members": [
							{
								"astId": 499,
								"contract": "contracts/IDO.sol:IDO",
								"label": "totalIDO",
								"offset": 0,
								"slot": "0",
								"type": "t_uint256"
							},
							{
								"astId": 501,
								"contract": "contracts/IDO.sol:IDO",
								"label": "totalReward",
								"offset": 0,
								"slot": "1",
								"type": "t_uint256"
							},
							{
								"astId": 503,
								"contract": "contracts/IDO.sol:IDO",
								"label": "totalPromoteAndIDO",
								"offset": 0,
								"slot": "2",
								"type": "t_uint256"
							},
							{
								"astId": 505,
								"contract": "contracts/IDO.sol:IDO",
								"label": "USDTGot",
								"offset": 0,
								"slot": "3",
								"type": "t_uint256"
							},
							{
								"astId": 507,
								"contract": "contracts/IDO.sol:IDO",
								"label": "HigherUpLock",
								"offset": 0,
								"slot": "4",
								"type": "t_uint256"
							}
						],
						"numberOfBytes": "160"
					},
					"t_struct(PENDING)519_storage": {
						"encoding": "inplace",
						"label": "struct IDO.PENDING",
						"members": [
							{
								"astId": 510,
								"contract": "contracts/IDO.sol:IDO",
								"label": "userTotalIDO",
								"offset": 0,
								"slot": "0",
								"type": "t_uint256"
							},
							{
								"astId": 512,
								"contract": "contracts/IDO.sol:IDO",
								"label": "userTotalReward",
								"offset": 0,
								"slot": "1",
								"type": "t_uint256"
							},
							{
								"astId": 514,
								"contract": "contracts/IDO.sol:IDO",
								"label": "userTotalPromote",
								"offset": 0,
								"slot": "2",
								"type": "t_uint256"
							},
							{
								"astId": 516,
								"contract": "contracts/IDO.sol:IDO",
								"label": "userTotalPromoteAndIDO",
								"offset": 0,
								"slot": "3",
								"type": "t_uint256"
							},
							{
								"astId": 518,
								"contract": "contracts/IDO.sol:IDO",
								"label": "userUSDTReward",
								"offset": 0,
								"slot": "4",
								"type": "t_uint256"
							}
						],
						"numberOfBytes": "160"
					},
					"t_uint256": {
						"encoding": "inplace",
						"label": "uint256",
						"numberOfBytes": "32"
					}
				}
			},
			"userdoc": {
				"kind": "user",
				"methods": {},
				"version": 1
			}
		}
	}
}